{
	"rsp_all.sol": {
		"RPS": {
			"abi": [
				{
					"inputs": [],
					"stateMutability": "payable",
					"type": "constructor"
				},
				{
					"inputs": [
						{
							"internalType": "uint256",
							"name": "_hand",
							"type": "uint256"
						},
						{
							"internalType": "address",
							"name": "_owner",
							"type": "address"
						}
					],
					"name": "Hashed_hand",
					"outputs": [
						{
							"internalType": "bytes32",
							"name": "",
							"type": "bytes32"
						}
					],
					"stateMutability": "pure",
					"type": "function"
				},
				{
					"inputs": [
						{
							"internalType": "bytes32",
							"name": "_Hashed_hand",
							"type": "bytes32"
						}
					],
					"name": "createRoom",
					"outputs": [
						{
							"internalType": "uint256",
							"name": "roomNum",
							"type": "uint256"
						}
					],
					"stateMutability": "payable",
					"type": "function"
				},
				{
					"inputs": [
						{
							"internalType": "uint256",
							"name": "roomNum",
							"type": "uint256"
						},
						{
							"internalType": "bytes32",
							"name": "_Hashed_hand",
							"type": "bytes32"
						}
					],
					"name": "joinRoom",
					"outputs": [],
					"stateMutability": "payable",
					"type": "function"
				},
				{
					"inputs": [
						{
							"internalType": "uint256",
							"name": "roomNum",
							"type": "uint256"
						}
					],
					"name": "payout",
					"outputs": [],
					"stateMutability": "payable",
					"type": "function"
				}
			],
			"devdoc": {
				"kind": "dev",
				"methods": {},
				"version": 1
			},
			"evm": {
				"assembly": "    /* \"rsp_all.sol\":56:5221  contract RPS {... */\n  mstore(0x40, 0x80)\n    /* \"rsp_all.sol\":756:757  0 */\n  0x00\n    /* \"rsp_all.sol\":741:757  uint roomLen = 0 */\n  0x01\n  sstore\n    /* \"rsp_all.sol\":56:5221  contract RPS {... */\n  dataSize(sub_0)\n  dup1\n  dataOffset(sub_0)\n  0x00\n  codecopy\n  0x00\n  return\nstop\n\nsub_0: assembly {\n        /* \"rsp_all.sol\":56:5221  contract RPS {... */\n      mstore(0x40, 0x80)\n      jumpi(tag_1, lt(calldatasize, 0x04))\n      shr(0xe0, calldataload(0x00))\n      dup1\n      0x18a92553\n      eq\n      tag_2\n      jumpi\n      dup1\n      0x2e1ca42a\n      eq\n      tag_3\n      jumpi\n      dup1\n      0x52da45e6\n      eq\n      tag_4\n      jumpi\n      dup1\n      0xe1152343\n      eq\n      tag_5\n      jumpi\n    tag_1:\n      0x00\n      dup1\n      revert\n        /* \"rsp_all.sol\":2632:3045  function joinRoom(uint roomNum, bytes32 _Hashed_hand) public payable{... */\n    tag_2:\n      tag_6\n      0x04\n      dup1\n      calldatasize\n      sub\n      dup2\n      add\n      swap1\n      tag_7\n      swap2\n      swap1\n      tag_8\n      jump\t// in\n    tag_7:\n      tag_9\n      jump\t// in\n    tag_6:\n      stop\n        /* \"rsp_all.sol\":1833:2622  function createRoom (bytes32 _Hashed_hand) public payable returns (uint roomNum) {... */\n    tag_3:\n      tag_10\n      0x04\n      dup1\n      calldatasize\n      sub\n      dup2\n      add\n      swap1\n      tag_11\n      swap2\n      swap1\n      tag_12\n      jump\t// in\n    tag_11:\n      tag_13\n      jump\t// in\n    tag_10:\n      mload(0x40)\n      tag_14\n      swap2\n      swap1\n      tag_15\n      jump\t// in\n    tag_14:\n      mload(0x40)\n      dup1\n      swap2\n      sub\n      swap1\n      return\n        /* \"rsp_all.sol\":1174:1378  function Hashed_hand(uint256 _hand, address _owner) public pure returns (bytes32){... */\n    tag_4:\n      callvalue\n      dup1\n      iszero\n      tag_16\n      jumpi\n      0x00\n      dup1\n      revert\n    tag_16:\n      pop\n      tag_17\n      0x04\n      dup1\n      calldatasize\n      sub\n      dup2\n      add\n      swap1\n      tag_18\n      swap2\n      swap1\n      tag_19\n      jump\t// in\n    tag_18:\n      tag_20\n      jump\t// in\n    tag_17:\n      mload(0x40)\n      tag_21\n      swap2\n      swap1\n      tag_22\n      jump\t// in\n    tag_21:\n      mload(0x40)\n      dup1\n      swap2\n      sub\n      swap1\n      return\n        /* \"rsp_all.sol\":3055:4114  function payout(uint roomNum) public payable isPlayer(roomNum, msg.sender) {... */\n    tag_5:\n      tag_23\n      0x04\n      dup1\n      calldatasize\n      sub\n      dup2\n      add\n      swap1\n      tag_24\n      swap2\n      swap1\n      tag_25\n      jump\t// in\n    tag_24:\n      tag_26\n      jump\t// in\n    tag_23:\n      stop\n        /* \"rsp_all.sol\":2632:3045  function joinRoom(uint roomNum, bytes32 _Hashed_hand) public payable{... */\n    tag_9:\n        /* \"rsp_all.sol\":2742:2934  Player({... */\n      mload(0x40)\n      dup1\n      0x80\n      add\n      0x40\n      mstore\n      dup1\n        /* \"rsp_all.sol\":2777:2789  _Hashed_hand */\n      dup3\n        /* \"rsp_all.sol\":2742:2934  Player({... */\n      dup2\n      mstore\n      0x20\n      add\n        /* \"rsp_all.sol\":2817:2827  msg.sender */\n      caller\n        /* \"rsp_all.sol\":2742:2934  Player({... */\n      0xffffffffffffffffffffffffffffffffffffffff\n      and\n      dup2\n      mstore\n      0x20\n      add\n        /* \"rsp_all.sol\":2856:2883  PlayerStatus.STATUS_PENDING */\n      0x03\n        /* \"rsp_all.sol\":2742:2934  Player({... */\n      dup1\n      dup2\n      gt\n      iszero\n      tag_28\n      jumpi\n      tag_29\n      tag_30\n      jump\t// in\n    tag_29:\n    tag_28:\n      dup2\n      mstore\n      0x20\n      add\n        /* \"rsp_all.sol\":2914:2923  msg.value */\n      callvalue\n        /* \"rsp_all.sol\":2742:2934  Player({... */\n      dup2\n      mstore\n      pop\n        /* \"rsp_all.sol\":2719:2724  rooms */\n      0x00\n        /* \"rsp_all.sol\":2719:2733  rooms[roomNum] */\n      dup1\n        /* \"rsp_all.sol\":2725:2732  roomNum */\n      dup5\n        /* \"rsp_all.sol\":2719:2733  rooms[roomNum] */\n      dup2\n      mstore\n      0x20\n      add\n      swap1\n      dup2\n      mstore\n      0x20\n      add\n      0x00\n      keccak256\n        /* \"rsp_all.sol\":2719:2739  rooms[roomNum].taker */\n      0x05\n      add\n        /* \"rsp_all.sol\":2719:2934  rooms[roomNum].taker = Player({... */\n      0x00\n      dup3\n      add\n      mload\n      dup2\n      0x00\n      add\n      sstore\n      0x20\n      dup3\n      add\n      mload\n      dup2\n      0x01\n      add\n      exp(0x0100, 0x00)\n      dup2\n      sload\n      dup2\n      0xffffffffffffffffffffffffffffffffffffffff\n      mul\n      not\n      and\n      swap1\n      dup4\n      0xffffffffffffffffffffffffffffffffffffffff\n      and\n      mul\n      or\n      swap1\n      sstore\n      pop\n      0x40\n      dup3\n      add\n      mload\n      dup2\n      0x01\n      add\n      exp(0x0100, 0x14)\n      dup2\n      sload\n      dup2\n      0xff\n      mul\n      not\n      and\n      swap1\n      dup4\n      0x03\n      dup2\n      gt\n      iszero\n      tag_31\n      jumpi\n      tag_32\n      tag_30\n      jump\t// in\n    tag_32:\n    tag_31:\n      mul\n      or\n      swap1\n      sstore\n      pop\n      0x60\n      dup3\n      add\n      mload\n      dup2\n      0x02\n      add\n      sstore\n      swap1\n      pop\n      pop\n        /* \"rsp_all.sol\":2998:3007  msg.value */\n      callvalue\n        /* \"rsp_all.sol\":2971:2976  rooms */\n      0x00\n        /* \"rsp_all.sol\":2971:2985  rooms[roomNum] */\n      dup1\n        /* \"rsp_all.sol\":2977:2984  roomNum */\n      dup5\n        /* \"rsp_all.sol\":2971:2985  rooms[roomNum] */\n      dup2\n      mstore\n      0x20\n      add\n      swap1\n      dup2\n      mstore\n      0x20\n      add\n      0x00\n      keccak256\n        /* \"rsp_all.sol\":2971:2995  rooms[roomNum].betAmount */\n      0x00\n      add\n      sload\n        /* \"rsp_all.sol\":2971:3007  rooms[roomNum].betAmount + msg.value */\n      tag_33\n      swap2\n      swap1\n      tag_34\n      jump\t// in\n    tag_33:\n        /* \"rsp_all.sol\":2944:2949  rooms */\n      0x00\n        /* \"rsp_all.sol\":2944:2958  rooms[roomNum] */\n      dup1\n        /* \"rsp_all.sol\":2950:2957  roomNum */\n      dup5\n        /* \"rsp_all.sol\":2944:2958  rooms[roomNum] */\n      dup2\n      mstore\n      0x20\n      add\n      swap1\n      dup2\n      mstore\n      0x20\n      add\n      0x00\n      keccak256\n        /* \"rsp_all.sol\":2944:2968  rooms[roomNum].betAmount */\n      0x00\n      add\n        /* \"rsp_all.sol\":2944:3007  rooms[roomNum].betAmount = rooms[roomNum].betAmount + msg.value */\n      dup2\n      swap1\n      sstore\n      pop\n        /* \"rsp_all.sol\":3017:3038  compareHands(roomNum) */\n      tag_35\n        /* \"rsp_all.sol\":3030:3037  roomNum */\n      dup3\n        /* \"rsp_all.sol\":3017:3029  compareHands */\n      tag_36\n        /* \"rsp_all.sol\":3017:3038  compareHands(roomNum) */\n      jump\t// in\n    tag_35:\n        /* \"rsp_all.sol\":2632:3045  function joinRoom(uint roomNum, bytes32 _Hashed_hand) public payable{... */\n      pop\n      pop\n      jump\t// out\n        /* \"rsp_all.sol\":1833:2622  function createRoom (bytes32 _Hashed_hand) public payable returns (uint roomNum) {... */\n    tag_13:\n        /* \"rsp_all.sol\":1900:1912  uint roomNum */\n      0x00\n        /* \"rsp_all.sol\":1941:2526  Game({... */\n      mload(0x40)\n      dup1\n      0x80\n      add\n      0x40\n      mstore\n      dup1\n        /* \"rsp_all.sol\":1971:1980  msg.value */\n      callvalue\n        /* \"rsp_all.sol\":1941:2526  Game({... */\n      dup2\n      mstore\n      0x20\n      add\n        /* \"rsp_all.sol\":2006:2035  GameStatus.STATUS_NOT_STARTED */\n      0x00\n        /* \"rsp_all.sol\":1941:2526  Game({... */\n      0x03\n      dup2\n      gt\n      iszero\n      tag_38\n      jumpi\n      tag_39\n      tag_30\n      jump\t// in\n    tag_39:\n    tag_38:\n      dup2\n      mstore\n      0x20\n      add\n        /* \"rsp_all.sol\":2061:2273  Player({... */\n      mload(0x40)\n      dup1\n      0x80\n      add\n      0x40\n      mstore\n      dup1\n        /* \"rsp_all.sol\":2100:2112  _Hashed_hand */\n      dup6\n        /* \"rsp_all.sol\":2061:2273  Player({... */\n      dup2\n      mstore\n      0x20\n      add\n        /* \"rsp_all.sol\":2144:2154  msg.sender */\n      caller\n        /* \"rsp_all.sol\":2061:2273  Player({... */\n      0xffffffffffffffffffffffffffffffffffffffff\n      and\n      dup2\n      mstore\n      0x20\n      add\n        /* \"rsp_all.sol\":2187:2214  PlayerStatus.STATUS_PENDING */\n      0x03\n        /* \"rsp_all.sol\":2061:2273  Player({... */\n      dup1\n      dup2\n      gt\n      iszero\n      tag_40\n      jumpi\n      tag_41\n      tag_30\n      jump\t// in\n    tag_41:\n    tag_40:\n      dup2\n      mstore\n      0x20\n      add\n        /* \"rsp_all.sol\":2249:2258  msg.value */\n      callvalue\n        /* \"rsp_all.sol\":2061:2273  Player({... */\n      dup2\n      mstore\n      pop\n        /* \"rsp_all.sol\":1941:2526  Game({... */\n      dup2\n      mstore\n      0x20\n      add\n        /* \"rsp_all.sol\":2294:2515  Player({ // will change... */\n      mload(0x40)\n      dup1\n      0x80\n      add\n      0x40\n      mstore\n      dup1\n        /* \"rsp_all.sol\":2348:2360  _Hashed_hand */\n      dup6\n        /* \"rsp_all.sol\":2294:2515  Player({ // will change... */\n      dup2\n      mstore\n      0x20\n      add\n        /* \"rsp_all.sol\":2392:2402  msg.sender */\n      caller\n        /* \"rsp_all.sol\":2294:2515  Player({ // will change... */\n      0xffffffffffffffffffffffffffffffffffffffff\n      and\n      dup2\n      mstore\n      0x20\n      add\n        /* \"rsp_all.sol\":2437:2464  PlayerStatus.STATUS_PENDING */\n      0x03\n        /* \"rsp_all.sol\":2294:2515  Player({ // will change... */\n      dup1\n      dup2\n      gt\n      iszero\n      tag_42\n      jumpi\n      tag_43\n      tag_30\n      jump\t// in\n    tag_43:\n    tag_42:\n      dup2\n      mstore\n      0x20\n      add\n        /* \"rsp_all.sol\":2499:2500  0 */\n      0x00\n        /* \"rsp_all.sol\":2294:2515  Player({ // will change... */\n      dup2\n      mstore\n      pop\n        /* \"rsp_all.sol\":1941:2526  Game({... */\n      dup2\n      mstore\n      pop\n        /* \"rsp_all.sol\":1924:1929  rooms */\n      0x00\n        /* \"rsp_all.sol\":1924:1938  rooms[roomLen] */\n      dup1\n        /* \"rsp_all.sol\":1930:1937  roomLen */\n      sload(0x01)\n        /* \"rsp_all.sol\":1924:1938  rooms[roomLen] */\n      dup2\n      mstore\n      0x20\n      add\n      swap1\n      dup2\n      mstore\n      0x20\n      add\n      0x00\n      keccak256\n        /* \"rsp_all.sol\":1924:2526  rooms[roomLen] = Game({... */\n      0x00\n      dup3\n      add\n      mload\n      dup2\n      0x00\n      add\n      sstore\n      0x20\n      dup3\n      add\n      mload\n      dup2\n      0x01\n      add\n      exp(0x0100, 0x00)\n      dup2\n      sload\n      dup2\n      0xff\n      mul\n      not\n      and\n      swap1\n      dup4\n      0x03\n      dup2\n      gt\n      iszero\n      tag_44\n      jumpi\n      tag_45\n      tag_30\n      jump\t// in\n    tag_45:\n    tag_44:\n      mul\n      or\n      swap1\n      sstore\n      pop\n      0x40\n      dup3\n      add\n      mload\n      dup2\n      0x02\n      add\n      0x00\n      dup3\n      add\n      mload\n      dup2\n      0x00\n      add\n      sstore\n      0x20\n      dup3\n      add\n      mload\n      dup2\n      0x01\n      add\n      exp(0x0100, 0x00)\n      dup2\n      sload\n      dup2\n      0xffffffffffffffffffffffffffffffffffffffff\n      mul\n      not\n      and\n      swap1\n      dup4\n      0xffffffffffffffffffffffffffffffffffffffff\n      and\n      mul\n      or\n      swap1\n      sstore\n      pop\n      0x40\n      dup3\n      add\n      mload\n      dup2\n      0x01\n      add\n      exp(0x0100, 0x14)\n      dup2\n      sload\n      dup2\n      0xff\n      mul\n      not\n      and\n      swap1\n      dup4\n      0x03\n      dup2\n      gt\n      iszero\n      tag_46\n      jumpi\n      tag_47\n      tag_30\n      jump\t// in\n    tag_47:\n    tag_46:\n      mul\n      or\n      swap1\n      sstore\n      pop\n      0x60\n      dup3\n      add\n      mload\n      dup2\n      0x02\n      add\n      sstore\n      pop\n      pop\n      0x60\n      dup3\n      add\n      mload\n      dup2\n      0x05\n      add\n      0x00\n      dup3\n      add\n      mload\n      dup2\n      0x00\n      add\n      sstore\n      0x20\n      dup3\n      add\n      mload\n      dup2\n      0x01\n      add\n      exp(0x0100, 0x00)\n      dup2\n      sload\n      dup2\n      0xffffffffffffffffffffffffffffffffffffffff\n      mul\n      not\n      and\n      swap1\n      dup4\n      0xffffffffffffffffffffffffffffffffffffffff\n      and\n      mul\n      or\n      swap1\n      sstore\n      pop\n      0x40\n      dup3\n      add\n      mload\n      dup2\n      0x01\n      add\n      exp(0x0100, 0x14)\n      dup2\n      sload\n      dup2\n      0xff\n      mul\n      not\n      and\n      swap1\n      dup4\n      0x03\n      dup2\n      gt\n      iszero\n      tag_48\n      jumpi\n      tag_49\n      tag_30\n      jump\t// in\n    tag_49:\n    tag_48:\n      mul\n      or\n      swap1\n      sstore\n      pop\n      0x60\n      dup3\n      add\n      mload\n      dup2\n      0x02\n      add\n      sstore\n      pop\n      pop\n      swap1\n      pop\n      pop\n        /* \"rsp_all.sol\":2546:2553  roomLen */\n      sload(0x01)\n        /* \"rsp_all.sol\":2536:2553  roomNum = roomLen */\n      swap1\n      pop\n        /* \"rsp_all.sol\":2581:2582  1 */\n      0x01\n        /* \"rsp_all.sol\":2573:2580  roomLen */\n      dup1\n      sload\n        /* \"rsp_all.sol\":2573:2582  roomLen+1 */\n      tag_50\n      swap2\n      swap1\n      tag_34\n      jump\t// in\n    tag_50:\n        /* \"rsp_all.sol\":2563:2570  roomLen */\n      0x01\n        /* \"rsp_all.sol\":2563:2582  roomLen = roomLen+1 */\n      dup2\n      swap1\n      sstore\n      pop\n        /* \"rsp_all.sol\":1833:2622  function createRoom (bytes32 _Hashed_hand) public payable returns (uint roomNum) {... */\n      swap2\n      swap1\n      pop\n      jump\t// out\n        /* \"rsp_all.sol\":1174:1378  function Hashed_hand(uint256 _hand, address _owner) public pure returns (bytes32){... */\n    tag_20:\n        /* \"rsp_all.sol\":1247:1254  bytes32 */\n      0x00\n        /* \"rsp_all.sol\":1282:1283  0 */\n      dup1\n        /* \"rsp_all.sol\":1273:1278  _hand */\n      dup4\n        /* \"rsp_all.sol\":1273:1283  _hand == 0 */\n      eq\n        /* \"rsp_all.sol\":1273:1297  _hand == 0 || _hand == 1 */\n      dup1\n      tag_52\n      jumpi\n      pop\n        /* \"rsp_all.sol\":1296:1297  1 */\n      0x01\n        /* \"rsp_all.sol\":1287:1292  _hand */\n      dup4\n        /* \"rsp_all.sol\":1287:1297  _hand == 1 */\n      eq\n        /* \"rsp_all.sol\":1273:1297  _hand == 0 || _hand == 1 */\n    tag_52:\n        /* \"rsp_all.sol\":1273:1311  _hand == 0 || _hand == 1 || _hand == 2 */\n      dup1\n      tag_53\n      jumpi\n      pop\n        /* \"rsp_all.sol\":1310:1311  2 */\n      0x02\n        /* \"rsp_all.sol\":1301:1306  _hand */\n      dup4\n        /* \"rsp_all.sol\":1301:1311  _hand == 2 */\n      eq\n        /* \"rsp_all.sol\":1273:1311  _hand == 0 || _hand == 1 || _hand == 2 */\n    tag_53:\n        /* \"rsp_all.sol\":1265:1312  require(_hand == 0 || _hand == 1 || _hand == 2) */\n      tag_54\n      jumpi\n      0x00\n      dup1\n      revert\n    tag_54:\n        /* \"rsp_all.sol\":1356:1361  _hand */\n      dup3\n        /* \"rsp_all.sol\":1363:1369  _owner */\n      dup3\n        /* \"rsp_all.sol\":1339:1370  abi.encodePacked(_hand, _owner) */\n      add(0x20, mload(0x40))\n      tag_55\n      swap3\n      swap2\n      swap1\n      tag_56\n      jump\t// in\n    tag_55:\n      mload(0x40)\n      0x20\n      dup2\n      dup4\n      sub\n      sub\n      dup2\n      mstore\n      swap1\n      0x40\n      mstore\n        /* \"rsp_all.sol\":1329:1371  keccak256(abi.encodePacked(_hand, _owner)) */\n      dup1\n      mload\n      swap1\n      0x20\n      add\n      keccak256\n        /* \"rsp_all.sol\":1322:1371  return keccak256(abi.encodePacked(_hand, _owner)) */\n      swap1\n      pop\n        /* \"rsp_all.sol\":1174:1378  function Hashed_hand(uint256 _hand, address _owner) public pure returns (bytes32){... */\n      swap3\n      swap2\n      pop\n      pop\n      jump\t// out\n        /* \"rsp_all.sol\":3055:4114  function payout(uint roomNum) public payable isPlayer(roomNum, msg.sender) {... */\n    tag_26:\n        /* \"rsp_all.sol\":3109:3116  roomNum */\n      dup1\n        /* \"rsp_all.sol\":3118:3128  msg.sender */\n      caller\n        /* \"rsp_all.sol\":1076:1081  rooms */\n      0x00\n        /* \"rsp_all.sol\":1076:1090  rooms[roomNum] */\n      dup1\n        /* \"rsp_all.sol\":1082:1089  roomNum */\n      dup4\n        /* \"rsp_all.sol\":1076:1090  rooms[roomNum] */\n      dup2\n      mstore\n      0x20\n      add\n      swap1\n      dup2\n      mstore\n      0x20\n      add\n      0x00\n      keccak256\n        /* \"rsp_all.sol\":1076:1101  rooms[roomNum].originator */\n      0x02\n      add\n        /* \"rsp_all.sol\":1076:1106  rooms[roomNum].originator.addr */\n      0x01\n      add\n      0x00\n      swap1\n      sload\n      swap1\n      0x0100\n      exp\n      swap1\n      div\n      0xffffffffffffffffffffffffffffffffffffffff\n      and\n        /* \"rsp_all.sol\":1066:1106  sender == rooms[roomNum].originator.addr */\n      0xffffffffffffffffffffffffffffffffffffffff\n      and\n        /* \"rsp_all.sol\":1066:1072  sender */\n      dup2\n        /* \"rsp_all.sol\":1066:1106  sender == rooms[roomNum].originator.addr */\n      0xffffffffffffffffffffffffffffffffffffffff\n      and\n      eq\n        /* \"rsp_all.sol\":1066:1145  sender == rooms[roomNum].originator.addr || sender == rooms[roomNum].taker.addr */\n      dup1\n      tag_58\n      jumpi\n      pop\n        /* \"rsp_all.sol\":1120:1125  rooms */\n      0x00\n        /* \"rsp_all.sol\":1120:1134  rooms[roomNum] */\n      dup1\n        /* \"rsp_all.sol\":1126:1133  roomNum */\n      dup4\n        /* \"rsp_all.sol\":1120:1134  rooms[roomNum] */\n      dup2\n      mstore\n      0x20\n      add\n      swap1\n      dup2\n      mstore\n      0x20\n      add\n      0x00\n      keccak256\n        /* \"rsp_all.sol\":1120:1140  rooms[roomNum].taker */\n      0x05\n      add\n        /* \"rsp_all.sol\":1120:1145  rooms[roomNum].taker.addr */\n      0x01\n      add\n      0x00\n      swap1\n      sload\n      swap1\n      0x0100\n      exp\n      swap1\n      div\n      0xffffffffffffffffffffffffffffffffffffffff\n      and\n        /* \"rsp_all.sol\":1110:1145  sender == rooms[roomNum].taker.addr */\n      0xffffffffffffffffffffffffffffffffffffffff\n      and\n        /* \"rsp_all.sol\":1110:1116  sender */\n      dup2\n        /* \"rsp_all.sol\":1110:1145  sender == rooms[roomNum].taker.addr */\n      0xffffffffffffffffffffffffffffffffffffffff\n      and\n      eq\n        /* \"rsp_all.sol\":1066:1145  sender == rooms[roomNum].originator.addr || sender == rooms[roomNum].taker.addr */\n    tag_58:\n        /* \"rsp_all.sol\":1058:1146  require(sender == rooms[roomNum].originator.addr || sender == rooms[roomNum].taker.addr) */\n      tag_59\n      jumpi\n      0x00\n      dup1\n      revert\n    tag_59:\n        /* \"rsp_all.sol\":3186:3209  PlayerStatus.STATUS_TIE */\n      0x02\n        /* \"rsp_all.sol\":3144:3209  rooms[roomNum].originator.playerStatus == PlayerStatus.STATUS_TIE */\n      0x03\n      dup2\n      gt\n      iszero\n      tag_61\n      jumpi\n      tag_62\n      tag_30\n      jump\t// in\n    tag_62:\n    tag_61:\n        /* \"rsp_all.sol\":3144:3149  rooms */\n      0x00\n        /* \"rsp_all.sol\":3144:3158  rooms[roomNum] */\n      dup1\n        /* \"rsp_all.sol\":3150:3157  roomNum */\n      dup6\n        /* \"rsp_all.sol\":3144:3158  rooms[roomNum] */\n      dup2\n      mstore\n      0x20\n      add\n      swap1\n      dup2\n      mstore\n      0x20\n      add\n      0x00\n      keccak256\n        /* \"rsp_all.sol\":3144:3169  rooms[roomNum].originator */\n      0x02\n      add\n        /* \"rsp_all.sol\":3144:3182  rooms[roomNum].originator.playerStatus */\n      0x01\n      add\n      0x14\n      swap1\n      sload\n      swap1\n      0x0100\n      exp\n      swap1\n      div\n      0xff\n      and\n        /* \"rsp_all.sol\":3144:3209  rooms[roomNum].originator.playerStatus == PlayerStatus.STATUS_TIE */\n      0x03\n      dup2\n      gt\n      iszero\n      tag_63\n      jumpi\n      tag_64\n      tag_30\n      jump\t// in\n    tag_64:\n    tag_63:\n      eq\n        /* \"rsp_all.sol\":3144:3273  rooms[roomNum].originator.playerStatus == PlayerStatus.STATUS_TIE && rooms[roomNum].taker.playerStatus == PlayerStatus.STATUS_TIE */\n      dup1\n      iszero\n      tag_65\n      jumpi\n      pop\n        /* \"rsp_all.sol\":3250:3273  PlayerStatus.STATUS_TIE */\n      0x02\n        /* \"rsp_all.sol\":3213:3273  rooms[roomNum].taker.playerStatus == PlayerStatus.STATUS_TIE */\n      0x03\n      dup2\n      gt\n      iszero\n      tag_66\n      jumpi\n      tag_67\n      tag_30\n      jump\t// in\n    tag_67:\n    tag_66:\n        /* \"rsp_all.sol\":3213:3218  rooms */\n      0x00\n        /* \"rsp_all.sol\":3213:3227  rooms[roomNum] */\n      dup1\n        /* \"rsp_all.sol\":3219:3226  roomNum */\n      dup6\n        /* \"rsp_all.sol\":3213:3227  rooms[roomNum] */\n      dup2\n      mstore\n      0x20\n      add\n      swap1\n      dup2\n      mstore\n      0x20\n      add\n      0x00\n      keccak256\n        /* \"rsp_all.sol\":3213:3233  rooms[roomNum].taker */\n      0x05\n      add\n        /* \"rsp_all.sol\":3213:3246  rooms[roomNum].taker.playerStatus */\n      0x01\n      add\n      0x14\n      swap1\n      sload\n      swap1\n      0x0100\n      exp\n      swap1\n      div\n      0xff\n      and\n        /* \"rsp_all.sol\":3213:3273  rooms[roomNum].taker.playerStatus == PlayerStatus.STATUS_TIE */\n      0x03\n      dup2\n      gt\n      iszero\n      tag_68\n      jumpi\n      tag_69\n      tag_30\n      jump\t// in\n    tag_69:\n    tag_68:\n      eq\n        /* \"rsp_all.sol\":3144:3273  rooms[roomNum].originator.playerStatus == PlayerStatus.STATUS_TIE && rooms[roomNum].taker.playerStatus == PlayerStatus.STATUS_TIE */\n    tag_65:\n        /* \"rsp_all.sol\":3140:4043  if (rooms[roomNum].originator.playerStatus == PlayerStatus.STATUS_TIE && rooms[roomNum].taker.playerStatus == PlayerStatus.STATUS_TIE) {... */\n      iszero\n      tag_70\n      jumpi\n        /* \"rsp_all.sol\":3289:3294  rooms */\n      0x00\n        /* \"rsp_all.sol\":3289:3303  rooms[roomNum] */\n      dup1\n        /* \"rsp_all.sol\":3295:3302  roomNum */\n      dup5\n        /* \"rsp_all.sol\":3289:3303  rooms[roomNum] */\n      dup2\n      mstore\n      0x20\n      add\n      swap1\n      dup2\n      mstore\n      0x20\n      add\n      0x00\n      keccak256\n        /* \"rsp_all.sol\":3289:3314  rooms[roomNum].originator */\n      0x02\n      add\n        /* \"rsp_all.sol\":3289:3319  rooms[roomNum].originator.addr */\n      0x01\n      add\n      0x00\n      swap1\n      sload\n      swap1\n      0x0100\n      exp\n      swap1\n      div\n      0xffffffffffffffffffffffffffffffffffffffff\n      and\n        /* \"rsp_all.sol\":3289:3328  rooms[roomNum].originator.addr.transfer */\n      0xffffffffffffffffffffffffffffffffffffffff\n      and\n        /* \"rsp_all.sol\":3289:3371  rooms[roomNum].originator.addr.transfer(rooms[roomNum].originator.playerBetAmount) */\n      0x08fc\n        /* \"rsp_all.sol\":3329:3334  rooms */\n      0x00\n        /* \"rsp_all.sol\":3329:3343  rooms[roomNum] */\n      dup1\n        /* \"rsp_all.sol\":3335:3342  roomNum */\n      dup7\n        /* \"rsp_all.sol\":3329:3343  rooms[roomNum] */\n      dup2\n      mstore\n      0x20\n      add\n      swap1\n      dup2\n      mstore\n      0x20\n      add\n      0x00\n      keccak256\n        /* \"rsp_all.sol\":3329:3354  rooms[roomNum].originator */\n      0x02\n      add\n        /* \"rsp_all.sol\":3329:3370  rooms[roomNum].originator.playerBetAmount */\n      0x02\n      add\n      sload\n        /* \"rsp_all.sol\":3289:3371  rooms[roomNum].originator.addr.transfer(rooms[roomNum].originator.playerBetAmount) */\n      swap1\n      dup2\n      iszero\n      mul\n      swap1\n      mload(0x40)\n      0x00\n      mload(0x40)\n      dup1\n      dup4\n      sub\n      dup2\n      dup6\n      dup9\n      dup9\n      call\n      swap4\n      pop\n      pop\n      pop\n      pop\n      iszero\n      dup1\n      iszero\n      tag_72\n      jumpi\n      returndatasize\n      0x00\n      dup1\n      returndatacopy\n      revert(0x00, returndatasize)\n    tag_72:\n      pop\n        /* \"rsp_all.sol\":3385:3390  rooms */\n      0x00\n        /* \"rsp_all.sol\":3385:3399  rooms[roomNum] */\n      dup1\n        /* \"rsp_all.sol\":3391:3398  roomNum */\n      dup5\n        /* \"rsp_all.sol\":3385:3399  rooms[roomNum] */\n      dup2\n      mstore\n      0x20\n      add\n      swap1\n      dup2\n      mstore\n      0x20\n      add\n      0x00\n      keccak256\n        /* \"rsp_all.sol\":3385:3405  rooms[roomNum].taker */\n      0x05\n      add\n        /* \"rsp_all.sol\":3385:3410  rooms[roomNum].taker.addr */\n      0x01\n      add\n      0x00\n      swap1\n      sload\n      swap1\n      0x0100\n      exp\n      swap1\n      div\n      0xffffffffffffffffffffffffffffffffffffffff\n      and\n        /* \"rsp_all.sol\":3385:3419  rooms[roomNum].taker.addr.transfer */\n      0xffffffffffffffffffffffffffffffffffffffff\n      and\n        /* \"rsp_all.sol\":3385:3457  rooms[roomNum].taker.addr.transfer(rooms[roomNum].taker.playerBetAmount) */\n      0x08fc\n        /* \"rsp_all.sol\":3420:3425  rooms */\n      0x00\n        /* \"rsp_all.sol\":3420:3434  rooms[roomNum] */\n      dup1\n        /* \"rsp_all.sol\":3426:3433  roomNum */\n      dup7\n        /* \"rsp_all.sol\":3420:3434  rooms[roomNum] */\n      dup2\n      mstore\n      0x20\n      add\n      swap1\n      dup2\n      mstore\n      0x20\n      add\n      0x00\n      keccak256\n        /* \"rsp_all.sol\":3420:3440  rooms[roomNum].taker */\n      0x05\n      add\n        /* \"rsp_all.sol\":3420:3456  rooms[roomNum].taker.playerBetAmount */\n      0x02\n      add\n      sload\n        /* \"rsp_all.sol\":3385:3457  rooms[roomNum].taker.addr.transfer(rooms[roomNum].taker.playerBetAmount) */\n      swap1\n      dup2\n      iszero\n      mul\n      swap1\n      mload(0x40)\n      0x00\n      mload(0x40)\n      dup1\n      dup4\n      sub\n      dup2\n      dup6\n      dup9\n      dup9\n      call\n      swap4\n      pop\n      pop\n      pop\n      pop\n      iszero\n      dup1\n      iszero\n      tag_74\n      jumpi\n      returndatasize\n      0x00\n      dup1\n      returndatacopy\n      revert(0x00, returndatasize)\n    tag_74:\n      pop\n        /* \"rsp_all.sol\":3140:4043  if (rooms[roomNum].originator.playerStatus == PlayerStatus.STATUS_TIE && rooms[roomNum].taker.playerStatus == PlayerStatus.STATUS_TIE) {... */\n      jump(tag_75)\n    tag_70:\n        /* \"rsp_all.sol\":3534:3557  PlayerStatus.STATUS_WIN */\n      0x00\n        /* \"rsp_all.sol\":3492:3557  rooms[roomNum].originator.playerStatus == PlayerStatus.STATUS_WIN */\n      0x03\n      dup2\n      gt\n      iszero\n      tag_76\n      jumpi\n      tag_77\n      tag_30\n      jump\t// in\n    tag_77:\n    tag_76:\n        /* \"rsp_all.sol\":3492:3497  rooms */\n      0x00\n        /* \"rsp_all.sol\":3492:3506  rooms[roomNum] */\n      dup1\n        /* \"rsp_all.sol\":3498:3505  roomNum */\n      dup6\n        /* \"rsp_all.sol\":3492:3506  rooms[roomNum] */\n      dup2\n      mstore\n      0x20\n      add\n      swap1\n      dup2\n      mstore\n      0x20\n      add\n      0x00\n      keccak256\n        /* \"rsp_all.sol\":3492:3517  rooms[roomNum].originator */\n      0x02\n      add\n        /* \"rsp_all.sol\":3492:3530  rooms[roomNum].originator.playerStatus */\n      0x01\n      add\n      0x14\n      swap1\n      sload\n      swap1\n      0x0100\n      exp\n      swap1\n      div\n      0xff\n      and\n        /* \"rsp_all.sol\":3492:3557  rooms[roomNum].originator.playerStatus == PlayerStatus.STATUS_WIN */\n      0x03\n      dup2\n      gt\n      iszero\n      tag_78\n      jumpi\n      tag_79\n      tag_30\n      jump\t// in\n    tag_79:\n    tag_78:\n      eq\n        /* \"rsp_all.sol\":3488:4033  if (rooms[roomNum].originator.playerStatus == PlayerStatus.STATUS_WIN) {... */\n      iszero\n      tag_80\n      jumpi\n        /* \"rsp_all.sol\":3577:3582  rooms */\n      0x00\n        /* \"rsp_all.sol\":3577:3591  rooms[roomNum] */\n      dup1\n        /* \"rsp_all.sol\":3583:3590  roomNum */\n      dup5\n        /* \"rsp_all.sol\":3577:3591  rooms[roomNum] */\n      dup2\n      mstore\n      0x20\n      add\n      swap1\n      dup2\n      mstore\n      0x20\n      add\n      0x00\n      keccak256\n        /* \"rsp_all.sol\":3577:3602  rooms[roomNum].originator */\n      0x02\n      add\n        /* \"rsp_all.sol\":3577:3607  rooms[roomNum].originator.addr */\n      0x01\n      add\n      0x00\n      swap1\n      sload\n      swap1\n      0x0100\n      exp\n      swap1\n      div\n      0xffffffffffffffffffffffffffffffffffffffff\n      and\n        /* \"rsp_all.sol\":3577:3616  rooms[roomNum].originator.addr.transfer */\n      0xffffffffffffffffffffffffffffffffffffffff\n      and\n        /* \"rsp_all.sol\":3577:3642  rooms[roomNum].originator.addr.transfer(rooms[roomNum].betAmount) */\n      0x08fc\n        /* \"rsp_all.sol\":3617:3622  rooms */\n      0x00\n        /* \"rsp_all.sol\":3617:3631  rooms[roomNum] */\n      dup1\n        /* \"rsp_all.sol\":3623:3630  roomNum */\n      dup7\n        /* \"rsp_all.sol\":3617:3631  rooms[roomNum] */\n      dup2\n      mstore\n      0x20\n      add\n      swap1\n      dup2\n      mstore\n      0x20\n      add\n      0x00\n      keccak256\n        /* \"rsp_all.sol\":3617:3641  rooms[roomNum].betAmount */\n      0x00\n      add\n      sload\n        /* \"rsp_all.sol\":3577:3642  rooms[roomNum].originator.addr.transfer(rooms[roomNum].betAmount) */\n      swap1\n      dup2\n      iszero\n      mul\n      swap1\n      mload(0x40)\n      0x00\n      mload(0x40)\n      dup1\n      dup4\n      sub\n      dup2\n      dup6\n      dup9\n      dup9\n      call\n      swap4\n      pop\n      pop\n      pop\n      pop\n      iszero\n      dup1\n      iszero\n      tag_82\n      jumpi\n      returndatasize\n      0x00\n      dup1\n      returndatacopy\n      revert(0x00, returndatasize)\n    tag_82:\n      pop\n        /* \"rsp_all.sol\":3488:4033  if (rooms[roomNum].originator.playerStatus == PlayerStatus.STATUS_WIN) {... */\n      jump(tag_83)\n    tag_80:\n        /* \"rsp_all.sol\":3704:3727  PlayerStatus.STATUS_WIN */\n      0x00\n        /* \"rsp_all.sol\":3667:3727  rooms[roomNum].taker.playerStatus == PlayerStatus.STATUS_WIN */\n      0x03\n      dup2\n      gt\n      iszero\n      tag_84\n      jumpi\n      tag_85\n      tag_30\n      jump\t// in\n    tag_85:\n    tag_84:\n        /* \"rsp_all.sol\":3667:3672  rooms */\n      0x00\n        /* \"rsp_all.sol\":3667:3681  rooms[roomNum] */\n      dup1\n        /* \"rsp_all.sol\":3673:3680  roomNum */\n      dup6\n        /* \"rsp_all.sol\":3667:3681  rooms[roomNum] */\n      dup2\n      mstore\n      0x20\n      add\n      swap1\n      dup2\n      mstore\n      0x20\n      add\n      0x00\n      keccak256\n        /* \"rsp_all.sol\":3667:3687  rooms[roomNum].taker */\n      0x05\n      add\n        /* \"rsp_all.sol\":3667:3700  rooms[roomNum].taker.playerStatus */\n      0x01\n      add\n      0x14\n      swap1\n      sload\n      swap1\n      0x0100\n      exp\n      swap1\n      div\n      0xff\n      and\n        /* \"rsp_all.sol\":3667:3727  rooms[roomNum].taker.playerStatus == PlayerStatus.STATUS_WIN */\n      0x03\n      dup2\n      gt\n      iszero\n      tag_86\n      jumpi\n      tag_87\n      tag_30\n      jump\t// in\n    tag_87:\n    tag_86:\n      eq\n        /* \"rsp_all.sol\":3663:4033  if (rooms[roomNum].taker.playerStatus == PlayerStatus.STATUS_WIN) {... */\n      iszero\n      tag_88\n      jumpi\n        /* \"rsp_all.sol\":3747:3752  rooms */\n      0x00\n        /* \"rsp_all.sol\":3747:3761  rooms[roomNum] */\n      dup1\n        /* \"rsp_all.sol\":3753:3760  roomNum */\n      dup5\n        /* \"rsp_all.sol\":3747:3761  rooms[roomNum] */\n      dup2\n      mstore\n      0x20\n      add\n      swap1\n      dup2\n      mstore\n      0x20\n      add\n      0x00\n      keccak256\n        /* \"rsp_all.sol\":3747:3767  rooms[roomNum].taker */\n      0x05\n      add\n        /* \"rsp_all.sol\":3747:3772  rooms[roomNum].taker.addr */\n      0x01\n      add\n      0x00\n      swap1\n      sload\n      swap1\n      0x0100\n      exp\n      swap1\n      div\n      0xffffffffffffffffffffffffffffffffffffffff\n      and\n        /* \"rsp_all.sol\":3747:3781  rooms[roomNum].taker.addr.transfer */\n      0xffffffffffffffffffffffffffffffffffffffff\n      and\n        /* \"rsp_all.sol\":3747:3807  rooms[roomNum].taker.addr.transfer(rooms[roomNum].betAmount) */\n      0x08fc\n        /* \"rsp_all.sol\":3782:3787  rooms */\n      0x00\n        /* \"rsp_all.sol\":3782:3796  rooms[roomNum] */\n      dup1\n        /* \"rsp_all.sol\":3788:3795  roomNum */\n      dup7\n        /* \"rsp_all.sol\":3782:3796  rooms[roomNum] */\n      dup2\n      mstore\n      0x20\n      add\n      swap1\n      dup2\n      mstore\n      0x20\n      add\n      0x00\n      keccak256\n        /* \"rsp_all.sol\":3782:3806  rooms[roomNum].betAmount */\n      0x00\n      add\n      sload\n        /* \"rsp_all.sol\":3747:3807  rooms[roomNum].taker.addr.transfer(rooms[roomNum].betAmount) */\n      swap1\n      dup2\n      iszero\n      mul\n      swap1\n      mload(0x40)\n      0x00\n      mload(0x40)\n      dup1\n      dup4\n      sub\n      dup2\n      dup6\n      dup9\n      dup9\n      call\n      swap4\n      pop\n      pop\n      pop\n      pop\n      iszero\n      dup1\n      iszero\n      tag_90\n      jumpi\n      returndatasize\n      0x00\n      dup1\n      returndatacopy\n      revert(0x00, returndatasize)\n    tag_90:\n      pop\n        /* \"rsp_all.sol\":3663:4033  if (rooms[roomNum].taker.playerStatus == PlayerStatus.STATUS_WIN) {... */\n      jump(tag_91)\n    tag_88:\n        /* \"rsp_all.sol\":3846:3851  rooms */\n      0x00\n        /* \"rsp_all.sol\":3846:3860  rooms[roomNum] */\n      dup1\n        /* \"rsp_all.sol\":3852:3859  roomNum */\n      dup5\n        /* \"rsp_all.sol\":3846:3860  rooms[roomNum] */\n      dup2\n      mstore\n      0x20\n      add\n      swap1\n      dup2\n      mstore\n      0x20\n      add\n      0x00\n      keccak256\n        /* \"rsp_all.sol\":3846:3871  rooms[roomNum].originator */\n      0x02\n      add\n        /* \"rsp_all.sol\":3846:3876  rooms[roomNum].originator.addr */\n      0x01\n      add\n      0x00\n      swap1\n      sload\n      swap1\n      0x0100\n      exp\n      swap1\n      div\n      0xffffffffffffffffffffffffffffffffffffffff\n      and\n        /* \"rsp_all.sol\":3846:3885  rooms[roomNum].originator.addr.transfer */\n      0xffffffffffffffffffffffffffffffffffffffff\n      and\n        /* \"rsp_all.sol\":3846:3928  rooms[roomNum].originator.addr.transfer(rooms[roomNum].originator.playerBetAmount) */\n      0x08fc\n        /* \"rsp_all.sol\":3886:3891  rooms */\n      0x00\n        /* \"rsp_all.sol\":3886:3900  rooms[roomNum] */\n      dup1\n        /* \"rsp_all.sol\":3892:3899  roomNum */\n      dup7\n        /* \"rsp_all.sol\":3886:3900  rooms[roomNum] */\n      dup2\n      mstore\n      0x20\n      add\n      swap1\n      dup2\n      mstore\n      0x20\n      add\n      0x00\n      keccak256\n        /* \"rsp_all.sol\":3886:3911  rooms[roomNum].originator */\n      0x02\n      add\n        /* \"rsp_all.sol\":3886:3927  rooms[roomNum].originator.playerBetAmount */\n      0x02\n      add\n      sload\n        /* \"rsp_all.sol\":3846:3928  rooms[roomNum].originator.addr.transfer(rooms[roomNum].originator.playerBetAmount) */\n      swap1\n      dup2\n      iszero\n      mul\n      swap1\n      mload(0x40)\n      0x00\n      mload(0x40)\n      dup1\n      dup4\n      sub\n      dup2\n      dup6\n      dup9\n      dup9\n      call\n      swap4\n      pop\n      pop\n      pop\n      pop\n      iszero\n      dup1\n      iszero\n      tag_93\n      jumpi\n      returndatasize\n      0x00\n      dup1\n      returndatacopy\n      revert(0x00, returndatasize)\n    tag_93:\n      pop\n        /* \"rsp_all.sol\":3946:3951  rooms */\n      0x00\n        /* \"rsp_all.sol\":3946:3960  rooms[roomNum] */\n      dup1\n        /* \"rsp_all.sol\":3952:3959  roomNum */\n      dup5\n        /* \"rsp_all.sol\":3946:3960  rooms[roomNum] */\n      dup2\n      mstore\n      0x20\n      add\n      swap1\n      dup2\n      mstore\n      0x20\n      add\n      0x00\n      keccak256\n        /* \"rsp_all.sol\":3946:3966  rooms[roomNum].taker */\n      0x05\n      add\n        /* \"rsp_all.sol\":3946:3971  rooms[roomNum].taker.addr */\n      0x01\n      add\n      0x00\n      swap1\n      sload\n      swap1\n      0x0100\n      exp\n      swap1\n      div\n      0xffffffffffffffffffffffffffffffffffffffff\n      and\n        /* \"rsp_all.sol\":3946:3980  rooms[roomNum].taker.addr.transfer */\n      0xffffffffffffffffffffffffffffffffffffffff\n      and\n        /* \"rsp_all.sol\":3946:4018  rooms[roomNum].taker.addr.transfer(rooms[roomNum].taker.playerBetAmount) */\n      0x08fc\n        /* \"rsp_all.sol\":3981:3986  rooms */\n      0x00\n        /* \"rsp_all.sol\":3981:3995  rooms[roomNum] */\n      dup1\n        /* \"rsp_all.sol\":3987:3994  roomNum */\n      dup7\n        /* \"rsp_all.sol\":3981:3995  rooms[roomNum] */\n      dup2\n      mstore\n      0x20\n      add\n      swap1\n      dup2\n      mstore\n      0x20\n      add\n      0x00\n      keccak256\n        /* \"rsp_all.sol\":3981:4001  rooms[roomNum].taker */\n      0x05\n      add\n        /* \"rsp_all.sol\":3981:4017  rooms[roomNum].taker.playerBetAmount */\n      0x02\n      add\n      sload\n        /* \"rsp_all.sol\":3946:4018  rooms[roomNum].taker.addr.transfer(rooms[roomNum].taker.playerBetAmount) */\n      swap1\n      dup2\n      iszero\n      mul\n      swap1\n      mload(0x40)\n      0x00\n      mload(0x40)\n      dup1\n      dup4\n      sub\n      dup2\n      dup6\n      dup9\n      dup9\n      call\n      swap4\n      pop\n      pop\n      pop\n      pop\n      iszero\n      dup1\n      iszero\n      tag_95\n      jumpi\n      returndatasize\n      0x00\n      dup1\n      returndatacopy\n      revert(0x00, returndatasize)\n    tag_95:\n      pop\n        /* \"rsp_all.sol\":3663:4033  if (rooms[roomNum].taker.playerStatus == PlayerStatus.STATUS_WIN) {... */\n    tag_91:\n        /* \"rsp_all.sol\":3488:4033  if (rooms[roomNum].originator.playerStatus == PlayerStatus.STATUS_WIN) {... */\n    tag_83:\n        /* \"rsp_all.sol\":3140:4043  if (rooms[roomNum].originator.playerStatus == PlayerStatus.STATUS_TIE && rooms[roomNum].taker.playerStatus == PlayerStatus.STATUS_TIE) {... */\n    tag_75:\n        /* \"rsp_all.sol\":4081:4107  GameStatus.STATUS_COMPLETE */\n      0x02\n        /* \"rsp_all.sol\":4053:4058  rooms */\n      0x00\n        /* \"rsp_all.sol\":4053:4067  rooms[roomNum] */\n      dup1\n        /* \"rsp_all.sol\":4059:4066  roomNum */\n      dup6\n        /* \"rsp_all.sol\":4053:4067  rooms[roomNum] */\n      dup2\n      mstore\n      0x20\n      add\n      swap1\n      dup2\n      mstore\n      0x20\n      add\n      0x00\n      keccak256\n        /* \"rsp_all.sol\":4053:4078  rooms[roomNum].gameStatus */\n      0x01\n      add\n      0x00\n        /* \"rsp_all.sol\":4053:4107  rooms[roomNum].gameStatus = GameStatus.STATUS_COMPLETE */\n      0x0100\n      exp\n      dup2\n      sload\n      dup2\n      0xff\n      mul\n      not\n      and\n      swap1\n      dup4\n      0x03\n      dup2\n      gt\n      iszero\n      tag_96\n      jumpi\n      tag_97\n      tag_30\n      jump\t// in\n    tag_97:\n    tag_96:\n      mul\n      or\n      swap1\n      sstore\n      pop\n        /* \"rsp_all.sol\":3055:4114  function payout(uint roomNum) public payable isPlayer(roomNum, msg.sender) {... */\n      pop\n      pop\n      pop\n      jump\t// out\n        /* \"rsp_all.sol\":4124:5219  function compareHands(uint roomNum) private{ ... */\n    tag_36:\n        /* \"rsp_all.sol\":4178:4194  uint8 originator */\n      0x00\n        /* \"rsp_all.sol\":4197:4280  decodedHand(rooms[roomNum].originator._Hashed_hand, rooms[roomNum].originator.addr) */\n      tag_99\n        /* \"rsp_all.sol\":4209:4214  rooms */\n      0x00\n        /* \"rsp_all.sol\":4209:4223  rooms[roomNum] */\n      dup1\n        /* \"rsp_all.sol\":4215:4222  roomNum */\n      dup5\n        /* \"rsp_all.sol\":4209:4223  rooms[roomNum] */\n      dup2\n      mstore\n      0x20\n      add\n      swap1\n      dup2\n      mstore\n      0x20\n      add\n      0x00\n      keccak256\n        /* \"rsp_all.sol\":4209:4234  rooms[roomNum].originator */\n      0x02\n      add\n        /* \"rsp_all.sol\":4209:4247  rooms[roomNum].originator._Hashed_hand */\n      0x00\n      add\n      sload\n        /* \"rsp_all.sol\":4249:4254  rooms */\n      0x00\n        /* \"rsp_all.sol\":4249:4263  rooms[roomNum] */\n      dup1\n        /* \"rsp_all.sol\":4255:4262  roomNum */\n      dup6\n        /* \"rsp_all.sol\":4249:4263  rooms[roomNum] */\n      dup2\n      mstore\n      0x20\n      add\n      swap1\n      dup2\n      mstore\n      0x20\n      add\n      0x00\n      keccak256\n        /* \"rsp_all.sol\":4249:4274  rooms[roomNum].originator */\n      0x02\n      add\n        /* \"rsp_all.sol\":4249:4279  rooms[roomNum].originator.addr */\n      0x01\n      add\n      0x00\n      swap1\n      sload\n      swap1\n      0x0100\n      exp\n      swap1\n      div\n      0xffffffffffffffffffffffffffffffffffffffff\n      and\n        /* \"rsp_all.sol\":4197:4208  decodedHand */\n      tag_100\n        /* \"rsp_all.sol\":4197:4280  decodedHand(rooms[roomNum].originator._Hashed_hand, rooms[roomNum].originator.addr) */\n      jump\t// in\n    tag_99:\n        /* \"rsp_all.sol\":4178:4280  uint8 originator = decodedHand(rooms[roomNum].originator._Hashed_hand, rooms[roomNum].originator.addr) */\n      swap1\n      pop\n        /* \"rsp_all.sol\":4290:4301  uint8 taker */\n      0x00\n        /* \"rsp_all.sol\":4304:4377  decodedHand(rooms[roomNum].taker._Hashed_hand, rooms[roomNum].taker.addr) */\n      tag_101\n        /* \"rsp_all.sol\":4316:4321  rooms */\n      0x00\n        /* \"rsp_all.sol\":4316:4330  rooms[roomNum] */\n      dup1\n        /* \"rsp_all.sol\":4322:4329  roomNum */\n      dup6\n        /* \"rsp_all.sol\":4316:4330  rooms[roomNum] */\n      dup2\n      mstore\n      0x20\n      add\n      swap1\n      dup2\n      mstore\n      0x20\n      add\n      0x00\n      keccak256\n        /* \"rsp_all.sol\":4316:4336  rooms[roomNum].taker */\n      0x05\n      add\n        /* \"rsp_all.sol\":4316:4349  rooms[roomNum].taker._Hashed_hand */\n      0x00\n      add\n      sload\n        /* \"rsp_all.sol\":4351:4356  rooms */\n      0x00\n        /* \"rsp_all.sol\":4351:4365  rooms[roomNum] */\n      dup1\n        /* \"rsp_all.sol\":4357:4364  roomNum */\n      dup7\n        /* \"rsp_all.sol\":4351:4365  rooms[roomNum] */\n      dup2\n      mstore\n      0x20\n      add\n      swap1\n      dup2\n      mstore\n      0x20\n      add\n      0x00\n      keccak256\n        /* \"rsp_all.sol\":4351:4371  rooms[roomNum].taker */\n      0x05\n      add\n        /* \"rsp_all.sol\":4351:4376  rooms[roomNum].taker.addr */\n      0x01\n      add\n      0x00\n      swap1\n      sload\n      swap1\n      0x0100\n      exp\n      swap1\n      div\n      0xffffffffffffffffffffffffffffffffffffffff\n      and\n        /* \"rsp_all.sol\":4304:4315  decodedHand */\n      tag_100\n        /* \"rsp_all.sol\":4304:4377  decodedHand(rooms[roomNum].taker._Hashed_hand, rooms[roomNum].taker.addr) */\n      jump\t// in\n    tag_101:\n        /* \"rsp_all.sol\":4290:4377  uint8 taker = decodedHand(rooms[roomNum].taker._Hashed_hand, rooms[roomNum].taker.addr) */\n      swap1\n      pop\n        /* \"rsp_all.sol\":4424:4449  GameStatus.STATUS_STARTED */\n      0x01\n        /* \"rsp_all.sol\":4396:4401  rooms */\n      0x00\n        /* \"rsp_all.sol\":4396:4410  rooms[roomNum] */\n      dup1\n        /* \"rsp_all.sol\":4402:4409  roomNum */\n      dup6\n        /* \"rsp_all.sol\":4396:4410  rooms[roomNum] */\n      dup2\n      mstore\n      0x20\n      add\n      swap1\n      dup2\n      mstore\n      0x20\n      add\n      0x00\n      keccak256\n        /* \"rsp_all.sol\":4396:4421  rooms[roomNum].gameStatus */\n      0x01\n      add\n      0x00\n        /* \"rsp_all.sol\":4396:4449  rooms[roomNum].gameStatus = GameStatus.STATUS_STARTED */\n      0x0100\n      exp\n      dup2\n      sload\n      dup2\n      0xff\n      mul\n      not\n      and\n      swap1\n      dup4\n      0x03\n      dup2\n      gt\n      iszero\n      tag_102\n      jumpi\n      tag_103\n      tag_30\n      jump\t// in\n    tag_103:\n    tag_102:\n      mul\n      or\n      swap1\n      sstore\n      pop\n        /* \"rsp_all.sol\":4490:4500  originator */\n      dup2\n        /* \"rsp_all.sol\":4481:4500  taker == originator */\n      0xff\n      and\n        /* \"rsp_all.sol\":4481:4486  taker */\n      dup2\n        /* \"rsp_all.sol\":4481:4500  taker == originator */\n      0xff\n      and\n      eq\n        /* \"rsp_all.sol\":4477:5204  if (taker == originator){ //draw... */\n      iszero\n      tag_104\n      jumpi\n        /* \"rsp_all.sol\":4563:4586  PlayerStatus.STATUS_TIE */\n      0x02\n        /* \"rsp_all.sol\":4522:4527  rooms */\n      0x00\n        /* \"rsp_all.sol\":4522:4536  rooms[roomNum] */\n      dup1\n        /* \"rsp_all.sol\":4528:4535  roomNum */\n      dup6\n        /* \"rsp_all.sol\":4522:4536  rooms[roomNum] */\n      dup2\n      mstore\n      0x20\n      add\n      swap1\n      dup2\n      mstore\n      0x20\n      add\n      0x00\n      keccak256\n        /* \"rsp_all.sol\":4522:4547  rooms[roomNum].originator */\n      0x02\n      add\n        /* \"rsp_all.sol\":4522:4560  rooms[roomNum].originator.playerStatus */\n      0x01\n      add\n      0x14\n        /* \"rsp_all.sol\":4522:4586  rooms[roomNum].originator.playerStatus = PlayerStatus.STATUS_TIE */\n      0x0100\n      exp\n      dup2\n      sload\n      dup2\n      0xff\n      mul\n      not\n      and\n      swap1\n      dup4\n      0x03\n      dup2\n      gt\n      iszero\n      tag_105\n      jumpi\n      tag_106\n      tag_30\n      jump\t// in\n    tag_106:\n    tag_105:\n      mul\n      or\n      swap1\n      sstore\n      pop\n        /* \"rsp_all.sol\":4636:4659  PlayerStatus.STATUS_TIE */\n      0x02\n        /* \"rsp_all.sol\":4600:4605  rooms */\n      0x00\n        /* \"rsp_all.sol\":4600:4614  rooms[roomNum] */\n      dup1\n        /* \"rsp_all.sol\":4606:4613  roomNum */\n      dup6\n        /* \"rsp_all.sol\":4600:4614  rooms[roomNum] */\n      dup2\n      mstore\n      0x20\n      add\n      swap1\n      dup2\n      mstore\n      0x20\n      add\n      0x00\n      keccak256\n        /* \"rsp_all.sol\":4600:4620  rooms[roomNum].taker */\n      0x05\n      add\n        /* \"rsp_all.sol\":4600:4633  rooms[roomNum].taker.playerStatus */\n      0x01\n      add\n      0x14\n        /* \"rsp_all.sol\":4600:4659  rooms[roomNum].taker.playerStatus = PlayerStatus.STATUS_TIE */\n      0x0100\n      exp\n      dup2\n      sload\n      dup2\n      0xff\n      mul\n      not\n      and\n      swap1\n      dup4\n      0x03\n      dup2\n      gt\n      iszero\n      tag_107\n      jumpi\n      tag_108\n      tag_30\n      jump\t// in\n    tag_108:\n    tag_107:\n      mul\n      or\n      swap1\n      sstore\n      pop\n        /* \"rsp_all.sol\":4477:5204  if (taker == originator){ //draw... */\n      jump(tag_109)\n    tag_104:\n        /* \"rsp_all.sol\":4719:4729  originator */\n      dup2\n        /* \"rsp_all.sol\":4701:4729  (taker +1) % 3 == originator */\n      0xff\n      and\n        /* \"rsp_all.sol\":4714:4715  3 */\n      0x03\n        /* \"rsp_all.sol\":4709:4710  1 */\n      0x01\n        /* \"rsp_all.sol\":4702:4707  taker */\n      dup4\n        /* \"rsp_all.sol\":4702:4710  taker +1 */\n      tag_110\n      swap2\n      swap1\n      tag_111\n      jump\t// in\n    tag_110:\n        /* \"rsp_all.sol\":4701:4715  (taker +1) % 3 */\n      tag_112\n      swap2\n      swap1\n      tag_113\n      jump\t// in\n    tag_112:\n        /* \"rsp_all.sol\":4701:4729  (taker +1) % 3 == originator */\n      0xff\n      and\n      eq\n        /* \"rsp_all.sol\":4697:5204  if ((taker +1) % 3 == originator) { // originator wins... */\n      iszero\n      tag_114\n      jumpi\n        /* \"rsp_all.sol\":4805:4828  PlayerStatus.STATUS_WIN */\n      0x00\n        /* \"rsp_all.sol\":4764:4769  rooms */\n      dup1\n        /* \"rsp_all.sol\":4764:4778  rooms[roomNum] */\n      0x00\n        /* \"rsp_all.sol\":4770:4777  roomNum */\n      dup6\n        /* \"rsp_all.sol\":4764:4778  rooms[roomNum] */\n      dup2\n      mstore\n      0x20\n      add\n      swap1\n      dup2\n      mstore\n      0x20\n      add\n      0x00\n      keccak256\n        /* \"rsp_all.sol\":4764:4789  rooms[roomNum].originator */\n      0x02\n      add\n        /* \"rsp_all.sol\":4764:4802  rooms[roomNum].originator.playerStatus */\n      0x01\n      add\n      0x14\n        /* \"rsp_all.sol\":4764:4828  rooms[roomNum].originator.playerStatus = PlayerStatus.STATUS_WIN */\n      0x0100\n      exp\n      dup2\n      sload\n      dup2\n      0xff\n      mul\n      not\n      and\n      swap1\n      dup4\n      0x03\n      dup2\n      gt\n      iszero\n      tag_115\n      jumpi\n      tag_116\n      tag_30\n      jump\t// in\n    tag_116:\n    tag_115:\n      mul\n      or\n      swap1\n      sstore\n      pop\n        /* \"rsp_all.sol\":4878:4902  PlayerStatus.STATUS_LOSE */\n      0x01\n        /* \"rsp_all.sol\":4842:4847  rooms */\n      0x00\n        /* \"rsp_all.sol\":4842:4856  rooms[roomNum] */\n      dup1\n        /* \"rsp_all.sol\":4848:4855  roomNum */\n      dup6\n        /* \"rsp_all.sol\":4842:4856  rooms[roomNum] */\n      dup2\n      mstore\n      0x20\n      add\n      swap1\n      dup2\n      mstore\n      0x20\n      add\n      0x00\n      keccak256\n        /* \"rsp_all.sol\":4842:4862  rooms[roomNum].taker */\n      0x05\n      add\n        /* \"rsp_all.sol\":4842:4875  rooms[roomNum].taker.playerStatus */\n      0x01\n      add\n      0x14\n        /* \"rsp_all.sol\":4842:4902  rooms[roomNum].taker.playerStatus = PlayerStatus.STATUS_LOSE */\n      0x0100\n      exp\n      dup2\n      sload\n      dup2\n      0xff\n      mul\n      not\n      and\n      swap1\n      dup4\n      0x03\n      dup2\n      gt\n      iszero\n      tag_117\n      jumpi\n      tag_118\n      tag_30\n      jump\t// in\n    tag_118:\n    tag_117:\n      mul\n      or\n      swap1\n      sstore\n      pop\n        /* \"rsp_all.sol\":4697:5204  if ((taker +1) % 3 == originator) { // originator wins... */\n      jump(tag_119)\n    tag_114:\n        /* \"rsp_all.sol\":4953:4958  taker */\n      dup1\n        /* \"rsp_all.sol\":4931:4958  (originator + 1)%3 == taker */\n      0xff\n      and\n        /* \"rsp_all.sol\":4948:4949  3 */\n      0x03\n        /* \"rsp_all.sol\":4945:4946  1 */\n      0x01\n        /* \"rsp_all.sol\":4932:4942  originator */\n      dup5\n        /* \"rsp_all.sol\":4932:4946  originator + 1 */\n      tag_120\n      swap2\n      swap1\n      tag_111\n      jump\t// in\n    tag_120:\n        /* \"rsp_all.sol\":4931:4949  (originator + 1)%3 */\n      tag_121\n      swap2\n      swap1\n      tag_113\n      jump\t// in\n    tag_121:\n        /* \"rsp_all.sol\":4931:4958  (originator + 1)%3 == taker */\n      0xff\n      and\n      eq\n        /* \"rsp_all.sol\":4927:5204  if ((originator + 1)%3 == taker){... */\n      iszero\n      tag_122\n      jumpi\n        /* \"rsp_all.sol\":5014:5038  PlayerStatus.STATUS_LOSE */\n      0x01\n        /* \"rsp_all.sol\":4973:4978  rooms */\n      0x00\n        /* \"rsp_all.sol\":4973:4987  rooms[roomNum] */\n      dup1\n        /* \"rsp_all.sol\":4979:4986  roomNum */\n      dup6\n        /* \"rsp_all.sol\":4973:4987  rooms[roomNum] */\n      dup2\n      mstore\n      0x20\n      add\n      swap1\n      dup2\n      mstore\n      0x20\n      add\n      0x00\n      keccak256\n        /* \"rsp_all.sol\":4973:4998  rooms[roomNum].originator */\n      0x02\n      add\n        /* \"rsp_all.sol\":4973:5011  rooms[roomNum].originator.playerStatus */\n      0x01\n      add\n      0x14\n        /* \"rsp_all.sol\":4973:5038  rooms[roomNum].originator.playerStatus = PlayerStatus.STATUS_LOSE */\n      0x0100\n      exp\n      dup2\n      sload\n      dup2\n      0xff\n      mul\n      not\n      and\n      swap1\n      dup4\n      0x03\n      dup2\n      gt\n      iszero\n      tag_123\n      jumpi\n      tag_124\n      tag_30\n      jump\t// in\n    tag_124:\n    tag_123:\n      mul\n      or\n      swap1\n      sstore\n      pop\n        /* \"rsp_all.sol\":5088:5111  PlayerStatus.STATUS_WIN */\n      0x00\n        /* \"rsp_all.sol\":5052:5057  rooms */\n      dup1\n        /* \"rsp_all.sol\":5052:5066  rooms[roomNum] */\n      0x00\n        /* \"rsp_all.sol\":5058:5065  roomNum */\n      dup6\n        /* \"rsp_all.sol\":5052:5066  rooms[roomNum] */\n      dup2\n      mstore\n      0x20\n      add\n      swap1\n      dup2\n      mstore\n      0x20\n      add\n      0x00\n      keccak256\n        /* \"rsp_all.sol\":5052:5072  rooms[roomNum].taker */\n      0x05\n      add\n        /* \"rsp_all.sol\":5052:5085  rooms[roomNum].taker.playerStatus */\n      0x01\n      add\n      0x14\n        /* \"rsp_all.sol\":5052:5111  rooms[roomNum].taker.playerStatus = PlayerStatus.STATUS_WIN */\n      0x0100\n      exp\n      dup2\n      sload\n      dup2\n      0xff\n      mul\n      not\n      and\n      swap1\n      dup4\n      0x03\n      dup2\n      gt\n      iszero\n      tag_125\n      jumpi\n      tag_126\n      tag_30\n      jump\t// in\n    tag_126:\n    tag_125:\n      mul\n      or\n      swap1\n      sstore\n      pop\n        /* \"rsp_all.sol\":4927:5204  if ((originator + 1)%3 == taker){... */\n      jump(tag_127)\n    tag_122:\n        /* \"rsp_all.sol\":5170:5193  GameStatus.STATUS_ERROR */\n      0x03\n        /* \"rsp_all.sol\":5142:5147  rooms */\n      0x00\n        /* \"rsp_all.sol\":5142:5156  rooms[roomNum] */\n      dup1\n        /* \"rsp_all.sol\":5148:5155  roomNum */\n      dup6\n        /* \"rsp_all.sol\":5142:5156  rooms[roomNum] */\n      dup2\n      mstore\n      0x20\n      add\n      swap1\n      dup2\n      mstore\n      0x20\n      add\n      0x00\n      keccak256\n        /* \"rsp_all.sol\":5142:5167  rooms[roomNum].gameStatus */\n      0x01\n      add\n      0x00\n        /* \"rsp_all.sol\":5142:5193  rooms[roomNum].gameStatus = GameStatus.STATUS_ERROR */\n      0x0100\n      exp\n      dup2\n      sload\n      dup2\n      0xff\n      mul\n      not\n      and\n      swap1\n      dup4\n      0x03\n      dup2\n      gt\n      iszero\n      tag_128\n      jumpi\n      tag_129\n      tag_30\n      jump\t// in\n    tag_129:\n    tag_128:\n      mul\n      or\n      swap1\n      sstore\n      pop\n        /* \"rsp_all.sol\":4927:5204  if ((originator + 1)%3 == taker){... */\n    tag_127:\n        /* \"rsp_all.sol\":4697:5204  if ((taker +1) % 3 == originator) { // originator wins... */\n    tag_119:\n        /* \"rsp_all.sol\":4477:5204  if (taker == originator){ //draw... */\n    tag_109:\n        /* \"rsp_all.sol\":4167:5219  { ... */\n      pop\n      pop\n        /* \"rsp_all.sol\":4124:5219  function compareHands(uint roomNum) private{ ... */\n      pop\n      jump\t// out\n        /* \"rsp_all.sol\":1384:1823  function decodedHand(bytes32 _Hashed_hand, address playerAddress)private pure returns (uint8 _decodedHand){... */\n    tag_100:\n        /* \"rsp_all.sol\":1471:1489  uint8 _decodedHand */\n      0x00\n        /* \"rsp_all.sol\":1520:1549  Hashed_hand(0, playerAddress) */\n      tag_131\n        /* \"rsp_all.sol\":1532:1533  0 */\n      0x00\n        /* \"rsp_all.sol\":1535:1548  playerAddress */\n      dup4\n        /* \"rsp_all.sol\":1520:1531  Hashed_hand */\n      tag_20\n        /* \"rsp_all.sol\":1520:1549  Hashed_hand(0, playerAddress) */\n      jump\t// in\n    tag_131:\n        /* \"rsp_all.sol\":1504:1516  _Hashed_hand */\n      dup4\n        /* \"rsp_all.sol\":1504:1549  _Hashed_hand == Hashed_hand(0, playerAddress) */\n      eq\n        /* \"rsp_all.sol\":1500:1788  if (_Hashed_hand == Hashed_hand(0, playerAddress)) {... */\n      iszero\n      tag_132\n      jumpi\n        /* \"rsp_all.sol\":1580:1581  0 */\n      0x00\n        /* \"rsp_all.sol\":1565:1581  _decodedHand = 0 */\n      swap1\n      pop\n        /* \"rsp_all.sol\":1500:1788  if (_Hashed_hand == Hashed_hand(0, playerAddress)) {... */\n      jump(tag_133)\n    tag_132:\n        /* \"rsp_all.sol\":1618:1647  Hashed_hand(1, playerAddress) */\n      tag_134\n        /* \"rsp_all.sol\":1630:1631  1 */\n      0x01\n        /* \"rsp_all.sol\":1633:1646  playerAddress */\n      dup4\n        /* \"rsp_all.sol\":1618:1629  Hashed_hand */\n      tag_20\n        /* \"rsp_all.sol\":1618:1647  Hashed_hand(1, playerAddress) */\n      jump\t// in\n    tag_134:\n        /* \"rsp_all.sol\":1602:1614  _Hashed_hand */\n      dup4\n        /* \"rsp_all.sol\":1602:1647  _Hashed_hand == Hashed_hand(1, playerAddress) */\n      eq\n        /* \"rsp_all.sol\":1598:1788  if (_Hashed_hand == Hashed_hand(1, playerAddress)) {... */\n      iszero\n      tag_135\n      jumpi\n        /* \"rsp_all.sol\":1678:1679  1 */\n      0x01\n        /* \"rsp_all.sol\":1663:1679  _decodedHand = 1 */\n      swap1\n      pop\n        /* \"rsp_all.sol\":1598:1788  if (_Hashed_hand == Hashed_hand(1, playerAddress)) {... */\n      jump(tag_136)\n    tag_135:\n        /* \"rsp_all.sol\":1716:1745  Hashed_hand(2, playerAddress) */\n      tag_137\n        /* \"rsp_all.sol\":1728:1729  2 */\n      0x02\n        /* \"rsp_all.sol\":1731:1744  playerAddress */\n      dup4\n        /* \"rsp_all.sol\":1716:1727  Hashed_hand */\n      tag_20\n        /* \"rsp_all.sol\":1716:1745  Hashed_hand(2, playerAddress) */\n      jump\t// in\n    tag_137:\n        /* \"rsp_all.sol\":1700:1712  _Hashed_hand */\n      dup4\n        /* \"rsp_all.sol\":1700:1745  _Hashed_hand == Hashed_hand(2, playerAddress) */\n      eq\n        /* \"rsp_all.sol\":1696:1788  if (_Hashed_hand == Hashed_hand(2, playerAddress)) {... */\n      iszero\n      tag_138\n      jumpi\n        /* \"rsp_all.sol\":1776:1777  2 */\n      0x02\n        /* \"rsp_all.sol\":1761:1777  _decodedHand = 2 */\n      swap1\n      pop\n        /* \"rsp_all.sol\":1696:1788  if (_Hashed_hand == Hashed_hand(2, playerAddress)) {... */\n    tag_138:\n        /* \"rsp_all.sol\":1598:1788  if (_Hashed_hand == Hashed_hand(1, playerAddress)) {... */\n    tag_136:\n        /* \"rsp_all.sol\":1500:1788  if (_Hashed_hand == Hashed_hand(0, playerAddress)) {... */\n    tag_133:\n        /* \"rsp_all.sol\":1384:1823  function decodedHand(bytes32 _Hashed_hand, address playerAddress)private pure returns (uint8 _decodedHand){... */\n      swap3\n      swap2\n      pop\n      pop\n      jump\t// out\n        /* \"#utility.yul\":7:146   */\n    tag_140:\n        /* \"#utility.yul\":53:58   */\n      0x00\n        /* \"#utility.yul\":91:97   */\n      dup2\n        /* \"#utility.yul\":78:98   */\n      calldataload\n        /* \"#utility.yul\":69:98   */\n      swap1\n      pop\n        /* \"#utility.yul\":107:140   */\n      tag_142\n        /* \"#utility.yul\":134:139   */\n      dup2\n        /* \"#utility.yul\":107:140   */\n      tag_143\n      jump\t// in\n    tag_142:\n        /* \"#utility.yul\":7:146   */\n      swap3\n      swap2\n      pop\n      pop\n      jump\t// out\n        /* \"#utility.yul\":152:291   */\n    tag_144:\n        /* \"#utility.yul\":198:203   */\n      0x00\n        /* \"#utility.yul\":236:242   */\n      dup2\n        /* \"#utility.yul\":223:243   */\n      calldataload\n        /* \"#utility.yul\":214:243   */\n      swap1\n      pop\n        /* \"#utility.yul\":252:285   */\n      tag_146\n        /* \"#utility.yul\":279:284   */\n      dup2\n        /* \"#utility.yul\":252:285   */\n      tag_147\n      jump\t// in\n    tag_146:\n        /* \"#utility.yul\":152:291   */\n      swap3\n      swap2\n      pop\n      pop\n      jump\t// out\n        /* \"#utility.yul\":297:436   */\n    tag_148:\n        /* \"#utility.yul\":343:348   */\n      0x00\n        /* \"#utility.yul\":381:387   */\n      dup2\n        /* \"#utility.yul\":368:388   */\n      calldataload\n        /* \"#utility.yul\":359:388   */\n      swap1\n      pop\n        /* \"#utility.yul\":397:430   */\n      tag_150\n        /* \"#utility.yul\":424:429   */\n      dup2\n        /* \"#utility.yul\":397:430   */\n      tag_151\n      jump\t// in\n    tag_150:\n        /* \"#utility.yul\":297:436   */\n      swap3\n      swap2\n      pop\n      pop\n      jump\t// out\n        /* \"#utility.yul\":442:771   */\n    tag_12:\n        /* \"#utility.yul\":501:507   */\n      0x00\n        /* \"#utility.yul\":550:552   */\n      0x20\n        /* \"#utility.yul\":538:547   */\n      dup3\n        /* \"#utility.yul\":529:536   */\n      dup5\n        /* \"#utility.yul\":525:548   */\n      sub\n        /* \"#utility.yul\":521:553   */\n      slt\n        /* \"#utility.yul\":518:637   */\n      iszero\n      tag_153\n      jumpi\n        /* \"#utility.yul\":556:635   */\n      tag_154\n      tag_155\n      jump\t// in\n    tag_154:\n        /* \"#utility.yul\":518:637   */\n    tag_153:\n        /* \"#utility.yul\":676:677   */\n      0x00\n        /* \"#utility.yul\":701:754   */\n      tag_156\n        /* \"#utility.yul\":746:753   */\n      dup5\n        /* \"#utility.yul\":737:743   */\n      dup3\n        /* \"#utility.yul\":726:735   */\n      dup6\n        /* \"#utility.yul\":722:744   */\n      add\n        /* \"#utility.yul\":701:754   */\n      tag_144\n      jump\t// in\n    tag_156:\n        /* \"#utility.yul\":691:754   */\n      swap2\n      pop\n        /* \"#utility.yul\":647:764   */\n      pop\n        /* \"#utility.yul\":442:771   */\n      swap3\n      swap2\n      pop\n      pop\n      jump\t// out\n        /* \"#utility.yul\":777:1106   */\n    tag_25:\n        /* \"#utility.yul\":836:842   */\n      0x00\n        /* \"#utility.yul\":885:887   */\n      0x20\n        /* \"#utility.yul\":873:882   */\n      dup3\n        /* \"#utility.yul\":864:871   */\n      dup5\n        /* \"#utility.yul\":860:883   */\n      sub\n        /* \"#utility.yul\":856:888   */\n      slt\n        /* \"#utility.yul\":853:972   */\n      iszero\n      tag_158\n      jumpi\n        /* \"#utility.yul\":891:970   */\n      tag_159\n      tag_155\n      jump\t// in\n    tag_159:\n        /* \"#utility.yul\":853:972   */\n    tag_158:\n        /* \"#utility.yul\":1011:1012   */\n      0x00\n        /* \"#utility.yul\":1036:1089   */\n      tag_160\n        /* \"#utility.yul\":1081:1088   */\n      dup5\n        /* \"#utility.yul\":1072:1078   */\n      dup3\n        /* \"#utility.yul\":1061:1070   */\n      dup6\n        /* \"#utility.yul\":1057:1079   */\n      add\n        /* \"#utility.yul\":1036:1089   */\n      tag_148\n      jump\t// in\n    tag_160:\n        /* \"#utility.yul\":1026:1089   */\n      swap2\n      pop\n        /* \"#utility.yul\":982:1099   */\n      pop\n        /* \"#utility.yul\":777:1106   */\n      swap3\n      swap2\n      pop\n      pop\n      jump\t// out\n        /* \"#utility.yul\":1112:1586   */\n    tag_19:\n        /* \"#utility.yul\":1180:1186   */\n      0x00\n        /* \"#utility.yul\":1188:1194   */\n      dup1\n        /* \"#utility.yul\":1237:1239   */\n      0x40\n        /* \"#utility.yul\":1225:1234   */\n      dup4\n        /* \"#utility.yul\":1216:1223   */\n      dup6\n        /* \"#utility.yul\":1212:1235   */\n      sub\n        /* \"#utility.yul\":1208:1240   */\n      slt\n        /* \"#utility.yul\":1205:1324   */\n      iszero\n      tag_162\n      jumpi\n        /* \"#utility.yul\":1243:1322   */\n      tag_163\n      tag_155\n      jump\t// in\n    tag_163:\n        /* \"#utility.yul\":1205:1324   */\n    tag_162:\n        /* \"#utility.yul\":1363:1364   */\n      0x00\n        /* \"#utility.yul\":1388:1441   */\n      tag_164\n        /* \"#utility.yul\":1433:1440   */\n      dup6\n        /* \"#utility.yul\":1424:1430   */\n      dup3\n        /* \"#utility.yul\":1413:1422   */\n      dup7\n        /* \"#utility.yul\":1409:1431   */\n      add\n        /* \"#utility.yul\":1388:1441   */\n      tag_148\n      jump\t// in\n    tag_164:\n        /* \"#utility.yul\":1378:1441   */\n      swap3\n      pop\n        /* \"#utility.yul\":1334:1451   */\n      pop\n        /* \"#utility.yul\":1490:1492   */\n      0x20\n        /* \"#utility.yul\":1516:1569   */\n      tag_165\n        /* \"#utility.yul\":1561:1568   */\n      dup6\n        /* \"#utility.yul\":1552:1558   */\n      dup3\n        /* \"#utility.yul\":1541:1550   */\n      dup7\n        /* \"#utility.yul\":1537:1559   */\n      add\n        /* \"#utility.yul\":1516:1569   */\n      tag_140\n      jump\t// in\n    tag_165:\n        /* \"#utility.yul\":1506:1569   */\n      swap2\n      pop\n        /* \"#utility.yul\":1461:1579   */\n      pop\n        /* \"#utility.yul\":1112:1586   */\n      swap3\n      pop\n      swap3\n      swap1\n      pop\n      jump\t// out\n        /* \"#utility.yul\":1592:2066   */\n    tag_8:\n        /* \"#utility.yul\":1660:1666   */\n      0x00\n        /* \"#utility.yul\":1668:1674   */\n      dup1\n        /* \"#utility.yul\":1717:1719   */\n      0x40\n        /* \"#utility.yul\":1705:1714   */\n      dup4\n        /* \"#utility.yul\":1696:1703   */\n      dup6\n        /* \"#utility.yul\":1692:1715   */\n      sub\n        /* \"#utility.yul\":1688:1720   */\n      slt\n        /* \"#utility.yul\":1685:1804   */\n      iszero\n      tag_167\n      jumpi\n        /* \"#utility.yul\":1723:1802   */\n      tag_168\n      tag_155\n      jump\t// in\n    tag_168:\n        /* \"#utility.yul\":1685:1804   */\n    tag_167:\n        /* \"#utility.yul\":1843:1844   */\n      0x00\n        /* \"#utility.yul\":1868:1921   */\n      tag_169\n        /* \"#utility.yul\":1913:1920   */\n      dup6\n        /* \"#utility.yul\":1904:1910   */\n      dup3\n        /* \"#utility.yul\":1893:1902   */\n      dup7\n        /* \"#utility.yul\":1889:1911   */\n      add\n        /* \"#utility.yul\":1868:1921   */\n      tag_148\n      jump\t// in\n    tag_169:\n        /* \"#utility.yul\":1858:1921   */\n      swap3\n      pop\n        /* \"#utility.yul\":1814:1931   */\n      pop\n        /* \"#utility.yul\":1970:1972   */\n      0x20\n        /* \"#utility.yul\":1996:2049   */\n      tag_170\n        /* \"#utility.yul\":2041:2048   */\n      dup6\n        /* \"#utility.yul\":2032:2038   */\n      dup3\n        /* \"#utility.yul\":2021:2030   */\n      dup7\n        /* \"#utility.yul\":2017:2039   */\n      add\n        /* \"#utility.yul\":1996:2049   */\n      tag_144\n      jump\t// in\n    tag_170:\n        /* \"#utility.yul\":1986:2049   */\n      swap2\n      pop\n        /* \"#utility.yul\":1941:2059   */\n      pop\n        /* \"#utility.yul\":1592:2066   */\n      swap3\n      pop\n      swap3\n      swap1\n      pop\n      jump\t// out\n        /* \"#utility.yul\":2072:2229   */\n    tag_171:\n        /* \"#utility.yul\":2177:2222   */\n      tag_173\n        /* \"#utility.yul\":2197:2221   */\n      tag_174\n        /* \"#utility.yul\":2215:2220   */\n      dup3\n        /* \"#utility.yul\":2197:2221   */\n      tag_175\n      jump\t// in\n    tag_174:\n        /* \"#utility.yul\":2177:2222   */\n      tag_176\n      jump\t// in\n    tag_173:\n        /* \"#utility.yul\":2172:2175   */\n      dup3\n        /* \"#utility.yul\":2165:2223   */\n      mstore\n        /* \"#utility.yul\":2072:2229   */\n      pop\n      pop\n      jump\t// out\n        /* \"#utility.yul\":2235:2353   */\n    tag_177:\n        /* \"#utility.yul\":2322:2346   */\n      tag_179\n        /* \"#utility.yul\":2340:2345   */\n      dup2\n        /* \"#utility.yul\":2322:2346   */\n      tag_180\n      jump\t// in\n    tag_179:\n        /* \"#utility.yul\":2317:2320   */\n      dup3\n        /* \"#utility.yul\":2310:2347   */\n      mstore\n        /* \"#utility.yul\":2235:2353   */\n      pop\n      pop\n      jump\t// out\n        /* \"#utility.yul\":2359:2477   */\n    tag_181:\n        /* \"#utility.yul\":2446:2470   */\n      tag_183\n        /* \"#utility.yul\":2464:2469   */\n      dup2\n        /* \"#utility.yul\":2446:2470   */\n      tag_184\n      jump\t// in\n    tag_183:\n        /* \"#utility.yul\":2441:2444   */\n      dup3\n        /* \"#utility.yul\":2434:2471   */\n      mstore\n        /* \"#utility.yul\":2359:2477   */\n      pop\n      pop\n      jump\t// out\n        /* \"#utility.yul\":2483:2640   */\n    tag_185:\n        /* \"#utility.yul\":2588:2633   */\n      tag_187\n        /* \"#utility.yul\":2608:2632   */\n      tag_188\n        /* \"#utility.yul\":2626:2631   */\n      dup3\n        /* \"#utility.yul\":2608:2632   */\n      tag_184\n      jump\t// in\n    tag_188:\n        /* \"#utility.yul\":2588:2633   */\n      tag_189\n      jump\t// in\n    tag_187:\n        /* \"#utility.yul\":2583:2586   */\n      dup3\n        /* \"#utility.yul\":2576:2634   */\n      mstore\n        /* \"#utility.yul\":2483:2640   */\n      pop\n      pop\n      jump\t// out\n        /* \"#utility.yul\":2646:3043   */\n    tag_56:\n        /* \"#utility.yul\":2786:2789   */\n      0x00\n        /* \"#utility.yul\":2801:2876   */\n      tag_191\n        /* \"#utility.yul\":2872:2875   */\n      dup3\n        /* \"#utility.yul\":2863:2869   */\n      dup6\n        /* \"#utility.yul\":2801:2876   */\n      tag_185\n      jump\t// in\n    tag_191:\n        /* \"#utility.yul\":2901:2903   */\n      0x20\n        /* \"#utility.yul\":2896:2899   */\n      dup3\n        /* \"#utility.yul\":2892:2904   */\n      add\n        /* \"#utility.yul\":2885:2904   */\n      swap2\n      pop\n        /* \"#utility.yul\":2914:2989   */\n      tag_192\n        /* \"#utility.yul\":2985:2988   */\n      dup3\n        /* \"#utility.yul\":2976:2982   */\n      dup5\n        /* \"#utility.yul\":2914:2989   */\n      tag_171\n      jump\t// in\n    tag_192:\n        /* \"#utility.yul\":3014:3016   */\n      0x14\n        /* \"#utility.yul\":3009:3012   */\n      dup3\n        /* \"#utility.yul\":3005:3017   */\n      add\n        /* \"#utility.yul\":2998:3017   */\n      swap2\n      pop\n        /* \"#utility.yul\":3034:3037   */\n      dup2\n        /* \"#utility.yul\":3027:3037   */\n      swap1\n      pop\n        /* \"#utility.yul\":2646:3043   */\n      swap4\n      swap3\n      pop\n      pop\n      pop\n      jump\t// out\n        /* \"#utility.yul\":3049:3271   */\n    tag_22:\n        /* \"#utility.yul\":3142:3146   */\n      0x00\n        /* \"#utility.yul\":3180:3182   */\n      0x20\n        /* \"#utility.yul\":3169:3178   */\n      dup3\n        /* \"#utility.yul\":3165:3183   */\n      add\n        /* \"#utility.yul\":3157:3183   */\n      swap1\n      pop\n        /* \"#utility.yul\":3193:3264   */\n      tag_194\n        /* \"#utility.yul\":3261:3262   */\n      0x00\n        /* \"#utility.yul\":3250:3259   */\n      dup4\n        /* \"#utility.yul\":3246:3263   */\n      add\n        /* \"#utility.yul\":3237:3243   */\n      dup5\n        /* \"#utility.yul\":3193:3264   */\n      tag_177\n      jump\t// in\n    tag_194:\n        /* \"#utility.yul\":3049:3271   */\n      swap3\n      swap2\n      pop\n      pop\n      jump\t// out\n        /* \"#utility.yul\":3277:3499   */\n    tag_15:\n        /* \"#utility.yul\":3370:3374   */\n      0x00\n        /* \"#utility.yul\":3408:3410   */\n      0x20\n        /* \"#utility.yul\":3397:3406   */\n      dup3\n        /* \"#utility.yul\":3393:3411   */\n      add\n        /* \"#utility.yul\":3385:3411   */\n      swap1\n      pop\n        /* \"#utility.yul\":3421:3492   */\n      tag_196\n        /* \"#utility.yul\":3489:3490   */\n      0x00\n        /* \"#utility.yul\":3478:3487   */\n      dup4\n        /* \"#utility.yul\":3474:3491   */\n      add\n        /* \"#utility.yul\":3465:3471   */\n      dup5\n        /* \"#utility.yul\":3421:3492   */\n      tag_181\n      jump\t// in\n    tag_196:\n        /* \"#utility.yul\":3277:3499   */\n      swap3\n      swap2\n      pop\n      pop\n      jump\t// out\n        /* \"#utility.yul\":3586:3891   */\n    tag_34:\n        /* \"#utility.yul\":3626:3629   */\n      0x00\n        /* \"#utility.yul\":3645:3665   */\n      tag_200\n        /* \"#utility.yul\":3663:3664   */\n      dup3\n        /* \"#utility.yul\":3645:3665   */\n      tag_184\n      jump\t// in\n    tag_200:\n        /* \"#utility.yul\":3640:3665   */\n      swap2\n      pop\n        /* \"#utility.yul\":3679:3699   */\n      tag_201\n        /* \"#utility.yul\":3697:3698   */\n      dup4\n        /* \"#utility.yul\":3679:3699   */\n      tag_184\n      jump\t// in\n    tag_201:\n        /* \"#utility.yul\":3674:3699   */\n      swap3\n      pop\n        /* \"#utility.yul\":3833:3834   */\n      dup3\n        /* \"#utility.yul\":3765:3831   */\n      0xffffffffffffffffffffffffffffffffffffffffffffffffffffffffffffffff\n        /* \"#utility.yul\":3761:3835   */\n      sub\n        /* \"#utility.yul\":3758:3759   */\n      dup3\n        /* \"#utility.yul\":3755:3836   */\n      gt\n        /* \"#utility.yul\":3752:3859   */\n      iszero\n      tag_202\n      jumpi\n        /* \"#utility.yul\":3839:3857   */\n      tag_203\n      tag_204\n      jump\t// in\n    tag_203:\n        /* \"#utility.yul\":3752:3859   */\n    tag_202:\n        /* \"#utility.yul\":3883:3884   */\n      dup3\n        /* \"#utility.yul\":3880:3881   */\n      dup3\n        /* \"#utility.yul\":3876:3885   */\n      add\n        /* \"#utility.yul\":3869:3885   */\n      swap1\n      pop\n        /* \"#utility.yul\":3586:3891   */\n      swap3\n      swap2\n      pop\n      pop\n      jump\t// out\n        /* \"#utility.yul\":3897:4134   */\n    tag_111:\n        /* \"#utility.yul\":3935:3938   */\n      0x00\n        /* \"#utility.yul\":3954:3972   */\n      tag_206\n        /* \"#utility.yul\":3970:3971   */\n      dup3\n        /* \"#utility.yul\":3954:3972   */\n      tag_207\n      jump\t// in\n    tag_206:\n        /* \"#utility.yul\":3949:3972   */\n      swap2\n      pop\n        /* \"#utility.yul\":3986:4004   */\n      tag_208\n        /* \"#utility.yul\":4002:4003   */\n      dup4\n        /* \"#utility.yul\":3986:4004   */\n      tag_207\n      jump\t// in\n    tag_208:\n        /* \"#utility.yul\":3981:4004   */\n      swap3\n      pop\n        /* \"#utility.yul\":4076:4077   */\n      dup3\n        /* \"#utility.yul\":4070:4074   */\n      0xff\n        /* \"#utility.yul\":4066:4078   */\n      sub\n        /* \"#utility.yul\":4063:4064   */\n      dup3\n        /* \"#utility.yul\":4060:4079   */\n      gt\n        /* \"#utility.yul\":4057:4102   */\n      iszero\n      tag_209\n      jumpi\n        /* \"#utility.yul\":4082:4100   */\n      tag_210\n      tag_204\n      jump\t// in\n    tag_210:\n        /* \"#utility.yul\":4057:4102   */\n    tag_209:\n        /* \"#utility.yul\":4126:4127   */\n      dup3\n        /* \"#utility.yul\":4123:4124   */\n      dup3\n        /* \"#utility.yul\":4119:4128   */\n      add\n        /* \"#utility.yul\":4112:4128   */\n      swap1\n      pop\n        /* \"#utility.yul\":3897:4134   */\n      swap3\n      swap2\n      pop\n      pop\n      jump\t// out\n        /* \"#utility.yul\":4140:4236   */\n    tag_175:\n        /* \"#utility.yul\":4177:4184   */\n      0x00\n        /* \"#utility.yul\":4206:4230   */\n      tag_212\n        /* \"#utility.yul\":4224:4229   */\n      dup3\n        /* \"#utility.yul\":4206:4230   */\n      tag_213\n      jump\t// in\n    tag_212:\n        /* \"#utility.yul\":4195:4230   */\n      swap1\n      pop\n        /* \"#utility.yul\":4140:4236   */\n      swap2\n      swap1\n      pop\n      jump\t// out\n        /* \"#utility.yul\":4242:4319   */\n    tag_180:\n        /* \"#utility.yul\":4279:4286   */\n      0x00\n        /* \"#utility.yul\":4308:4313   */\n      dup2\n        /* \"#utility.yul\":4297:4313   */\n      swap1\n      pop\n        /* \"#utility.yul\":4242:4319   */\n      swap2\n      swap1\n      pop\n      jump\t// out\n        /* \"#utility.yul\":4325:4451   */\n    tag_213:\n        /* \"#utility.yul\":4362:4369   */\n      0x00\n        /* \"#utility.yul\":4402:4444   */\n      0xffffffffffffffffffffffffffffffffffffffff\n        /* \"#utility.yul\":4395:4400   */\n      dup3\n        /* \"#utility.yul\":4391:4445   */\n      and\n        /* \"#utility.yul\":4380:4445   */\n      swap1\n      pop\n        /* \"#utility.yul\":4325:4451   */\n      swap2\n      swap1\n      pop\n      jump\t// out\n        /* \"#utility.yul\":4457:4534   */\n    tag_184:\n        /* \"#utility.yul\":4494:4501   */\n      0x00\n        /* \"#utility.yul\":4523:4528   */\n      dup2\n        /* \"#utility.yul\":4512:4528   */\n      swap1\n      pop\n        /* \"#utility.yul\":4457:4534   */\n      swap2\n      swap1\n      pop\n      jump\t// out\n        /* \"#utility.yul\":4540:4626   */\n    tag_207:\n        /* \"#utility.yul\":4575:4582   */\n      0x00\n        /* \"#utility.yul\":4615:4619   */\n      0xff\n        /* \"#utility.yul\":4608:4613   */\n      dup3\n        /* \"#utility.yul\":4604:4620   */\n      and\n        /* \"#utility.yul\":4593:4620   */\n      swap1\n      pop\n        /* \"#utility.yul\":4540:4626   */\n      swap2\n      swap1\n      pop\n      jump\t// out\n        /* \"#utility.yul\":4632:4732   */\n    tag_176:\n        /* \"#utility.yul\":4671:4678   */\n      0x00\n        /* \"#utility.yul\":4700:4726   */\n      tag_219\n        /* \"#utility.yul\":4720:4725   */\n      dup3\n        /* \"#utility.yul\":4700:4726   */\n      tag_220\n      jump\t// in\n    tag_219:\n        /* \"#utility.yul\":4689:4726   */\n      swap1\n      pop\n        /* \"#utility.yul\":4632:4732   */\n      swap2\n      swap1\n      pop\n      jump\t// out\n        /* \"#utility.yul\":4738:4832   */\n    tag_220:\n        /* \"#utility.yul\":4777:4784   */\n      0x00\n        /* \"#utility.yul\":4806:4826   */\n      tag_222\n        /* \"#utility.yul\":4820:4825   */\n      dup3\n        /* \"#utility.yul\":4806:4826   */\n      tag_223\n      jump\t// in\n    tag_222:\n        /* \"#utility.yul\":4795:4826   */\n      swap1\n      pop\n        /* \"#utility.yul\":4738:4832   */\n      swap2\n      swap1\n      pop\n      jump\t// out\n        /* \"#utility.yul\":4838:4917   */\n    tag_189:\n        /* \"#utility.yul\":4877:4884   */\n      0x00\n        /* \"#utility.yul\":4906:4911   */\n      dup2\n        /* \"#utility.yul\":4895:4911   */\n      swap1\n      pop\n        /* \"#utility.yul\":4838:4917   */\n      swap2\n      swap1\n      pop\n      jump\t// out\n        /* \"#utility.yul\":4923:5093   */\n    tag_113:\n        /* \"#utility.yul\":4953:4954   */\n      0x00\n        /* \"#utility.yul\":4970:4988   */\n      tag_226\n        /* \"#utility.yul\":4986:4987   */\n      dup3\n        /* \"#utility.yul\":4970:4988   */\n      tag_207\n      jump\t// in\n    tag_226:\n        /* \"#utility.yul\":4965:4988   */\n      swap2\n      pop\n        /* \"#utility.yul\":5002:5020   */\n      tag_227\n        /* \"#utility.yul\":5018:5019   */\n      dup4\n        /* \"#utility.yul\":5002:5020   */\n      tag_207\n      jump\t// in\n    tag_227:\n        /* \"#utility.yul\":4997:5020   */\n      swap3\n      pop\n        /* \"#utility.yul\":5039:5040   */\n      dup3\n        /* \"#utility.yul\":5029:5064   */\n      tag_228\n      jumpi\n        /* \"#utility.yul\":5044:5062   */\n      tag_229\n      tag_230\n      jump\t// in\n    tag_229:\n        /* \"#utility.yul\":5029:5064   */\n    tag_228:\n        /* \"#utility.yul\":5085:5086   */\n      dup3\n        /* \"#utility.yul\":5082:5083   */\n      dup3\n        /* \"#utility.yul\":5078:5087   */\n      mod\n        /* \"#utility.yul\":5073:5087   */\n      swap1\n      pop\n        /* \"#utility.yul\":4923:5093   */\n      swap3\n      swap2\n      pop\n      pop\n      jump\t// out\n        /* \"#utility.yul\":5099:5279   */\n    tag_204:\n        /* \"#utility.yul\":5147:5224   */\n      0x4e487b7100000000000000000000000000000000000000000000000000000000\n        /* \"#utility.yul\":5144:5145   */\n      0x00\n        /* \"#utility.yul\":5137:5225   */\n      mstore\n        /* \"#utility.yul\":5244:5248   */\n      0x11\n        /* \"#utility.yul\":5241:5242   */\n      0x04\n        /* \"#utility.yul\":5234:5249   */\n      mstore\n        /* \"#utility.yul\":5268:5272   */\n      0x24\n        /* \"#utility.yul\":5265:5266   */\n      0x00\n        /* \"#utility.yul\":5258:5273   */\n      revert\n        /* \"#utility.yul\":5285:5465   */\n    tag_230:\n        /* \"#utility.yul\":5333:5410   */\n      0x4e487b7100000000000000000000000000000000000000000000000000000000\n        /* \"#utility.yul\":5330:5331   */\n      0x00\n        /* \"#utility.yul\":5323:5411   */\n      mstore\n        /* \"#utility.yul\":5430:5434   */\n      0x12\n        /* \"#utility.yul\":5427:5428   */\n      0x04\n        /* \"#utility.yul\":5420:5435   */\n      mstore\n        /* \"#utility.yul\":5454:5458   */\n      0x24\n        /* \"#utility.yul\":5451:5452   */\n      0x00\n        /* \"#utility.yul\":5444:5459   */\n      revert\n        /* \"#utility.yul\":5471:5651   */\n    tag_30:\n        /* \"#utility.yul\":5519:5596   */\n      0x4e487b7100000000000000000000000000000000000000000000000000000000\n        /* \"#utility.yul\":5516:5517   */\n      0x00\n        /* \"#utility.yul\":5509:5597   */\n      mstore\n        /* \"#utility.yul\":5616:5620   */\n      0x21\n        /* \"#utility.yul\":5613:5614   */\n      0x04\n        /* \"#utility.yul\":5606:5621   */\n      mstore\n        /* \"#utility.yul\":5640:5644   */\n      0x24\n        /* \"#utility.yul\":5637:5638   */\n      0x00\n        /* \"#utility.yul\":5630:5645   */\n      revert\n        /* \"#utility.yul\":5780:5897   */\n    tag_155:\n        /* \"#utility.yul\":5889:5890   */\n      0x00\n        /* \"#utility.yul\":5886:5887   */\n      dup1\n        /* \"#utility.yul\":5879:5891   */\n      revert\n        /* \"#utility.yul\":5903:5997   */\n    tag_223:\n        /* \"#utility.yul\":5936:5944   */\n      0x00\n        /* \"#utility.yul\":5984:5989   */\n      dup2\n        /* \"#utility.yul\":5980:5982   */\n      0x60\n        /* \"#utility.yul\":5976:5990   */\n      shl\n        /* \"#utility.yul\":5955:5990   */\n      swap1\n      pop\n        /* \"#utility.yul\":5903:5997   */\n      swap2\n      swap1\n      pop\n      jump\t// out\n        /* \"#utility.yul\":6003:6125   */\n    tag_143:\n        /* \"#utility.yul\":6076:6100   */\n      tag_239\n        /* \"#utility.yul\":6094:6099   */\n      dup2\n        /* \"#utility.yul\":6076:6100   */\n      tag_175\n      jump\t// in\n    tag_239:\n        /* \"#utility.yul\":6069:6074   */\n      dup2\n        /* \"#utility.yul\":6066:6101   */\n      eq\n        /* \"#utility.yul\":6056:6119   */\n      tag_240\n      jumpi\n        /* \"#utility.yul\":6115:6116   */\n      0x00\n        /* \"#utility.yul\":6112:6113   */\n      dup1\n        /* \"#utility.yul\":6105:6117   */\n      revert\n        /* \"#utility.yul\":6056:6119   */\n    tag_240:\n        /* \"#utility.yul\":6003:6125   */\n      pop\n      jump\t// out\n        /* \"#utility.yul\":6131:6253   */\n    tag_147:\n        /* \"#utility.yul\":6204:6228   */\n      tag_242\n        /* \"#utility.yul\":6222:6227   */\n      dup2\n        /* \"#utility.yul\":6204:6228   */\n      tag_180\n      jump\t// in\n    tag_242:\n        /* \"#utility.yul\":6197:6202   */\n      dup2\n        /* \"#utility.yul\":6194:6229   */\n      eq\n        /* \"#utility.yul\":6184:6247   */\n      tag_243\n      jumpi\n        /* \"#utility.yul\":6243:6244   */\n      0x00\n        /* \"#utility.yul\":6240:6241   */\n      dup1\n        /* \"#utility.yul\":6233:6245   */\n      revert\n        /* \"#utility.yul\":6184:6247   */\n    tag_243:\n        /* \"#utility.yul\":6131:6253   */\n      pop\n      jump\t// out\n        /* \"#utility.yul\":6259:6381   */\n    tag_151:\n        /* \"#utility.yul\":6332:6356   */\n      tag_245\n        /* \"#utility.yul\":6350:6355   */\n      dup2\n        /* \"#utility.yul\":6332:6356   */\n      tag_184\n      jump\t// in\n    tag_245:\n        /* \"#utility.yul\":6325:6330   */\n      dup2\n        /* \"#utility.yul\":6322:6357   */\n      eq\n        /* \"#utility.yul\":6312:6375   */\n      tag_246\n      jumpi\n        /* \"#utility.yul\":6371:6372   */\n      0x00\n        /* \"#utility.yul\":6368:6369   */\n      dup1\n        /* \"#utility.yul\":6361:6373   */\n      revert\n        /* \"#utility.yul\":6312:6375   */\n    tag_246:\n        /* \"#utility.yul\":6259:6381   */\n      pop\n      jump\t// out\n\n    auxdata: 0xa264697066735822122097a3a7035c94e626b40cacf6a0e2ce0e81470ee72cf3906b0fab47bb9d84425064736f6c63430008070033\n}\n",
				"bytecode": {
					"linkReferences": {},
					"object": "6080604052600060015561127d806100186000396000f3fe60806040526004361061003f5760003560e01c806318a92553146100445780632e1ca42a1461006057806352da45e614610090578063e1152343146100cd575b600080fd5b61005e60048036038101906100599190610f36565b6100e9565b005b61007a60048036038101906100759190610e9c565b61021c565b6040516100879190611009565b60405180910390f35b34801561009c57600080fd5b506100b760048036038101906100b29190610ef6565b61047e565b6040516100c49190610fee565b60405180910390f35b6100e760048036038101906100e29190610ec9565b6104d3565b005b60405180608001604052808281526020013373ffffffffffffffffffffffffffffffffffffffff168152602001600380811115610129576101286111c1565b5b8152602001348152506000808481526020019081526020016000206005016000820151816000015560208201518160010160006101000a81548173ffffffffffffffffffffffffffffffffffffffff021916908373ffffffffffffffffffffffffffffffffffffffff16021790555060408201518160010160146101000a81548160ff021916908360038111156101c3576101c26111c1565b5b02179055506060820151816002015590505034600080848152602001908152602001600020600001546101f69190611024565b6000808481526020019081526020016000206000018190555061021882610ad7565b5050565b6000604051806080016040528034815260200160006003811115610243576102426111c1565b5b815260200160405180608001604052808581526020013373ffffffffffffffffffffffffffffffffffffffff168152602001600380811115610288576102876111c1565b5b815260200134815250815260200160405180608001604052808581526020013373ffffffffffffffffffffffffffffffffffffffff1681526020016003808111156102d6576102d56111c1565b5b8152602001600081525081525060008060015481526020019081526020016000206000820151816000015560208201518160010160006101000a81548160ff0219169083600381111561032c5761032b6111c1565b5b02179055506040820151816002016000820151816000015560208201518160010160006101000a81548173ffffffffffffffffffffffffffffffffffffffff021916908373ffffffffffffffffffffffffffffffffffffffff16021790555060408201518160010160146101000a81548160ff021916908360038111156103b6576103b56111c1565b5b02179055506060820151816002015550506060820151816005016000820151816000015560208201518160010160006101000a81548173ffffffffffffffffffffffffffffffffffffffff021916908373ffffffffffffffffffffffffffffffffffffffff16021790555060408201518160010160146101000a81548160ff0219169083600381111561044c5761044b6111c1565b5b02179055506060820151816002015550509050506001549050600180546104739190611024565b600181905550919050565b60008083148061048e5750600183145b806104995750600283145b6104a257600080fd5b82826040516020016104b5929190610fc2565b60405160208183030381529060405280519060200120905092915050565b803360008083815260200190815260200160002060020160010160009054906101000a900473ffffffffffffffffffffffffffffffffffffffff1673ffffffffffffffffffffffffffffffffffffffff168173ffffffffffffffffffffffffffffffffffffffff1614806105aa575060008083815260200190815260200160002060050160010160009054906101000a900473ffffffffffffffffffffffffffffffffffffffff1673ffffffffffffffffffffffffffffffffffffffff168173ffffffffffffffffffffffffffffffffffffffff16145b6105b357600080fd5b600260038111156105c7576105c66111c1565b5b60008085815260200190815260200160002060020160010160149054906101000a900460ff1660038111156105ff576105fe6111c1565b5b14801561065557506002600381111561061b5761061a6111c1565b5b60008085815260200190815260200160002060050160010160149054906101000a900460ff166003811115610653576106526111c1565b5b145b1561078d5760008084815260200190815260200160002060020160010160009054906101000a900473ffffffffffffffffffffffffffffffffffffffff1673ffffffffffffffffffffffffffffffffffffffff166108fc600080868152602001908152602001600020600201600201549081150290604051600060405180830381858888f193505050501580156106f0573d6000803e3d6000fd5b5060008084815260200190815260200160002060050160010160009054906101000a900473ffffffffffffffffffffffffffffffffffffffff1673ffffffffffffffffffffffffffffffffffffffff166108fc600080868152602001908152602001600020600501600201549081150290604051600060405180830381858888f19350505050158015610787573d6000803e3d6000fd5b50610a94565b600060038111156107a1576107a06111c1565b5b60008085815260200190815260200160002060020160010160149054906101000a900460ff1660038111156107d9576107d86111c1565b5b14156108785760008084815260200190815260200160002060020160010160009054906101000a900473ffffffffffffffffffffffffffffffffffffffff1673ffffffffffffffffffffffffffffffffffffffff166108fc600080868152602001908152602001600020600001549081150290604051600060405180830381858888f19350505050158015610872573d6000803e3d6000fd5b50610a93565b6000600381111561088c5761088b6111c1565b5b60008085815260200190815260200160002060050160010160149054906101000a900460ff1660038111156108c4576108c36111c1565b5b14156109635760008084815260200190815260200160002060050160010160009054906101000a900473ffffffffffffffffffffffffffffffffffffffff1673ffffffffffffffffffffffffffffffffffffffff166108fc600080868152602001908152602001600020600001549081150290604051600060405180830381858888f1935050505015801561095d573d6000803e3d6000fd5b50610a92565b60008084815260200190815260200160002060020160010160009054906101000a900473ffffffffffffffffffffffffffffffffffffffff1673ffffffffffffffffffffffffffffffffffffffff166108fc600080868152602001908152602001600020600201600201549081150290604051600060405180830381858888f193505050501580156109f9573d6000803e3d6000fd5b5060008084815260200190815260200160002060050160010160009054906101000a900473ffffffffffffffffffffffffffffffffffffffff1673ffffffffffffffffffffffffffffffffffffffff166108fc600080868152602001908152602001600020600501600201549081150290604051600060405180830381858888f19350505050158015610a90573d6000803e3d6000fd5b505b5b5b600260008085815260200190815260200160002060010160006101000a81548160ff02191690836003811115610acd57610acc6111c1565b5b0217905550505050565b6000610b336000808481526020019081526020016000206002016000015460008085815260200190815260200160002060020160010160009054906101000a900473ffffffffffffffffffffffffffffffffffffffff16610e06565b90506000610b916000808581526020019081526020016000206005016000015460008086815260200190815260200160002060050160010160009054906101000a900473ffffffffffffffffffffffffffffffffffffffff16610e06565b9050600160008085815260200190815260200160002060010160006101000a81548160ff02191690836003811115610bcc57610bcb6111c1565b5b02179055508160ff168160ff161415610c6657600260008085815260200190815260200160002060020160010160146101000a81548160ff02191690836003811115610c1b57610c1a6111c1565b5b0217905550600260008085815260200190815260200160002060050160010160146101000a81548160ff02191690836003811115610c5c57610c5b6111c1565b5b0217905550610e01565b8160ff166003600183610c79919061107a565b610c839190611132565b60ff161415610d1357600080600085815260200190815260200160002060020160010160146101000a81548160ff02191690836003811115610cc857610cc76111c1565b5b0217905550600160008085815260200190815260200160002060050160010160146101000a81548160ff02191690836003811115610d0957610d086111c1565b5b0217905550610e00565b8060ff166003600184610d26919061107a565b610d309190611132565b60ff161415610dc057600160008085815260200190815260200160002060020160010160146101000a81548160ff02191690836003811115610d7557610d746111c1565b5b0217905550600080600085815260200190815260200160002060050160010160146101000a81548160ff02191690836003811115610db657610db56111c1565b5b0217905550610dff565b600360008085815260200190815260200160002060010160006101000a81548160ff02191690836003811115610df957610df86111c1565b5b02179055505b5b5b505050565b6000610e1360008361047e565b831415610e235760009050610e57565b610e2e60018361047e565b831415610e3e5760019050610e56565b610e4960028361047e565b831415610e5557600290505b5b5b92915050565b600081359050610e6c81611202565b92915050565b600081359050610e8181611219565b92915050565b600081359050610e9681611230565b92915050565b600060208284031215610eb257610eb16111f0565b5b6000610ec084828501610e72565b91505092915050565b600060208284031215610edf57610ede6111f0565b5b6000610eed84828501610e87565b91505092915050565b60008060408385031215610f0d57610f0c6111f0565b5b6000610f1b85828601610e87565b9250506020610f2c85828601610e5d565b9150509250929050565b60008060408385031215610f4d57610f4c6111f0565b5b6000610f5b85828601610e87565b9250506020610f6c85828601610e72565b9150509250929050565b610f87610f82826110b1565b611104565b82525050565b610f96816110c3565b82525050565b610fa5816110ed565b82525050565b610fbc610fb7826110ed565b611128565b82525050565b6000610fce8285610fab565b602082019150610fde8284610f76565b6014820191508190509392505050565b60006020820190506110036000830184610f8d565b92915050565b600060208201905061101e6000830184610f9c565b92915050565b600061102f826110ed565b915061103a836110ed565b9250827fffffffffffffffffffffffffffffffffffffffffffffffffffffffffffffffff0382111561106f5761106e611163565b5b828201905092915050565b6000611085826110f7565b9150611090836110f7565b92508260ff038211156110a6576110a5611163565b5b828201905092915050565b60006110bc826110cd565b9050919050565b6000819050919050565b600073ffffffffffffffffffffffffffffffffffffffff82169050919050565b6000819050919050565b600060ff82169050919050565b600061110f82611116565b9050919050565b6000611121826111f5565b9050919050565b6000819050919050565b600061113d826110f7565b9150611148836110f7565b92508261115857611157611192565b5b828206905092915050565b7f4e487b7100000000000000000000000000000000000000000000000000000000600052601160045260246000fd5b7f4e487b7100000000000000000000000000000000000000000000000000000000600052601260045260246000fd5b7f4e487b7100000000000000000000000000000000000000000000000000000000600052602160045260246000fd5b600080fd5b60008160601b9050919050565b61120b816110b1565b811461121657600080fd5b50565b611222816110c3565b811461122d57600080fd5b50565b611239816110ed565b811461124457600080fd5b5056fea264697066735822122097a3a7035c94e626b40cacf6a0e2ce0e81470ee72cf3906b0fab47bb9d84425064736f6c63430008070033",
					"opcodes": "PUSH1 0x80 PUSH1 0x40 MSTORE PUSH1 0x0 PUSH1 0x1 SSTORE PUSH2 0x127D DUP1 PUSH2 0x18 PUSH1 0x0 CODECOPY PUSH1 0x0 RETURN INVALID PUSH1 0x80 PUSH1 0x40 MSTORE PUSH1 0x4 CALLDATASIZE LT PUSH2 0x3F JUMPI PUSH1 0x0 CALLDATALOAD PUSH1 0xE0 SHR DUP1 PUSH4 0x18A92553 EQ PUSH2 0x44 JUMPI DUP1 PUSH4 0x2E1CA42A EQ PUSH2 0x60 JUMPI DUP1 PUSH4 0x52DA45E6 EQ PUSH2 0x90 JUMPI DUP1 PUSH4 0xE1152343 EQ PUSH2 0xCD JUMPI JUMPDEST PUSH1 0x0 DUP1 REVERT JUMPDEST PUSH2 0x5E PUSH1 0x4 DUP1 CALLDATASIZE SUB DUP2 ADD SWAP1 PUSH2 0x59 SWAP2 SWAP1 PUSH2 0xF36 JUMP JUMPDEST PUSH2 0xE9 JUMP JUMPDEST STOP JUMPDEST PUSH2 0x7A PUSH1 0x4 DUP1 CALLDATASIZE SUB DUP2 ADD SWAP1 PUSH2 0x75 SWAP2 SWAP1 PUSH2 0xE9C JUMP JUMPDEST PUSH2 0x21C JUMP JUMPDEST PUSH1 0x40 MLOAD PUSH2 0x87 SWAP2 SWAP1 PUSH2 0x1009 JUMP JUMPDEST PUSH1 0x40 MLOAD DUP1 SWAP2 SUB SWAP1 RETURN JUMPDEST CALLVALUE DUP1 ISZERO PUSH2 0x9C JUMPI PUSH1 0x0 DUP1 REVERT JUMPDEST POP PUSH2 0xB7 PUSH1 0x4 DUP1 CALLDATASIZE SUB DUP2 ADD SWAP1 PUSH2 0xB2 SWAP2 SWAP1 PUSH2 0xEF6 JUMP JUMPDEST PUSH2 0x47E JUMP JUMPDEST PUSH1 0x40 MLOAD PUSH2 0xC4 SWAP2 SWAP1 PUSH2 0xFEE JUMP JUMPDEST PUSH1 0x40 MLOAD DUP1 SWAP2 SUB SWAP1 RETURN JUMPDEST PUSH2 0xE7 PUSH1 0x4 DUP1 CALLDATASIZE SUB DUP2 ADD SWAP1 PUSH2 0xE2 SWAP2 SWAP1 PUSH2 0xEC9 JUMP JUMPDEST PUSH2 0x4D3 JUMP JUMPDEST STOP JUMPDEST PUSH1 0x40 MLOAD DUP1 PUSH1 0x80 ADD PUSH1 0x40 MSTORE DUP1 DUP3 DUP2 MSTORE PUSH1 0x20 ADD CALLER PUSH20 0xFFFFFFFFFFFFFFFFFFFFFFFFFFFFFFFFFFFFFFFF AND DUP2 MSTORE PUSH1 0x20 ADD PUSH1 0x3 DUP1 DUP2 GT ISZERO PUSH2 0x129 JUMPI PUSH2 0x128 PUSH2 0x11C1 JUMP JUMPDEST JUMPDEST DUP2 MSTORE PUSH1 0x20 ADD CALLVALUE DUP2 MSTORE POP PUSH1 0x0 DUP1 DUP5 DUP2 MSTORE PUSH1 0x20 ADD SWAP1 DUP2 MSTORE PUSH1 0x20 ADD PUSH1 0x0 KECCAK256 PUSH1 0x5 ADD PUSH1 0x0 DUP3 ADD MLOAD DUP2 PUSH1 0x0 ADD SSTORE PUSH1 0x20 DUP3 ADD MLOAD DUP2 PUSH1 0x1 ADD PUSH1 0x0 PUSH2 0x100 EXP DUP2 SLOAD DUP2 PUSH20 0xFFFFFFFFFFFFFFFFFFFFFFFFFFFFFFFFFFFFFFFF MUL NOT AND SWAP1 DUP4 PUSH20 0xFFFFFFFFFFFFFFFFFFFFFFFFFFFFFFFFFFFFFFFF AND MUL OR SWAP1 SSTORE POP PUSH1 0x40 DUP3 ADD MLOAD DUP2 PUSH1 0x1 ADD PUSH1 0x14 PUSH2 0x100 EXP DUP2 SLOAD DUP2 PUSH1 0xFF MUL NOT AND SWAP1 DUP4 PUSH1 0x3 DUP2 GT ISZERO PUSH2 0x1C3 JUMPI PUSH2 0x1C2 PUSH2 0x11C1 JUMP JUMPDEST JUMPDEST MUL OR SWAP1 SSTORE POP PUSH1 0x60 DUP3 ADD MLOAD DUP2 PUSH1 0x2 ADD SSTORE SWAP1 POP POP CALLVALUE PUSH1 0x0 DUP1 DUP5 DUP2 MSTORE PUSH1 0x20 ADD SWAP1 DUP2 MSTORE PUSH1 0x20 ADD PUSH1 0x0 KECCAK256 PUSH1 0x0 ADD SLOAD PUSH2 0x1F6 SWAP2 SWAP1 PUSH2 0x1024 JUMP JUMPDEST PUSH1 0x0 DUP1 DUP5 DUP2 MSTORE PUSH1 0x20 ADD SWAP1 DUP2 MSTORE PUSH1 0x20 ADD PUSH1 0x0 KECCAK256 PUSH1 0x0 ADD DUP2 SWAP1 SSTORE POP PUSH2 0x218 DUP3 PUSH2 0xAD7 JUMP JUMPDEST POP POP JUMP JUMPDEST PUSH1 0x0 PUSH1 0x40 MLOAD DUP1 PUSH1 0x80 ADD PUSH1 0x40 MSTORE DUP1 CALLVALUE DUP2 MSTORE PUSH1 0x20 ADD PUSH1 0x0 PUSH1 0x3 DUP2 GT ISZERO PUSH2 0x243 JUMPI PUSH2 0x242 PUSH2 0x11C1 JUMP JUMPDEST JUMPDEST DUP2 MSTORE PUSH1 0x20 ADD PUSH1 0x40 MLOAD DUP1 PUSH1 0x80 ADD PUSH1 0x40 MSTORE DUP1 DUP6 DUP2 MSTORE PUSH1 0x20 ADD CALLER PUSH20 0xFFFFFFFFFFFFFFFFFFFFFFFFFFFFFFFFFFFFFFFF AND DUP2 MSTORE PUSH1 0x20 ADD PUSH1 0x3 DUP1 DUP2 GT ISZERO PUSH2 0x288 JUMPI PUSH2 0x287 PUSH2 0x11C1 JUMP JUMPDEST JUMPDEST DUP2 MSTORE PUSH1 0x20 ADD CALLVALUE DUP2 MSTORE POP DUP2 MSTORE PUSH1 0x20 ADD PUSH1 0x40 MLOAD DUP1 PUSH1 0x80 ADD PUSH1 0x40 MSTORE DUP1 DUP6 DUP2 MSTORE PUSH1 0x20 ADD CALLER PUSH20 0xFFFFFFFFFFFFFFFFFFFFFFFFFFFFFFFFFFFFFFFF AND DUP2 MSTORE PUSH1 0x20 ADD PUSH1 0x3 DUP1 DUP2 GT ISZERO PUSH2 0x2D6 JUMPI PUSH2 0x2D5 PUSH2 0x11C1 JUMP JUMPDEST JUMPDEST DUP2 MSTORE PUSH1 0x20 ADD PUSH1 0x0 DUP2 MSTORE POP DUP2 MSTORE POP PUSH1 0x0 DUP1 PUSH1 0x1 SLOAD DUP2 MSTORE PUSH1 0x20 ADD SWAP1 DUP2 MSTORE PUSH1 0x20 ADD PUSH1 0x0 KECCAK256 PUSH1 0x0 DUP3 ADD MLOAD DUP2 PUSH1 0x0 ADD SSTORE PUSH1 0x20 DUP3 ADD MLOAD DUP2 PUSH1 0x1 ADD PUSH1 0x0 PUSH2 0x100 EXP DUP2 SLOAD DUP2 PUSH1 0xFF MUL NOT AND SWAP1 DUP4 PUSH1 0x3 DUP2 GT ISZERO PUSH2 0x32C JUMPI PUSH2 0x32B PUSH2 0x11C1 JUMP JUMPDEST JUMPDEST MUL OR SWAP1 SSTORE POP PUSH1 0x40 DUP3 ADD MLOAD DUP2 PUSH1 0x2 ADD PUSH1 0x0 DUP3 ADD MLOAD DUP2 PUSH1 0x0 ADD SSTORE PUSH1 0x20 DUP3 ADD MLOAD DUP2 PUSH1 0x1 ADD PUSH1 0x0 PUSH2 0x100 EXP DUP2 SLOAD DUP2 PUSH20 0xFFFFFFFFFFFFFFFFFFFFFFFFFFFFFFFFFFFFFFFF MUL NOT AND SWAP1 DUP4 PUSH20 0xFFFFFFFFFFFFFFFFFFFFFFFFFFFFFFFFFFFFFFFF AND MUL OR SWAP1 SSTORE POP PUSH1 0x40 DUP3 ADD MLOAD DUP2 PUSH1 0x1 ADD PUSH1 0x14 PUSH2 0x100 EXP DUP2 SLOAD DUP2 PUSH1 0xFF MUL NOT AND SWAP1 DUP4 PUSH1 0x3 DUP2 GT ISZERO PUSH2 0x3B6 JUMPI PUSH2 0x3B5 PUSH2 0x11C1 JUMP JUMPDEST JUMPDEST MUL OR SWAP1 SSTORE POP PUSH1 0x60 DUP3 ADD MLOAD DUP2 PUSH1 0x2 ADD SSTORE POP POP PUSH1 0x60 DUP3 ADD MLOAD DUP2 PUSH1 0x5 ADD PUSH1 0x0 DUP3 ADD MLOAD DUP2 PUSH1 0x0 ADD SSTORE PUSH1 0x20 DUP3 ADD MLOAD DUP2 PUSH1 0x1 ADD PUSH1 0x0 PUSH2 0x100 EXP DUP2 SLOAD DUP2 PUSH20 0xFFFFFFFFFFFFFFFFFFFFFFFFFFFFFFFFFFFFFFFF MUL NOT AND SWAP1 DUP4 PUSH20 0xFFFFFFFFFFFFFFFFFFFFFFFFFFFFFFFFFFFFFFFF AND MUL OR SWAP1 SSTORE POP PUSH1 0x40 DUP3 ADD MLOAD DUP2 PUSH1 0x1 ADD PUSH1 0x14 PUSH2 0x100 EXP DUP2 SLOAD DUP2 PUSH1 0xFF MUL NOT AND SWAP1 DUP4 PUSH1 0x3 DUP2 GT ISZERO PUSH2 0x44C JUMPI PUSH2 0x44B PUSH2 0x11C1 JUMP JUMPDEST JUMPDEST MUL OR SWAP1 SSTORE POP PUSH1 0x60 DUP3 ADD MLOAD DUP2 PUSH1 0x2 ADD SSTORE POP POP SWAP1 POP POP PUSH1 0x1 SLOAD SWAP1 POP PUSH1 0x1 DUP1 SLOAD PUSH2 0x473 SWAP2 SWAP1 PUSH2 0x1024 JUMP JUMPDEST PUSH1 0x1 DUP2 SWAP1 SSTORE POP SWAP2 SWAP1 POP JUMP JUMPDEST PUSH1 0x0 DUP1 DUP4 EQ DUP1 PUSH2 0x48E JUMPI POP PUSH1 0x1 DUP4 EQ JUMPDEST DUP1 PUSH2 0x499 JUMPI POP PUSH1 0x2 DUP4 EQ JUMPDEST PUSH2 0x4A2 JUMPI PUSH1 0x0 DUP1 REVERT JUMPDEST DUP3 DUP3 PUSH1 0x40 MLOAD PUSH1 0x20 ADD PUSH2 0x4B5 SWAP3 SWAP2 SWAP1 PUSH2 0xFC2 JUMP JUMPDEST PUSH1 0x40 MLOAD PUSH1 0x20 DUP2 DUP4 SUB SUB DUP2 MSTORE SWAP1 PUSH1 0x40 MSTORE DUP1 MLOAD SWAP1 PUSH1 0x20 ADD KECCAK256 SWAP1 POP SWAP3 SWAP2 POP POP JUMP JUMPDEST DUP1 CALLER PUSH1 0x0 DUP1 DUP4 DUP2 MSTORE PUSH1 0x20 ADD SWAP1 DUP2 MSTORE PUSH1 0x20 ADD PUSH1 0x0 KECCAK256 PUSH1 0x2 ADD PUSH1 0x1 ADD PUSH1 0x0 SWAP1 SLOAD SWAP1 PUSH2 0x100 EXP SWAP1 DIV PUSH20 0xFFFFFFFFFFFFFFFFFFFFFFFFFFFFFFFFFFFFFFFF AND PUSH20 0xFFFFFFFFFFFFFFFFFFFFFFFFFFFFFFFFFFFFFFFF AND DUP2 PUSH20 0xFFFFFFFFFFFFFFFFFFFFFFFFFFFFFFFFFFFFFFFF AND EQ DUP1 PUSH2 0x5AA JUMPI POP PUSH1 0x0 DUP1 DUP4 DUP2 MSTORE PUSH1 0x20 ADD SWAP1 DUP2 MSTORE PUSH1 0x20 ADD PUSH1 0x0 KECCAK256 PUSH1 0x5 ADD PUSH1 0x1 ADD PUSH1 0x0 SWAP1 SLOAD SWAP1 PUSH2 0x100 EXP SWAP1 DIV PUSH20 0xFFFFFFFFFFFFFFFFFFFFFFFFFFFFFFFFFFFFFFFF AND PUSH20 0xFFFFFFFFFFFFFFFFFFFFFFFFFFFFFFFFFFFFFFFF AND DUP2 PUSH20 0xFFFFFFFFFFFFFFFFFFFFFFFFFFFFFFFFFFFFFFFF AND EQ JUMPDEST PUSH2 0x5B3 JUMPI PUSH1 0x0 DUP1 REVERT JUMPDEST PUSH1 0x2 PUSH1 0x3 DUP2 GT ISZERO PUSH2 0x5C7 JUMPI PUSH2 0x5C6 PUSH2 0x11C1 JUMP JUMPDEST JUMPDEST PUSH1 0x0 DUP1 DUP6 DUP2 MSTORE PUSH1 0x20 ADD SWAP1 DUP2 MSTORE PUSH1 0x20 ADD PUSH1 0x0 KECCAK256 PUSH1 0x2 ADD PUSH1 0x1 ADD PUSH1 0x14 SWAP1 SLOAD SWAP1 PUSH2 0x100 EXP SWAP1 DIV PUSH1 0xFF AND PUSH1 0x3 DUP2 GT ISZERO PUSH2 0x5FF JUMPI PUSH2 0x5FE PUSH2 0x11C1 JUMP JUMPDEST JUMPDEST EQ DUP1 ISZERO PUSH2 0x655 JUMPI POP PUSH1 0x2 PUSH1 0x3 DUP2 GT ISZERO PUSH2 0x61B JUMPI PUSH2 0x61A PUSH2 0x11C1 JUMP JUMPDEST JUMPDEST PUSH1 0x0 DUP1 DUP6 DUP2 MSTORE PUSH1 0x20 ADD SWAP1 DUP2 MSTORE PUSH1 0x20 ADD PUSH1 0x0 KECCAK256 PUSH1 0x5 ADD PUSH1 0x1 ADD PUSH1 0x14 SWAP1 SLOAD SWAP1 PUSH2 0x100 EXP SWAP1 DIV PUSH1 0xFF AND PUSH1 0x3 DUP2 GT ISZERO PUSH2 0x653 JUMPI PUSH2 0x652 PUSH2 0x11C1 JUMP JUMPDEST JUMPDEST EQ JUMPDEST ISZERO PUSH2 0x78D JUMPI PUSH1 0x0 DUP1 DUP5 DUP2 MSTORE PUSH1 0x20 ADD SWAP1 DUP2 MSTORE PUSH1 0x20 ADD PUSH1 0x0 KECCAK256 PUSH1 0x2 ADD PUSH1 0x1 ADD PUSH1 0x0 SWAP1 SLOAD SWAP1 PUSH2 0x100 EXP SWAP1 DIV PUSH20 0xFFFFFFFFFFFFFFFFFFFFFFFFFFFFFFFFFFFFFFFF AND PUSH20 0xFFFFFFFFFFFFFFFFFFFFFFFFFFFFFFFFFFFFFFFF AND PUSH2 0x8FC PUSH1 0x0 DUP1 DUP7 DUP2 MSTORE PUSH1 0x20 ADD SWAP1 DUP2 MSTORE PUSH1 0x20 ADD PUSH1 0x0 KECCAK256 PUSH1 0x2 ADD PUSH1 0x2 ADD SLOAD SWAP1 DUP2 ISZERO MUL SWAP1 PUSH1 0x40 MLOAD PUSH1 0x0 PUSH1 0x40 MLOAD DUP1 DUP4 SUB DUP2 DUP6 DUP9 DUP9 CALL SWAP4 POP POP POP POP ISZERO DUP1 ISZERO PUSH2 0x6F0 JUMPI RETURNDATASIZE PUSH1 0x0 DUP1 RETURNDATACOPY RETURNDATASIZE PUSH1 0x0 REVERT JUMPDEST POP PUSH1 0x0 DUP1 DUP5 DUP2 MSTORE PUSH1 0x20 ADD SWAP1 DUP2 MSTORE PUSH1 0x20 ADD PUSH1 0x0 KECCAK256 PUSH1 0x5 ADD PUSH1 0x1 ADD PUSH1 0x0 SWAP1 SLOAD SWAP1 PUSH2 0x100 EXP SWAP1 DIV PUSH20 0xFFFFFFFFFFFFFFFFFFFFFFFFFFFFFFFFFFFFFFFF AND PUSH20 0xFFFFFFFFFFFFFFFFFFFFFFFFFFFFFFFFFFFFFFFF AND PUSH2 0x8FC PUSH1 0x0 DUP1 DUP7 DUP2 MSTORE PUSH1 0x20 ADD SWAP1 DUP2 MSTORE PUSH1 0x20 ADD PUSH1 0x0 KECCAK256 PUSH1 0x5 ADD PUSH1 0x2 ADD SLOAD SWAP1 DUP2 ISZERO MUL SWAP1 PUSH1 0x40 MLOAD PUSH1 0x0 PUSH1 0x40 MLOAD DUP1 DUP4 SUB DUP2 DUP6 DUP9 DUP9 CALL SWAP4 POP POP POP POP ISZERO DUP1 ISZERO PUSH2 0x787 JUMPI RETURNDATASIZE PUSH1 0x0 DUP1 RETURNDATACOPY RETURNDATASIZE PUSH1 0x0 REVERT JUMPDEST POP PUSH2 0xA94 JUMP JUMPDEST PUSH1 0x0 PUSH1 0x3 DUP2 GT ISZERO PUSH2 0x7A1 JUMPI PUSH2 0x7A0 PUSH2 0x11C1 JUMP JUMPDEST JUMPDEST PUSH1 0x0 DUP1 DUP6 DUP2 MSTORE PUSH1 0x20 ADD SWAP1 DUP2 MSTORE PUSH1 0x20 ADD PUSH1 0x0 KECCAK256 PUSH1 0x2 ADD PUSH1 0x1 ADD PUSH1 0x14 SWAP1 SLOAD SWAP1 PUSH2 0x100 EXP SWAP1 DIV PUSH1 0xFF AND PUSH1 0x3 DUP2 GT ISZERO PUSH2 0x7D9 JUMPI PUSH2 0x7D8 PUSH2 0x11C1 JUMP JUMPDEST JUMPDEST EQ ISZERO PUSH2 0x878 JUMPI PUSH1 0x0 DUP1 DUP5 DUP2 MSTORE PUSH1 0x20 ADD SWAP1 DUP2 MSTORE PUSH1 0x20 ADD PUSH1 0x0 KECCAK256 PUSH1 0x2 ADD PUSH1 0x1 ADD PUSH1 0x0 SWAP1 SLOAD SWAP1 PUSH2 0x100 EXP SWAP1 DIV PUSH20 0xFFFFFFFFFFFFFFFFFFFFFFFFFFFFFFFFFFFFFFFF AND PUSH20 0xFFFFFFFFFFFFFFFFFFFFFFFFFFFFFFFFFFFFFFFF AND PUSH2 0x8FC PUSH1 0x0 DUP1 DUP7 DUP2 MSTORE PUSH1 0x20 ADD SWAP1 DUP2 MSTORE PUSH1 0x20 ADD PUSH1 0x0 KECCAK256 PUSH1 0x0 ADD SLOAD SWAP1 DUP2 ISZERO MUL SWAP1 PUSH1 0x40 MLOAD PUSH1 0x0 PUSH1 0x40 MLOAD DUP1 DUP4 SUB DUP2 DUP6 DUP9 DUP9 CALL SWAP4 POP POP POP POP ISZERO DUP1 ISZERO PUSH2 0x872 JUMPI RETURNDATASIZE PUSH1 0x0 DUP1 RETURNDATACOPY RETURNDATASIZE PUSH1 0x0 REVERT JUMPDEST POP PUSH2 0xA93 JUMP JUMPDEST PUSH1 0x0 PUSH1 0x3 DUP2 GT ISZERO PUSH2 0x88C JUMPI PUSH2 0x88B PUSH2 0x11C1 JUMP JUMPDEST JUMPDEST PUSH1 0x0 DUP1 DUP6 DUP2 MSTORE PUSH1 0x20 ADD SWAP1 DUP2 MSTORE PUSH1 0x20 ADD PUSH1 0x0 KECCAK256 PUSH1 0x5 ADD PUSH1 0x1 ADD PUSH1 0x14 SWAP1 SLOAD SWAP1 PUSH2 0x100 EXP SWAP1 DIV PUSH1 0xFF AND PUSH1 0x3 DUP2 GT ISZERO PUSH2 0x8C4 JUMPI PUSH2 0x8C3 PUSH2 0x11C1 JUMP JUMPDEST JUMPDEST EQ ISZERO PUSH2 0x963 JUMPI PUSH1 0x0 DUP1 DUP5 DUP2 MSTORE PUSH1 0x20 ADD SWAP1 DUP2 MSTORE PUSH1 0x20 ADD PUSH1 0x0 KECCAK256 PUSH1 0x5 ADD PUSH1 0x1 ADD PUSH1 0x0 SWAP1 SLOAD SWAP1 PUSH2 0x100 EXP SWAP1 DIV PUSH20 0xFFFFFFFFFFFFFFFFFFFFFFFFFFFFFFFFFFFFFFFF AND PUSH20 0xFFFFFFFFFFFFFFFFFFFFFFFFFFFFFFFFFFFFFFFF AND PUSH2 0x8FC PUSH1 0x0 DUP1 DUP7 DUP2 MSTORE PUSH1 0x20 ADD SWAP1 DUP2 MSTORE PUSH1 0x20 ADD PUSH1 0x0 KECCAK256 PUSH1 0x0 ADD SLOAD SWAP1 DUP2 ISZERO MUL SWAP1 PUSH1 0x40 MLOAD PUSH1 0x0 PUSH1 0x40 MLOAD DUP1 DUP4 SUB DUP2 DUP6 DUP9 DUP9 CALL SWAP4 POP POP POP POP ISZERO DUP1 ISZERO PUSH2 0x95D JUMPI RETURNDATASIZE PUSH1 0x0 DUP1 RETURNDATACOPY RETURNDATASIZE PUSH1 0x0 REVERT JUMPDEST POP PUSH2 0xA92 JUMP JUMPDEST PUSH1 0x0 DUP1 DUP5 DUP2 MSTORE PUSH1 0x20 ADD SWAP1 DUP2 MSTORE PUSH1 0x20 ADD PUSH1 0x0 KECCAK256 PUSH1 0x2 ADD PUSH1 0x1 ADD PUSH1 0x0 SWAP1 SLOAD SWAP1 PUSH2 0x100 EXP SWAP1 DIV PUSH20 0xFFFFFFFFFFFFFFFFFFFFFFFFFFFFFFFFFFFFFFFF AND PUSH20 0xFFFFFFFFFFFFFFFFFFFFFFFFFFFFFFFFFFFFFFFF AND PUSH2 0x8FC PUSH1 0x0 DUP1 DUP7 DUP2 MSTORE PUSH1 0x20 ADD SWAP1 DUP2 MSTORE PUSH1 0x20 ADD PUSH1 0x0 KECCAK256 PUSH1 0x2 ADD PUSH1 0x2 ADD SLOAD SWAP1 DUP2 ISZERO MUL SWAP1 PUSH1 0x40 MLOAD PUSH1 0x0 PUSH1 0x40 MLOAD DUP1 DUP4 SUB DUP2 DUP6 DUP9 DUP9 CALL SWAP4 POP POP POP POP ISZERO DUP1 ISZERO PUSH2 0x9F9 JUMPI RETURNDATASIZE PUSH1 0x0 DUP1 RETURNDATACOPY RETURNDATASIZE PUSH1 0x0 REVERT JUMPDEST POP PUSH1 0x0 DUP1 DUP5 DUP2 MSTORE PUSH1 0x20 ADD SWAP1 DUP2 MSTORE PUSH1 0x20 ADD PUSH1 0x0 KECCAK256 PUSH1 0x5 ADD PUSH1 0x1 ADD PUSH1 0x0 SWAP1 SLOAD SWAP1 PUSH2 0x100 EXP SWAP1 DIV PUSH20 0xFFFFFFFFFFFFFFFFFFFFFFFFFFFFFFFFFFFFFFFF AND PUSH20 0xFFFFFFFFFFFFFFFFFFFFFFFFFFFFFFFFFFFFFFFF AND PUSH2 0x8FC PUSH1 0x0 DUP1 DUP7 DUP2 MSTORE PUSH1 0x20 ADD SWAP1 DUP2 MSTORE PUSH1 0x20 ADD PUSH1 0x0 KECCAK256 PUSH1 0x5 ADD PUSH1 0x2 ADD SLOAD SWAP1 DUP2 ISZERO MUL SWAP1 PUSH1 0x40 MLOAD PUSH1 0x0 PUSH1 0x40 MLOAD DUP1 DUP4 SUB DUP2 DUP6 DUP9 DUP9 CALL SWAP4 POP POP POP POP ISZERO DUP1 ISZERO PUSH2 0xA90 JUMPI RETURNDATASIZE PUSH1 0x0 DUP1 RETURNDATACOPY RETURNDATASIZE PUSH1 0x0 REVERT JUMPDEST POP JUMPDEST JUMPDEST JUMPDEST PUSH1 0x2 PUSH1 0x0 DUP1 DUP6 DUP2 MSTORE PUSH1 0x20 ADD SWAP1 DUP2 MSTORE PUSH1 0x20 ADD PUSH1 0x0 KECCAK256 PUSH1 0x1 ADD PUSH1 0x0 PUSH2 0x100 EXP DUP2 SLOAD DUP2 PUSH1 0xFF MUL NOT AND SWAP1 DUP4 PUSH1 0x3 DUP2 GT ISZERO PUSH2 0xACD JUMPI PUSH2 0xACC PUSH2 0x11C1 JUMP JUMPDEST JUMPDEST MUL OR SWAP1 SSTORE POP POP POP POP JUMP JUMPDEST PUSH1 0x0 PUSH2 0xB33 PUSH1 0x0 DUP1 DUP5 DUP2 MSTORE PUSH1 0x20 ADD SWAP1 DUP2 MSTORE PUSH1 0x20 ADD PUSH1 0x0 KECCAK256 PUSH1 0x2 ADD PUSH1 0x0 ADD SLOAD PUSH1 0x0 DUP1 DUP6 DUP2 MSTORE PUSH1 0x20 ADD SWAP1 DUP2 MSTORE PUSH1 0x20 ADD PUSH1 0x0 KECCAK256 PUSH1 0x2 ADD PUSH1 0x1 ADD PUSH1 0x0 SWAP1 SLOAD SWAP1 PUSH2 0x100 EXP SWAP1 DIV PUSH20 0xFFFFFFFFFFFFFFFFFFFFFFFFFFFFFFFFFFFFFFFF AND PUSH2 0xE06 JUMP JUMPDEST SWAP1 POP PUSH1 0x0 PUSH2 0xB91 PUSH1 0x0 DUP1 DUP6 DUP2 MSTORE PUSH1 0x20 ADD SWAP1 DUP2 MSTORE PUSH1 0x20 ADD PUSH1 0x0 KECCAK256 PUSH1 0x5 ADD PUSH1 0x0 ADD SLOAD PUSH1 0x0 DUP1 DUP7 DUP2 MSTORE PUSH1 0x20 ADD SWAP1 DUP2 MSTORE PUSH1 0x20 ADD PUSH1 0x0 KECCAK256 PUSH1 0x5 ADD PUSH1 0x1 ADD PUSH1 0x0 SWAP1 SLOAD SWAP1 PUSH2 0x100 EXP SWAP1 DIV PUSH20 0xFFFFFFFFFFFFFFFFFFFFFFFFFFFFFFFFFFFFFFFF AND PUSH2 0xE06 JUMP JUMPDEST SWAP1 POP PUSH1 0x1 PUSH1 0x0 DUP1 DUP6 DUP2 MSTORE PUSH1 0x20 ADD SWAP1 DUP2 MSTORE PUSH1 0x20 ADD PUSH1 0x0 KECCAK256 PUSH1 0x1 ADD PUSH1 0x0 PUSH2 0x100 EXP DUP2 SLOAD DUP2 PUSH1 0xFF MUL NOT AND SWAP1 DUP4 PUSH1 0x3 DUP2 GT ISZERO PUSH2 0xBCC JUMPI PUSH2 0xBCB PUSH2 0x11C1 JUMP JUMPDEST JUMPDEST MUL OR SWAP1 SSTORE POP DUP2 PUSH1 0xFF AND DUP2 PUSH1 0xFF AND EQ ISZERO PUSH2 0xC66 JUMPI PUSH1 0x2 PUSH1 0x0 DUP1 DUP6 DUP2 MSTORE PUSH1 0x20 ADD SWAP1 DUP2 MSTORE PUSH1 0x20 ADD PUSH1 0x0 KECCAK256 PUSH1 0x2 ADD PUSH1 0x1 ADD PUSH1 0x14 PUSH2 0x100 EXP DUP2 SLOAD DUP2 PUSH1 0xFF MUL NOT AND SWAP1 DUP4 PUSH1 0x3 DUP2 GT ISZERO PUSH2 0xC1B JUMPI PUSH2 0xC1A PUSH2 0x11C1 JUMP JUMPDEST JUMPDEST MUL OR SWAP1 SSTORE POP PUSH1 0x2 PUSH1 0x0 DUP1 DUP6 DUP2 MSTORE PUSH1 0x20 ADD SWAP1 DUP2 MSTORE PUSH1 0x20 ADD PUSH1 0x0 KECCAK256 PUSH1 0x5 ADD PUSH1 0x1 ADD PUSH1 0x14 PUSH2 0x100 EXP DUP2 SLOAD DUP2 PUSH1 0xFF MUL NOT AND SWAP1 DUP4 PUSH1 0x3 DUP2 GT ISZERO PUSH2 0xC5C JUMPI PUSH2 0xC5B PUSH2 0x11C1 JUMP JUMPDEST JUMPDEST MUL OR SWAP1 SSTORE POP PUSH2 0xE01 JUMP JUMPDEST DUP2 PUSH1 0xFF AND PUSH1 0x3 PUSH1 0x1 DUP4 PUSH2 0xC79 SWAP2 SWAP1 PUSH2 0x107A JUMP JUMPDEST PUSH2 0xC83 SWAP2 SWAP1 PUSH2 0x1132 JUMP JUMPDEST PUSH1 0xFF AND EQ ISZERO PUSH2 0xD13 JUMPI PUSH1 0x0 DUP1 PUSH1 0x0 DUP6 DUP2 MSTORE PUSH1 0x20 ADD SWAP1 DUP2 MSTORE PUSH1 0x20 ADD PUSH1 0x0 KECCAK256 PUSH1 0x2 ADD PUSH1 0x1 ADD PUSH1 0x14 PUSH2 0x100 EXP DUP2 SLOAD DUP2 PUSH1 0xFF MUL NOT AND SWAP1 DUP4 PUSH1 0x3 DUP2 GT ISZERO PUSH2 0xCC8 JUMPI PUSH2 0xCC7 PUSH2 0x11C1 JUMP JUMPDEST JUMPDEST MUL OR SWAP1 SSTORE POP PUSH1 0x1 PUSH1 0x0 DUP1 DUP6 DUP2 MSTORE PUSH1 0x20 ADD SWAP1 DUP2 MSTORE PUSH1 0x20 ADD PUSH1 0x0 KECCAK256 PUSH1 0x5 ADD PUSH1 0x1 ADD PUSH1 0x14 PUSH2 0x100 EXP DUP2 SLOAD DUP2 PUSH1 0xFF MUL NOT AND SWAP1 DUP4 PUSH1 0x3 DUP2 GT ISZERO PUSH2 0xD09 JUMPI PUSH2 0xD08 PUSH2 0x11C1 JUMP JUMPDEST JUMPDEST MUL OR SWAP1 SSTORE POP PUSH2 0xE00 JUMP JUMPDEST DUP1 PUSH1 0xFF AND PUSH1 0x3 PUSH1 0x1 DUP5 PUSH2 0xD26 SWAP2 SWAP1 PUSH2 0x107A JUMP JUMPDEST PUSH2 0xD30 SWAP2 SWAP1 PUSH2 0x1132 JUMP JUMPDEST PUSH1 0xFF AND EQ ISZERO PUSH2 0xDC0 JUMPI PUSH1 0x1 PUSH1 0x0 DUP1 DUP6 DUP2 MSTORE PUSH1 0x20 ADD SWAP1 DUP2 MSTORE PUSH1 0x20 ADD PUSH1 0x0 KECCAK256 PUSH1 0x2 ADD PUSH1 0x1 ADD PUSH1 0x14 PUSH2 0x100 EXP DUP2 SLOAD DUP2 PUSH1 0xFF MUL NOT AND SWAP1 DUP4 PUSH1 0x3 DUP2 GT ISZERO PUSH2 0xD75 JUMPI PUSH2 0xD74 PUSH2 0x11C1 JUMP JUMPDEST JUMPDEST MUL OR SWAP1 SSTORE POP PUSH1 0x0 DUP1 PUSH1 0x0 DUP6 DUP2 MSTORE PUSH1 0x20 ADD SWAP1 DUP2 MSTORE PUSH1 0x20 ADD PUSH1 0x0 KECCAK256 PUSH1 0x5 ADD PUSH1 0x1 ADD PUSH1 0x14 PUSH2 0x100 EXP DUP2 SLOAD DUP2 PUSH1 0xFF MUL NOT AND SWAP1 DUP4 PUSH1 0x3 DUP2 GT ISZERO PUSH2 0xDB6 JUMPI PUSH2 0xDB5 PUSH2 0x11C1 JUMP JUMPDEST JUMPDEST MUL OR SWAP1 SSTORE POP PUSH2 0xDFF JUMP JUMPDEST PUSH1 0x3 PUSH1 0x0 DUP1 DUP6 DUP2 MSTORE PUSH1 0x20 ADD SWAP1 DUP2 MSTORE PUSH1 0x20 ADD PUSH1 0x0 KECCAK256 PUSH1 0x1 ADD PUSH1 0x0 PUSH2 0x100 EXP DUP2 SLOAD DUP2 PUSH1 0xFF MUL NOT AND SWAP1 DUP4 PUSH1 0x3 DUP2 GT ISZERO PUSH2 0xDF9 JUMPI PUSH2 0xDF8 PUSH2 0x11C1 JUMP JUMPDEST JUMPDEST MUL OR SWAP1 SSTORE POP JUMPDEST JUMPDEST JUMPDEST POP POP POP JUMP JUMPDEST PUSH1 0x0 PUSH2 0xE13 PUSH1 0x0 DUP4 PUSH2 0x47E JUMP JUMPDEST DUP4 EQ ISZERO PUSH2 0xE23 JUMPI PUSH1 0x0 SWAP1 POP PUSH2 0xE57 JUMP JUMPDEST PUSH2 0xE2E PUSH1 0x1 DUP4 PUSH2 0x47E JUMP JUMPDEST DUP4 EQ ISZERO PUSH2 0xE3E JUMPI PUSH1 0x1 SWAP1 POP PUSH2 0xE56 JUMP JUMPDEST PUSH2 0xE49 PUSH1 0x2 DUP4 PUSH2 0x47E JUMP JUMPDEST DUP4 EQ ISZERO PUSH2 0xE55 JUMPI PUSH1 0x2 SWAP1 POP JUMPDEST JUMPDEST JUMPDEST SWAP3 SWAP2 POP POP JUMP JUMPDEST PUSH1 0x0 DUP2 CALLDATALOAD SWAP1 POP PUSH2 0xE6C DUP2 PUSH2 0x1202 JUMP JUMPDEST SWAP3 SWAP2 POP POP JUMP JUMPDEST PUSH1 0x0 DUP2 CALLDATALOAD SWAP1 POP PUSH2 0xE81 DUP2 PUSH2 0x1219 JUMP JUMPDEST SWAP3 SWAP2 POP POP JUMP JUMPDEST PUSH1 0x0 DUP2 CALLDATALOAD SWAP1 POP PUSH2 0xE96 DUP2 PUSH2 0x1230 JUMP JUMPDEST SWAP3 SWAP2 POP POP JUMP JUMPDEST PUSH1 0x0 PUSH1 0x20 DUP3 DUP5 SUB SLT ISZERO PUSH2 0xEB2 JUMPI PUSH2 0xEB1 PUSH2 0x11F0 JUMP JUMPDEST JUMPDEST PUSH1 0x0 PUSH2 0xEC0 DUP5 DUP3 DUP6 ADD PUSH2 0xE72 JUMP JUMPDEST SWAP2 POP POP SWAP3 SWAP2 POP POP JUMP JUMPDEST PUSH1 0x0 PUSH1 0x20 DUP3 DUP5 SUB SLT ISZERO PUSH2 0xEDF JUMPI PUSH2 0xEDE PUSH2 0x11F0 JUMP JUMPDEST JUMPDEST PUSH1 0x0 PUSH2 0xEED DUP5 DUP3 DUP6 ADD PUSH2 0xE87 JUMP JUMPDEST SWAP2 POP POP SWAP3 SWAP2 POP POP JUMP JUMPDEST PUSH1 0x0 DUP1 PUSH1 0x40 DUP4 DUP6 SUB SLT ISZERO PUSH2 0xF0D JUMPI PUSH2 0xF0C PUSH2 0x11F0 JUMP JUMPDEST JUMPDEST PUSH1 0x0 PUSH2 0xF1B DUP6 DUP3 DUP7 ADD PUSH2 0xE87 JUMP JUMPDEST SWAP3 POP POP PUSH1 0x20 PUSH2 0xF2C DUP6 DUP3 DUP7 ADD PUSH2 0xE5D JUMP JUMPDEST SWAP2 POP POP SWAP3 POP SWAP3 SWAP1 POP JUMP JUMPDEST PUSH1 0x0 DUP1 PUSH1 0x40 DUP4 DUP6 SUB SLT ISZERO PUSH2 0xF4D JUMPI PUSH2 0xF4C PUSH2 0x11F0 JUMP JUMPDEST JUMPDEST PUSH1 0x0 PUSH2 0xF5B DUP6 DUP3 DUP7 ADD PUSH2 0xE87 JUMP JUMPDEST SWAP3 POP POP PUSH1 0x20 PUSH2 0xF6C DUP6 DUP3 DUP7 ADD PUSH2 0xE72 JUMP JUMPDEST SWAP2 POP POP SWAP3 POP SWAP3 SWAP1 POP JUMP JUMPDEST PUSH2 0xF87 PUSH2 0xF82 DUP3 PUSH2 0x10B1 JUMP JUMPDEST PUSH2 0x1104 JUMP JUMPDEST DUP3 MSTORE POP POP JUMP JUMPDEST PUSH2 0xF96 DUP2 PUSH2 0x10C3 JUMP JUMPDEST DUP3 MSTORE POP POP JUMP JUMPDEST PUSH2 0xFA5 DUP2 PUSH2 0x10ED JUMP JUMPDEST DUP3 MSTORE POP POP JUMP JUMPDEST PUSH2 0xFBC PUSH2 0xFB7 DUP3 PUSH2 0x10ED JUMP JUMPDEST PUSH2 0x1128 JUMP JUMPDEST DUP3 MSTORE POP POP JUMP JUMPDEST PUSH1 0x0 PUSH2 0xFCE DUP3 DUP6 PUSH2 0xFAB JUMP JUMPDEST PUSH1 0x20 DUP3 ADD SWAP2 POP PUSH2 0xFDE DUP3 DUP5 PUSH2 0xF76 JUMP JUMPDEST PUSH1 0x14 DUP3 ADD SWAP2 POP DUP2 SWAP1 POP SWAP4 SWAP3 POP POP POP JUMP JUMPDEST PUSH1 0x0 PUSH1 0x20 DUP3 ADD SWAP1 POP PUSH2 0x1003 PUSH1 0x0 DUP4 ADD DUP5 PUSH2 0xF8D JUMP JUMPDEST SWAP3 SWAP2 POP POP JUMP JUMPDEST PUSH1 0x0 PUSH1 0x20 DUP3 ADD SWAP1 POP PUSH2 0x101E PUSH1 0x0 DUP4 ADD DUP5 PUSH2 0xF9C JUMP JUMPDEST SWAP3 SWAP2 POP POP JUMP JUMPDEST PUSH1 0x0 PUSH2 0x102F DUP3 PUSH2 0x10ED JUMP JUMPDEST SWAP2 POP PUSH2 0x103A DUP4 PUSH2 0x10ED JUMP JUMPDEST SWAP3 POP DUP3 PUSH32 0xFFFFFFFFFFFFFFFFFFFFFFFFFFFFFFFFFFFFFFFFFFFFFFFFFFFFFFFFFFFFFFFF SUB DUP3 GT ISZERO PUSH2 0x106F JUMPI PUSH2 0x106E PUSH2 0x1163 JUMP JUMPDEST JUMPDEST DUP3 DUP3 ADD SWAP1 POP SWAP3 SWAP2 POP POP JUMP JUMPDEST PUSH1 0x0 PUSH2 0x1085 DUP3 PUSH2 0x10F7 JUMP JUMPDEST SWAP2 POP PUSH2 0x1090 DUP4 PUSH2 0x10F7 JUMP JUMPDEST SWAP3 POP DUP3 PUSH1 0xFF SUB DUP3 GT ISZERO PUSH2 0x10A6 JUMPI PUSH2 0x10A5 PUSH2 0x1163 JUMP JUMPDEST JUMPDEST DUP3 DUP3 ADD SWAP1 POP SWAP3 SWAP2 POP POP JUMP JUMPDEST PUSH1 0x0 PUSH2 0x10BC DUP3 PUSH2 0x10CD JUMP JUMPDEST SWAP1 POP SWAP2 SWAP1 POP JUMP JUMPDEST PUSH1 0x0 DUP2 SWAP1 POP SWAP2 SWAP1 POP JUMP JUMPDEST PUSH1 0x0 PUSH20 0xFFFFFFFFFFFFFFFFFFFFFFFFFFFFFFFFFFFFFFFF DUP3 AND SWAP1 POP SWAP2 SWAP1 POP JUMP JUMPDEST PUSH1 0x0 DUP2 SWAP1 POP SWAP2 SWAP1 POP JUMP JUMPDEST PUSH1 0x0 PUSH1 0xFF DUP3 AND SWAP1 POP SWAP2 SWAP1 POP JUMP JUMPDEST PUSH1 0x0 PUSH2 0x110F DUP3 PUSH2 0x1116 JUMP JUMPDEST SWAP1 POP SWAP2 SWAP1 POP JUMP JUMPDEST PUSH1 0x0 PUSH2 0x1121 DUP3 PUSH2 0x11F5 JUMP JUMPDEST SWAP1 POP SWAP2 SWAP1 POP JUMP JUMPDEST PUSH1 0x0 DUP2 SWAP1 POP SWAP2 SWAP1 POP JUMP JUMPDEST PUSH1 0x0 PUSH2 0x113D DUP3 PUSH2 0x10F7 JUMP JUMPDEST SWAP2 POP PUSH2 0x1148 DUP4 PUSH2 0x10F7 JUMP JUMPDEST SWAP3 POP DUP3 PUSH2 0x1158 JUMPI PUSH2 0x1157 PUSH2 0x1192 JUMP JUMPDEST JUMPDEST DUP3 DUP3 MOD SWAP1 POP SWAP3 SWAP2 POP POP JUMP JUMPDEST PUSH32 0x4E487B7100000000000000000000000000000000000000000000000000000000 PUSH1 0x0 MSTORE PUSH1 0x11 PUSH1 0x4 MSTORE PUSH1 0x24 PUSH1 0x0 REVERT JUMPDEST PUSH32 0x4E487B7100000000000000000000000000000000000000000000000000000000 PUSH1 0x0 MSTORE PUSH1 0x12 PUSH1 0x4 MSTORE PUSH1 0x24 PUSH1 0x0 REVERT JUMPDEST PUSH32 0x4E487B7100000000000000000000000000000000000000000000000000000000 PUSH1 0x0 MSTORE PUSH1 0x21 PUSH1 0x4 MSTORE PUSH1 0x24 PUSH1 0x0 REVERT JUMPDEST PUSH1 0x0 DUP1 REVERT JUMPDEST PUSH1 0x0 DUP2 PUSH1 0x60 SHL SWAP1 POP SWAP2 SWAP1 POP JUMP JUMPDEST PUSH2 0x120B DUP2 PUSH2 0x10B1 JUMP JUMPDEST DUP2 EQ PUSH2 0x1216 JUMPI PUSH1 0x0 DUP1 REVERT JUMPDEST POP JUMP JUMPDEST PUSH2 0x1222 DUP2 PUSH2 0x10C3 JUMP JUMPDEST DUP2 EQ PUSH2 0x122D JUMPI PUSH1 0x0 DUP1 REVERT JUMPDEST POP JUMP JUMPDEST PUSH2 0x1239 DUP2 PUSH2 0x10ED JUMP JUMPDEST DUP2 EQ PUSH2 0x1244 JUMPI PUSH1 0x0 DUP1 REVERT JUMPDEST POP JUMP INVALID LOG2 PUSH5 0x6970667358 0x22 SLT KECCAK256 SWAP8 LOG3 0xA7 SUB 0x5C SWAP5 0xE6 0x26 0xB4 0xC 0xAC 0xF6 LOG0 0xE2 0xCE 0xE DUP2 SELFBALANCE 0xE 0xE7 0x2C RETURN SWAP1 PUSH12 0xFAB47BB9D84425064736F6C PUSH4 0x43000807 STOP CALLER "
				},
				"gasEstimates": {
					"creation": {
						"codeDepositCost": "946600",
						"executionCost": "5963",
						"totalCost": "952563"
					},
					"external": {
						"Hashed_hand(uint256,address)": "infinite",
						"createRoom(bytes32)": "infinite",
						"joinRoom(uint256,bytes32)": "infinite",
						"payout(uint256)": "infinite"
					},
					"internal": {
						"compareHands(uint256)": "infinite",
						"decodedHand(bytes32,address)": "infinite"
					}
				},
				"methodIdentifiers": {
					"Hashed_hand(uint256,address)": "52da45e6",
					"createRoom(bytes32)": "2e1ca42a",
					"joinRoom(uint256,bytes32)": "18a92553",
					"payout(uint256)": "e1152343"
				}
			},
			"storageLayout": {
				"storage": [
					{
						"astId": 46,
						"contract": "rsp_all.sol:RPS",
						"label": "rooms",
						"offset": 0,
						"slot": "0",
						"type": "t_mapping(t_uint256,t_struct(Game)41_storage)"
					},
					{
						"astId": 49,
						"contract": "rsp_all.sol:RPS",
						"label": "roomLen",
						"offset": 0,
						"slot": "1",
						"type": "t_uint256"
					}
				],
				"types": {
					"t_address_payable": {
						"encoding": "inplace",
						"label": "address payable",
						"numberOfBytes": "20"
					},
					"t_bytes32": {
						"encoding": "inplace",
						"label": "bytes32",
						"numberOfBytes": "32"
					},
					"t_enum(GameStatus)19": {
						"encoding": "inplace",
						"label": "enum RPS.GameStatus",
						"numberOfBytes": "1"
					},
					"t_enum(PlayerStatus)14": {
						"encoding": "inplace",
						"label": "enum RPS.PlayerStatus",
						"numberOfBytes": "1"
					},
					"t_mapping(t_uint256,t_struct(Game)41_storage)": {
						"encoding": "mapping",
						"key": "t_uint256",
						"label": "mapping(uint256 => struct RPS.Game)",
						"numberOfBytes": "32",
						"value": "t_struct(Game)41_storage"
					},
					"t_struct(Game)41_storage": {
						"encoding": "inplace",
						"label": "struct RPS.Game",
						"members": [
							{
								"astId": 31,
								"contract": "rsp_all.sol:RPS",
								"label": "betAmount",
								"offset": 0,
								"slot": "0",
								"type": "t_uint256"
							},
							{
								"astId": 34,
								"contract": "rsp_all.sol:RPS",
								"label": "gameStatus",
								"offset": 0,
								"slot": "1",
								"type": "t_enum(GameStatus)19"
							},
							{
								"astId": 37,
								"contract": "rsp_all.sol:RPS",
								"label": "originator",
								"offset": 0,
								"slot": "2",
								"type": "t_struct(Player)29_storage"
							},
							{
								"astId": 40,
								"contract": "rsp_all.sol:RPS",
								"label": "taker",
								"offset": 0,
								"slot": "5",
								"type": "t_struct(Player)29_storage"
							}
						],
						"numberOfBytes": "256"
					},
					"t_struct(Player)29_storage": {
						"encoding": "inplace",
						"label": "struct RPS.Player",
						"members": [
							{
								"astId": 21,
								"contract": "rsp_all.sol:RPS",
								"label": "_Hashed_hand",
								"offset": 0,
								"slot": "0",
								"type": "t_bytes32"
							},
							{
								"astId": 23,
								"contract": "rsp_all.sol:RPS",
								"label": "addr",
								"offset": 0,
								"slot": "1",
								"type": "t_address_payable"
							},
							{
								"astId": 26,
								"contract": "rsp_all.sol:RPS",
								"label": "playerStatus",
								"offset": 20,
								"slot": "1",
								"type": "t_enum(PlayerStatus)14"
							},
							{
								"astId": 28,
								"contract": "rsp_all.sol:RPS",
								"label": "playerBetAmount",
								"offset": 0,
								"slot": "2",
								"type": "t_uint256"
							}
						],
						"numberOfBytes": "96"
					},
					"t_uint256": {
						"encoding": "inplace",
						"label": "uint256",
						"numberOfBytes": "32"
					}
				}
			},
			"userdoc": {
				"kind": "user",
				"methods": {},
				"version": 1
			}
		}
	}
}