{
	"rsp_all.sol": {
		"RPS": {
			"abi": [
				{
					"inputs": [],
					"stateMutability": "payable",
					"type": "constructor"
				},
				{
					"inputs": [
						{
							"internalType": "enum RPS.Hand",
							"name": "_hand",
							"type": "uint8"
						}
					],
					"name": "createRoom",
					"outputs": [
						{
							"internalType": "uint256",
							"name": "roomNum",
							"type": "uint256"
						}
					],
					"stateMutability": "payable",
					"type": "function"
				},
				{
					"inputs": [
						{
							"internalType": "uint256",
							"name": "roomNum",
							"type": "uint256"
						},
						{
							"internalType": "enum RPS.Hand",
							"name": "_hand",
							"type": "uint8"
						}
					],
					"name": "joinRoom",
					"outputs": [],
					"stateMutability": "payable",
					"type": "function"
				},
				{
					"inputs": [
						{
							"internalType": "uint256",
							"name": "roomNum",
							"type": "uint256"
						}
					],
					"name": "payout",
					"outputs": [],
					"stateMutability": "payable",
					"type": "function"
				}
			],
			"devdoc": {
				"kind": "dev",
				"methods": {},
				"version": 1
			},
			"evm": {
				"assembly": "    /* \"rsp_all.sol\":56:5034  contract RPS {... */\n  mstore(0x40, 0x80)\n    /* \"rsp_all.sol\":1083:1084  0 */\n  0x00\n    /* \"rsp_all.sol\":1068:1084  uint roomLen = 0 */\n  0x01\n  sstore\n    /* \"rsp_all.sol\":56:5034  contract RPS {... */\n  dataSize(sub_0)\n  dup1\n  dataOffset(sub_0)\n  0x00\n  codecopy\n  0x00\n  return\nstop\n\nsub_0: assembly {\n        /* \"rsp_all.sol\":56:5034  contract RPS {... */\n      mstore(0x40, 0x80)\n      jumpi(tag_1, lt(calldatasize, 0x04))\n      shr(0xe0, calldataload(0x00))\n      dup1\n      0x0f36f3b5\n      eq\n      tag_2\n      jumpi\n      dup1\n      0x79b15776\n      eq\n      tag_3\n      jumpi\n      dup1\n      0xe1152343\n      eq\n      tag_4\n      jumpi\n    tag_1:\n      0x00\n      dup1\n      revert\n        /* \"rsp_all.sol\":1643:2450  function createRoom (Hand _hand) public payable isValidHand(_hand) returns (uint roomNum) {... */\n    tag_2:\n      tag_5\n      0x04\n      dup1\n      calldatasize\n      sub\n      dup2\n      add\n      swap1\n      tag_6\n      swap2\n      swap1\n      tag_7\n      jump\t// in\n    tag_6:\n      tag_8\n      jump\t// in\n    tag_5:\n      mload(0x40)\n      tag_9\n      swap2\n      swap1\n      tag_10\n      jump\t// in\n    tag_9:\n      mload(0x40)\n      dup1\n      swap2\n      sub\n      swap1\n      return\n        /* \"rsp_all.sol\":2460:2956  function joinRoom(uint roomNum, Hand _hand) public payable isValidHand( _hand) {... */\n    tag_3:\n      tag_11\n      0x04\n      dup1\n      calldatasize\n      sub\n      dup2\n      add\n      swap1\n      tag_12\n      swap2\n      swap1\n      tag_13\n      jump\t// in\n    tag_12:\n      tag_14\n      jump\t// in\n    tag_11:\n      stop\n        /* \"rsp_all.sol\":2966:4025  function payout(uint roomNum) public payable isPlayer(roomNum, msg.sender) {... */\n    tag_4:\n      tag_15\n      0x04\n      dup1\n      calldatasize\n      sub\n      dup2\n      add\n      swap1\n      tag_16\n      swap2\n      swap1\n      tag_17\n      jump\t// in\n    tag_16:\n      tag_18\n      jump\t// in\n    tag_15:\n      stop\n        /* \"rsp_all.sol\":1643:2450  function createRoom (Hand _hand) public payable isValidHand(_hand) returns (uint roomNum) {... */\n    tag_8:\n        /* \"rsp_all.sol\":1719:1731  uint roomNum */\n      0x00\n        /* \"rsp_all.sol\":1703:1708  _hand */\n      dup2\n        /* \"rsp_all.sol\":1158:1167  Hand.rock */\n      0x00\n        /* \"rsp_all.sol\":1148:1167  _hand  == Hand.rock */\n      0x02\n      dup2\n      gt\n      iszero\n      tag_20\n      jumpi\n      tag_21\n      tag_22\n      jump\t// in\n    tag_21:\n    tag_20:\n        /* \"rsp_all.sol\":1148:1153  _hand */\n      dup2\n        /* \"rsp_all.sol\":1148:1167  _hand  == Hand.rock */\n      0x02\n      dup2\n      gt\n      iszero\n      tag_23\n      jumpi\n      tag_24\n      tag_22\n      jump\t// in\n    tag_24:\n    tag_23:\n      eq\n        /* \"rsp_all.sol\":1147:1194  (_hand  == Hand.rock) || (_hand  == Hand.paper) */\n      dup1\n      tag_25\n      jumpi\n      pop\n        /* \"rsp_all.sol\":1183:1193  Hand.paper */\n      0x01\n        /* \"rsp_all.sol\":1173:1193  _hand  == Hand.paper */\n      0x02\n      dup2\n      gt\n      iszero\n      tag_26\n      jumpi\n      tag_27\n      tag_22\n      jump\t// in\n    tag_27:\n    tag_26:\n        /* \"rsp_all.sol\":1173:1178  _hand */\n      dup2\n        /* \"rsp_all.sol\":1173:1193  _hand  == Hand.paper */\n      0x02\n      dup2\n      gt\n      iszero\n      tag_28\n      jumpi\n      tag_29\n      tag_22\n      jump\t// in\n    tag_29:\n    tag_28:\n      eq\n        /* \"rsp_all.sol\":1147:1194  (_hand  == Hand.rock) || (_hand  == Hand.paper) */\n    tag_25:\n        /* \"rsp_all.sol\":1147:1222  (_hand  == Hand.rock) || (_hand  == Hand.paper) || (_hand == Hand.scissors) */\n      dup1\n      tag_30\n      jumpi\n      pop\n        /* \"rsp_all.sol\":1208:1221  Hand.scissors */\n      0x02\n        /* \"rsp_all.sol\":1199:1221  _hand == Hand.scissors */\n      dup1\n      dup2\n      gt\n      iszero\n      tag_31\n      jumpi\n      tag_32\n      tag_22\n      jump\t// in\n    tag_32:\n    tag_31:\n        /* \"rsp_all.sol\":1199:1204  _hand */\n      dup2\n        /* \"rsp_all.sol\":1199:1221  _hand == Hand.scissors */\n      0x02\n      dup2\n      gt\n      iszero\n      tag_33\n      jumpi\n      tag_34\n      tag_22\n      jump\t// in\n    tag_34:\n    tag_33:\n      eq\n        /* \"rsp_all.sol\":1147:1222  (_hand  == Hand.rock) || (_hand  == Hand.paper) || (_hand == Hand.scissors) */\n    tag_30:\n        /* \"rsp_all.sol\":1139:1223  require((_hand  == Hand.rock) || (_hand  == Hand.paper) || (_hand == Hand.scissors)) */\n      tag_35\n      jumpi\n      0x00\n      dup1\n      revert\n    tag_35:\n        /* \"rsp_all.sol\":1760:2319  Game({... */\n      mload(0x40)\n      dup1\n      0x80\n      add\n      0x40\n      mstore\n      dup1\n        /* \"rsp_all.sol\":1790:1799  msg.value */\n      callvalue\n        /* \"rsp_all.sol\":1760:2319  Game({... */\n      dup2\n      mstore\n      0x20\n      add\n        /* \"rsp_all.sol\":1825:1854  GameStatus.STATUS_NOT_STARTED */\n      0x00\n        /* \"rsp_all.sol\":1760:2319  Game({... */\n      0x03\n      dup2\n      gt\n      iszero\n      tag_37\n      jumpi\n      tag_38\n      tag_22\n      jump\t// in\n    tag_38:\n    tag_37:\n      dup2\n      mstore\n      0x20\n      add\n        /* \"rsp_all.sol\":1880:2077  Player({... */\n      mload(0x40)\n      dup1\n      0x80\n      add\n      0x40\n      mstore\n      dup1\n        /* \"rsp_all.sol\":1911:1916  _hand */\n      dup7\n        /* \"rsp_all.sol\":1880:2077  Player({... */\n      0x02\n      dup2\n      gt\n      iszero\n      tag_39\n      jumpi\n      tag_40\n      tag_22\n      jump\t// in\n    tag_40:\n    tag_39:\n      dup2\n      mstore\n      0x20\n      add\n        /* \"rsp_all.sol\":1948:1958  msg.sender */\n      caller\n        /* \"rsp_all.sol\":1880:2077  Player({... */\n      0xffffffffffffffffffffffffffffffffffffffff\n      and\n      dup2\n      mstore\n      0x20\n      add\n        /* \"rsp_all.sol\":1991:2018  PlayerStatus.STATUS_PENDING */\n      0x03\n        /* \"rsp_all.sol\":1880:2077  Player({... */\n      dup1\n      dup2\n      gt\n      iszero\n      tag_41\n      jumpi\n      tag_42\n      tag_22\n      jump\t// in\n    tag_42:\n    tag_41:\n      dup2\n      mstore\n      0x20\n      add\n        /* \"rsp_all.sol\":2053:2062  msg.value */\n      callvalue\n        /* \"rsp_all.sol\":1880:2077  Player({... */\n      dup2\n      mstore\n      pop\n        /* \"rsp_all.sol\":1760:2319  Game({... */\n      dup2\n      mstore\n      0x20\n      add\n        /* \"rsp_all.sol\":2098:2308  Player({ // will change... */\n      mload(0x40)\n      dup1\n      0x80\n      add\n      0x40\n      mstore\n      dup1\n        /* \"rsp_all.sol\":2144:2153  Hand.rock */\n      0x00\n        /* \"rsp_all.sol\":2098:2308  Player({ // will change... */\n      0x02\n      dup2\n      gt\n      iszero\n      tag_43\n      jumpi\n      tag_44\n      tag_22\n      jump\t// in\n    tag_44:\n    tag_43:\n      dup2\n      mstore\n      0x20\n      add\n        /* \"rsp_all.sol\":2185:2195  msg.sender */\n      caller\n        /* \"rsp_all.sol\":2098:2308  Player({ // will change... */\n      0xffffffffffffffffffffffffffffffffffffffff\n      and\n      dup2\n      mstore\n      0x20\n      add\n        /* \"rsp_all.sol\":2230:2257  PlayerStatus.STATUS_PENDING */\n      0x03\n        /* \"rsp_all.sol\":2098:2308  Player({ // will change... */\n      dup1\n      dup2\n      gt\n      iszero\n      tag_45\n      jumpi\n      tag_46\n      tag_22\n      jump\t// in\n    tag_46:\n    tag_45:\n      dup2\n      mstore\n      0x20\n      add\n        /* \"rsp_all.sol\":2292:2293  0 */\n      0x00\n        /* \"rsp_all.sol\":2098:2308  Player({ // will change... */\n      dup2\n      mstore\n      pop\n        /* \"rsp_all.sol\":1760:2319  Game({... */\n      dup2\n      mstore\n      pop\n        /* \"rsp_all.sol\":1743:1748  rooms */\n      0x00\n        /* \"rsp_all.sol\":1743:1757  rooms[roomLen] */\n      dup1\n        /* \"rsp_all.sol\":1749:1756  roomLen */\n      sload(0x01)\n        /* \"rsp_all.sol\":1743:1757  rooms[roomLen] */\n      dup2\n      mstore\n      0x20\n      add\n      swap1\n      dup2\n      mstore\n      0x20\n      add\n      0x00\n      keccak256\n        /* \"rsp_all.sol\":1743:2319  rooms[roomLen] = Game({... */\n      0x00\n      dup3\n      add\n      mload\n      dup2\n      0x00\n      add\n      sstore\n      0x20\n      dup3\n      add\n      mload\n      dup2\n      0x01\n      add\n      exp(0x0100, 0x00)\n      dup2\n      sload\n      dup2\n      0xff\n      mul\n      not\n      and\n      swap1\n      dup4\n      0x03\n      dup2\n      gt\n      iszero\n      tag_47\n      jumpi\n      tag_48\n      tag_22\n      jump\t// in\n    tag_48:\n    tag_47:\n      mul\n      or\n      swap1\n      sstore\n      pop\n      0x40\n      dup3\n      add\n      mload\n      dup2\n      0x02\n      add\n      0x00\n      dup3\n      add\n      mload\n      dup2\n      0x00\n      add\n      exp(0x0100, 0x00)\n      dup2\n      sload\n      dup2\n      0xff\n      mul\n      not\n      and\n      swap1\n      dup4\n      0x02\n      dup2\n      gt\n      iszero\n      tag_49\n      jumpi\n      tag_50\n      tag_22\n      jump\t// in\n    tag_50:\n    tag_49:\n      mul\n      or\n      swap1\n      sstore\n      pop\n      0x20\n      dup3\n      add\n      mload\n      dup2\n      0x00\n      add\n      exp(0x0100, 0x01)\n      dup2\n      sload\n      dup2\n      0xffffffffffffffffffffffffffffffffffffffff\n      mul\n      not\n      and\n      swap1\n      dup4\n      0xffffffffffffffffffffffffffffffffffffffff\n      and\n      mul\n      or\n      swap1\n      sstore\n      pop\n      0x40\n      dup3\n      add\n      mload\n      dup2\n      0x00\n      add\n      exp(0x0100, 0x15)\n      dup2\n      sload\n      dup2\n      0xff\n      mul\n      not\n      and\n      swap1\n      dup4\n      0x03\n      dup2\n      gt\n      iszero\n      tag_51\n      jumpi\n      tag_52\n      tag_22\n      jump\t// in\n    tag_52:\n    tag_51:\n      mul\n      or\n      swap1\n      sstore\n      pop\n      0x60\n      dup3\n      add\n      mload\n      dup2\n      0x01\n      add\n      sstore\n      pop\n      pop\n      0x60\n      dup3\n      add\n      mload\n      dup2\n      0x04\n      add\n      0x00\n      dup3\n      add\n      mload\n      dup2\n      0x00\n      add\n      exp(0x0100, 0x00)\n      dup2\n      sload\n      dup2\n      0xff\n      mul\n      not\n      and\n      swap1\n      dup4\n      0x02\n      dup2\n      gt\n      iszero\n      tag_53\n      jumpi\n      tag_54\n      tag_22\n      jump\t// in\n    tag_54:\n    tag_53:\n      mul\n      or\n      swap1\n      sstore\n      pop\n      0x20\n      dup3\n      add\n      mload\n      dup2\n      0x00\n      add\n      exp(0x0100, 0x01)\n      dup2\n      sload\n      dup2\n      0xffffffffffffffffffffffffffffffffffffffff\n      mul\n      not\n      and\n      swap1\n      dup4\n      0xffffffffffffffffffffffffffffffffffffffff\n      and\n      mul\n      or\n      swap1\n      sstore\n      pop\n      0x40\n      dup3\n      add\n      mload\n      dup2\n      0x00\n      add\n      exp(0x0100, 0x15)\n      dup2\n      sload\n      dup2\n      0xff\n      mul\n      not\n      and\n      swap1\n      dup4\n      0x03\n      dup2\n      gt\n      iszero\n      tag_55\n      jumpi\n      tag_56\n      tag_22\n      jump\t// in\n    tag_56:\n    tag_55:\n      mul\n      or\n      swap1\n      sstore\n      pop\n      0x60\n      dup3\n      add\n      mload\n      dup2\n      0x01\n      add\n      sstore\n      pop\n      pop\n      swap1\n      pop\n      pop\n        /* \"rsp_all.sol\":2339:2346  roomLen */\n      sload(0x01)\n        /* \"rsp_all.sol\":2329:2346  roomNum = roomLen */\n      swap2\n      pop\n        /* \"rsp_all.sol\":2374:2375  1 */\n      0x01\n        /* \"rsp_all.sol\":2366:2373  roomLen */\n      dup1\n      sload\n        /* \"rsp_all.sol\":2366:2375  roomLen+1 */\n      tag_57\n      swap2\n      swap1\n      tag_58\n      jump\t// in\n    tag_57:\n        /* \"rsp_all.sol\":2356:2363  roomLen */\n      0x01\n        /* \"rsp_all.sol\":2356:2375  roomLen = roomLen+1 */\n      dup2\n      swap1\n      sstore\n      pop\n        /* \"rsp_all.sol\":1643:2450  function createRoom (Hand _hand) public payable isValidHand(_hand) returns (uint roomNum) {... */\n      pop\n      swap2\n      swap1\n      pop\n      jump\t// out\n        /* \"rsp_all.sol\":2460:2956  function joinRoom(uint roomNum, Hand _hand) public payable isValidHand( _hand) {... */\n    tag_14:\n        /* \"rsp_all.sol\":2532:2537  _hand */\n      dup1\n        /* \"rsp_all.sol\":1158:1167  Hand.rock */\n      0x00\n        /* \"rsp_all.sol\":1148:1167  _hand  == Hand.rock */\n      0x02\n      dup2\n      gt\n      iszero\n      tag_60\n      jumpi\n      tag_61\n      tag_22\n      jump\t// in\n    tag_61:\n    tag_60:\n        /* \"rsp_all.sol\":1148:1153  _hand */\n      dup2\n        /* \"rsp_all.sol\":1148:1167  _hand  == Hand.rock */\n      0x02\n      dup2\n      gt\n      iszero\n      tag_62\n      jumpi\n      tag_63\n      tag_22\n      jump\t// in\n    tag_63:\n    tag_62:\n      eq\n        /* \"rsp_all.sol\":1147:1194  (_hand  == Hand.rock) || (_hand  == Hand.paper) */\n      dup1\n      tag_64\n      jumpi\n      pop\n        /* \"rsp_all.sol\":1183:1193  Hand.paper */\n      0x01\n        /* \"rsp_all.sol\":1173:1193  _hand  == Hand.paper */\n      0x02\n      dup2\n      gt\n      iszero\n      tag_65\n      jumpi\n      tag_66\n      tag_22\n      jump\t// in\n    tag_66:\n    tag_65:\n        /* \"rsp_all.sol\":1173:1178  _hand */\n      dup2\n        /* \"rsp_all.sol\":1173:1193  _hand  == Hand.paper */\n      0x02\n      dup2\n      gt\n      iszero\n      tag_67\n      jumpi\n      tag_68\n      tag_22\n      jump\t// in\n    tag_68:\n    tag_67:\n      eq\n        /* \"rsp_all.sol\":1147:1194  (_hand  == Hand.rock) || (_hand  == Hand.paper) */\n    tag_64:\n        /* \"rsp_all.sol\":1147:1222  (_hand  == Hand.rock) || (_hand  == Hand.paper) || (_hand == Hand.scissors) */\n      dup1\n      tag_69\n      jumpi\n      pop\n        /* \"rsp_all.sol\":1208:1221  Hand.scissors */\n      0x02\n        /* \"rsp_all.sol\":1199:1221  _hand == Hand.scissors */\n      dup1\n      dup2\n      gt\n      iszero\n      tag_70\n      jumpi\n      tag_71\n      tag_22\n      jump\t// in\n    tag_71:\n    tag_70:\n        /* \"rsp_all.sol\":1199:1204  _hand */\n      dup2\n        /* \"rsp_all.sol\":1199:1221  _hand == Hand.scissors */\n      0x02\n      dup2\n      gt\n      iszero\n      tag_72\n      jumpi\n      tag_73\n      tag_22\n      jump\t// in\n    tag_73:\n    tag_72:\n      eq\n        /* \"rsp_all.sol\":1147:1222  (_hand  == Hand.rock) || (_hand  == Hand.paper) || (_hand == Hand.scissors) */\n    tag_69:\n        /* \"rsp_all.sol\":1139:1223  require((_hand  == Hand.rock) || (_hand  == Hand.paper) || (_hand == Hand.scissors)) */\n      tag_74\n      jumpi\n      0x00\n      dup1\n      revert\n    tag_74:\n        /* \"rsp_all.sol\":2668:2845  Player({... */\n      mload(0x40)\n      dup1\n      0x80\n      add\n      0x40\n      mstore\n      dup1\n        /* \"rsp_all.sol\":2695:2700  _hand */\n      dup4\n        /* \"rsp_all.sol\":2668:2845  Player({... */\n      0x02\n      dup2\n      gt\n      iszero\n      tag_76\n      jumpi\n      tag_77\n      tag_22\n      jump\t// in\n    tag_77:\n    tag_76:\n      dup2\n      mstore\n      0x20\n      add\n        /* \"rsp_all.sol\":2728:2738  msg.sender */\n      caller\n        /* \"rsp_all.sol\":2668:2845  Player({... */\n      0xffffffffffffffffffffffffffffffffffffffff\n      and\n      dup2\n      mstore\n      0x20\n      add\n        /* \"rsp_all.sol\":2767:2794  PlayerStatus.STATUS_PENDING */\n      0x03\n        /* \"rsp_all.sol\":2668:2845  Player({... */\n      dup1\n      dup2\n      gt\n      iszero\n      tag_78\n      jumpi\n      tag_79\n      tag_22\n      jump\t// in\n    tag_79:\n    tag_78:\n      dup2\n      mstore\n      0x20\n      add\n        /* \"rsp_all.sol\":2825:2834  msg.value */\n      callvalue\n        /* \"rsp_all.sol\":2668:2845  Player({... */\n      dup2\n      mstore\n      pop\n        /* \"rsp_all.sol\":2645:2650  rooms */\n      0x00\n        /* \"rsp_all.sol\":2645:2659  rooms[roomNum] */\n      dup1\n        /* \"rsp_all.sol\":2651:2658  roomNum */\n      dup6\n        /* \"rsp_all.sol\":2645:2659  rooms[roomNum] */\n      dup2\n      mstore\n      0x20\n      add\n      swap1\n      dup2\n      mstore\n      0x20\n      add\n      0x00\n      keccak256\n        /* \"rsp_all.sol\":2645:2665  rooms[roomNum].taker */\n      0x04\n      add\n        /* \"rsp_all.sol\":2645:2845  rooms[roomNum].taker = Player({... */\n      0x00\n      dup3\n      add\n      mload\n      dup2\n      0x00\n      add\n      exp(0x0100, 0x00)\n      dup2\n      sload\n      dup2\n      0xff\n      mul\n      not\n      and\n      swap1\n      dup4\n      0x02\n      dup2\n      gt\n      iszero\n      tag_80\n      jumpi\n      tag_81\n      tag_22\n      jump\t// in\n    tag_81:\n    tag_80:\n      mul\n      or\n      swap1\n      sstore\n      pop\n      0x20\n      dup3\n      add\n      mload\n      dup2\n      0x00\n      add\n      exp(0x0100, 0x01)\n      dup2\n      sload\n      dup2\n      0xffffffffffffffffffffffffffffffffffffffff\n      mul\n      not\n      and\n      swap1\n      dup4\n      0xffffffffffffffffffffffffffffffffffffffff\n      and\n      mul\n      or\n      swap1\n      sstore\n      pop\n      0x40\n      dup3\n      add\n      mload\n      dup2\n      0x00\n      add\n      exp(0x0100, 0x15)\n      dup2\n      sload\n      dup2\n      0xff\n      mul\n      not\n      and\n      swap1\n      dup4\n      0x03\n      dup2\n      gt\n      iszero\n      tag_82\n      jumpi\n      tag_83\n      tag_22\n      jump\t// in\n    tag_83:\n    tag_82:\n      mul\n      or\n      swap1\n      sstore\n      pop\n      0x60\n      dup3\n      add\n      mload\n      dup2\n      0x01\n      add\n      sstore\n      swap1\n      pop\n      pop\n        /* \"rsp_all.sol\":2909:2918  msg.value */\n      callvalue\n        /* \"rsp_all.sol\":2882:2887  rooms */\n      0x00\n        /* \"rsp_all.sol\":2882:2896  rooms[roomNum] */\n      dup1\n        /* \"rsp_all.sol\":2888:2895  roomNum */\n      dup6\n        /* \"rsp_all.sol\":2882:2896  rooms[roomNum] */\n      dup2\n      mstore\n      0x20\n      add\n      swap1\n      dup2\n      mstore\n      0x20\n      add\n      0x00\n      keccak256\n        /* \"rsp_all.sol\":2882:2906  rooms[roomNum].betAmount */\n      0x00\n      add\n      sload\n        /* \"rsp_all.sol\":2882:2918  rooms[roomNum].betAmount + msg.value */\n      tag_84\n      swap2\n      swap1\n      tag_58\n      jump\t// in\n    tag_84:\n        /* \"rsp_all.sol\":2855:2860  rooms */\n      0x00\n        /* \"rsp_all.sol\":2855:2869  rooms[roomNum] */\n      dup1\n        /* \"rsp_all.sol\":2861:2868  roomNum */\n      dup6\n        /* \"rsp_all.sol\":2855:2869  rooms[roomNum] */\n      dup2\n      mstore\n      0x20\n      add\n      swap1\n      dup2\n      mstore\n      0x20\n      add\n      0x00\n      keccak256\n        /* \"rsp_all.sol\":2855:2879  rooms[roomNum].betAmount */\n      0x00\n      add\n        /* \"rsp_all.sol\":2855:2918  rooms[roomNum].betAmount = rooms[roomNum].betAmount + msg.value */\n      dup2\n      swap1\n      sstore\n      pop\n        /* \"rsp_all.sol\":2928:2949  compareHands(roomNum) */\n      tag_85\n        /* \"rsp_all.sol\":2941:2948  roomNum */\n      dup4\n        /* \"rsp_all.sol\":2928:2940  compareHands */\n      tag_86\n        /* \"rsp_all.sol\":2928:2949  compareHands(roomNum) */\n      jump\t// in\n    tag_85:\n        /* \"rsp_all.sol\":2460:2956  function joinRoom(uint roomNum, Hand _hand) public payable isValidHand( _hand) {... */\n      pop\n      pop\n      pop\n      jump\t// out\n        /* \"rsp_all.sol\":2966:4025  function payout(uint roomNum) public payable isPlayer(roomNum, msg.sender) {... */\n    tag_18:\n        /* \"rsp_all.sol\":3020:3027  roomNum */\n      dup1\n        /* \"rsp_all.sol\":3029:3039  msg.sender */\n      caller\n        /* \"rsp_all.sol\":1328:1333  rooms */\n      0x00\n        /* \"rsp_all.sol\":1328:1342  rooms[roomNum] */\n      dup1\n        /* \"rsp_all.sol\":1334:1341  roomNum */\n      dup4\n        /* \"rsp_all.sol\":1328:1342  rooms[roomNum] */\n      dup2\n      mstore\n      0x20\n      add\n      swap1\n      dup2\n      mstore\n      0x20\n      add\n      0x00\n      keccak256\n        /* \"rsp_all.sol\":1328:1353  rooms[roomNum].originator */\n      0x02\n      add\n        /* \"rsp_all.sol\":1328:1358  rooms[roomNum].originator.addr */\n      0x00\n      add\n      0x01\n      swap1\n      sload\n      swap1\n      0x0100\n      exp\n      swap1\n      div\n      0xffffffffffffffffffffffffffffffffffffffff\n      and\n        /* \"rsp_all.sol\":1318:1358  sender == rooms[roomNum].originator.addr */\n      0xffffffffffffffffffffffffffffffffffffffff\n      and\n        /* \"rsp_all.sol\":1318:1324  sender */\n      dup2\n        /* \"rsp_all.sol\":1318:1358  sender == rooms[roomNum].originator.addr */\n      0xffffffffffffffffffffffffffffffffffffffff\n      and\n      eq\n        /* \"rsp_all.sol\":1318:1397  sender == rooms[roomNum].originator.addr || sender == rooms[roomNum].taker.addr */\n      dup1\n      tag_88\n      jumpi\n      pop\n        /* \"rsp_all.sol\":1372:1377  rooms */\n      0x00\n        /* \"rsp_all.sol\":1372:1386  rooms[roomNum] */\n      dup1\n        /* \"rsp_all.sol\":1378:1385  roomNum */\n      dup4\n        /* \"rsp_all.sol\":1372:1386  rooms[roomNum] */\n      dup2\n      mstore\n      0x20\n      add\n      swap1\n      dup2\n      mstore\n      0x20\n      add\n      0x00\n      keccak256\n        /* \"rsp_all.sol\":1372:1392  rooms[roomNum].taker */\n      0x04\n      add\n        /* \"rsp_all.sol\":1372:1397  rooms[roomNum].taker.addr */\n      0x00\n      add\n      0x01\n      swap1\n      sload\n      swap1\n      0x0100\n      exp\n      swap1\n      div\n      0xffffffffffffffffffffffffffffffffffffffff\n      and\n        /* \"rsp_all.sol\":1362:1397  sender == rooms[roomNum].taker.addr */\n      0xffffffffffffffffffffffffffffffffffffffff\n      and\n        /* \"rsp_all.sol\":1362:1368  sender */\n      dup2\n        /* \"rsp_all.sol\":1362:1397  sender == rooms[roomNum].taker.addr */\n      0xffffffffffffffffffffffffffffffffffffffff\n      and\n      eq\n        /* \"rsp_all.sol\":1318:1397  sender == rooms[roomNum].originator.addr || sender == rooms[roomNum].taker.addr */\n    tag_88:\n        /* \"rsp_all.sol\":1310:1398  require(sender == rooms[roomNum].originator.addr || sender == rooms[roomNum].taker.addr) */\n      tag_89\n      jumpi\n      0x00\n      dup1\n      revert\n    tag_89:\n        /* \"rsp_all.sol\":3097:3120  PlayerStatus.STATUS_TIE */\n      0x02\n        /* \"rsp_all.sol\":3055:3120  rooms[roomNum].originator.playerStatus == PlayerStatus.STATUS_TIE */\n      0x03\n      dup2\n      gt\n      iszero\n      tag_91\n      jumpi\n      tag_92\n      tag_22\n      jump\t// in\n    tag_92:\n    tag_91:\n        /* \"rsp_all.sol\":3055:3060  rooms */\n      0x00\n        /* \"rsp_all.sol\":3055:3069  rooms[roomNum] */\n      dup1\n        /* \"rsp_all.sol\":3061:3068  roomNum */\n      dup6\n        /* \"rsp_all.sol\":3055:3069  rooms[roomNum] */\n      dup2\n      mstore\n      0x20\n      add\n      swap1\n      dup2\n      mstore\n      0x20\n      add\n      0x00\n      keccak256\n        /* \"rsp_all.sol\":3055:3080  rooms[roomNum].originator */\n      0x02\n      add\n        /* \"rsp_all.sol\":3055:3093  rooms[roomNum].originator.playerStatus */\n      0x00\n      add\n      0x15\n      swap1\n      sload\n      swap1\n      0x0100\n      exp\n      swap1\n      div\n      0xff\n      and\n        /* \"rsp_all.sol\":3055:3120  rooms[roomNum].originator.playerStatus == PlayerStatus.STATUS_TIE */\n      0x03\n      dup2\n      gt\n      iszero\n      tag_93\n      jumpi\n      tag_94\n      tag_22\n      jump\t// in\n    tag_94:\n    tag_93:\n      eq\n        /* \"rsp_all.sol\":3055:3184  rooms[roomNum].originator.playerStatus == PlayerStatus.STATUS_TIE && rooms[roomNum].taker.playerStatus == PlayerStatus.STATUS_TIE */\n      dup1\n      iszero\n      tag_95\n      jumpi\n      pop\n        /* \"rsp_all.sol\":3161:3184  PlayerStatus.STATUS_TIE */\n      0x02\n        /* \"rsp_all.sol\":3124:3184  rooms[roomNum].taker.playerStatus == PlayerStatus.STATUS_TIE */\n      0x03\n      dup2\n      gt\n      iszero\n      tag_96\n      jumpi\n      tag_97\n      tag_22\n      jump\t// in\n    tag_97:\n    tag_96:\n        /* \"rsp_all.sol\":3124:3129  rooms */\n      0x00\n        /* \"rsp_all.sol\":3124:3138  rooms[roomNum] */\n      dup1\n        /* \"rsp_all.sol\":3130:3137  roomNum */\n      dup6\n        /* \"rsp_all.sol\":3124:3138  rooms[roomNum] */\n      dup2\n      mstore\n      0x20\n      add\n      swap1\n      dup2\n      mstore\n      0x20\n      add\n      0x00\n      keccak256\n        /* \"rsp_all.sol\":3124:3144  rooms[roomNum].taker */\n      0x04\n      add\n        /* \"rsp_all.sol\":3124:3157  rooms[roomNum].taker.playerStatus */\n      0x00\n      add\n      0x15\n      swap1\n      sload\n      swap1\n      0x0100\n      exp\n      swap1\n      div\n      0xff\n      and\n        /* \"rsp_all.sol\":3124:3184  rooms[roomNum].taker.playerStatus == PlayerStatus.STATUS_TIE */\n      0x03\n      dup2\n      gt\n      iszero\n      tag_98\n      jumpi\n      tag_99\n      tag_22\n      jump\t// in\n    tag_99:\n    tag_98:\n      eq\n        /* \"rsp_all.sol\":3055:3184  rooms[roomNum].originator.playerStatus == PlayerStatus.STATUS_TIE && rooms[roomNum].taker.playerStatus == PlayerStatus.STATUS_TIE */\n    tag_95:\n        /* \"rsp_all.sol\":3051:3954  if (rooms[roomNum].originator.playerStatus == PlayerStatus.STATUS_TIE && rooms[roomNum].taker.playerStatus == PlayerStatus.STATUS_TIE) {... */\n      iszero\n      tag_100\n      jumpi\n        /* \"rsp_all.sol\":3200:3205  rooms */\n      0x00\n        /* \"rsp_all.sol\":3200:3214  rooms[roomNum] */\n      dup1\n        /* \"rsp_all.sol\":3206:3213  roomNum */\n      dup5\n        /* \"rsp_all.sol\":3200:3214  rooms[roomNum] */\n      dup2\n      mstore\n      0x20\n      add\n      swap1\n      dup2\n      mstore\n      0x20\n      add\n      0x00\n      keccak256\n        /* \"rsp_all.sol\":3200:3225  rooms[roomNum].originator */\n      0x02\n      add\n        /* \"rsp_all.sol\":3200:3230  rooms[roomNum].originator.addr */\n      0x00\n      add\n      0x01\n      swap1\n      sload\n      swap1\n      0x0100\n      exp\n      swap1\n      div\n      0xffffffffffffffffffffffffffffffffffffffff\n      and\n        /* \"rsp_all.sol\":3200:3239  rooms[roomNum].originator.addr.transfer */\n      0xffffffffffffffffffffffffffffffffffffffff\n      and\n        /* \"rsp_all.sol\":3200:3282  rooms[roomNum].originator.addr.transfer(rooms[roomNum].originator.playerBetAmount) */\n      0x08fc\n        /* \"rsp_all.sol\":3240:3245  rooms */\n      0x00\n        /* \"rsp_all.sol\":3240:3254  rooms[roomNum] */\n      dup1\n        /* \"rsp_all.sol\":3246:3253  roomNum */\n      dup7\n        /* \"rsp_all.sol\":3240:3254  rooms[roomNum] */\n      dup2\n      mstore\n      0x20\n      add\n      swap1\n      dup2\n      mstore\n      0x20\n      add\n      0x00\n      keccak256\n        /* \"rsp_all.sol\":3240:3265  rooms[roomNum].originator */\n      0x02\n      add\n        /* \"rsp_all.sol\":3240:3281  rooms[roomNum].originator.playerBetAmount */\n      0x01\n      add\n      sload\n        /* \"rsp_all.sol\":3200:3282  rooms[roomNum].originator.addr.transfer(rooms[roomNum].originator.playerBetAmount) */\n      swap1\n      dup2\n      iszero\n      mul\n      swap1\n      mload(0x40)\n      0x00\n      mload(0x40)\n      dup1\n      dup4\n      sub\n      dup2\n      dup6\n      dup9\n      dup9\n      call\n      swap4\n      pop\n      pop\n      pop\n      pop\n      iszero\n      dup1\n      iszero\n      tag_102\n      jumpi\n      returndatasize\n      0x00\n      dup1\n      returndatacopy\n      revert(0x00, returndatasize)\n    tag_102:\n      pop\n        /* \"rsp_all.sol\":3296:3301  rooms */\n      0x00\n        /* \"rsp_all.sol\":3296:3310  rooms[roomNum] */\n      dup1\n        /* \"rsp_all.sol\":3302:3309  roomNum */\n      dup5\n        /* \"rsp_all.sol\":3296:3310  rooms[roomNum] */\n      dup2\n      mstore\n      0x20\n      add\n      swap1\n      dup2\n      mstore\n      0x20\n      add\n      0x00\n      keccak256\n        /* \"rsp_all.sol\":3296:3316  rooms[roomNum].taker */\n      0x04\n      add\n        /* \"rsp_all.sol\":3296:3321  rooms[roomNum].taker.addr */\n      0x00\n      add\n      0x01\n      swap1\n      sload\n      swap1\n      0x0100\n      exp\n      swap1\n      div\n      0xffffffffffffffffffffffffffffffffffffffff\n      and\n        /* \"rsp_all.sol\":3296:3330  rooms[roomNum].taker.addr.transfer */\n      0xffffffffffffffffffffffffffffffffffffffff\n      and\n        /* \"rsp_all.sol\":3296:3368  rooms[roomNum].taker.addr.transfer(rooms[roomNum].taker.playerBetAmount) */\n      0x08fc\n        /* \"rsp_all.sol\":3331:3336  rooms */\n      0x00\n        /* \"rsp_all.sol\":3331:3345  rooms[roomNum] */\n      dup1\n        /* \"rsp_all.sol\":3337:3344  roomNum */\n      dup7\n        /* \"rsp_all.sol\":3331:3345  rooms[roomNum] */\n      dup2\n      mstore\n      0x20\n      add\n      swap1\n      dup2\n      mstore\n      0x20\n      add\n      0x00\n      keccak256\n        /* \"rsp_all.sol\":3331:3351  rooms[roomNum].taker */\n      0x04\n      add\n        /* \"rsp_all.sol\":3331:3367  rooms[roomNum].taker.playerBetAmount */\n      0x01\n      add\n      sload\n        /* \"rsp_all.sol\":3296:3368  rooms[roomNum].taker.addr.transfer(rooms[roomNum].taker.playerBetAmount) */\n      swap1\n      dup2\n      iszero\n      mul\n      swap1\n      mload(0x40)\n      0x00\n      mload(0x40)\n      dup1\n      dup4\n      sub\n      dup2\n      dup6\n      dup9\n      dup9\n      call\n      swap4\n      pop\n      pop\n      pop\n      pop\n      iszero\n      dup1\n      iszero\n      tag_104\n      jumpi\n      returndatasize\n      0x00\n      dup1\n      returndatacopy\n      revert(0x00, returndatasize)\n    tag_104:\n      pop\n        /* \"rsp_all.sol\":3051:3954  if (rooms[roomNum].originator.playerStatus == PlayerStatus.STATUS_TIE && rooms[roomNum].taker.playerStatus == PlayerStatus.STATUS_TIE) {... */\n      jump(tag_105)\n    tag_100:\n        /* \"rsp_all.sol\":3445:3468  PlayerStatus.STATUS_WIN */\n      0x00\n        /* \"rsp_all.sol\":3403:3468  rooms[roomNum].originator.playerStatus == PlayerStatus.STATUS_WIN */\n      0x03\n      dup2\n      gt\n      iszero\n      tag_106\n      jumpi\n      tag_107\n      tag_22\n      jump\t// in\n    tag_107:\n    tag_106:\n        /* \"rsp_all.sol\":3403:3408  rooms */\n      0x00\n        /* \"rsp_all.sol\":3403:3417  rooms[roomNum] */\n      dup1\n        /* \"rsp_all.sol\":3409:3416  roomNum */\n      dup6\n        /* \"rsp_all.sol\":3403:3417  rooms[roomNum] */\n      dup2\n      mstore\n      0x20\n      add\n      swap1\n      dup2\n      mstore\n      0x20\n      add\n      0x00\n      keccak256\n        /* \"rsp_all.sol\":3403:3428  rooms[roomNum].originator */\n      0x02\n      add\n        /* \"rsp_all.sol\":3403:3441  rooms[roomNum].originator.playerStatus */\n      0x00\n      add\n      0x15\n      swap1\n      sload\n      swap1\n      0x0100\n      exp\n      swap1\n      div\n      0xff\n      and\n        /* \"rsp_all.sol\":3403:3468  rooms[roomNum].originator.playerStatus == PlayerStatus.STATUS_WIN */\n      0x03\n      dup2\n      gt\n      iszero\n      tag_108\n      jumpi\n      tag_109\n      tag_22\n      jump\t// in\n    tag_109:\n    tag_108:\n      eq\n        /* \"rsp_all.sol\":3399:3944  if (rooms[roomNum].originator.playerStatus == PlayerStatus.STATUS_WIN) {... */\n      iszero\n      tag_110\n      jumpi\n        /* \"rsp_all.sol\":3488:3493  rooms */\n      0x00\n        /* \"rsp_all.sol\":3488:3502  rooms[roomNum] */\n      dup1\n        /* \"rsp_all.sol\":3494:3501  roomNum */\n      dup5\n        /* \"rsp_all.sol\":3488:3502  rooms[roomNum] */\n      dup2\n      mstore\n      0x20\n      add\n      swap1\n      dup2\n      mstore\n      0x20\n      add\n      0x00\n      keccak256\n        /* \"rsp_all.sol\":3488:3513  rooms[roomNum].originator */\n      0x02\n      add\n        /* \"rsp_all.sol\":3488:3518  rooms[roomNum].originator.addr */\n      0x00\n      add\n      0x01\n      swap1\n      sload\n      swap1\n      0x0100\n      exp\n      swap1\n      div\n      0xffffffffffffffffffffffffffffffffffffffff\n      and\n        /* \"rsp_all.sol\":3488:3527  rooms[roomNum].originator.addr.transfer */\n      0xffffffffffffffffffffffffffffffffffffffff\n      and\n        /* \"rsp_all.sol\":3488:3553  rooms[roomNum].originator.addr.transfer(rooms[roomNum].betAmount) */\n      0x08fc\n        /* \"rsp_all.sol\":3528:3533  rooms */\n      0x00\n        /* \"rsp_all.sol\":3528:3542  rooms[roomNum] */\n      dup1\n        /* \"rsp_all.sol\":3534:3541  roomNum */\n      dup7\n        /* \"rsp_all.sol\":3528:3542  rooms[roomNum] */\n      dup2\n      mstore\n      0x20\n      add\n      swap1\n      dup2\n      mstore\n      0x20\n      add\n      0x00\n      keccak256\n        /* \"rsp_all.sol\":3528:3552  rooms[roomNum].betAmount */\n      0x00\n      add\n      sload\n        /* \"rsp_all.sol\":3488:3553  rooms[roomNum].originator.addr.transfer(rooms[roomNum].betAmount) */\n      swap1\n      dup2\n      iszero\n      mul\n      swap1\n      mload(0x40)\n      0x00\n      mload(0x40)\n      dup1\n      dup4\n      sub\n      dup2\n      dup6\n      dup9\n      dup9\n      call\n      swap4\n      pop\n      pop\n      pop\n      pop\n      iszero\n      dup1\n      iszero\n      tag_112\n      jumpi\n      returndatasize\n      0x00\n      dup1\n      returndatacopy\n      revert(0x00, returndatasize)\n    tag_112:\n      pop\n        /* \"rsp_all.sol\":3399:3944  if (rooms[roomNum].originator.playerStatus == PlayerStatus.STATUS_WIN) {... */\n      jump(tag_113)\n    tag_110:\n        /* \"rsp_all.sol\":3615:3638  PlayerStatus.STATUS_WIN */\n      0x00\n        /* \"rsp_all.sol\":3578:3638  rooms[roomNum].taker.playerStatus == PlayerStatus.STATUS_WIN */\n      0x03\n      dup2\n      gt\n      iszero\n      tag_114\n      jumpi\n      tag_115\n      tag_22\n      jump\t// in\n    tag_115:\n    tag_114:\n        /* \"rsp_all.sol\":3578:3583  rooms */\n      0x00\n        /* \"rsp_all.sol\":3578:3592  rooms[roomNum] */\n      dup1\n        /* \"rsp_all.sol\":3584:3591  roomNum */\n      dup6\n        /* \"rsp_all.sol\":3578:3592  rooms[roomNum] */\n      dup2\n      mstore\n      0x20\n      add\n      swap1\n      dup2\n      mstore\n      0x20\n      add\n      0x00\n      keccak256\n        /* \"rsp_all.sol\":3578:3598  rooms[roomNum].taker */\n      0x04\n      add\n        /* \"rsp_all.sol\":3578:3611  rooms[roomNum].taker.playerStatus */\n      0x00\n      add\n      0x15\n      swap1\n      sload\n      swap1\n      0x0100\n      exp\n      swap1\n      div\n      0xff\n      and\n        /* \"rsp_all.sol\":3578:3638  rooms[roomNum].taker.playerStatus == PlayerStatus.STATUS_WIN */\n      0x03\n      dup2\n      gt\n      iszero\n      tag_116\n      jumpi\n      tag_117\n      tag_22\n      jump\t// in\n    tag_117:\n    tag_116:\n      eq\n        /* \"rsp_all.sol\":3574:3944  if (rooms[roomNum].taker.playerStatus == PlayerStatus.STATUS_WIN) {... */\n      iszero\n      tag_118\n      jumpi\n        /* \"rsp_all.sol\":3658:3663  rooms */\n      0x00\n        /* \"rsp_all.sol\":3658:3672  rooms[roomNum] */\n      dup1\n        /* \"rsp_all.sol\":3664:3671  roomNum */\n      dup5\n        /* \"rsp_all.sol\":3658:3672  rooms[roomNum] */\n      dup2\n      mstore\n      0x20\n      add\n      swap1\n      dup2\n      mstore\n      0x20\n      add\n      0x00\n      keccak256\n        /* \"rsp_all.sol\":3658:3678  rooms[roomNum].taker */\n      0x04\n      add\n        /* \"rsp_all.sol\":3658:3683  rooms[roomNum].taker.addr */\n      0x00\n      add\n      0x01\n      swap1\n      sload\n      swap1\n      0x0100\n      exp\n      swap1\n      div\n      0xffffffffffffffffffffffffffffffffffffffff\n      and\n        /* \"rsp_all.sol\":3658:3692  rooms[roomNum].taker.addr.transfer */\n      0xffffffffffffffffffffffffffffffffffffffff\n      and\n        /* \"rsp_all.sol\":3658:3718  rooms[roomNum].taker.addr.transfer(rooms[roomNum].betAmount) */\n      0x08fc\n        /* \"rsp_all.sol\":3693:3698  rooms */\n      0x00\n        /* \"rsp_all.sol\":3693:3707  rooms[roomNum] */\n      dup1\n        /* \"rsp_all.sol\":3699:3706  roomNum */\n      dup7\n        /* \"rsp_all.sol\":3693:3707  rooms[roomNum] */\n      dup2\n      mstore\n      0x20\n      add\n      swap1\n      dup2\n      mstore\n      0x20\n      add\n      0x00\n      keccak256\n        /* \"rsp_all.sol\":3693:3717  rooms[roomNum].betAmount */\n      0x00\n      add\n      sload\n        /* \"rsp_all.sol\":3658:3718  rooms[roomNum].taker.addr.transfer(rooms[roomNum].betAmount) */\n      swap1\n      dup2\n      iszero\n      mul\n      swap1\n      mload(0x40)\n      0x00\n      mload(0x40)\n      dup1\n      dup4\n      sub\n      dup2\n      dup6\n      dup9\n      dup9\n      call\n      swap4\n      pop\n      pop\n      pop\n      pop\n      iszero\n      dup1\n      iszero\n      tag_120\n      jumpi\n      returndatasize\n      0x00\n      dup1\n      returndatacopy\n      revert(0x00, returndatasize)\n    tag_120:\n      pop\n        /* \"rsp_all.sol\":3574:3944  if (rooms[roomNum].taker.playerStatus == PlayerStatus.STATUS_WIN) {... */\n      jump(tag_121)\n    tag_118:\n        /* \"rsp_all.sol\":3757:3762  rooms */\n      0x00\n        /* \"rsp_all.sol\":3757:3771  rooms[roomNum] */\n      dup1\n        /* \"rsp_all.sol\":3763:3770  roomNum */\n      dup5\n        /* \"rsp_all.sol\":3757:3771  rooms[roomNum] */\n      dup2\n      mstore\n      0x20\n      add\n      swap1\n      dup2\n      mstore\n      0x20\n      add\n      0x00\n      keccak256\n        /* \"rsp_all.sol\":3757:3782  rooms[roomNum].originator */\n      0x02\n      add\n        /* \"rsp_all.sol\":3757:3787  rooms[roomNum].originator.addr */\n      0x00\n      add\n      0x01\n      swap1\n      sload\n      swap1\n      0x0100\n      exp\n      swap1\n      div\n      0xffffffffffffffffffffffffffffffffffffffff\n      and\n        /* \"rsp_all.sol\":3757:3796  rooms[roomNum].originator.addr.transfer */\n      0xffffffffffffffffffffffffffffffffffffffff\n      and\n        /* \"rsp_all.sol\":3757:3839  rooms[roomNum].originator.addr.transfer(rooms[roomNum].originator.playerBetAmount) */\n      0x08fc\n        /* \"rsp_all.sol\":3797:3802  rooms */\n      0x00\n        /* \"rsp_all.sol\":3797:3811  rooms[roomNum] */\n      dup1\n        /* \"rsp_all.sol\":3803:3810  roomNum */\n      dup7\n        /* \"rsp_all.sol\":3797:3811  rooms[roomNum] */\n      dup2\n      mstore\n      0x20\n      add\n      swap1\n      dup2\n      mstore\n      0x20\n      add\n      0x00\n      keccak256\n        /* \"rsp_all.sol\":3797:3822  rooms[roomNum].originator */\n      0x02\n      add\n        /* \"rsp_all.sol\":3797:3838  rooms[roomNum].originator.playerBetAmount */\n      0x01\n      add\n      sload\n        /* \"rsp_all.sol\":3757:3839  rooms[roomNum].originator.addr.transfer(rooms[roomNum].originator.playerBetAmount) */\n      swap1\n      dup2\n      iszero\n      mul\n      swap1\n      mload(0x40)\n      0x00\n      mload(0x40)\n      dup1\n      dup4\n      sub\n      dup2\n      dup6\n      dup9\n      dup9\n      call\n      swap4\n      pop\n      pop\n      pop\n      pop\n      iszero\n      dup1\n      iszero\n      tag_123\n      jumpi\n      returndatasize\n      0x00\n      dup1\n      returndatacopy\n      revert(0x00, returndatasize)\n    tag_123:\n      pop\n        /* \"rsp_all.sol\":3857:3862  rooms */\n      0x00\n        /* \"rsp_all.sol\":3857:3871  rooms[roomNum] */\n      dup1\n        /* \"rsp_all.sol\":3863:3870  roomNum */\n      dup5\n        /* \"rsp_all.sol\":3857:3871  rooms[roomNum] */\n      dup2\n      mstore\n      0x20\n      add\n      swap1\n      dup2\n      mstore\n      0x20\n      add\n      0x00\n      keccak256\n        /* \"rsp_all.sol\":3857:3877  rooms[roomNum].taker */\n      0x04\n      add\n        /* \"rsp_all.sol\":3857:3882  rooms[roomNum].taker.addr */\n      0x00\n      add\n      0x01\n      swap1\n      sload\n      swap1\n      0x0100\n      exp\n      swap1\n      div\n      0xffffffffffffffffffffffffffffffffffffffff\n      and\n        /* \"rsp_all.sol\":3857:3891  rooms[roomNum].taker.addr.transfer */\n      0xffffffffffffffffffffffffffffffffffffffff\n      and\n        /* \"rsp_all.sol\":3857:3929  rooms[roomNum].taker.addr.transfer(rooms[roomNum].taker.playerBetAmount) */\n      0x08fc\n        /* \"rsp_all.sol\":3892:3897  rooms */\n      0x00\n        /* \"rsp_all.sol\":3892:3906  rooms[roomNum] */\n      dup1\n        /* \"rsp_all.sol\":3898:3905  roomNum */\n      dup7\n        /* \"rsp_all.sol\":3892:3906  rooms[roomNum] */\n      dup2\n      mstore\n      0x20\n      add\n      swap1\n      dup2\n      mstore\n      0x20\n      add\n      0x00\n      keccak256\n        /* \"rsp_all.sol\":3892:3912  rooms[roomNum].taker */\n      0x04\n      add\n        /* \"rsp_all.sol\":3892:3928  rooms[roomNum].taker.playerBetAmount */\n      0x01\n      add\n      sload\n        /* \"rsp_all.sol\":3857:3929  rooms[roomNum].taker.addr.transfer(rooms[roomNum].taker.playerBetAmount) */\n      swap1\n      dup2\n      iszero\n      mul\n      swap1\n      mload(0x40)\n      0x00\n      mload(0x40)\n      dup1\n      dup4\n      sub\n      dup2\n      dup6\n      dup9\n      dup9\n      call\n      swap4\n      pop\n      pop\n      pop\n      pop\n      iszero\n      dup1\n      iszero\n      tag_125\n      jumpi\n      returndatasize\n      0x00\n      dup1\n      returndatacopy\n      revert(0x00, returndatasize)\n    tag_125:\n      pop\n        /* \"rsp_all.sol\":3574:3944  if (rooms[roomNum].taker.playerStatus == PlayerStatus.STATUS_WIN) {... */\n    tag_121:\n        /* \"rsp_all.sol\":3399:3944  if (rooms[roomNum].originator.playerStatus == PlayerStatus.STATUS_WIN) {... */\n    tag_113:\n        /* \"rsp_all.sol\":3051:3954  if (rooms[roomNum].originator.playerStatus == PlayerStatus.STATUS_TIE && rooms[roomNum].taker.playerStatus == PlayerStatus.STATUS_TIE) {... */\n    tag_105:\n        /* \"rsp_all.sol\":3992:4018  GameStatus.STATUS_COMPLETE */\n      0x02\n        /* \"rsp_all.sol\":3964:3969  rooms */\n      0x00\n        /* \"rsp_all.sol\":3964:3978  rooms[roomNum] */\n      dup1\n        /* \"rsp_all.sol\":3970:3977  roomNum */\n      dup6\n        /* \"rsp_all.sol\":3964:3978  rooms[roomNum] */\n      dup2\n      mstore\n      0x20\n      add\n      swap1\n      dup2\n      mstore\n      0x20\n      add\n      0x00\n      keccak256\n        /* \"rsp_all.sol\":3964:3989  rooms[roomNum].gameStatus */\n      0x01\n      add\n      0x00\n        /* \"rsp_all.sol\":3964:4018  rooms[roomNum].gameStatus = GameStatus.STATUS_COMPLETE */\n      0x0100\n      exp\n      dup2\n      sload\n      dup2\n      0xff\n      mul\n      not\n      and\n      swap1\n      dup4\n      0x03\n      dup2\n      gt\n      iszero\n      tag_126\n      jumpi\n      tag_127\n      tag_22\n      jump\t// in\n    tag_127:\n    tag_126:\n      mul\n      or\n      swap1\n      sstore\n      pop\n        /* \"rsp_all.sol\":2966:4025  function payout(uint roomNum) public payable isPlayer(roomNum, msg.sender) {... */\n      pop\n      pop\n      pop\n      jump\t// out\n        /* \"rsp_all.sol\":4035:5032  function compareHands(uint roomNum) private{... */\n    tag_86:\n        /* \"rsp_all.sol\":4088:4104  uint8 originator */\n      0x00\n        /* \"rsp_all.sol\":4113:4118  rooms */\n      dup1\n        /* \"rsp_all.sol\":4113:4127  rooms[roomNum] */\n      0x00\n        /* \"rsp_all.sol\":4119:4126  roomNum */\n      dup4\n        /* \"rsp_all.sol\":4113:4127  rooms[roomNum] */\n      dup2\n      mstore\n      0x20\n      add\n      swap1\n      dup2\n      mstore\n      0x20\n      add\n      0x00\n      keccak256\n        /* \"rsp_all.sol\":4113:4138  rooms[roomNum].originator */\n      0x02\n      add\n        /* \"rsp_all.sol\":4113:4143  rooms[roomNum].originator.hand */\n      0x00\n      add\n      0x00\n      swap1\n      sload\n      swap1\n      0x0100\n      exp\n      swap1\n      div\n      0xff\n      and\n        /* \"rsp_all.sol\":4107:4144  uint8(rooms[roomNum].originator.hand) */\n      0x02\n      dup2\n      gt\n      iszero\n      tag_129\n      jumpi\n      tag_130\n      tag_22\n      jump\t// in\n    tag_130:\n    tag_129:\n        /* \"rsp_all.sol\":4088:4144  uint8 originator = uint8(rooms[roomNum].originator.hand) */\n      swap1\n      pop\n        /* \"rsp_all.sol\":4154:4165  uint8 taker */\n      0x00\n        /* \"rsp_all.sol\":4174:4179  rooms */\n      dup1\n        /* \"rsp_all.sol\":4174:4188  rooms[roomNum] */\n      0x00\n        /* \"rsp_all.sol\":4180:4187  roomNum */\n      dup5\n        /* \"rsp_all.sol\":4174:4188  rooms[roomNum] */\n      dup2\n      mstore\n      0x20\n      add\n      swap1\n      dup2\n      mstore\n      0x20\n      add\n      0x00\n      keccak256\n        /* \"rsp_all.sol\":4174:4194  rooms[roomNum].taker */\n      0x04\n      add\n        /* \"rsp_all.sol\":4174:4199  rooms[roomNum].taker.hand */\n      0x00\n      add\n      0x00\n      swap1\n      sload\n      swap1\n      0x0100\n      exp\n      swap1\n      div\n      0xff\n      and\n        /* \"rsp_all.sol\":4168:4200  uint8(rooms[roomNum].taker.hand) */\n      0x02\n      dup2\n      gt\n      iszero\n      tag_131\n      jumpi\n      tag_132\n      tag_22\n      jump\t// in\n    tag_132:\n    tag_131:\n        /* \"rsp_all.sol\":4154:4200  uint8 taker = uint8(rooms[roomNum].taker.hand) */\n      swap1\n      pop\n        /* \"rsp_all.sol\":4247:4272  GameStatus.STATUS_STARTED */\n      0x01\n        /* \"rsp_all.sol\":4219:4224  rooms */\n      0x00\n        /* \"rsp_all.sol\":4219:4233  rooms[roomNum] */\n      dup1\n        /* \"rsp_all.sol\":4225:4232  roomNum */\n      dup6\n        /* \"rsp_all.sol\":4219:4233  rooms[roomNum] */\n      dup2\n      mstore\n      0x20\n      add\n      swap1\n      dup2\n      mstore\n      0x20\n      add\n      0x00\n      keccak256\n        /* \"rsp_all.sol\":4219:4244  rooms[roomNum].gameStatus */\n      0x01\n      add\n      0x00\n        /* \"rsp_all.sol\":4219:4272  rooms[roomNum].gameStatus = GameStatus.STATUS_STARTED */\n      0x0100\n      exp\n      dup2\n      sload\n      dup2\n      0xff\n      mul\n      not\n      and\n      swap1\n      dup4\n      0x03\n      dup2\n      gt\n      iszero\n      tag_133\n      jumpi\n      tag_134\n      tag_22\n      jump\t// in\n    tag_134:\n    tag_133:\n      mul\n      or\n      swap1\n      sstore\n      pop\n        /* \"rsp_all.sol\":4304:4314  originator */\n      dup2\n        /* \"rsp_all.sol\":4295:4314  taker == originator */\n      0xff\n      and\n        /* \"rsp_all.sol\":4295:4300  taker */\n      dup2\n        /* \"rsp_all.sol\":4295:4314  taker == originator */\n      0xff\n      and\n      eq\n        /* \"rsp_all.sol\":4291:5018  if (taker == originator){ //draw... */\n      iszero\n      tag_135\n      jumpi\n        /* \"rsp_all.sol\":4377:4400  PlayerStatus.STATUS_TIE */\n      0x02\n        /* \"rsp_all.sol\":4336:4341  rooms */\n      0x00\n        /* \"rsp_all.sol\":4336:4350  rooms[roomNum] */\n      dup1\n        /* \"rsp_all.sol\":4342:4349  roomNum */\n      dup6\n        /* \"rsp_all.sol\":4336:4350  rooms[roomNum] */\n      dup2\n      mstore\n      0x20\n      add\n      swap1\n      dup2\n      mstore\n      0x20\n      add\n      0x00\n      keccak256\n        /* \"rsp_all.sol\":4336:4361  rooms[roomNum].originator */\n      0x02\n      add\n        /* \"rsp_all.sol\":4336:4374  rooms[roomNum].originator.playerStatus */\n      0x00\n      add\n      0x15\n        /* \"rsp_all.sol\":4336:4400  rooms[roomNum].originator.playerStatus = PlayerStatus.STATUS_TIE */\n      0x0100\n      exp\n      dup2\n      sload\n      dup2\n      0xff\n      mul\n      not\n      and\n      swap1\n      dup4\n      0x03\n      dup2\n      gt\n      iszero\n      tag_136\n      jumpi\n      tag_137\n      tag_22\n      jump\t// in\n    tag_137:\n    tag_136:\n      mul\n      or\n      swap1\n      sstore\n      pop\n        /* \"rsp_all.sol\":4450:4473  PlayerStatus.STATUS_TIE */\n      0x02\n        /* \"rsp_all.sol\":4414:4419  rooms */\n      0x00\n        /* \"rsp_all.sol\":4414:4428  rooms[roomNum] */\n      dup1\n        /* \"rsp_all.sol\":4420:4427  roomNum */\n      dup6\n        /* \"rsp_all.sol\":4414:4428  rooms[roomNum] */\n      dup2\n      mstore\n      0x20\n      add\n      swap1\n      dup2\n      mstore\n      0x20\n      add\n      0x00\n      keccak256\n        /* \"rsp_all.sol\":4414:4434  rooms[roomNum].taker */\n      0x04\n      add\n        /* \"rsp_all.sol\":4414:4447  rooms[roomNum].taker.playerStatus */\n      0x00\n      add\n      0x15\n        /* \"rsp_all.sol\":4414:4473  rooms[roomNum].taker.playerStatus = PlayerStatus.STATUS_TIE */\n      0x0100\n      exp\n      dup2\n      sload\n      dup2\n      0xff\n      mul\n      not\n      and\n      swap1\n      dup4\n      0x03\n      dup2\n      gt\n      iszero\n      tag_138\n      jumpi\n      tag_139\n      tag_22\n      jump\t// in\n    tag_139:\n    tag_138:\n      mul\n      or\n      swap1\n      sstore\n      pop\n        /* \"rsp_all.sol\":4291:5018  if (taker == originator){ //draw... */\n      jump(tag_140)\n    tag_135:\n        /* \"rsp_all.sol\":4533:4543  originator */\n      dup2\n        /* \"rsp_all.sol\":4515:4543  (taker +1) % 3 == originator */\n      0xff\n      and\n        /* \"rsp_all.sol\":4528:4529  3 */\n      0x03\n        /* \"rsp_all.sol\":4523:4524  1 */\n      0x01\n        /* \"rsp_all.sol\":4516:4521  taker */\n      dup4\n        /* \"rsp_all.sol\":4516:4524  taker +1 */\n      tag_141\n      swap2\n      swap1\n      tag_142\n      jump\t// in\n    tag_141:\n        /* \"rsp_all.sol\":4515:4529  (taker +1) % 3 */\n      tag_143\n      swap2\n      swap1\n      tag_144\n      jump\t// in\n    tag_143:\n        /* \"rsp_all.sol\":4515:4543  (taker +1) % 3 == originator */\n      0xff\n      and\n      eq\n        /* \"rsp_all.sol\":4511:5018  if ((taker +1) % 3 == originator) { // originator wins... */\n      iszero\n      tag_145\n      jumpi\n        /* \"rsp_all.sol\":4619:4642  PlayerStatus.STATUS_WIN */\n      0x00\n        /* \"rsp_all.sol\":4578:4583  rooms */\n      dup1\n        /* \"rsp_all.sol\":4578:4592  rooms[roomNum] */\n      0x00\n        /* \"rsp_all.sol\":4584:4591  roomNum */\n      dup6\n        /* \"rsp_all.sol\":4578:4592  rooms[roomNum] */\n      dup2\n      mstore\n      0x20\n      add\n      swap1\n      dup2\n      mstore\n      0x20\n      add\n      0x00\n      keccak256\n        /* \"rsp_all.sol\":4578:4603  rooms[roomNum].originator */\n      0x02\n      add\n        /* \"rsp_all.sol\":4578:4616  rooms[roomNum].originator.playerStatus */\n      0x00\n      add\n      0x15\n        /* \"rsp_all.sol\":4578:4642  rooms[roomNum].originator.playerStatus = PlayerStatus.STATUS_WIN */\n      0x0100\n      exp\n      dup2\n      sload\n      dup2\n      0xff\n      mul\n      not\n      and\n      swap1\n      dup4\n      0x03\n      dup2\n      gt\n      iszero\n      tag_146\n      jumpi\n      tag_147\n      tag_22\n      jump\t// in\n    tag_147:\n    tag_146:\n      mul\n      or\n      swap1\n      sstore\n      pop\n        /* \"rsp_all.sol\":4692:4716  PlayerStatus.STATUS_LOSE */\n      0x01\n        /* \"rsp_all.sol\":4656:4661  rooms */\n      0x00\n        /* \"rsp_all.sol\":4656:4670  rooms[roomNum] */\n      dup1\n        /* \"rsp_all.sol\":4662:4669  roomNum */\n      dup6\n        /* \"rsp_all.sol\":4656:4670  rooms[roomNum] */\n      dup2\n      mstore\n      0x20\n      add\n      swap1\n      dup2\n      mstore\n      0x20\n      add\n      0x00\n      keccak256\n        /* \"rsp_all.sol\":4656:4676  rooms[roomNum].taker */\n      0x04\n      add\n        /* \"rsp_all.sol\":4656:4689  rooms[roomNum].taker.playerStatus */\n      0x00\n      add\n      0x15\n        /* \"rsp_all.sol\":4656:4716  rooms[roomNum].taker.playerStatus = PlayerStatus.STATUS_LOSE */\n      0x0100\n      exp\n      dup2\n      sload\n      dup2\n      0xff\n      mul\n      not\n      and\n      swap1\n      dup4\n      0x03\n      dup2\n      gt\n      iszero\n      tag_148\n      jumpi\n      tag_149\n      tag_22\n      jump\t// in\n    tag_149:\n    tag_148:\n      mul\n      or\n      swap1\n      sstore\n      pop\n        /* \"rsp_all.sol\":4511:5018  if ((taker +1) % 3 == originator) { // originator wins... */\n      jump(tag_150)\n    tag_145:\n        /* \"rsp_all.sol\":4767:4772  taker */\n      dup1\n        /* \"rsp_all.sol\":4745:4772  (originator + 1)%3 == taker */\n      0xff\n      and\n        /* \"rsp_all.sol\":4762:4763  3 */\n      0x03\n        /* \"rsp_all.sol\":4759:4760  1 */\n      0x01\n        /* \"rsp_all.sol\":4746:4756  originator */\n      dup5\n        /* \"rsp_all.sol\":4746:4760  originator + 1 */\n      tag_151\n      swap2\n      swap1\n      tag_142\n      jump\t// in\n    tag_151:\n        /* \"rsp_all.sol\":4745:4763  (originator + 1)%3 */\n      tag_152\n      swap2\n      swap1\n      tag_144\n      jump\t// in\n    tag_152:\n        /* \"rsp_all.sol\":4745:4772  (originator + 1)%3 == taker */\n      0xff\n      and\n      eq\n        /* \"rsp_all.sol\":4741:5018  if ((originator + 1)%3 == taker){... */\n      iszero\n      tag_153\n      jumpi\n        /* \"rsp_all.sol\":4828:4852  PlayerStatus.STATUS_LOSE */\n      0x01\n        /* \"rsp_all.sol\":4787:4792  rooms */\n      0x00\n        /* \"rsp_all.sol\":4787:4801  rooms[roomNum] */\n      dup1\n        /* \"rsp_all.sol\":4793:4800  roomNum */\n      dup6\n        /* \"rsp_all.sol\":4787:4801  rooms[roomNum] */\n      dup2\n      mstore\n      0x20\n      add\n      swap1\n      dup2\n      mstore\n      0x20\n      add\n      0x00\n      keccak256\n        /* \"rsp_all.sol\":4787:4812  rooms[roomNum].originator */\n      0x02\n      add\n        /* \"rsp_all.sol\":4787:4825  rooms[roomNum].originator.playerStatus */\n      0x00\n      add\n      0x15\n        /* \"rsp_all.sol\":4787:4852  rooms[roomNum].originator.playerStatus = PlayerStatus.STATUS_LOSE */\n      0x0100\n      exp\n      dup2\n      sload\n      dup2\n      0xff\n      mul\n      not\n      and\n      swap1\n      dup4\n      0x03\n      dup2\n      gt\n      iszero\n      tag_154\n      jumpi\n      tag_155\n      tag_22\n      jump\t// in\n    tag_155:\n    tag_154:\n      mul\n      or\n      swap1\n      sstore\n      pop\n        /* \"rsp_all.sol\":4902:4925  PlayerStatus.STATUS_WIN */\n      0x00\n        /* \"rsp_all.sol\":4866:4871  rooms */\n      dup1\n        /* \"rsp_all.sol\":4866:4880  rooms[roomNum] */\n      0x00\n        /* \"rsp_all.sol\":4872:4879  roomNum */\n      dup6\n        /* \"rsp_all.sol\":4866:4880  rooms[roomNum] */\n      dup2\n      mstore\n      0x20\n      add\n      swap1\n      dup2\n      mstore\n      0x20\n      add\n      0x00\n      keccak256\n        /* \"rsp_all.sol\":4866:4886  rooms[roomNum].taker */\n      0x04\n      add\n        /* \"rsp_all.sol\":4866:4899  rooms[roomNum].taker.playerStatus */\n      0x00\n      add\n      0x15\n        /* \"rsp_all.sol\":4866:4925  rooms[roomNum].taker.playerStatus = PlayerStatus.STATUS_WIN */\n      0x0100\n      exp\n      dup2\n      sload\n      dup2\n      0xff\n      mul\n      not\n      and\n      swap1\n      dup4\n      0x03\n      dup2\n      gt\n      iszero\n      tag_156\n      jumpi\n      tag_157\n      tag_22\n      jump\t// in\n    tag_157:\n    tag_156:\n      mul\n      or\n      swap1\n      sstore\n      pop\n        /* \"rsp_all.sol\":4741:5018  if ((originator + 1)%3 == taker){... */\n      jump(tag_158)\n    tag_153:\n        /* \"rsp_all.sol\":4984:5007  GameStatus.STATUS_ERROR */\n      0x03\n        /* \"rsp_all.sol\":4956:4961  rooms */\n      0x00\n        /* \"rsp_all.sol\":4956:4970  rooms[roomNum] */\n      dup1\n        /* \"rsp_all.sol\":4962:4969  roomNum */\n      dup6\n        /* \"rsp_all.sol\":4956:4970  rooms[roomNum] */\n      dup2\n      mstore\n      0x20\n      add\n      swap1\n      dup2\n      mstore\n      0x20\n      add\n      0x00\n      keccak256\n        /* \"rsp_all.sol\":4956:4981  rooms[roomNum].gameStatus */\n      0x01\n      add\n      0x00\n        /* \"rsp_all.sol\":4956:5007  rooms[roomNum].gameStatus = GameStatus.STATUS_ERROR */\n      0x0100\n      exp\n      dup2\n      sload\n      dup2\n      0xff\n      mul\n      not\n      and\n      swap1\n      dup4\n      0x03\n      dup2\n      gt\n      iszero\n      tag_159\n      jumpi\n      tag_160\n      tag_22\n      jump\t// in\n    tag_160:\n    tag_159:\n      mul\n      or\n      swap1\n      sstore\n      pop\n        /* \"rsp_all.sol\":4741:5018  if ((originator + 1)%3 == taker){... */\n    tag_158:\n        /* \"rsp_all.sol\":4511:5018  if ((taker +1) % 3 == originator) { // originator wins... */\n    tag_150:\n        /* \"rsp_all.sol\":4291:5018  if (taker == originator){ //draw... */\n    tag_140:\n        /* \"rsp_all.sol\":4078:5032  {... */\n      pop\n      pop\n        /* \"rsp_all.sol\":4035:5032  function compareHands(uint roomNum) private{... */\n      pop\n      jump\t// out\n        /* \"#utility.yul\":7:158   */\n    tag_162:\n        /* \"#utility.yul\":59:64   */\n      0x00\n        /* \"#utility.yul\":97:103   */\n      dup2\n        /* \"#utility.yul\":84:104   */\n      calldataload\n        /* \"#utility.yul\":75:104   */\n      swap1\n      pop\n        /* \"#utility.yul\":113:152   */\n      tag_164\n        /* \"#utility.yul\":146:151   */\n      dup2\n        /* \"#utility.yul\":113:152   */\n      tag_165\n      jump\t// in\n    tag_164:\n        /* \"#utility.yul\":7:158   */\n      swap3\n      swap2\n      pop\n      pop\n      jump\t// out\n        /* \"#utility.yul\":164:303   */\n    tag_166:\n        /* \"#utility.yul\":210:215   */\n      0x00\n        /* \"#utility.yul\":248:254   */\n      dup2\n        /* \"#utility.yul\":235:255   */\n      calldataload\n        /* \"#utility.yul\":226:255   */\n      swap1\n      pop\n        /* \"#utility.yul\":264:297   */\n      tag_168\n        /* \"#utility.yul\":291:296   */\n      dup2\n        /* \"#utility.yul\":264:297   */\n      tag_169\n      jump\t// in\n    tag_168:\n        /* \"#utility.yul\":164:303   */\n      swap3\n      swap2\n      pop\n      pop\n      jump\t// out\n        /* \"#utility.yul\":309:650   */\n    tag_7:\n        /* \"#utility.yul\":374:380   */\n      0x00\n        /* \"#utility.yul\":423:425   */\n      0x20\n        /* \"#utility.yul\":411:420   */\n      dup3\n        /* \"#utility.yul\":402:409   */\n      dup5\n        /* \"#utility.yul\":398:421   */\n      sub\n        /* \"#utility.yul\":394:426   */\n      slt\n        /* \"#utility.yul\":391:510   */\n      iszero\n      tag_171\n      jumpi\n        /* \"#utility.yul\":429:508   */\n      tag_172\n      tag_173\n      jump\t// in\n    tag_172:\n        /* \"#utility.yul\":391:510   */\n    tag_171:\n        /* \"#utility.yul\":549:550   */\n      0x00\n        /* \"#utility.yul\":574:633   */\n      tag_174\n        /* \"#utility.yul\":625:632   */\n      dup5\n        /* \"#utility.yul\":616:622   */\n      dup3\n        /* \"#utility.yul\":605:614   */\n      dup6\n        /* \"#utility.yul\":601:623   */\n      add\n        /* \"#utility.yul\":574:633   */\n      tag_162\n      jump\t// in\n    tag_174:\n        /* \"#utility.yul\":564:633   */\n      swap2\n      pop\n        /* \"#utility.yul\":520:643   */\n      pop\n        /* \"#utility.yul\":309:650   */\n      swap3\n      swap2\n      pop\n      pop\n      jump\t// out\n        /* \"#utility.yul\":656:985   */\n    tag_17:\n        /* \"#utility.yul\":715:721   */\n      0x00\n        /* \"#utility.yul\":764:766   */\n      0x20\n        /* \"#utility.yul\":752:761   */\n      dup3\n        /* \"#utility.yul\":743:750   */\n      dup5\n        /* \"#utility.yul\":739:762   */\n      sub\n        /* \"#utility.yul\":735:767   */\n      slt\n        /* \"#utility.yul\":732:851   */\n      iszero\n      tag_176\n      jumpi\n        /* \"#utility.yul\":770:849   */\n      tag_177\n      tag_173\n      jump\t// in\n    tag_177:\n        /* \"#utility.yul\":732:851   */\n    tag_176:\n        /* \"#utility.yul\":890:891   */\n      0x00\n        /* \"#utility.yul\":915:968   */\n      tag_178\n        /* \"#utility.yul\":960:967   */\n      dup5\n        /* \"#utility.yul\":951:957   */\n      dup3\n        /* \"#utility.yul\":940:949   */\n      dup6\n        /* \"#utility.yul\":936:958   */\n      add\n        /* \"#utility.yul\":915:968   */\n      tag_166\n      jump\t// in\n    tag_178:\n        /* \"#utility.yul\":905:968   */\n      swap2\n      pop\n        /* \"#utility.yul\":861:978   */\n      pop\n        /* \"#utility.yul\":656:985   */\n      swap3\n      swap2\n      pop\n      pop\n      jump\t// out\n        /* \"#utility.yul\":991:1477   */\n    tag_13:\n        /* \"#utility.yul\":1065:1071   */\n      0x00\n        /* \"#utility.yul\":1073:1079   */\n      dup1\n        /* \"#utility.yul\":1122:1124   */\n      0x40\n        /* \"#utility.yul\":1110:1119   */\n      dup4\n        /* \"#utility.yul\":1101:1108   */\n      dup6\n        /* \"#utility.yul\":1097:1120   */\n      sub\n        /* \"#utility.yul\":1093:1125   */\n      slt\n        /* \"#utility.yul\":1090:1209   */\n      iszero\n      tag_180\n      jumpi\n        /* \"#utility.yul\":1128:1207   */\n      tag_181\n      tag_173\n      jump\t// in\n    tag_181:\n        /* \"#utility.yul\":1090:1209   */\n    tag_180:\n        /* \"#utility.yul\":1248:1249   */\n      0x00\n        /* \"#utility.yul\":1273:1326   */\n      tag_182\n        /* \"#utility.yul\":1318:1325   */\n      dup6\n        /* \"#utility.yul\":1309:1315   */\n      dup3\n        /* \"#utility.yul\":1298:1307   */\n      dup7\n        /* \"#utility.yul\":1294:1316   */\n      add\n        /* \"#utility.yul\":1273:1326   */\n      tag_166\n      jump\t// in\n    tag_182:\n        /* \"#utility.yul\":1263:1326   */\n      swap3\n      pop\n        /* \"#utility.yul\":1219:1336   */\n      pop\n        /* \"#utility.yul\":1375:1377   */\n      0x20\n        /* \"#utility.yul\":1401:1460   */\n      tag_183\n        /* \"#utility.yul\":1452:1459   */\n      dup6\n        /* \"#utility.yul\":1443:1449   */\n      dup3\n        /* \"#utility.yul\":1432:1441   */\n      dup7\n        /* \"#utility.yul\":1428:1450   */\n      add\n        /* \"#utility.yul\":1401:1460   */\n      tag_162\n      jump\t// in\n    tag_183:\n        /* \"#utility.yul\":1391:1460   */\n      swap2\n      pop\n        /* \"#utility.yul\":1346:1470   */\n      pop\n        /* \"#utility.yul\":991:1477   */\n      swap3\n      pop\n      swap3\n      swap1\n      pop\n      jump\t// out\n        /* \"#utility.yul\":1483:1601   */\n    tag_184:\n        /* \"#utility.yul\":1570:1594   */\n      tag_186\n        /* \"#utility.yul\":1588:1593   */\n      dup2\n        /* \"#utility.yul\":1570:1594   */\n      tag_187\n      jump\t// in\n    tag_186:\n        /* \"#utility.yul\":1565:1568   */\n      dup3\n        /* \"#utility.yul\":1558:1595   */\n      mstore\n        /* \"#utility.yul\":1483:1601   */\n      pop\n      pop\n      jump\t// out\n        /* \"#utility.yul\":1607:1829   */\n    tag_10:\n        /* \"#utility.yul\":1700:1704   */\n      0x00\n        /* \"#utility.yul\":1738:1740   */\n      0x20\n        /* \"#utility.yul\":1727:1736   */\n      dup3\n        /* \"#utility.yul\":1723:1741   */\n      add\n        /* \"#utility.yul\":1715:1741   */\n      swap1\n      pop\n        /* \"#utility.yul\":1751:1822   */\n      tag_189\n        /* \"#utility.yul\":1819:1820   */\n      0x00\n        /* \"#utility.yul\":1808:1817   */\n      dup4\n        /* \"#utility.yul\":1804:1821   */\n      add\n        /* \"#utility.yul\":1795:1801   */\n      dup5\n        /* \"#utility.yul\":1751:1822   */\n      tag_184\n      jump\t// in\n    tag_189:\n        /* \"#utility.yul\":1607:1829   */\n      swap3\n      swap2\n      pop\n      pop\n      jump\t// out\n        /* \"#utility.yul\":1916:2221   */\n    tag_58:\n        /* \"#utility.yul\":1956:1959   */\n      0x00\n        /* \"#utility.yul\":1975:1995   */\n      tag_193\n        /* \"#utility.yul\":1993:1994   */\n      dup3\n        /* \"#utility.yul\":1975:1995   */\n      tag_187\n      jump\t// in\n    tag_193:\n        /* \"#utility.yul\":1970:1995   */\n      swap2\n      pop\n        /* \"#utility.yul\":2009:2029   */\n      tag_194\n        /* \"#utility.yul\":2027:2028   */\n      dup4\n        /* \"#utility.yul\":2009:2029   */\n      tag_187\n      jump\t// in\n    tag_194:\n        /* \"#utility.yul\":2004:2029   */\n      swap3\n      pop\n        /* \"#utility.yul\":2163:2164   */\n      dup3\n        /* \"#utility.yul\":2095:2161   */\n      0xffffffffffffffffffffffffffffffffffffffffffffffffffffffffffffffff\n        /* \"#utility.yul\":2091:2165   */\n      sub\n        /* \"#utility.yul\":2088:2089   */\n      dup3\n        /* \"#utility.yul\":2085:2166   */\n      gt\n        /* \"#utility.yul\":2082:2189   */\n      iszero\n      tag_195\n      jumpi\n        /* \"#utility.yul\":2169:2187   */\n      tag_196\n      tag_197\n      jump\t// in\n    tag_196:\n        /* \"#utility.yul\":2082:2189   */\n    tag_195:\n        /* \"#utility.yul\":2213:2214   */\n      dup3\n        /* \"#utility.yul\":2210:2211   */\n      dup3\n        /* \"#utility.yul\":2206:2215   */\n      add\n        /* \"#utility.yul\":2199:2215   */\n      swap1\n      pop\n        /* \"#utility.yul\":1916:2221   */\n      swap3\n      swap2\n      pop\n      pop\n      jump\t// out\n        /* \"#utility.yul\":2227:2464   */\n    tag_142:\n        /* \"#utility.yul\":2265:2268   */\n      0x00\n        /* \"#utility.yul\":2284:2302   */\n      tag_199\n        /* \"#utility.yul\":2300:2301   */\n      dup3\n        /* \"#utility.yul\":2284:2302   */\n      tag_200\n      jump\t// in\n    tag_199:\n        /* \"#utility.yul\":2279:2302   */\n      swap2\n      pop\n        /* \"#utility.yul\":2316:2334   */\n      tag_201\n        /* \"#utility.yul\":2332:2333   */\n      dup4\n        /* \"#utility.yul\":2316:2334   */\n      tag_200\n      jump\t// in\n    tag_201:\n        /* \"#utility.yul\":2311:2334   */\n      swap3\n      pop\n        /* \"#utility.yul\":2406:2407   */\n      dup3\n        /* \"#utility.yul\":2400:2404   */\n      0xff\n        /* \"#utility.yul\":2396:2408   */\n      sub\n        /* \"#utility.yul\":2393:2394   */\n      dup3\n        /* \"#utility.yul\":2390:2409   */\n      gt\n        /* \"#utility.yul\":2387:2432   */\n      iszero\n      tag_202\n      jumpi\n        /* \"#utility.yul\":2412:2430   */\n      tag_203\n      tag_197\n      jump\t// in\n    tag_203:\n        /* \"#utility.yul\":2387:2432   */\n    tag_202:\n        /* \"#utility.yul\":2456:2457   */\n      dup3\n        /* \"#utility.yul\":2453:2454   */\n      dup3\n        /* \"#utility.yul\":2449:2458   */\n      add\n        /* \"#utility.yul\":2442:2458   */\n      swap1\n      pop\n        /* \"#utility.yul\":2227:2464   */\n      swap3\n      swap2\n      pop\n      pop\n      jump\t// out\n        /* \"#utility.yul\":2470:2547   */\n    tag_187:\n        /* \"#utility.yul\":2507:2514   */\n      0x00\n        /* \"#utility.yul\":2536:2541   */\n      dup2\n        /* \"#utility.yul\":2525:2541   */\n      swap1\n      pop\n        /* \"#utility.yul\":2470:2547   */\n      swap2\n      swap1\n      pop\n      jump\t// out\n        /* \"#utility.yul\":2553:2639   */\n    tag_200:\n        /* \"#utility.yul\":2588:2595   */\n      0x00\n        /* \"#utility.yul\":2628:2632   */\n      0xff\n        /* \"#utility.yul\":2621:2626   */\n      dup3\n        /* \"#utility.yul\":2617:2633   */\n      and\n        /* \"#utility.yul\":2606:2633   */\n      swap1\n      pop\n        /* \"#utility.yul\":2553:2639   */\n      swap2\n      swap1\n      pop\n      jump\t// out\n        /* \"#utility.yul\":2645:2815   */\n    tag_144:\n        /* \"#utility.yul\":2675:2676   */\n      0x00\n        /* \"#utility.yul\":2692:2710   */\n      tag_207\n        /* \"#utility.yul\":2708:2709   */\n      dup3\n        /* \"#utility.yul\":2692:2710   */\n      tag_200\n      jump\t// in\n    tag_207:\n        /* \"#utility.yul\":2687:2710   */\n      swap2\n      pop\n        /* \"#utility.yul\":2724:2742   */\n      tag_208\n        /* \"#utility.yul\":2740:2741   */\n      dup4\n        /* \"#utility.yul\":2724:2742   */\n      tag_200\n      jump\t// in\n    tag_208:\n        /* \"#utility.yul\":2719:2742   */\n      swap3\n      pop\n        /* \"#utility.yul\":2761:2762   */\n      dup3\n        /* \"#utility.yul\":2751:2786   */\n      tag_209\n      jumpi\n        /* \"#utility.yul\":2766:2784   */\n      tag_210\n      tag_211\n      jump\t// in\n    tag_210:\n        /* \"#utility.yul\":2751:2786   */\n    tag_209:\n        /* \"#utility.yul\":2807:2808   */\n      dup3\n        /* \"#utility.yul\":2804:2805   */\n      dup3\n        /* \"#utility.yul\":2800:2809   */\n      mod\n        /* \"#utility.yul\":2795:2809   */\n      swap1\n      pop\n        /* \"#utility.yul\":2645:2815   */\n      swap3\n      swap2\n      pop\n      pop\n      jump\t// out\n        /* \"#utility.yul\":2821:3001   */\n    tag_197:\n        /* \"#utility.yul\":2869:2946   */\n      0x4e487b7100000000000000000000000000000000000000000000000000000000\n        /* \"#utility.yul\":2866:2867   */\n      0x00\n        /* \"#utility.yul\":2859:2947   */\n      mstore\n        /* \"#utility.yul\":2966:2970   */\n      0x11\n        /* \"#utility.yul\":2963:2964   */\n      0x04\n        /* \"#utility.yul\":2956:2971   */\n      mstore\n        /* \"#utility.yul\":2990:2994   */\n      0x24\n        /* \"#utility.yul\":2987:2988   */\n      0x00\n        /* \"#utility.yul\":2980:2995   */\n      revert\n        /* \"#utility.yul\":3007:3187   */\n    tag_211:\n        /* \"#utility.yul\":3055:3132   */\n      0x4e487b7100000000000000000000000000000000000000000000000000000000\n        /* \"#utility.yul\":3052:3053   */\n      0x00\n        /* \"#utility.yul\":3045:3133   */\n      mstore\n        /* \"#utility.yul\":3152:3156   */\n      0x12\n        /* \"#utility.yul\":3149:3150   */\n      0x04\n        /* \"#utility.yul\":3142:3157   */\n      mstore\n        /* \"#utility.yul\":3176:3180   */\n      0x24\n        /* \"#utility.yul\":3173:3174   */\n      0x00\n        /* \"#utility.yul\":3166:3181   */\n      revert\n        /* \"#utility.yul\":3193:3373   */\n    tag_22:\n        /* \"#utility.yul\":3241:3318   */\n      0x4e487b7100000000000000000000000000000000000000000000000000000000\n        /* \"#utility.yul\":3238:3239   */\n      0x00\n        /* \"#utility.yul\":3231:3319   */\n      mstore\n        /* \"#utility.yul\":3338:3342   */\n      0x21\n        /* \"#utility.yul\":3335:3336   */\n      0x04\n        /* \"#utility.yul\":3328:3343   */\n      mstore\n        /* \"#utility.yul\":3362:3366   */\n      0x24\n        /* \"#utility.yul\":3359:3360   */\n      0x00\n        /* \"#utility.yul\":3352:3367   */\n      revert\n        /* \"#utility.yul\":3502:3619   */\n    tag_173:\n        /* \"#utility.yul\":3611:3612   */\n      0x00\n        /* \"#utility.yul\":3608:3609   */\n      dup1\n        /* \"#utility.yul\":3601:3613   */\n      revert\n        /* \"#utility.yul\":3625:3730   */\n    tag_165:\n        /* \"#utility.yul\":3704:3705   */\n      0x03\n        /* \"#utility.yul\":3697:3702   */\n      dup2\n        /* \"#utility.yul\":3694:3706   */\n      lt\n        /* \"#utility.yul\":3684:3724   */\n      tag_219\n      jumpi\n        /* \"#utility.yul\":3720:3721   */\n      0x00\n        /* \"#utility.yul\":3717:3718   */\n      dup1\n        /* \"#utility.yul\":3710:3722   */\n      revert\n        /* \"#utility.yul\":3684:3724   */\n    tag_219:\n        /* \"#utility.yul\":3625:3730   */\n      pop\n      jump\t// out\n        /* \"#utility.yul\":3736:3858   */\n    tag_169:\n        /* \"#utility.yul\":3809:3833   */\n      tag_221\n        /* \"#utility.yul\":3827:3832   */\n      dup2\n        /* \"#utility.yul\":3809:3833   */\n      tag_187\n      jump\t// in\n    tag_221:\n        /* \"#utility.yul\":3802:3807   */\n      dup2\n        /* \"#utility.yul\":3799:3834   */\n      eq\n        /* \"#utility.yul\":3789:3852   */\n      tag_222\n      jumpi\n        /* \"#utility.yul\":3848:3849   */\n      0x00\n        /* \"#utility.yul\":3845:3846   */\n      dup1\n        /* \"#utility.yul\":3838:3850   */\n      revert\n        /* \"#utility.yul\":3789:3852   */\n    tag_222:\n        /* \"#utility.yul\":3736:3858   */\n      pop\n      jump\t// out\n\n    auxdata: 0xa26469706673582212201019c7a5dbed9bba9c7fb4be6592055fab8d87b31ba09d75fc5d4e5411e017c564736f6c63430008070033\n}\n",
				"bytecode": {
					"linkReferences": {},
					"object": "608060405260006001556111a0806100186000396000f3fe6080604052600436106100345760003560e01c80630f36f3b51461003957806379b1577614610069578063e115234314610085575b600080fd5b610053600480360381019061004e9190610f18565b6100a1565b6040516100609190610fc1565b60405180910390f35b610083600480360381019061007e9190610f72565b610404565b005b61009f600480360381019061009a9190610f45565b6105ff565b005b600081600060028111156100b8576100b761110f565b5b8160028111156100cb576100ca61110f565b5b14806100fb5750600160028111156100e6576100e561110f565b5b8160028111156100f9576100f861110f565b5b145b8061012957506002808111156101145761011361110f565b5b8160028111156101275761012661110f565b5b145b61013257600080fd5b6040518060800160405280348152602001600060038111156101575761015661110f565b5b8152602001604051806080016040528086600281111561017a5761017961110f565b5b81526020013373ffffffffffffffffffffffffffffffffffffffff1681526020016003808111156101ae576101ad61110f565b5b81526020013481525081526020016040518060800160405280600060028111156101db576101da61110f565b5b81526020013373ffffffffffffffffffffffffffffffffffffffff16815260200160038081111561020f5761020e61110f565b5b8152602001600081525081525060008060015481526020019081526020016000206000820151816000015560208201518160010160006101000a81548160ff021916908360038111156102655761026461110f565b5b021790555060408201518160020160008201518160000160006101000a81548160ff0219169083600281111561029e5761029d61110f565b5b021790555060208201518160000160016101000a81548173ffffffffffffffffffffffffffffffffffffffff021916908373ffffffffffffffffffffffffffffffffffffffff16021790555060408201518160000160156101000a81548160ff021916908360038111156103155761031461110f565b5b021790555060608201518160010155505060608201518160040160008201518160000160006101000a81548160ff0219169083600281111561035a5761035961110f565b5b021790555060208201518160000160016101000a81548173ffffffffffffffffffffffffffffffffffffffff021916908373ffffffffffffffffffffffffffffffffffffffff16021790555060408201518160000160156101000a81548160ff021916908360038111156103d1576103d061110f565b5b02179055506060820151816001015550509050506001549150600180546103f89190610fdc565b60018190555050919050565b80600060028111156104195761041861110f565b5b81600281111561042c5761042b61110f565b5b148061045c5750600160028111156104475761044661110f565b5b81600281111561045a5761045961110f565b5b145b8061048a57506002808111156104755761047461110f565b5b8160028111156104885761048761110f565b5b145b61049357600080fd5b60405180608001604052808360028111156104b1576104b061110f565b5b81526020013373ffffffffffffffffffffffffffffffffffffffff1681526020016003808111156104e5576104e461110f565b5b81526020013481525060008085815260200190815260200160002060040160008201518160000160006101000a81548160ff0219169083600281111561052e5761052d61110f565b5b021790555060208201518160000160016101000a81548173ffffffffffffffffffffffffffffffffffffffff021916908373ffffffffffffffffffffffffffffffffffffffff16021790555060408201518160000160156101000a81548160ff021916908360038111156105a5576105a461110f565b5b02179055506060820151816001015590505034600080858152602001908152602001600020600001546105d89190610fdc565b600080858152602001908152602001600020600001819055506105fa83610c03565b505050565b803360008083815260200190815260200160002060020160000160019054906101000a900473ffffffffffffffffffffffffffffffffffffffff1673ffffffffffffffffffffffffffffffffffffffff168173ffffffffffffffffffffffffffffffffffffffff1614806106d6575060008083815260200190815260200160002060040160000160019054906101000a900473ffffffffffffffffffffffffffffffffffffffff1673ffffffffffffffffffffffffffffffffffffffff168173ffffffffffffffffffffffffffffffffffffffff16145b6106df57600080fd5b600260038111156106f3576106f261110f565b5b60008085815260200190815260200160002060020160000160159054906101000a900460ff16600381111561072b5761072a61110f565b5b1480156107815750600260038111156107475761074661110f565b5b60008085815260200190815260200160002060040160000160159054906101000a900460ff16600381111561077f5761077e61110f565b5b145b156108b95760008084815260200190815260200160002060020160000160019054906101000a900473ffffffffffffffffffffffffffffffffffffffff1673ffffffffffffffffffffffffffffffffffffffff166108fc600080868152602001908152602001600020600201600101549081150290604051600060405180830381858888f1935050505015801561081c573d6000803e3d6000fd5b5060008084815260200190815260200160002060040160000160019054906101000a900473ffffffffffffffffffffffffffffffffffffffff1673ffffffffffffffffffffffffffffffffffffffff166108fc600080868152602001908152602001600020600401600101549081150290604051600060405180830381858888f193505050501580156108b3573d6000803e3d6000fd5b50610bc0565b600060038111156108cd576108cc61110f565b5b60008085815260200190815260200160002060020160000160159054906101000a900460ff1660038111156109055761090461110f565b5b14156109a45760008084815260200190815260200160002060020160000160019054906101000a900473ffffffffffffffffffffffffffffffffffffffff1673ffffffffffffffffffffffffffffffffffffffff166108fc600080868152602001908152602001600020600001549081150290604051600060405180830381858888f1935050505015801561099e573d6000803e3d6000fd5b50610bbf565b600060038111156109b8576109b761110f565b5b60008085815260200190815260200160002060040160000160159054906101000a900460ff1660038111156109f0576109ef61110f565b5b1415610a8f5760008084815260200190815260200160002060040160000160019054906101000a900473ffffffffffffffffffffffffffffffffffffffff1673ffffffffffffffffffffffffffffffffffffffff166108fc600080868152602001908152602001600020600001549081150290604051600060405180830381858888f19350505050158015610a89573d6000803e3d6000fd5b50610bbe565b60008084815260200190815260200160002060020160000160019054906101000a900473ffffffffffffffffffffffffffffffffffffffff1673ffffffffffffffffffffffffffffffffffffffff166108fc600080868152602001908152602001600020600201600101549081150290604051600060405180830381858888f19350505050158015610b25573d6000803e3d6000fd5b5060008084815260200190815260200160002060040160000160019054906101000a900473ffffffffffffffffffffffffffffffffffffffff1673ffffffffffffffffffffffffffffffffffffffff166108fc600080868152602001908152602001600020600401600101549081150290604051600060405180830381858888f19350505050158015610bbc573d6000803e3d6000fd5b505b5b5b600260008085815260200190815260200160002060010160006101000a81548160ff02191690836003811115610bf957610bf861110f565b5b0217905550505050565b600080600083815260200190815260200160002060020160000160009054906101000a900460ff166002811115610c3d57610c3c61110f565b5b9050600080600084815260200190815260200160002060040160000160009054906101000a900460ff166002811115610c7957610c7861110f565b5b9050600160008085815260200190815260200160002060010160006101000a81548160ff02191690836003811115610cb457610cb361110f565b5b02179055508160ff168160ff161415610d4e57600260008085815260200190815260200160002060020160000160156101000a81548160ff02191690836003811115610d0357610d0261110f565b5b0217905550600260008085815260200190815260200160002060040160000160156101000a81548160ff02191690836003811115610d4457610d4361110f565b5b0217905550610ee9565b8160ff166003600183610d619190611032565b610d6b9190611080565b60ff161415610dfb57600080600085815260200190815260200160002060020160000160156101000a81548160ff02191690836003811115610db057610daf61110f565b5b0217905550600160008085815260200190815260200160002060040160000160156101000a81548160ff02191690836003811115610df157610df061110f565b5b0217905550610ee8565b8060ff166003600184610e0e9190611032565b610e189190611080565b60ff161415610ea857600160008085815260200190815260200160002060020160000160156101000a81548160ff02191690836003811115610e5d57610e5c61110f565b5b0217905550600080600085815260200190815260200160002060040160000160156101000a81548160ff02191690836003811115610e9e57610e9d61110f565b5b0217905550610ee7565b600360008085815260200190815260200160002060010160006101000a81548160ff02191690836003811115610ee157610ee061110f565b5b02179055505b5b5b505050565b600081359050610efd81611143565b92915050565b600081359050610f1281611153565b92915050565b600060208284031215610f2e57610f2d61113e565b5b6000610f3c84828501610eee565b91505092915050565b600060208284031215610f5b57610f5a61113e565b5b6000610f6984828501610f03565b91505092915050565b60008060408385031215610f8957610f8861113e565b5b6000610f9785828601610f03565b9250506020610fa885828601610eee565b9150509250929050565b610fbb81611069565b82525050565b6000602082019050610fd66000830184610fb2565b92915050565b6000610fe782611069565b9150610ff283611069565b9250827fffffffffffffffffffffffffffffffffffffffffffffffffffffffffffffffff03821115611027576110266110b1565b5b828201905092915050565b600061103d82611073565b915061104883611073565b92508260ff0382111561105e5761105d6110b1565b5b828201905092915050565b6000819050919050565b600060ff82169050919050565b600061108b82611073565b915061109683611073565b9250826110a6576110a56110e0565b5b828206905092915050565b7f4e487b7100000000000000000000000000000000000000000000000000000000600052601160045260246000fd5b7f4e487b7100000000000000000000000000000000000000000000000000000000600052601260045260246000fd5b7f4e487b7100000000000000000000000000000000000000000000000000000000600052602160045260246000fd5b600080fd5b6003811061115057600080fd5b50565b61115c81611069565b811461116757600080fd5b5056fea26469706673582212201019c7a5dbed9bba9c7fb4be6592055fab8d87b31ba09d75fc5d4e5411e017c564736f6c63430008070033",
					"opcodes": "PUSH1 0x80 PUSH1 0x40 MSTORE PUSH1 0x0 PUSH1 0x1 SSTORE PUSH2 0x11A0 DUP1 PUSH2 0x18 PUSH1 0x0 CODECOPY PUSH1 0x0 RETURN INVALID PUSH1 0x80 PUSH1 0x40 MSTORE PUSH1 0x4 CALLDATASIZE LT PUSH2 0x34 JUMPI PUSH1 0x0 CALLDATALOAD PUSH1 0xE0 SHR DUP1 PUSH4 0xF36F3B5 EQ PUSH2 0x39 JUMPI DUP1 PUSH4 0x79B15776 EQ PUSH2 0x69 JUMPI DUP1 PUSH4 0xE1152343 EQ PUSH2 0x85 JUMPI JUMPDEST PUSH1 0x0 DUP1 REVERT JUMPDEST PUSH2 0x53 PUSH1 0x4 DUP1 CALLDATASIZE SUB DUP2 ADD SWAP1 PUSH2 0x4E SWAP2 SWAP1 PUSH2 0xF18 JUMP JUMPDEST PUSH2 0xA1 JUMP JUMPDEST PUSH1 0x40 MLOAD PUSH2 0x60 SWAP2 SWAP1 PUSH2 0xFC1 JUMP JUMPDEST PUSH1 0x40 MLOAD DUP1 SWAP2 SUB SWAP1 RETURN JUMPDEST PUSH2 0x83 PUSH1 0x4 DUP1 CALLDATASIZE SUB DUP2 ADD SWAP1 PUSH2 0x7E SWAP2 SWAP1 PUSH2 0xF72 JUMP JUMPDEST PUSH2 0x404 JUMP JUMPDEST STOP JUMPDEST PUSH2 0x9F PUSH1 0x4 DUP1 CALLDATASIZE SUB DUP2 ADD SWAP1 PUSH2 0x9A SWAP2 SWAP1 PUSH2 0xF45 JUMP JUMPDEST PUSH2 0x5FF JUMP JUMPDEST STOP JUMPDEST PUSH1 0x0 DUP2 PUSH1 0x0 PUSH1 0x2 DUP2 GT ISZERO PUSH2 0xB8 JUMPI PUSH2 0xB7 PUSH2 0x110F JUMP JUMPDEST JUMPDEST DUP2 PUSH1 0x2 DUP2 GT ISZERO PUSH2 0xCB JUMPI PUSH2 0xCA PUSH2 0x110F JUMP JUMPDEST JUMPDEST EQ DUP1 PUSH2 0xFB JUMPI POP PUSH1 0x1 PUSH1 0x2 DUP2 GT ISZERO PUSH2 0xE6 JUMPI PUSH2 0xE5 PUSH2 0x110F JUMP JUMPDEST JUMPDEST DUP2 PUSH1 0x2 DUP2 GT ISZERO PUSH2 0xF9 JUMPI PUSH2 0xF8 PUSH2 0x110F JUMP JUMPDEST JUMPDEST EQ JUMPDEST DUP1 PUSH2 0x129 JUMPI POP PUSH1 0x2 DUP1 DUP2 GT ISZERO PUSH2 0x114 JUMPI PUSH2 0x113 PUSH2 0x110F JUMP JUMPDEST JUMPDEST DUP2 PUSH1 0x2 DUP2 GT ISZERO PUSH2 0x127 JUMPI PUSH2 0x126 PUSH2 0x110F JUMP JUMPDEST JUMPDEST EQ JUMPDEST PUSH2 0x132 JUMPI PUSH1 0x0 DUP1 REVERT JUMPDEST PUSH1 0x40 MLOAD DUP1 PUSH1 0x80 ADD PUSH1 0x40 MSTORE DUP1 CALLVALUE DUP2 MSTORE PUSH1 0x20 ADD PUSH1 0x0 PUSH1 0x3 DUP2 GT ISZERO PUSH2 0x157 JUMPI PUSH2 0x156 PUSH2 0x110F JUMP JUMPDEST JUMPDEST DUP2 MSTORE PUSH1 0x20 ADD PUSH1 0x40 MLOAD DUP1 PUSH1 0x80 ADD PUSH1 0x40 MSTORE DUP1 DUP7 PUSH1 0x2 DUP2 GT ISZERO PUSH2 0x17A JUMPI PUSH2 0x179 PUSH2 0x110F JUMP JUMPDEST JUMPDEST DUP2 MSTORE PUSH1 0x20 ADD CALLER PUSH20 0xFFFFFFFFFFFFFFFFFFFFFFFFFFFFFFFFFFFFFFFF AND DUP2 MSTORE PUSH1 0x20 ADD PUSH1 0x3 DUP1 DUP2 GT ISZERO PUSH2 0x1AE JUMPI PUSH2 0x1AD PUSH2 0x110F JUMP JUMPDEST JUMPDEST DUP2 MSTORE PUSH1 0x20 ADD CALLVALUE DUP2 MSTORE POP DUP2 MSTORE PUSH1 0x20 ADD PUSH1 0x40 MLOAD DUP1 PUSH1 0x80 ADD PUSH1 0x40 MSTORE DUP1 PUSH1 0x0 PUSH1 0x2 DUP2 GT ISZERO PUSH2 0x1DB JUMPI PUSH2 0x1DA PUSH2 0x110F JUMP JUMPDEST JUMPDEST DUP2 MSTORE PUSH1 0x20 ADD CALLER PUSH20 0xFFFFFFFFFFFFFFFFFFFFFFFFFFFFFFFFFFFFFFFF AND DUP2 MSTORE PUSH1 0x20 ADD PUSH1 0x3 DUP1 DUP2 GT ISZERO PUSH2 0x20F JUMPI PUSH2 0x20E PUSH2 0x110F JUMP JUMPDEST JUMPDEST DUP2 MSTORE PUSH1 0x20 ADD PUSH1 0x0 DUP2 MSTORE POP DUP2 MSTORE POP PUSH1 0x0 DUP1 PUSH1 0x1 SLOAD DUP2 MSTORE PUSH1 0x20 ADD SWAP1 DUP2 MSTORE PUSH1 0x20 ADD PUSH1 0x0 KECCAK256 PUSH1 0x0 DUP3 ADD MLOAD DUP2 PUSH1 0x0 ADD SSTORE PUSH1 0x20 DUP3 ADD MLOAD DUP2 PUSH1 0x1 ADD PUSH1 0x0 PUSH2 0x100 EXP DUP2 SLOAD DUP2 PUSH1 0xFF MUL NOT AND SWAP1 DUP4 PUSH1 0x3 DUP2 GT ISZERO PUSH2 0x265 JUMPI PUSH2 0x264 PUSH2 0x110F JUMP JUMPDEST JUMPDEST MUL OR SWAP1 SSTORE POP PUSH1 0x40 DUP3 ADD MLOAD DUP2 PUSH1 0x2 ADD PUSH1 0x0 DUP3 ADD MLOAD DUP2 PUSH1 0x0 ADD PUSH1 0x0 PUSH2 0x100 EXP DUP2 SLOAD DUP2 PUSH1 0xFF MUL NOT AND SWAP1 DUP4 PUSH1 0x2 DUP2 GT ISZERO PUSH2 0x29E JUMPI PUSH2 0x29D PUSH2 0x110F JUMP JUMPDEST JUMPDEST MUL OR SWAP1 SSTORE POP PUSH1 0x20 DUP3 ADD MLOAD DUP2 PUSH1 0x0 ADD PUSH1 0x1 PUSH2 0x100 EXP DUP2 SLOAD DUP2 PUSH20 0xFFFFFFFFFFFFFFFFFFFFFFFFFFFFFFFFFFFFFFFF MUL NOT AND SWAP1 DUP4 PUSH20 0xFFFFFFFFFFFFFFFFFFFFFFFFFFFFFFFFFFFFFFFF AND MUL OR SWAP1 SSTORE POP PUSH1 0x40 DUP3 ADD MLOAD DUP2 PUSH1 0x0 ADD PUSH1 0x15 PUSH2 0x100 EXP DUP2 SLOAD DUP2 PUSH1 0xFF MUL NOT AND SWAP1 DUP4 PUSH1 0x3 DUP2 GT ISZERO PUSH2 0x315 JUMPI PUSH2 0x314 PUSH2 0x110F JUMP JUMPDEST JUMPDEST MUL OR SWAP1 SSTORE POP PUSH1 0x60 DUP3 ADD MLOAD DUP2 PUSH1 0x1 ADD SSTORE POP POP PUSH1 0x60 DUP3 ADD MLOAD DUP2 PUSH1 0x4 ADD PUSH1 0x0 DUP3 ADD MLOAD DUP2 PUSH1 0x0 ADD PUSH1 0x0 PUSH2 0x100 EXP DUP2 SLOAD DUP2 PUSH1 0xFF MUL NOT AND SWAP1 DUP4 PUSH1 0x2 DUP2 GT ISZERO PUSH2 0x35A JUMPI PUSH2 0x359 PUSH2 0x110F JUMP JUMPDEST JUMPDEST MUL OR SWAP1 SSTORE POP PUSH1 0x20 DUP3 ADD MLOAD DUP2 PUSH1 0x0 ADD PUSH1 0x1 PUSH2 0x100 EXP DUP2 SLOAD DUP2 PUSH20 0xFFFFFFFFFFFFFFFFFFFFFFFFFFFFFFFFFFFFFFFF MUL NOT AND SWAP1 DUP4 PUSH20 0xFFFFFFFFFFFFFFFFFFFFFFFFFFFFFFFFFFFFFFFF AND MUL OR SWAP1 SSTORE POP PUSH1 0x40 DUP3 ADD MLOAD DUP2 PUSH1 0x0 ADD PUSH1 0x15 PUSH2 0x100 EXP DUP2 SLOAD DUP2 PUSH1 0xFF MUL NOT AND SWAP1 DUP4 PUSH1 0x3 DUP2 GT ISZERO PUSH2 0x3D1 JUMPI PUSH2 0x3D0 PUSH2 0x110F JUMP JUMPDEST JUMPDEST MUL OR SWAP1 SSTORE POP PUSH1 0x60 DUP3 ADD MLOAD DUP2 PUSH1 0x1 ADD SSTORE POP POP SWAP1 POP POP PUSH1 0x1 SLOAD SWAP2 POP PUSH1 0x1 DUP1 SLOAD PUSH2 0x3F8 SWAP2 SWAP1 PUSH2 0xFDC JUMP JUMPDEST PUSH1 0x1 DUP2 SWAP1 SSTORE POP POP SWAP2 SWAP1 POP JUMP JUMPDEST DUP1 PUSH1 0x0 PUSH1 0x2 DUP2 GT ISZERO PUSH2 0x419 JUMPI PUSH2 0x418 PUSH2 0x110F JUMP JUMPDEST JUMPDEST DUP2 PUSH1 0x2 DUP2 GT ISZERO PUSH2 0x42C JUMPI PUSH2 0x42B PUSH2 0x110F JUMP JUMPDEST JUMPDEST EQ DUP1 PUSH2 0x45C JUMPI POP PUSH1 0x1 PUSH1 0x2 DUP2 GT ISZERO PUSH2 0x447 JUMPI PUSH2 0x446 PUSH2 0x110F JUMP JUMPDEST JUMPDEST DUP2 PUSH1 0x2 DUP2 GT ISZERO PUSH2 0x45A JUMPI PUSH2 0x459 PUSH2 0x110F JUMP JUMPDEST JUMPDEST EQ JUMPDEST DUP1 PUSH2 0x48A JUMPI POP PUSH1 0x2 DUP1 DUP2 GT ISZERO PUSH2 0x475 JUMPI PUSH2 0x474 PUSH2 0x110F JUMP JUMPDEST JUMPDEST DUP2 PUSH1 0x2 DUP2 GT ISZERO PUSH2 0x488 JUMPI PUSH2 0x487 PUSH2 0x110F JUMP JUMPDEST JUMPDEST EQ JUMPDEST PUSH2 0x493 JUMPI PUSH1 0x0 DUP1 REVERT JUMPDEST PUSH1 0x40 MLOAD DUP1 PUSH1 0x80 ADD PUSH1 0x40 MSTORE DUP1 DUP4 PUSH1 0x2 DUP2 GT ISZERO PUSH2 0x4B1 JUMPI PUSH2 0x4B0 PUSH2 0x110F JUMP JUMPDEST JUMPDEST DUP2 MSTORE PUSH1 0x20 ADD CALLER PUSH20 0xFFFFFFFFFFFFFFFFFFFFFFFFFFFFFFFFFFFFFFFF AND DUP2 MSTORE PUSH1 0x20 ADD PUSH1 0x3 DUP1 DUP2 GT ISZERO PUSH2 0x4E5 JUMPI PUSH2 0x4E4 PUSH2 0x110F JUMP JUMPDEST JUMPDEST DUP2 MSTORE PUSH1 0x20 ADD CALLVALUE DUP2 MSTORE POP PUSH1 0x0 DUP1 DUP6 DUP2 MSTORE PUSH1 0x20 ADD SWAP1 DUP2 MSTORE PUSH1 0x20 ADD PUSH1 0x0 KECCAK256 PUSH1 0x4 ADD PUSH1 0x0 DUP3 ADD MLOAD DUP2 PUSH1 0x0 ADD PUSH1 0x0 PUSH2 0x100 EXP DUP2 SLOAD DUP2 PUSH1 0xFF MUL NOT AND SWAP1 DUP4 PUSH1 0x2 DUP2 GT ISZERO PUSH2 0x52E JUMPI PUSH2 0x52D PUSH2 0x110F JUMP JUMPDEST JUMPDEST MUL OR SWAP1 SSTORE POP PUSH1 0x20 DUP3 ADD MLOAD DUP2 PUSH1 0x0 ADD PUSH1 0x1 PUSH2 0x100 EXP DUP2 SLOAD DUP2 PUSH20 0xFFFFFFFFFFFFFFFFFFFFFFFFFFFFFFFFFFFFFFFF MUL NOT AND SWAP1 DUP4 PUSH20 0xFFFFFFFFFFFFFFFFFFFFFFFFFFFFFFFFFFFFFFFF AND MUL OR SWAP1 SSTORE POP PUSH1 0x40 DUP3 ADD MLOAD DUP2 PUSH1 0x0 ADD PUSH1 0x15 PUSH2 0x100 EXP DUP2 SLOAD DUP2 PUSH1 0xFF MUL NOT AND SWAP1 DUP4 PUSH1 0x3 DUP2 GT ISZERO PUSH2 0x5A5 JUMPI PUSH2 0x5A4 PUSH2 0x110F JUMP JUMPDEST JUMPDEST MUL OR SWAP1 SSTORE POP PUSH1 0x60 DUP3 ADD MLOAD DUP2 PUSH1 0x1 ADD SSTORE SWAP1 POP POP CALLVALUE PUSH1 0x0 DUP1 DUP6 DUP2 MSTORE PUSH1 0x20 ADD SWAP1 DUP2 MSTORE PUSH1 0x20 ADD PUSH1 0x0 KECCAK256 PUSH1 0x0 ADD SLOAD PUSH2 0x5D8 SWAP2 SWAP1 PUSH2 0xFDC JUMP JUMPDEST PUSH1 0x0 DUP1 DUP6 DUP2 MSTORE PUSH1 0x20 ADD SWAP1 DUP2 MSTORE PUSH1 0x20 ADD PUSH1 0x0 KECCAK256 PUSH1 0x0 ADD DUP2 SWAP1 SSTORE POP PUSH2 0x5FA DUP4 PUSH2 0xC03 JUMP JUMPDEST POP POP POP JUMP JUMPDEST DUP1 CALLER PUSH1 0x0 DUP1 DUP4 DUP2 MSTORE PUSH1 0x20 ADD SWAP1 DUP2 MSTORE PUSH1 0x20 ADD PUSH1 0x0 KECCAK256 PUSH1 0x2 ADD PUSH1 0x0 ADD PUSH1 0x1 SWAP1 SLOAD SWAP1 PUSH2 0x100 EXP SWAP1 DIV PUSH20 0xFFFFFFFFFFFFFFFFFFFFFFFFFFFFFFFFFFFFFFFF AND PUSH20 0xFFFFFFFFFFFFFFFFFFFFFFFFFFFFFFFFFFFFFFFF AND DUP2 PUSH20 0xFFFFFFFFFFFFFFFFFFFFFFFFFFFFFFFFFFFFFFFF AND EQ DUP1 PUSH2 0x6D6 JUMPI POP PUSH1 0x0 DUP1 DUP4 DUP2 MSTORE PUSH1 0x20 ADD SWAP1 DUP2 MSTORE PUSH1 0x20 ADD PUSH1 0x0 KECCAK256 PUSH1 0x4 ADD PUSH1 0x0 ADD PUSH1 0x1 SWAP1 SLOAD SWAP1 PUSH2 0x100 EXP SWAP1 DIV PUSH20 0xFFFFFFFFFFFFFFFFFFFFFFFFFFFFFFFFFFFFFFFF AND PUSH20 0xFFFFFFFFFFFFFFFFFFFFFFFFFFFFFFFFFFFFFFFF AND DUP2 PUSH20 0xFFFFFFFFFFFFFFFFFFFFFFFFFFFFFFFFFFFFFFFF AND EQ JUMPDEST PUSH2 0x6DF JUMPI PUSH1 0x0 DUP1 REVERT JUMPDEST PUSH1 0x2 PUSH1 0x3 DUP2 GT ISZERO PUSH2 0x6F3 JUMPI PUSH2 0x6F2 PUSH2 0x110F JUMP JUMPDEST JUMPDEST PUSH1 0x0 DUP1 DUP6 DUP2 MSTORE PUSH1 0x20 ADD SWAP1 DUP2 MSTORE PUSH1 0x20 ADD PUSH1 0x0 KECCAK256 PUSH1 0x2 ADD PUSH1 0x0 ADD PUSH1 0x15 SWAP1 SLOAD SWAP1 PUSH2 0x100 EXP SWAP1 DIV PUSH1 0xFF AND PUSH1 0x3 DUP2 GT ISZERO PUSH2 0x72B JUMPI PUSH2 0x72A PUSH2 0x110F JUMP JUMPDEST JUMPDEST EQ DUP1 ISZERO PUSH2 0x781 JUMPI POP PUSH1 0x2 PUSH1 0x3 DUP2 GT ISZERO PUSH2 0x747 JUMPI PUSH2 0x746 PUSH2 0x110F JUMP JUMPDEST JUMPDEST PUSH1 0x0 DUP1 DUP6 DUP2 MSTORE PUSH1 0x20 ADD SWAP1 DUP2 MSTORE PUSH1 0x20 ADD PUSH1 0x0 KECCAK256 PUSH1 0x4 ADD PUSH1 0x0 ADD PUSH1 0x15 SWAP1 SLOAD SWAP1 PUSH2 0x100 EXP SWAP1 DIV PUSH1 0xFF AND PUSH1 0x3 DUP2 GT ISZERO PUSH2 0x77F JUMPI PUSH2 0x77E PUSH2 0x110F JUMP JUMPDEST JUMPDEST EQ JUMPDEST ISZERO PUSH2 0x8B9 JUMPI PUSH1 0x0 DUP1 DUP5 DUP2 MSTORE PUSH1 0x20 ADD SWAP1 DUP2 MSTORE PUSH1 0x20 ADD PUSH1 0x0 KECCAK256 PUSH1 0x2 ADD PUSH1 0x0 ADD PUSH1 0x1 SWAP1 SLOAD SWAP1 PUSH2 0x100 EXP SWAP1 DIV PUSH20 0xFFFFFFFFFFFFFFFFFFFFFFFFFFFFFFFFFFFFFFFF AND PUSH20 0xFFFFFFFFFFFFFFFFFFFFFFFFFFFFFFFFFFFFFFFF AND PUSH2 0x8FC PUSH1 0x0 DUP1 DUP7 DUP2 MSTORE PUSH1 0x20 ADD SWAP1 DUP2 MSTORE PUSH1 0x20 ADD PUSH1 0x0 KECCAK256 PUSH1 0x2 ADD PUSH1 0x1 ADD SLOAD SWAP1 DUP2 ISZERO MUL SWAP1 PUSH1 0x40 MLOAD PUSH1 0x0 PUSH1 0x40 MLOAD DUP1 DUP4 SUB DUP2 DUP6 DUP9 DUP9 CALL SWAP4 POP POP POP POP ISZERO DUP1 ISZERO PUSH2 0x81C JUMPI RETURNDATASIZE PUSH1 0x0 DUP1 RETURNDATACOPY RETURNDATASIZE PUSH1 0x0 REVERT JUMPDEST POP PUSH1 0x0 DUP1 DUP5 DUP2 MSTORE PUSH1 0x20 ADD SWAP1 DUP2 MSTORE PUSH1 0x20 ADD PUSH1 0x0 KECCAK256 PUSH1 0x4 ADD PUSH1 0x0 ADD PUSH1 0x1 SWAP1 SLOAD SWAP1 PUSH2 0x100 EXP SWAP1 DIV PUSH20 0xFFFFFFFFFFFFFFFFFFFFFFFFFFFFFFFFFFFFFFFF AND PUSH20 0xFFFFFFFFFFFFFFFFFFFFFFFFFFFFFFFFFFFFFFFF AND PUSH2 0x8FC PUSH1 0x0 DUP1 DUP7 DUP2 MSTORE PUSH1 0x20 ADD SWAP1 DUP2 MSTORE PUSH1 0x20 ADD PUSH1 0x0 KECCAK256 PUSH1 0x4 ADD PUSH1 0x1 ADD SLOAD SWAP1 DUP2 ISZERO MUL SWAP1 PUSH1 0x40 MLOAD PUSH1 0x0 PUSH1 0x40 MLOAD DUP1 DUP4 SUB DUP2 DUP6 DUP9 DUP9 CALL SWAP4 POP POP POP POP ISZERO DUP1 ISZERO PUSH2 0x8B3 JUMPI RETURNDATASIZE PUSH1 0x0 DUP1 RETURNDATACOPY RETURNDATASIZE PUSH1 0x0 REVERT JUMPDEST POP PUSH2 0xBC0 JUMP JUMPDEST PUSH1 0x0 PUSH1 0x3 DUP2 GT ISZERO PUSH2 0x8CD JUMPI PUSH2 0x8CC PUSH2 0x110F JUMP JUMPDEST JUMPDEST PUSH1 0x0 DUP1 DUP6 DUP2 MSTORE PUSH1 0x20 ADD SWAP1 DUP2 MSTORE PUSH1 0x20 ADD PUSH1 0x0 KECCAK256 PUSH1 0x2 ADD PUSH1 0x0 ADD PUSH1 0x15 SWAP1 SLOAD SWAP1 PUSH2 0x100 EXP SWAP1 DIV PUSH1 0xFF AND PUSH1 0x3 DUP2 GT ISZERO PUSH2 0x905 JUMPI PUSH2 0x904 PUSH2 0x110F JUMP JUMPDEST JUMPDEST EQ ISZERO PUSH2 0x9A4 JUMPI PUSH1 0x0 DUP1 DUP5 DUP2 MSTORE PUSH1 0x20 ADD SWAP1 DUP2 MSTORE PUSH1 0x20 ADD PUSH1 0x0 KECCAK256 PUSH1 0x2 ADD PUSH1 0x0 ADD PUSH1 0x1 SWAP1 SLOAD SWAP1 PUSH2 0x100 EXP SWAP1 DIV PUSH20 0xFFFFFFFFFFFFFFFFFFFFFFFFFFFFFFFFFFFFFFFF AND PUSH20 0xFFFFFFFFFFFFFFFFFFFFFFFFFFFFFFFFFFFFFFFF AND PUSH2 0x8FC PUSH1 0x0 DUP1 DUP7 DUP2 MSTORE PUSH1 0x20 ADD SWAP1 DUP2 MSTORE PUSH1 0x20 ADD PUSH1 0x0 KECCAK256 PUSH1 0x0 ADD SLOAD SWAP1 DUP2 ISZERO MUL SWAP1 PUSH1 0x40 MLOAD PUSH1 0x0 PUSH1 0x40 MLOAD DUP1 DUP4 SUB DUP2 DUP6 DUP9 DUP9 CALL SWAP4 POP POP POP POP ISZERO DUP1 ISZERO PUSH2 0x99E JUMPI RETURNDATASIZE PUSH1 0x0 DUP1 RETURNDATACOPY RETURNDATASIZE PUSH1 0x0 REVERT JUMPDEST POP PUSH2 0xBBF JUMP JUMPDEST PUSH1 0x0 PUSH1 0x3 DUP2 GT ISZERO PUSH2 0x9B8 JUMPI PUSH2 0x9B7 PUSH2 0x110F JUMP JUMPDEST JUMPDEST PUSH1 0x0 DUP1 DUP6 DUP2 MSTORE PUSH1 0x20 ADD SWAP1 DUP2 MSTORE PUSH1 0x20 ADD PUSH1 0x0 KECCAK256 PUSH1 0x4 ADD PUSH1 0x0 ADD PUSH1 0x15 SWAP1 SLOAD SWAP1 PUSH2 0x100 EXP SWAP1 DIV PUSH1 0xFF AND PUSH1 0x3 DUP2 GT ISZERO PUSH2 0x9F0 JUMPI PUSH2 0x9EF PUSH2 0x110F JUMP JUMPDEST JUMPDEST EQ ISZERO PUSH2 0xA8F JUMPI PUSH1 0x0 DUP1 DUP5 DUP2 MSTORE PUSH1 0x20 ADD SWAP1 DUP2 MSTORE PUSH1 0x20 ADD PUSH1 0x0 KECCAK256 PUSH1 0x4 ADD PUSH1 0x0 ADD PUSH1 0x1 SWAP1 SLOAD SWAP1 PUSH2 0x100 EXP SWAP1 DIV PUSH20 0xFFFFFFFFFFFFFFFFFFFFFFFFFFFFFFFFFFFFFFFF AND PUSH20 0xFFFFFFFFFFFFFFFFFFFFFFFFFFFFFFFFFFFFFFFF AND PUSH2 0x8FC PUSH1 0x0 DUP1 DUP7 DUP2 MSTORE PUSH1 0x20 ADD SWAP1 DUP2 MSTORE PUSH1 0x20 ADD PUSH1 0x0 KECCAK256 PUSH1 0x0 ADD SLOAD SWAP1 DUP2 ISZERO MUL SWAP1 PUSH1 0x40 MLOAD PUSH1 0x0 PUSH1 0x40 MLOAD DUP1 DUP4 SUB DUP2 DUP6 DUP9 DUP9 CALL SWAP4 POP POP POP POP ISZERO DUP1 ISZERO PUSH2 0xA89 JUMPI RETURNDATASIZE PUSH1 0x0 DUP1 RETURNDATACOPY RETURNDATASIZE PUSH1 0x0 REVERT JUMPDEST POP PUSH2 0xBBE JUMP JUMPDEST PUSH1 0x0 DUP1 DUP5 DUP2 MSTORE PUSH1 0x20 ADD SWAP1 DUP2 MSTORE PUSH1 0x20 ADD PUSH1 0x0 KECCAK256 PUSH1 0x2 ADD PUSH1 0x0 ADD PUSH1 0x1 SWAP1 SLOAD SWAP1 PUSH2 0x100 EXP SWAP1 DIV PUSH20 0xFFFFFFFFFFFFFFFFFFFFFFFFFFFFFFFFFFFFFFFF AND PUSH20 0xFFFFFFFFFFFFFFFFFFFFFFFFFFFFFFFFFFFFFFFF AND PUSH2 0x8FC PUSH1 0x0 DUP1 DUP7 DUP2 MSTORE PUSH1 0x20 ADD SWAP1 DUP2 MSTORE PUSH1 0x20 ADD PUSH1 0x0 KECCAK256 PUSH1 0x2 ADD PUSH1 0x1 ADD SLOAD SWAP1 DUP2 ISZERO MUL SWAP1 PUSH1 0x40 MLOAD PUSH1 0x0 PUSH1 0x40 MLOAD DUP1 DUP4 SUB DUP2 DUP6 DUP9 DUP9 CALL SWAP4 POP POP POP POP ISZERO DUP1 ISZERO PUSH2 0xB25 JUMPI RETURNDATASIZE PUSH1 0x0 DUP1 RETURNDATACOPY RETURNDATASIZE PUSH1 0x0 REVERT JUMPDEST POP PUSH1 0x0 DUP1 DUP5 DUP2 MSTORE PUSH1 0x20 ADD SWAP1 DUP2 MSTORE PUSH1 0x20 ADD PUSH1 0x0 KECCAK256 PUSH1 0x4 ADD PUSH1 0x0 ADD PUSH1 0x1 SWAP1 SLOAD SWAP1 PUSH2 0x100 EXP SWAP1 DIV PUSH20 0xFFFFFFFFFFFFFFFFFFFFFFFFFFFFFFFFFFFFFFFF AND PUSH20 0xFFFFFFFFFFFFFFFFFFFFFFFFFFFFFFFFFFFFFFFF AND PUSH2 0x8FC PUSH1 0x0 DUP1 DUP7 DUP2 MSTORE PUSH1 0x20 ADD SWAP1 DUP2 MSTORE PUSH1 0x20 ADD PUSH1 0x0 KECCAK256 PUSH1 0x4 ADD PUSH1 0x1 ADD SLOAD SWAP1 DUP2 ISZERO MUL SWAP1 PUSH1 0x40 MLOAD PUSH1 0x0 PUSH1 0x40 MLOAD DUP1 DUP4 SUB DUP2 DUP6 DUP9 DUP9 CALL SWAP4 POP POP POP POP ISZERO DUP1 ISZERO PUSH2 0xBBC JUMPI RETURNDATASIZE PUSH1 0x0 DUP1 RETURNDATACOPY RETURNDATASIZE PUSH1 0x0 REVERT JUMPDEST POP JUMPDEST JUMPDEST JUMPDEST PUSH1 0x2 PUSH1 0x0 DUP1 DUP6 DUP2 MSTORE PUSH1 0x20 ADD SWAP1 DUP2 MSTORE PUSH1 0x20 ADD PUSH1 0x0 KECCAK256 PUSH1 0x1 ADD PUSH1 0x0 PUSH2 0x100 EXP DUP2 SLOAD DUP2 PUSH1 0xFF MUL NOT AND SWAP1 DUP4 PUSH1 0x3 DUP2 GT ISZERO PUSH2 0xBF9 JUMPI PUSH2 0xBF8 PUSH2 0x110F JUMP JUMPDEST JUMPDEST MUL OR SWAP1 SSTORE POP POP POP POP JUMP JUMPDEST PUSH1 0x0 DUP1 PUSH1 0x0 DUP4 DUP2 MSTORE PUSH1 0x20 ADD SWAP1 DUP2 MSTORE PUSH1 0x20 ADD PUSH1 0x0 KECCAK256 PUSH1 0x2 ADD PUSH1 0x0 ADD PUSH1 0x0 SWAP1 SLOAD SWAP1 PUSH2 0x100 EXP SWAP1 DIV PUSH1 0xFF AND PUSH1 0x2 DUP2 GT ISZERO PUSH2 0xC3D JUMPI PUSH2 0xC3C PUSH2 0x110F JUMP JUMPDEST JUMPDEST SWAP1 POP PUSH1 0x0 DUP1 PUSH1 0x0 DUP5 DUP2 MSTORE PUSH1 0x20 ADD SWAP1 DUP2 MSTORE PUSH1 0x20 ADD PUSH1 0x0 KECCAK256 PUSH1 0x4 ADD PUSH1 0x0 ADD PUSH1 0x0 SWAP1 SLOAD SWAP1 PUSH2 0x100 EXP SWAP1 DIV PUSH1 0xFF AND PUSH1 0x2 DUP2 GT ISZERO PUSH2 0xC79 JUMPI PUSH2 0xC78 PUSH2 0x110F JUMP JUMPDEST JUMPDEST SWAP1 POP PUSH1 0x1 PUSH1 0x0 DUP1 DUP6 DUP2 MSTORE PUSH1 0x20 ADD SWAP1 DUP2 MSTORE PUSH1 0x20 ADD PUSH1 0x0 KECCAK256 PUSH1 0x1 ADD PUSH1 0x0 PUSH2 0x100 EXP DUP2 SLOAD DUP2 PUSH1 0xFF MUL NOT AND SWAP1 DUP4 PUSH1 0x3 DUP2 GT ISZERO PUSH2 0xCB4 JUMPI PUSH2 0xCB3 PUSH2 0x110F JUMP JUMPDEST JUMPDEST MUL OR SWAP1 SSTORE POP DUP2 PUSH1 0xFF AND DUP2 PUSH1 0xFF AND EQ ISZERO PUSH2 0xD4E JUMPI PUSH1 0x2 PUSH1 0x0 DUP1 DUP6 DUP2 MSTORE PUSH1 0x20 ADD SWAP1 DUP2 MSTORE PUSH1 0x20 ADD PUSH1 0x0 KECCAK256 PUSH1 0x2 ADD PUSH1 0x0 ADD PUSH1 0x15 PUSH2 0x100 EXP DUP2 SLOAD DUP2 PUSH1 0xFF MUL NOT AND SWAP1 DUP4 PUSH1 0x3 DUP2 GT ISZERO PUSH2 0xD03 JUMPI PUSH2 0xD02 PUSH2 0x110F JUMP JUMPDEST JUMPDEST MUL OR SWAP1 SSTORE POP PUSH1 0x2 PUSH1 0x0 DUP1 DUP6 DUP2 MSTORE PUSH1 0x20 ADD SWAP1 DUP2 MSTORE PUSH1 0x20 ADD PUSH1 0x0 KECCAK256 PUSH1 0x4 ADD PUSH1 0x0 ADD PUSH1 0x15 PUSH2 0x100 EXP DUP2 SLOAD DUP2 PUSH1 0xFF MUL NOT AND SWAP1 DUP4 PUSH1 0x3 DUP2 GT ISZERO PUSH2 0xD44 JUMPI PUSH2 0xD43 PUSH2 0x110F JUMP JUMPDEST JUMPDEST MUL OR SWAP1 SSTORE POP PUSH2 0xEE9 JUMP JUMPDEST DUP2 PUSH1 0xFF AND PUSH1 0x3 PUSH1 0x1 DUP4 PUSH2 0xD61 SWAP2 SWAP1 PUSH2 0x1032 JUMP JUMPDEST PUSH2 0xD6B SWAP2 SWAP1 PUSH2 0x1080 JUMP JUMPDEST PUSH1 0xFF AND EQ ISZERO PUSH2 0xDFB JUMPI PUSH1 0x0 DUP1 PUSH1 0x0 DUP6 DUP2 MSTORE PUSH1 0x20 ADD SWAP1 DUP2 MSTORE PUSH1 0x20 ADD PUSH1 0x0 KECCAK256 PUSH1 0x2 ADD PUSH1 0x0 ADD PUSH1 0x15 PUSH2 0x100 EXP DUP2 SLOAD DUP2 PUSH1 0xFF MUL NOT AND SWAP1 DUP4 PUSH1 0x3 DUP2 GT ISZERO PUSH2 0xDB0 JUMPI PUSH2 0xDAF PUSH2 0x110F JUMP JUMPDEST JUMPDEST MUL OR SWAP1 SSTORE POP PUSH1 0x1 PUSH1 0x0 DUP1 DUP6 DUP2 MSTORE PUSH1 0x20 ADD SWAP1 DUP2 MSTORE PUSH1 0x20 ADD PUSH1 0x0 KECCAK256 PUSH1 0x4 ADD PUSH1 0x0 ADD PUSH1 0x15 PUSH2 0x100 EXP DUP2 SLOAD DUP2 PUSH1 0xFF MUL NOT AND SWAP1 DUP4 PUSH1 0x3 DUP2 GT ISZERO PUSH2 0xDF1 JUMPI PUSH2 0xDF0 PUSH2 0x110F JUMP JUMPDEST JUMPDEST MUL OR SWAP1 SSTORE POP PUSH2 0xEE8 JUMP JUMPDEST DUP1 PUSH1 0xFF AND PUSH1 0x3 PUSH1 0x1 DUP5 PUSH2 0xE0E SWAP2 SWAP1 PUSH2 0x1032 JUMP JUMPDEST PUSH2 0xE18 SWAP2 SWAP1 PUSH2 0x1080 JUMP JUMPDEST PUSH1 0xFF AND EQ ISZERO PUSH2 0xEA8 JUMPI PUSH1 0x1 PUSH1 0x0 DUP1 DUP6 DUP2 MSTORE PUSH1 0x20 ADD SWAP1 DUP2 MSTORE PUSH1 0x20 ADD PUSH1 0x0 KECCAK256 PUSH1 0x2 ADD PUSH1 0x0 ADD PUSH1 0x15 PUSH2 0x100 EXP DUP2 SLOAD DUP2 PUSH1 0xFF MUL NOT AND SWAP1 DUP4 PUSH1 0x3 DUP2 GT ISZERO PUSH2 0xE5D JUMPI PUSH2 0xE5C PUSH2 0x110F JUMP JUMPDEST JUMPDEST MUL OR SWAP1 SSTORE POP PUSH1 0x0 DUP1 PUSH1 0x0 DUP6 DUP2 MSTORE PUSH1 0x20 ADD SWAP1 DUP2 MSTORE PUSH1 0x20 ADD PUSH1 0x0 KECCAK256 PUSH1 0x4 ADD PUSH1 0x0 ADD PUSH1 0x15 PUSH2 0x100 EXP DUP2 SLOAD DUP2 PUSH1 0xFF MUL NOT AND SWAP1 DUP4 PUSH1 0x3 DUP2 GT ISZERO PUSH2 0xE9E JUMPI PUSH2 0xE9D PUSH2 0x110F JUMP JUMPDEST JUMPDEST MUL OR SWAP1 SSTORE POP PUSH2 0xEE7 JUMP JUMPDEST PUSH1 0x3 PUSH1 0x0 DUP1 DUP6 DUP2 MSTORE PUSH1 0x20 ADD SWAP1 DUP2 MSTORE PUSH1 0x20 ADD PUSH1 0x0 KECCAK256 PUSH1 0x1 ADD PUSH1 0x0 PUSH2 0x100 EXP DUP2 SLOAD DUP2 PUSH1 0xFF MUL NOT AND SWAP1 DUP4 PUSH1 0x3 DUP2 GT ISZERO PUSH2 0xEE1 JUMPI PUSH2 0xEE0 PUSH2 0x110F JUMP JUMPDEST JUMPDEST MUL OR SWAP1 SSTORE POP JUMPDEST JUMPDEST JUMPDEST POP POP POP JUMP JUMPDEST PUSH1 0x0 DUP2 CALLDATALOAD SWAP1 POP PUSH2 0xEFD DUP2 PUSH2 0x1143 JUMP JUMPDEST SWAP3 SWAP2 POP POP JUMP JUMPDEST PUSH1 0x0 DUP2 CALLDATALOAD SWAP1 POP PUSH2 0xF12 DUP2 PUSH2 0x1153 JUMP JUMPDEST SWAP3 SWAP2 POP POP JUMP JUMPDEST PUSH1 0x0 PUSH1 0x20 DUP3 DUP5 SUB SLT ISZERO PUSH2 0xF2E JUMPI PUSH2 0xF2D PUSH2 0x113E JUMP JUMPDEST JUMPDEST PUSH1 0x0 PUSH2 0xF3C DUP5 DUP3 DUP6 ADD PUSH2 0xEEE JUMP JUMPDEST SWAP2 POP POP SWAP3 SWAP2 POP POP JUMP JUMPDEST PUSH1 0x0 PUSH1 0x20 DUP3 DUP5 SUB SLT ISZERO PUSH2 0xF5B JUMPI PUSH2 0xF5A PUSH2 0x113E JUMP JUMPDEST JUMPDEST PUSH1 0x0 PUSH2 0xF69 DUP5 DUP3 DUP6 ADD PUSH2 0xF03 JUMP JUMPDEST SWAP2 POP POP SWAP3 SWAP2 POP POP JUMP JUMPDEST PUSH1 0x0 DUP1 PUSH1 0x40 DUP4 DUP6 SUB SLT ISZERO PUSH2 0xF89 JUMPI PUSH2 0xF88 PUSH2 0x113E JUMP JUMPDEST JUMPDEST PUSH1 0x0 PUSH2 0xF97 DUP6 DUP3 DUP7 ADD PUSH2 0xF03 JUMP JUMPDEST SWAP3 POP POP PUSH1 0x20 PUSH2 0xFA8 DUP6 DUP3 DUP7 ADD PUSH2 0xEEE JUMP JUMPDEST SWAP2 POP POP SWAP3 POP SWAP3 SWAP1 POP JUMP JUMPDEST PUSH2 0xFBB DUP2 PUSH2 0x1069 JUMP JUMPDEST DUP3 MSTORE POP POP JUMP JUMPDEST PUSH1 0x0 PUSH1 0x20 DUP3 ADD SWAP1 POP PUSH2 0xFD6 PUSH1 0x0 DUP4 ADD DUP5 PUSH2 0xFB2 JUMP JUMPDEST SWAP3 SWAP2 POP POP JUMP JUMPDEST PUSH1 0x0 PUSH2 0xFE7 DUP3 PUSH2 0x1069 JUMP JUMPDEST SWAP2 POP PUSH2 0xFF2 DUP4 PUSH2 0x1069 JUMP JUMPDEST SWAP3 POP DUP3 PUSH32 0xFFFFFFFFFFFFFFFFFFFFFFFFFFFFFFFFFFFFFFFFFFFFFFFFFFFFFFFFFFFFFFFF SUB DUP3 GT ISZERO PUSH2 0x1027 JUMPI PUSH2 0x1026 PUSH2 0x10B1 JUMP JUMPDEST JUMPDEST DUP3 DUP3 ADD SWAP1 POP SWAP3 SWAP2 POP POP JUMP JUMPDEST PUSH1 0x0 PUSH2 0x103D DUP3 PUSH2 0x1073 JUMP JUMPDEST SWAP2 POP PUSH2 0x1048 DUP4 PUSH2 0x1073 JUMP JUMPDEST SWAP3 POP DUP3 PUSH1 0xFF SUB DUP3 GT ISZERO PUSH2 0x105E JUMPI PUSH2 0x105D PUSH2 0x10B1 JUMP JUMPDEST JUMPDEST DUP3 DUP3 ADD SWAP1 POP SWAP3 SWAP2 POP POP JUMP JUMPDEST PUSH1 0x0 DUP2 SWAP1 POP SWAP2 SWAP1 POP JUMP JUMPDEST PUSH1 0x0 PUSH1 0xFF DUP3 AND SWAP1 POP SWAP2 SWAP1 POP JUMP JUMPDEST PUSH1 0x0 PUSH2 0x108B DUP3 PUSH2 0x1073 JUMP JUMPDEST SWAP2 POP PUSH2 0x1096 DUP4 PUSH2 0x1073 JUMP JUMPDEST SWAP3 POP DUP3 PUSH2 0x10A6 JUMPI PUSH2 0x10A5 PUSH2 0x10E0 JUMP JUMPDEST JUMPDEST DUP3 DUP3 MOD SWAP1 POP SWAP3 SWAP2 POP POP JUMP JUMPDEST PUSH32 0x4E487B7100000000000000000000000000000000000000000000000000000000 PUSH1 0x0 MSTORE PUSH1 0x11 PUSH1 0x4 MSTORE PUSH1 0x24 PUSH1 0x0 REVERT JUMPDEST PUSH32 0x4E487B7100000000000000000000000000000000000000000000000000000000 PUSH1 0x0 MSTORE PUSH1 0x12 PUSH1 0x4 MSTORE PUSH1 0x24 PUSH1 0x0 REVERT JUMPDEST PUSH32 0x4E487B7100000000000000000000000000000000000000000000000000000000 PUSH1 0x0 MSTORE PUSH1 0x21 PUSH1 0x4 MSTORE PUSH1 0x24 PUSH1 0x0 REVERT JUMPDEST PUSH1 0x0 DUP1 REVERT JUMPDEST PUSH1 0x3 DUP2 LT PUSH2 0x1150 JUMPI PUSH1 0x0 DUP1 REVERT JUMPDEST POP JUMP JUMPDEST PUSH2 0x115C DUP2 PUSH2 0x1069 JUMP JUMPDEST DUP2 EQ PUSH2 0x1167 JUMPI PUSH1 0x0 DUP1 REVERT JUMPDEST POP JUMP INVALID LOG2 PUSH5 0x6970667358 0x22 SLT KECCAK256 LT NOT 0xC7 0xA5 0xDB 0xED SWAP12 0xBA SWAP13 PUSH32 0xB4BE6592055FAB8D87B31BA09D75FC5D4E5411E017C564736F6C634300080700 CALLER "
				},
				"gasEstimates": {
					"creation": {
						"codeDepositCost": "902400",
						"executionCost": "5917",
						"totalCost": "908317"
					},
					"external": {
						"createRoom(uint8)": "infinite",
						"joinRoom(uint256,uint8)": "infinite",
						"payout(uint256)": "infinite"
					},
					"internal": {
						"compareHands(uint256)": "infinite"
					}
				},
				"methodIdentifiers": {
					"createRoom(uint8)": "0f36f3b5",
					"joinRoom(uint256,uint8)": "79b15776",
					"payout(uint256)": "e1152343"
				}
			},
			"storageLayout": {
				"storage": [
					{
						"astId": 47,
						"contract": "rsp_all.sol:RPS",
						"label": "rooms",
						"offset": 0,
						"slot": "0",
						"type": "t_mapping(t_uint256,t_struct(Game)42_storage)"
					},
					{
						"astId": 50,
						"contract": "rsp_all.sol:RPS",
						"label": "roomLen",
						"offset": 0,
						"slot": "1",
						"type": "t_uint256"
					}
				],
				"types": {
					"t_address_payable": {
						"encoding": "inplace",
						"label": "address payable",
						"numberOfBytes": "20"
					},
					"t_enum(GameStatus)19": {
						"encoding": "inplace",
						"label": "enum RPS.GameStatus",
						"numberOfBytes": "1"
					},
					"t_enum(Hand)9": {
						"encoding": "inplace",
						"label": "enum RPS.Hand",
						"numberOfBytes": "1"
					},
					"t_enum(PlayerStatus)14": {
						"encoding": "inplace",
						"label": "enum RPS.PlayerStatus",
						"numberOfBytes": "1"
					},
					"t_mapping(t_uint256,t_struct(Game)42_storage)": {
						"encoding": "mapping",
						"key": "t_uint256",
						"label": "mapping(uint256 => struct RPS.Game)",
						"numberOfBytes": "32",
						"value": "t_struct(Game)42_storage"
					},
					"t_struct(Game)42_storage": {
						"encoding": "inplace",
						"label": "struct RPS.Game",
						"members": [
							{
								"astId": 32,
								"contract": "rsp_all.sol:RPS",
								"label": "betAmount",
								"offset": 0,
								"slot": "0",
								"type": "t_uint256"
							},
							{
								"astId": 35,
								"contract": "rsp_all.sol:RPS",
								"label": "gameStatus",
								"offset": 0,
								"slot": "1",
								"type": "t_enum(GameStatus)19"
							},
							{
								"astId": 38,
								"contract": "rsp_all.sol:RPS",
								"label": "originator",
								"offset": 0,
								"slot": "2",
								"type": "t_struct(Player)30_storage"
							},
							{
								"astId": 41,
								"contract": "rsp_all.sol:RPS",
								"label": "taker",
								"offset": 0,
								"slot": "4",
								"type": "t_struct(Player)30_storage"
							}
						],
						"numberOfBytes": "192"
					},
					"t_struct(Player)30_storage": {
						"encoding": "inplace",
						"label": "struct RPS.Player",
						"members": [
							{
								"astId": 22,
								"contract": "rsp_all.sol:RPS",
								"label": "hand",
								"offset": 0,
								"slot": "0",
								"type": "t_enum(Hand)9"
							},
							{
								"astId": 24,
								"contract": "rsp_all.sol:RPS",
								"label": "addr",
								"offset": 1,
								"slot": "0",
								"type": "t_address_payable"
							},
							{
								"astId": 27,
								"contract": "rsp_all.sol:RPS",
								"label": "playerStatus",
								"offset": 21,
								"slot": "0",
								"type": "t_enum(PlayerStatus)14"
							},
							{
								"astId": 29,
								"contract": "rsp_all.sol:RPS",
								"label": "playerBetAmount",
								"offset": 0,
								"slot": "1",
								"type": "t_uint256"
							}
						],
						"numberOfBytes": "64"
					},
					"t_uint256": {
						"encoding": "inplace",
						"label": "uint256",
						"numberOfBytes": "32"
					}
				}
			},
			"userdoc": {
				"kind": "user",
				"methods": {},
				"version": 1
			}
		}
	}
}