{
	"rsp_all.sol": {
		"RPS": {
			"abi": [
				{
					"inputs": [],
					"stateMutability": "payable",
					"type": "constructor"
				},
				{
					"inputs": [
						{
							"internalType": "enum RPS.Hand",
							"name": "_hand",
							"type": "uint8"
						}
					],
					"name": "createRoom",
					"outputs": [
						{
							"internalType": "uint256",
							"name": "roomNum",
							"type": "uint256"
						}
					],
					"stateMutability": "payable",
					"type": "function"
				},
				{
					"inputs": [
						{
							"internalType": "uint256",
							"name": "roomNum",
							"type": "uint256"
						},
						{
							"internalType": "enum RPS.Hand",
							"name": "_hand",
							"type": "uint8"
						}
					],
					"name": "joinRoom",
					"outputs": [],
					"stateMutability": "payable",
					"type": "function"
				},
				{
					"inputs": [
						{
							"internalType": "uint256",
							"name": "roomNum",
							"type": "uint256"
						}
					],
					"name": "payout",
					"outputs": [],
					"stateMutability": "payable",
					"type": "function"
				}
			],
			"devdoc": {
				"kind": "dev",
				"methods": {},
				"version": 1
			},
			"evm": {
				"assembly": "    /* \"rsp_all.sol\":25:4791  contract RPS {... */\n  mstore(0x40, 0x80)\n    /* \"rsp_all.sol\":1050:1051  0 */\n  0x00\n    /* \"rsp_all.sol\":1035:1051  uint roomLen = 0 */\n  0x01\n  sstore\n    /* \"rsp_all.sol\":25:4791  contract RPS {... */\n  dataSize(sub_0)\n  dup1\n  dataOffset(sub_0)\n  0x00\n  codecopy\n  0x00\n  return\nstop\n\nsub_0: assembly {\n        /* \"rsp_all.sol\":25:4791  contract RPS {... */\n      mstore(0x40, 0x80)\n      jumpi(tag_1, lt(calldatasize, 0x04))\n      shr(0xe0, calldataload(0x00))\n      dup1\n      0x0f36f3b5\n      eq\n      tag_2\n      jumpi\n      dup1\n      0x79b15776\n      eq\n      tag_3\n      jumpi\n      dup1\n      0xe1152343\n      eq\n      tag_4\n      jumpi\n    tag_1:\n      0x00\n      dup1\n      revert\n        /* \"rsp_all.sol\":1398:2206  function createRoom (Hand _hand) public payable isValidHand(_hand) returns (uint roomNum) {... */\n    tag_2:\n      tag_5\n      0x04\n      dup1\n      calldatasize\n      sub\n      dup2\n      add\n      swap1\n      tag_6\n      swap2\n      swap1\n      tag_7\n      jump\t// in\n    tag_6:\n      tag_8\n      jump\t// in\n    tag_5:\n      mload(0x40)\n      tag_9\n      swap2\n      swap1\n      tag_10\n      jump\t// in\n    tag_9:\n      mload(0x40)\n      dup1\n      swap2\n      sub\n      swap1\n      return\n        /* \"rsp_all.sol\":2216:2713  function joinRoom(uint roomNum, Hand _hand) public payable isValidHand( _hand) {... */\n    tag_3:\n      tag_11\n      0x04\n      dup1\n      calldatasize\n      sub\n      dup2\n      add\n      swap1\n      tag_12\n      swap2\n      swap1\n      tag_13\n      jump\t// in\n    tag_12:\n      tag_14\n      jump\t// in\n    tag_11:\n      stop\n        /* \"rsp_all.sol\":2723:3782  function payout(uint roomNum) public payable isPlayer(roomNum, msg.sender) {... */\n    tag_4:\n      tag_15\n      0x04\n      dup1\n      calldatasize\n      sub\n      dup2\n      add\n      swap1\n      tag_16\n      swap2\n      swap1\n      tag_17\n      jump\t// in\n    tag_16:\n      tag_18\n      jump\t// in\n    tag_15:\n      stop\n        /* \"rsp_all.sol\":1398:2206  function createRoom (Hand _hand) public payable isValidHand(_hand) returns (uint roomNum) {... */\n    tag_8:\n        /* \"rsp_all.sol\":1474:1486  uint roomNum */\n      0x00\n        /* \"rsp_all.sol\":1458:1463  _hand */\n      dup2\n        /* \"rsp_all.sol\":1125:1134  Hand.rock */\n      0x00\n        /* \"rsp_all.sol\":1115:1134  _hand  == Hand.rock */\n      0x02\n      dup2\n      gt\n      iszero\n      tag_20\n      jumpi\n      tag_21\n      tag_22\n      jump\t// in\n    tag_21:\n    tag_20:\n        /* \"rsp_all.sol\":1115:1120  _hand */\n      dup2\n        /* \"rsp_all.sol\":1115:1134  _hand  == Hand.rock */\n      0x02\n      dup2\n      gt\n      iszero\n      tag_23\n      jumpi\n      tag_24\n      tag_22\n      jump\t// in\n    tag_24:\n    tag_23:\n      eq\n        /* \"rsp_all.sol\":1114:1161  (_hand  == Hand.rock) || (_hand  == Hand.paper) */\n      dup1\n      tag_25\n      jumpi\n      pop\n        /* \"rsp_all.sol\":1150:1160  Hand.paper */\n      0x01\n        /* \"rsp_all.sol\":1140:1160  _hand  == Hand.paper */\n      0x02\n      dup2\n      gt\n      iszero\n      tag_26\n      jumpi\n      tag_27\n      tag_22\n      jump\t// in\n    tag_27:\n    tag_26:\n        /* \"rsp_all.sol\":1140:1145  _hand */\n      dup2\n        /* \"rsp_all.sol\":1140:1160  _hand  == Hand.paper */\n      0x02\n      dup2\n      gt\n      iszero\n      tag_28\n      jumpi\n      tag_29\n      tag_22\n      jump\t// in\n    tag_29:\n    tag_28:\n      eq\n        /* \"rsp_all.sol\":1114:1161  (_hand  == Hand.rock) || (_hand  == Hand.paper) */\n    tag_25:\n        /* \"rsp_all.sol\":1114:1189  (_hand  == Hand.rock) || (_hand  == Hand.paper) || (_hand == Hand.scissors) */\n      dup1\n      tag_30\n      jumpi\n      pop\n        /* \"rsp_all.sol\":1175:1188  Hand.scissors */\n      0x02\n        /* \"rsp_all.sol\":1166:1188  _hand == Hand.scissors */\n      dup1\n      dup2\n      gt\n      iszero\n      tag_31\n      jumpi\n      tag_32\n      tag_22\n      jump\t// in\n    tag_32:\n    tag_31:\n        /* \"rsp_all.sol\":1166:1171  _hand */\n      dup2\n        /* \"rsp_all.sol\":1166:1188  _hand == Hand.scissors */\n      0x02\n      dup2\n      gt\n      iszero\n      tag_33\n      jumpi\n      tag_34\n      tag_22\n      jump\t// in\n    tag_34:\n    tag_33:\n      eq\n        /* \"rsp_all.sol\":1114:1189  (_hand  == Hand.rock) || (_hand  == Hand.paper) || (_hand == Hand.scissors) */\n    tag_30:\n        /* \"rsp_all.sol\":1106:1190  require((_hand  == Hand.rock) || (_hand  == Hand.paper) || (_hand == Hand.scissors)) */\n      tag_35\n      jumpi\n      0x00\n      dup1\n      revert\n    tag_35:\n        /* \"rsp_all.sol\":1515:2074  Game({... */\n      mload(0x40)\n      dup1\n      0x80\n      add\n      0x40\n      mstore\n      dup1\n        /* \"rsp_all.sol\":1545:1554  msg.value */\n      callvalue\n        /* \"rsp_all.sol\":1515:2074  Game({... */\n      dup2\n      mstore\n      0x20\n      add\n        /* \"rsp_all.sol\":1580:1609  GameStatus.STATUS_NOT_STARTED */\n      0x00\n        /* \"rsp_all.sol\":1515:2074  Game({... */\n      0x03\n      dup2\n      gt\n      iszero\n      tag_37\n      jumpi\n      tag_38\n      tag_22\n      jump\t// in\n    tag_38:\n    tag_37:\n      dup2\n      mstore\n      0x20\n      add\n        /* \"rsp_all.sol\":1635:1832  Player({... */\n      mload(0x40)\n      dup1\n      0x80\n      add\n      0x40\n      mstore\n      dup1\n        /* \"rsp_all.sol\":1666:1671  _hand */\n      dup7\n        /* \"rsp_all.sol\":1635:1832  Player({... */\n      0x02\n      dup2\n      gt\n      iszero\n      tag_39\n      jumpi\n      tag_40\n      tag_22\n      jump\t// in\n    tag_40:\n    tag_39:\n      dup2\n      mstore\n      0x20\n      add\n        /* \"rsp_all.sol\":1703:1713  msg.sender */\n      caller\n        /* \"rsp_all.sol\":1635:1832  Player({... */\n      0xffffffffffffffffffffffffffffffffffffffff\n      and\n      dup2\n      mstore\n      0x20\n      add\n        /* \"rsp_all.sol\":1746:1773  PlayerStatus.STATUS_PENDING */\n      0x03\n        /* \"rsp_all.sol\":1635:1832  Player({... */\n      dup1\n      dup2\n      gt\n      iszero\n      tag_41\n      jumpi\n      tag_42\n      tag_22\n      jump\t// in\n    tag_42:\n    tag_41:\n      dup2\n      mstore\n      0x20\n      add\n        /* \"rsp_all.sol\":1808:1817  msg.value */\n      callvalue\n        /* \"rsp_all.sol\":1635:1832  Player({... */\n      dup2\n      mstore\n      pop\n        /* \"rsp_all.sol\":1515:2074  Game({... */\n      dup2\n      mstore\n      0x20\n      add\n        /* \"rsp_all.sol\":1853:2063  Player({ // will change... */\n      mload(0x40)\n      dup1\n      0x80\n      add\n      0x40\n      mstore\n      dup1\n        /* \"rsp_all.sol\":1899:1908  Hand.rock */\n      0x00\n        /* \"rsp_all.sol\":1853:2063  Player({ // will change... */\n      0x02\n      dup2\n      gt\n      iszero\n      tag_43\n      jumpi\n      tag_44\n      tag_22\n      jump\t// in\n    tag_44:\n    tag_43:\n      dup2\n      mstore\n      0x20\n      add\n        /* \"rsp_all.sol\":1940:1950  msg.sender */\n      caller\n        /* \"rsp_all.sol\":1853:2063  Player({ // will change... */\n      0xffffffffffffffffffffffffffffffffffffffff\n      and\n      dup2\n      mstore\n      0x20\n      add\n        /* \"rsp_all.sol\":1985:2012  PlayerStatus.STATUS_PENDING */\n      0x03\n        /* \"rsp_all.sol\":1853:2063  Player({ // will change... */\n      dup1\n      dup2\n      gt\n      iszero\n      tag_45\n      jumpi\n      tag_46\n      tag_22\n      jump\t// in\n    tag_46:\n    tag_45:\n      dup2\n      mstore\n      0x20\n      add\n        /* \"rsp_all.sol\":2047:2048  0 */\n      0x00\n        /* \"rsp_all.sol\":1853:2063  Player({ // will change... */\n      dup2\n      mstore\n      pop\n        /* \"rsp_all.sol\":1515:2074  Game({... */\n      dup2\n      mstore\n      pop\n        /* \"rsp_all.sol\":1498:1503  rooms */\n      0x00\n        /* \"rsp_all.sol\":1498:1512  rooms[roomLen] */\n      dup1\n        /* \"rsp_all.sol\":1504:1511  roomLen */\n      sload(0x01)\n        /* \"rsp_all.sol\":1498:1512  rooms[roomLen] */\n      dup2\n      mstore\n      0x20\n      add\n      swap1\n      dup2\n      mstore\n      0x20\n      add\n      0x00\n      keccak256\n        /* \"rsp_all.sol\":1498:2074  rooms[roomLen] = Game({... */\n      0x00\n      dup3\n      add\n      mload\n      dup2\n      0x00\n      add\n      sstore\n      0x20\n      dup3\n      add\n      mload\n      dup2\n      0x01\n      add\n      exp(0x0100, 0x00)\n      dup2\n      sload\n      dup2\n      0xff\n      mul\n      not\n      and\n      swap1\n      dup4\n      0x03\n      dup2\n      gt\n      iszero\n      tag_47\n      jumpi\n      tag_48\n      tag_22\n      jump\t// in\n    tag_48:\n    tag_47:\n      mul\n      or\n      swap1\n      sstore\n      pop\n      0x40\n      dup3\n      add\n      mload\n      dup2\n      0x02\n      add\n      0x00\n      dup3\n      add\n      mload\n      dup2\n      0x00\n      add\n      exp(0x0100, 0x00)\n      dup2\n      sload\n      dup2\n      0xff\n      mul\n      not\n      and\n      swap1\n      dup4\n      0x02\n      dup2\n      gt\n      iszero\n      tag_49\n      jumpi\n      tag_50\n      tag_22\n      jump\t// in\n    tag_50:\n    tag_49:\n      mul\n      or\n      swap1\n      sstore\n      pop\n      0x20\n      dup3\n      add\n      mload\n      dup2\n      0x00\n      add\n      exp(0x0100, 0x01)\n      dup2\n      sload\n      dup2\n      0xffffffffffffffffffffffffffffffffffffffff\n      mul\n      not\n      and\n      swap1\n      dup4\n      0xffffffffffffffffffffffffffffffffffffffff\n      and\n      mul\n      or\n      swap1\n      sstore\n      pop\n      0x40\n      dup3\n      add\n      mload\n      dup2\n      0x00\n      add\n      exp(0x0100, 0x15)\n      dup2\n      sload\n      dup2\n      0xff\n      mul\n      not\n      and\n      swap1\n      dup4\n      0x03\n      dup2\n      gt\n      iszero\n      tag_51\n      jumpi\n      tag_52\n      tag_22\n      jump\t// in\n    tag_52:\n    tag_51:\n      mul\n      or\n      swap1\n      sstore\n      pop\n      0x60\n      dup3\n      add\n      mload\n      dup2\n      0x01\n      add\n      sstore\n      pop\n      pop\n      0x60\n      dup3\n      add\n      mload\n      dup2\n      0x04\n      add\n      0x00\n      dup3\n      add\n      mload\n      dup2\n      0x00\n      add\n      exp(0x0100, 0x00)\n      dup2\n      sload\n      dup2\n      0xff\n      mul\n      not\n      and\n      swap1\n      dup4\n      0x02\n      dup2\n      gt\n      iszero\n      tag_53\n      jumpi\n      tag_54\n      tag_22\n      jump\t// in\n    tag_54:\n    tag_53:\n      mul\n      or\n      swap1\n      sstore\n      pop\n      0x20\n      dup3\n      add\n      mload\n      dup2\n      0x00\n      add\n      exp(0x0100, 0x01)\n      dup2\n      sload\n      dup2\n      0xffffffffffffffffffffffffffffffffffffffff\n      mul\n      not\n      and\n      swap1\n      dup4\n      0xffffffffffffffffffffffffffffffffffffffff\n      and\n      mul\n      or\n      swap1\n      sstore\n      pop\n      0x40\n      dup3\n      add\n      mload\n      dup2\n      0x00\n      add\n      exp(0x0100, 0x15)\n      dup2\n      sload\n      dup2\n      0xff\n      mul\n      not\n      and\n      swap1\n      dup4\n      0x03\n      dup2\n      gt\n      iszero\n      tag_55\n      jumpi\n      tag_56\n      tag_22\n      jump\t// in\n    tag_56:\n    tag_55:\n      mul\n      or\n      swap1\n      sstore\n      pop\n      0x60\n      dup3\n      add\n      mload\n      dup2\n      0x01\n      add\n      sstore\n      pop\n      pop\n      swap1\n      pop\n      pop\n        /* \"rsp_all.sol\":2094:2101  roomLen */\n      sload(0x01)\n        /* \"rsp_all.sol\":2084:2101  roomNum = roomLen */\n      swap2\n      pop\n        /* \"rsp_all.sol\":2129:2130  1 */\n      0x01\n        /* \"rsp_all.sol\":2121:2128  roomLen */\n      dup1\n      sload\n        /* \"rsp_all.sol\":2121:2130  roomLen+1 */\n      tag_57\n      swap2\n      swap1\n      tag_58\n      jump\t// in\n    tag_57:\n        /* \"rsp_all.sol\":2111:2118  roomLen */\n      0x01\n        /* \"rsp_all.sol\":2111:2130  roomLen = roomLen+1 */\n      dup2\n      swap1\n      sstore\n      pop\n        /* \"rsp_all.sol\":1398:2206  function createRoom (Hand _hand) public payable isValidHand(_hand) returns (uint roomNum) {... */\n      pop\n      swap2\n      swap1\n      pop\n      jump\t// out\n        /* \"rsp_all.sol\":2216:2713  function joinRoom(uint roomNum, Hand _hand) public payable isValidHand( _hand) {... */\n    tag_14:\n        /* \"rsp_all.sol\":2288:2293  _hand */\n      dup1\n        /* \"rsp_all.sol\":1125:1134  Hand.rock */\n      0x00\n        /* \"rsp_all.sol\":1115:1134  _hand  == Hand.rock */\n      0x02\n      dup2\n      gt\n      iszero\n      tag_60\n      jumpi\n      tag_61\n      tag_22\n      jump\t// in\n    tag_61:\n    tag_60:\n        /* \"rsp_all.sol\":1115:1120  _hand */\n      dup2\n        /* \"rsp_all.sol\":1115:1134  _hand  == Hand.rock */\n      0x02\n      dup2\n      gt\n      iszero\n      tag_62\n      jumpi\n      tag_63\n      tag_22\n      jump\t// in\n    tag_63:\n    tag_62:\n      eq\n        /* \"rsp_all.sol\":1114:1161  (_hand  == Hand.rock) || (_hand  == Hand.paper) */\n      dup1\n      tag_64\n      jumpi\n      pop\n        /* \"rsp_all.sol\":1150:1160  Hand.paper */\n      0x01\n        /* \"rsp_all.sol\":1140:1160  _hand  == Hand.paper */\n      0x02\n      dup2\n      gt\n      iszero\n      tag_65\n      jumpi\n      tag_66\n      tag_22\n      jump\t// in\n    tag_66:\n    tag_65:\n        /* \"rsp_all.sol\":1140:1145  _hand */\n      dup2\n        /* \"rsp_all.sol\":1140:1160  _hand  == Hand.paper */\n      0x02\n      dup2\n      gt\n      iszero\n      tag_67\n      jumpi\n      tag_68\n      tag_22\n      jump\t// in\n    tag_68:\n    tag_67:\n      eq\n        /* \"rsp_all.sol\":1114:1161  (_hand  == Hand.rock) || (_hand  == Hand.paper) */\n    tag_64:\n        /* \"rsp_all.sol\":1114:1189  (_hand  == Hand.rock) || (_hand  == Hand.paper) || (_hand == Hand.scissors) */\n      dup1\n      tag_69\n      jumpi\n      pop\n        /* \"rsp_all.sol\":1175:1188  Hand.scissors */\n      0x02\n        /* \"rsp_all.sol\":1166:1188  _hand == Hand.scissors */\n      dup1\n      dup2\n      gt\n      iszero\n      tag_70\n      jumpi\n      tag_71\n      tag_22\n      jump\t// in\n    tag_71:\n    tag_70:\n        /* \"rsp_all.sol\":1166:1171  _hand */\n      dup2\n        /* \"rsp_all.sol\":1166:1188  _hand == Hand.scissors */\n      0x02\n      dup2\n      gt\n      iszero\n      tag_72\n      jumpi\n      tag_73\n      tag_22\n      jump\t// in\n    tag_73:\n    tag_72:\n      eq\n        /* \"rsp_all.sol\":1114:1189  (_hand  == Hand.rock) || (_hand  == Hand.paper) || (_hand == Hand.scissors) */\n    tag_69:\n        /* \"rsp_all.sol\":1106:1190  require((_hand  == Hand.rock) || (_hand  == Hand.paper) || (_hand == Hand.scissors)) */\n      tag_74\n      jumpi\n      0x00\n      dup1\n      revert\n    tag_74:\n        /* \"rsp_all.sol\":2425:2602  Player({... */\n      mload(0x40)\n      dup1\n      0x80\n      add\n      0x40\n      mstore\n      dup1\n        /* \"rsp_all.sol\":2452:2457  _hand */\n      dup4\n        /* \"rsp_all.sol\":2425:2602  Player({... */\n      0x02\n      dup2\n      gt\n      iszero\n      tag_76\n      jumpi\n      tag_77\n      tag_22\n      jump\t// in\n    tag_77:\n    tag_76:\n      dup2\n      mstore\n      0x20\n      add\n        /* \"rsp_all.sol\":2485:2495  msg.sender */\n      caller\n        /* \"rsp_all.sol\":2425:2602  Player({... */\n      0xffffffffffffffffffffffffffffffffffffffff\n      and\n      dup2\n      mstore\n      0x20\n      add\n        /* \"rsp_all.sol\":2524:2551  PlayerStatus.STATUS_PENDING */\n      0x03\n        /* \"rsp_all.sol\":2425:2602  Player({... */\n      dup1\n      dup2\n      gt\n      iszero\n      tag_78\n      jumpi\n      tag_79\n      tag_22\n      jump\t// in\n    tag_79:\n    tag_78:\n      dup2\n      mstore\n      0x20\n      add\n        /* \"rsp_all.sol\":2582:2591  msg.value */\n      callvalue\n        /* \"rsp_all.sol\":2425:2602  Player({... */\n      dup2\n      mstore\n      pop\n        /* \"rsp_all.sol\":2402:2407  rooms */\n      0x00\n        /* \"rsp_all.sol\":2402:2416  rooms[roomNum] */\n      dup1\n        /* \"rsp_all.sol\":2408:2415  roomNum */\n      dup6\n        /* \"rsp_all.sol\":2402:2416  rooms[roomNum] */\n      dup2\n      mstore\n      0x20\n      add\n      swap1\n      dup2\n      mstore\n      0x20\n      add\n      0x00\n      keccak256\n        /* \"rsp_all.sol\":2402:2422  rooms[roomNum].taker */\n      0x04\n      add\n        /* \"rsp_all.sol\":2402:2602  rooms[roomNum].taker = Player({... */\n      0x00\n      dup3\n      add\n      mload\n      dup2\n      0x00\n      add\n      exp(0x0100, 0x00)\n      dup2\n      sload\n      dup2\n      0xff\n      mul\n      not\n      and\n      swap1\n      dup4\n      0x02\n      dup2\n      gt\n      iszero\n      tag_80\n      jumpi\n      tag_81\n      tag_22\n      jump\t// in\n    tag_81:\n    tag_80:\n      mul\n      or\n      swap1\n      sstore\n      pop\n      0x20\n      dup3\n      add\n      mload\n      dup2\n      0x00\n      add\n      exp(0x0100, 0x01)\n      dup2\n      sload\n      dup2\n      0xffffffffffffffffffffffffffffffffffffffff\n      mul\n      not\n      and\n      swap1\n      dup4\n      0xffffffffffffffffffffffffffffffffffffffff\n      and\n      mul\n      or\n      swap1\n      sstore\n      pop\n      0x40\n      dup3\n      add\n      mload\n      dup2\n      0x00\n      add\n      exp(0x0100, 0x15)\n      dup2\n      sload\n      dup2\n      0xff\n      mul\n      not\n      and\n      swap1\n      dup4\n      0x03\n      dup2\n      gt\n      iszero\n      tag_82\n      jumpi\n      tag_83\n      tag_22\n      jump\t// in\n    tag_83:\n    tag_82:\n      mul\n      or\n      swap1\n      sstore\n      pop\n      0x60\n      dup3\n      add\n      mload\n      dup2\n      0x01\n      add\n      sstore\n      swap1\n      pop\n      pop\n        /* \"rsp_all.sol\":2666:2675  msg.value */\n      callvalue\n        /* \"rsp_all.sol\":2639:2644  rooms */\n      0x00\n        /* \"rsp_all.sol\":2639:2653  rooms[roomNum] */\n      dup1\n        /* \"rsp_all.sol\":2645:2652  roomNum */\n      dup6\n        /* \"rsp_all.sol\":2639:2653  rooms[roomNum] */\n      dup2\n      mstore\n      0x20\n      add\n      swap1\n      dup2\n      mstore\n      0x20\n      add\n      0x00\n      keccak256\n        /* \"rsp_all.sol\":2639:2663  rooms[roomNum].betAmount */\n      0x00\n      add\n      sload\n        /* \"rsp_all.sol\":2639:2675  rooms[roomNum].betAmount + msg.value */\n      tag_84\n      swap2\n      swap1\n      tag_58\n      jump\t// in\n    tag_84:\n        /* \"rsp_all.sol\":2612:2617  rooms */\n      0x00\n        /* \"rsp_all.sol\":2612:2626  rooms[roomNum] */\n      dup1\n        /* \"rsp_all.sol\":2618:2625  roomNum */\n      dup6\n        /* \"rsp_all.sol\":2612:2626  rooms[roomNum] */\n      dup2\n      mstore\n      0x20\n      add\n      swap1\n      dup2\n      mstore\n      0x20\n      add\n      0x00\n      keccak256\n        /* \"rsp_all.sol\":2612:2636  rooms[roomNum].betAmount */\n      0x00\n      add\n        /* \"rsp_all.sol\":2612:2675  rooms[roomNum].betAmount = rooms[roomNum].betAmount + msg.value */\n      dup2\n      swap1\n      sstore\n      pop\n        /* \"rsp_all.sol\":2685:2706  compareHands(roomNum) */\n      tag_85\n        /* \"rsp_all.sol\":2698:2705  roomNum */\n      dup4\n        /* \"rsp_all.sol\":2685:2697  compareHands */\n      tag_86\n        /* \"rsp_all.sol\":2685:2706  compareHands(roomNum) */\n      jump\t// in\n    tag_85:\n        /* \"rsp_all.sol\":2216:2713  function joinRoom(uint roomNum, Hand _hand) public payable isValidHand( _hand) {... */\n      pop\n      pop\n      pop\n      jump\t// out\n        /* \"rsp_all.sol\":2723:3782  function payout(uint roomNum) public payable isPlayer(roomNum, msg.sender) {... */\n    tag_18:\n        /* \"rsp_all.sol\":2777:2784  roomNum */\n      dup1\n        /* \"rsp_all.sol\":2786:2796  msg.sender */\n      caller\n        /* \"rsp_all.sol\":1295:1300  rooms */\n      0x00\n        /* \"rsp_all.sol\":1295:1309  rooms[roomNum] */\n      dup1\n        /* \"rsp_all.sol\":1301:1308  roomNum */\n      dup4\n        /* \"rsp_all.sol\":1295:1309  rooms[roomNum] */\n      dup2\n      mstore\n      0x20\n      add\n      swap1\n      dup2\n      mstore\n      0x20\n      add\n      0x00\n      keccak256\n        /* \"rsp_all.sol\":1295:1320  rooms[roomNum].originator */\n      0x02\n      add\n        /* \"rsp_all.sol\":1295:1325  rooms[roomNum].originator.addr */\n      0x00\n      add\n      0x01\n      swap1\n      sload\n      swap1\n      0x0100\n      exp\n      swap1\n      div\n      0xffffffffffffffffffffffffffffffffffffffff\n      and\n        /* \"rsp_all.sol\":1285:1325  sender == rooms[roomNum].originator.addr */\n      0xffffffffffffffffffffffffffffffffffffffff\n      and\n        /* \"rsp_all.sol\":1285:1291  sender */\n      dup2\n        /* \"rsp_all.sol\":1285:1325  sender == rooms[roomNum].originator.addr */\n      0xffffffffffffffffffffffffffffffffffffffff\n      and\n      eq\n        /* \"rsp_all.sol\":1285:1364  sender == rooms[roomNum].originator.addr || sender == rooms[roomNum].taker.addr */\n      dup1\n      tag_88\n      jumpi\n      pop\n        /* \"rsp_all.sol\":1339:1344  rooms */\n      0x00\n        /* \"rsp_all.sol\":1339:1353  rooms[roomNum] */\n      dup1\n        /* \"rsp_all.sol\":1345:1352  roomNum */\n      dup4\n        /* \"rsp_all.sol\":1339:1353  rooms[roomNum] */\n      dup2\n      mstore\n      0x20\n      add\n      swap1\n      dup2\n      mstore\n      0x20\n      add\n      0x00\n      keccak256\n        /* \"rsp_all.sol\":1339:1359  rooms[roomNum].taker */\n      0x04\n      add\n        /* \"rsp_all.sol\":1339:1364  rooms[roomNum].taker.addr */\n      0x00\n      add\n      0x01\n      swap1\n      sload\n      swap1\n      0x0100\n      exp\n      swap1\n      div\n      0xffffffffffffffffffffffffffffffffffffffff\n      and\n        /* \"rsp_all.sol\":1329:1364  sender == rooms[roomNum].taker.addr */\n      0xffffffffffffffffffffffffffffffffffffffff\n      and\n        /* \"rsp_all.sol\":1329:1335  sender */\n      dup2\n        /* \"rsp_all.sol\":1329:1364  sender == rooms[roomNum].taker.addr */\n      0xffffffffffffffffffffffffffffffffffffffff\n      and\n      eq\n        /* \"rsp_all.sol\":1285:1364  sender == rooms[roomNum].originator.addr || sender == rooms[roomNum].taker.addr */\n    tag_88:\n        /* \"rsp_all.sol\":1277:1365  require(sender == rooms[roomNum].originator.addr || sender == rooms[roomNum].taker.addr) */\n      tag_89\n      jumpi\n      0x00\n      dup1\n      revert\n    tag_89:\n        /* \"rsp_all.sol\":2854:2877  PlayerStatus.STATUS_TIE */\n      0x02\n        /* \"rsp_all.sol\":2812:2877  rooms[roomNum].originator.playerStatus == PlayerStatus.STATUS_TIE */\n      0x03\n      dup2\n      gt\n      iszero\n      tag_91\n      jumpi\n      tag_92\n      tag_22\n      jump\t// in\n    tag_92:\n    tag_91:\n        /* \"rsp_all.sol\":2812:2817  rooms */\n      0x00\n        /* \"rsp_all.sol\":2812:2826  rooms[roomNum] */\n      dup1\n        /* \"rsp_all.sol\":2818:2825  roomNum */\n      dup6\n        /* \"rsp_all.sol\":2812:2826  rooms[roomNum] */\n      dup2\n      mstore\n      0x20\n      add\n      swap1\n      dup2\n      mstore\n      0x20\n      add\n      0x00\n      keccak256\n        /* \"rsp_all.sol\":2812:2837  rooms[roomNum].originator */\n      0x02\n      add\n        /* \"rsp_all.sol\":2812:2850  rooms[roomNum].originator.playerStatus */\n      0x00\n      add\n      0x15\n      swap1\n      sload\n      swap1\n      0x0100\n      exp\n      swap1\n      div\n      0xff\n      and\n        /* \"rsp_all.sol\":2812:2877  rooms[roomNum].originator.playerStatus == PlayerStatus.STATUS_TIE */\n      0x03\n      dup2\n      gt\n      iszero\n      tag_93\n      jumpi\n      tag_94\n      tag_22\n      jump\t// in\n    tag_94:\n    tag_93:\n      eq\n        /* \"rsp_all.sol\":2812:2941  rooms[roomNum].originator.playerStatus == PlayerStatus.STATUS_TIE && rooms[roomNum].taker.playerStatus == PlayerStatus.STATUS_TIE */\n      dup1\n      iszero\n      tag_95\n      jumpi\n      pop\n        /* \"rsp_all.sol\":2918:2941  PlayerStatus.STATUS_TIE */\n      0x02\n        /* \"rsp_all.sol\":2881:2941  rooms[roomNum].taker.playerStatus == PlayerStatus.STATUS_TIE */\n      0x03\n      dup2\n      gt\n      iszero\n      tag_96\n      jumpi\n      tag_97\n      tag_22\n      jump\t// in\n    tag_97:\n    tag_96:\n        /* \"rsp_all.sol\":2881:2886  rooms */\n      0x00\n        /* \"rsp_all.sol\":2881:2895  rooms[roomNum] */\n      dup1\n        /* \"rsp_all.sol\":2887:2894  roomNum */\n      dup6\n        /* \"rsp_all.sol\":2881:2895  rooms[roomNum] */\n      dup2\n      mstore\n      0x20\n      add\n      swap1\n      dup2\n      mstore\n      0x20\n      add\n      0x00\n      keccak256\n        /* \"rsp_all.sol\":2881:2901  rooms[roomNum].taker */\n      0x04\n      add\n        /* \"rsp_all.sol\":2881:2914  rooms[roomNum].taker.playerStatus */\n      0x00\n      add\n      0x15\n      swap1\n      sload\n      swap1\n      0x0100\n      exp\n      swap1\n      div\n      0xff\n      and\n        /* \"rsp_all.sol\":2881:2941  rooms[roomNum].taker.playerStatus == PlayerStatus.STATUS_TIE */\n      0x03\n      dup2\n      gt\n      iszero\n      tag_98\n      jumpi\n      tag_99\n      tag_22\n      jump\t// in\n    tag_99:\n    tag_98:\n      eq\n        /* \"rsp_all.sol\":2812:2941  rooms[roomNum].originator.playerStatus == PlayerStatus.STATUS_TIE && rooms[roomNum].taker.playerStatus == PlayerStatus.STATUS_TIE */\n    tag_95:\n        /* \"rsp_all.sol\":2808:3711  if (rooms[roomNum].originator.playerStatus == PlayerStatus.STATUS_TIE && rooms[roomNum].taker.playerStatus == PlayerStatus.STATUS_TIE) {... */\n      iszero\n      tag_100\n      jumpi\n        /* \"rsp_all.sol\":2957:2962  rooms */\n      0x00\n        /* \"rsp_all.sol\":2957:2971  rooms[roomNum] */\n      dup1\n        /* \"rsp_all.sol\":2963:2970  roomNum */\n      dup5\n        /* \"rsp_all.sol\":2957:2971  rooms[roomNum] */\n      dup2\n      mstore\n      0x20\n      add\n      swap1\n      dup2\n      mstore\n      0x20\n      add\n      0x00\n      keccak256\n        /* \"rsp_all.sol\":2957:2982  rooms[roomNum].originator */\n      0x02\n      add\n        /* \"rsp_all.sol\":2957:2987  rooms[roomNum].originator.addr */\n      0x00\n      add\n      0x01\n      swap1\n      sload\n      swap1\n      0x0100\n      exp\n      swap1\n      div\n      0xffffffffffffffffffffffffffffffffffffffff\n      and\n        /* \"rsp_all.sol\":2957:2996  rooms[roomNum].originator.addr.transfer */\n      0xffffffffffffffffffffffffffffffffffffffff\n      and\n        /* \"rsp_all.sol\":2957:3039  rooms[roomNum].originator.addr.transfer(rooms[roomNum].originator.playerBetAmount) */\n      0x08fc\n        /* \"rsp_all.sol\":2997:3002  rooms */\n      0x00\n        /* \"rsp_all.sol\":2997:3011  rooms[roomNum] */\n      dup1\n        /* \"rsp_all.sol\":3003:3010  roomNum */\n      dup7\n        /* \"rsp_all.sol\":2997:3011  rooms[roomNum] */\n      dup2\n      mstore\n      0x20\n      add\n      swap1\n      dup2\n      mstore\n      0x20\n      add\n      0x00\n      keccak256\n        /* \"rsp_all.sol\":2997:3022  rooms[roomNum].originator */\n      0x02\n      add\n        /* \"rsp_all.sol\":2997:3038  rooms[roomNum].originator.playerBetAmount */\n      0x01\n      add\n      sload\n        /* \"rsp_all.sol\":2957:3039  rooms[roomNum].originator.addr.transfer(rooms[roomNum].originator.playerBetAmount) */\n      swap1\n      dup2\n      iszero\n      mul\n      swap1\n      mload(0x40)\n      0x00\n      mload(0x40)\n      dup1\n      dup4\n      sub\n      dup2\n      dup6\n      dup9\n      dup9\n      call\n      swap4\n      pop\n      pop\n      pop\n      pop\n      iszero\n      dup1\n      iszero\n      tag_102\n      jumpi\n      returndatasize\n      0x00\n      dup1\n      returndatacopy\n      revert(0x00, returndatasize)\n    tag_102:\n      pop\n        /* \"rsp_all.sol\":3053:3058  rooms */\n      0x00\n        /* \"rsp_all.sol\":3053:3067  rooms[roomNum] */\n      dup1\n        /* \"rsp_all.sol\":3059:3066  roomNum */\n      dup5\n        /* \"rsp_all.sol\":3053:3067  rooms[roomNum] */\n      dup2\n      mstore\n      0x20\n      add\n      swap1\n      dup2\n      mstore\n      0x20\n      add\n      0x00\n      keccak256\n        /* \"rsp_all.sol\":3053:3073  rooms[roomNum].taker */\n      0x04\n      add\n        /* \"rsp_all.sol\":3053:3078  rooms[roomNum].taker.addr */\n      0x00\n      add\n      0x01\n      swap1\n      sload\n      swap1\n      0x0100\n      exp\n      swap1\n      div\n      0xffffffffffffffffffffffffffffffffffffffff\n      and\n        /* \"rsp_all.sol\":3053:3087  rooms[roomNum].taker.addr.transfer */\n      0xffffffffffffffffffffffffffffffffffffffff\n      and\n        /* \"rsp_all.sol\":3053:3125  rooms[roomNum].taker.addr.transfer(rooms[roomNum].taker.playerBetAmount) */\n      0x08fc\n        /* \"rsp_all.sol\":3088:3093  rooms */\n      0x00\n        /* \"rsp_all.sol\":3088:3102  rooms[roomNum] */\n      dup1\n        /* \"rsp_all.sol\":3094:3101  roomNum */\n      dup7\n        /* \"rsp_all.sol\":3088:3102  rooms[roomNum] */\n      dup2\n      mstore\n      0x20\n      add\n      swap1\n      dup2\n      mstore\n      0x20\n      add\n      0x00\n      keccak256\n        /* \"rsp_all.sol\":3088:3108  rooms[roomNum].taker */\n      0x04\n      add\n        /* \"rsp_all.sol\":3088:3124  rooms[roomNum].taker.playerBetAmount */\n      0x01\n      add\n      sload\n        /* \"rsp_all.sol\":3053:3125  rooms[roomNum].taker.addr.transfer(rooms[roomNum].taker.playerBetAmount) */\n      swap1\n      dup2\n      iszero\n      mul\n      swap1\n      mload(0x40)\n      0x00\n      mload(0x40)\n      dup1\n      dup4\n      sub\n      dup2\n      dup6\n      dup9\n      dup9\n      call\n      swap4\n      pop\n      pop\n      pop\n      pop\n      iszero\n      dup1\n      iszero\n      tag_104\n      jumpi\n      returndatasize\n      0x00\n      dup1\n      returndatacopy\n      revert(0x00, returndatasize)\n    tag_104:\n      pop\n        /* \"rsp_all.sol\":2808:3711  if (rooms[roomNum].originator.playerStatus == PlayerStatus.STATUS_TIE && rooms[roomNum].taker.playerStatus == PlayerStatus.STATUS_TIE) {... */\n      jump(tag_105)\n    tag_100:\n        /* \"rsp_all.sol\":3202:3225  PlayerStatus.STATUS_WIN */\n      0x00\n        /* \"rsp_all.sol\":3160:3225  rooms[roomNum].originator.playerStatus == PlayerStatus.STATUS_WIN */\n      0x03\n      dup2\n      gt\n      iszero\n      tag_106\n      jumpi\n      tag_107\n      tag_22\n      jump\t// in\n    tag_107:\n    tag_106:\n        /* \"rsp_all.sol\":3160:3165  rooms */\n      0x00\n        /* \"rsp_all.sol\":3160:3174  rooms[roomNum] */\n      dup1\n        /* \"rsp_all.sol\":3166:3173  roomNum */\n      dup6\n        /* \"rsp_all.sol\":3160:3174  rooms[roomNum] */\n      dup2\n      mstore\n      0x20\n      add\n      swap1\n      dup2\n      mstore\n      0x20\n      add\n      0x00\n      keccak256\n        /* \"rsp_all.sol\":3160:3185  rooms[roomNum].originator */\n      0x02\n      add\n        /* \"rsp_all.sol\":3160:3198  rooms[roomNum].originator.playerStatus */\n      0x00\n      add\n      0x15\n      swap1\n      sload\n      swap1\n      0x0100\n      exp\n      swap1\n      div\n      0xff\n      and\n        /* \"rsp_all.sol\":3160:3225  rooms[roomNum].originator.playerStatus == PlayerStatus.STATUS_WIN */\n      0x03\n      dup2\n      gt\n      iszero\n      tag_108\n      jumpi\n      tag_109\n      tag_22\n      jump\t// in\n    tag_109:\n    tag_108:\n      sub\n        /* \"rsp_all.sol\":3156:3701  if (rooms[roomNum].originator.playerStatus == PlayerStatus.STATUS_WIN) {... */\n      tag_110\n      jumpi\n        /* \"rsp_all.sol\":3245:3250  rooms */\n      0x00\n        /* \"rsp_all.sol\":3245:3259  rooms[roomNum] */\n      dup1\n        /* \"rsp_all.sol\":3251:3258  roomNum */\n      dup5\n        /* \"rsp_all.sol\":3245:3259  rooms[roomNum] */\n      dup2\n      mstore\n      0x20\n      add\n      swap1\n      dup2\n      mstore\n      0x20\n      add\n      0x00\n      keccak256\n        /* \"rsp_all.sol\":3245:3270  rooms[roomNum].originator */\n      0x02\n      add\n        /* \"rsp_all.sol\":3245:3275  rooms[roomNum].originator.addr */\n      0x00\n      add\n      0x01\n      swap1\n      sload\n      swap1\n      0x0100\n      exp\n      swap1\n      div\n      0xffffffffffffffffffffffffffffffffffffffff\n      and\n        /* \"rsp_all.sol\":3245:3284  rooms[roomNum].originator.addr.transfer */\n      0xffffffffffffffffffffffffffffffffffffffff\n      and\n        /* \"rsp_all.sol\":3245:3310  rooms[roomNum].originator.addr.transfer(rooms[roomNum].betAmount) */\n      0x08fc\n        /* \"rsp_all.sol\":3285:3290  rooms */\n      0x00\n        /* \"rsp_all.sol\":3285:3299  rooms[roomNum] */\n      dup1\n        /* \"rsp_all.sol\":3291:3298  roomNum */\n      dup7\n        /* \"rsp_all.sol\":3285:3299  rooms[roomNum] */\n      dup2\n      mstore\n      0x20\n      add\n      swap1\n      dup2\n      mstore\n      0x20\n      add\n      0x00\n      keccak256\n        /* \"rsp_all.sol\":3285:3309  rooms[roomNum].betAmount */\n      0x00\n      add\n      sload\n        /* \"rsp_all.sol\":3245:3310  rooms[roomNum].originator.addr.transfer(rooms[roomNum].betAmount) */\n      swap1\n      dup2\n      iszero\n      mul\n      swap1\n      mload(0x40)\n      0x00\n      mload(0x40)\n      dup1\n      dup4\n      sub\n      dup2\n      dup6\n      dup9\n      dup9\n      call\n      swap4\n      pop\n      pop\n      pop\n      pop\n      iszero\n      dup1\n      iszero\n      tag_112\n      jumpi\n      returndatasize\n      0x00\n      dup1\n      returndatacopy\n      revert(0x00, returndatasize)\n    tag_112:\n      pop\n        /* \"rsp_all.sol\":3156:3701  if (rooms[roomNum].originator.playerStatus == PlayerStatus.STATUS_WIN) {... */\n      jump(tag_113)\n    tag_110:\n        /* \"rsp_all.sol\":3372:3395  PlayerStatus.STATUS_WIN */\n      0x00\n        /* \"rsp_all.sol\":3335:3395  rooms[roomNum].taker.playerStatus == PlayerStatus.STATUS_WIN */\n      0x03\n      dup2\n      gt\n      iszero\n      tag_114\n      jumpi\n      tag_115\n      tag_22\n      jump\t// in\n    tag_115:\n    tag_114:\n        /* \"rsp_all.sol\":3335:3340  rooms */\n      0x00\n        /* \"rsp_all.sol\":3335:3349  rooms[roomNum] */\n      dup1\n        /* \"rsp_all.sol\":3341:3348  roomNum */\n      dup6\n        /* \"rsp_all.sol\":3335:3349  rooms[roomNum] */\n      dup2\n      mstore\n      0x20\n      add\n      swap1\n      dup2\n      mstore\n      0x20\n      add\n      0x00\n      keccak256\n        /* \"rsp_all.sol\":3335:3355  rooms[roomNum].taker */\n      0x04\n      add\n        /* \"rsp_all.sol\":3335:3368  rooms[roomNum].taker.playerStatus */\n      0x00\n      add\n      0x15\n      swap1\n      sload\n      swap1\n      0x0100\n      exp\n      swap1\n      div\n      0xff\n      and\n        /* \"rsp_all.sol\":3335:3395  rooms[roomNum].taker.playerStatus == PlayerStatus.STATUS_WIN */\n      0x03\n      dup2\n      gt\n      iszero\n      tag_116\n      jumpi\n      tag_117\n      tag_22\n      jump\t// in\n    tag_117:\n    tag_116:\n      sub\n        /* \"rsp_all.sol\":3331:3701  if (rooms[roomNum].taker.playerStatus == PlayerStatus.STATUS_WIN) {... */\n      tag_118\n      jumpi\n        /* \"rsp_all.sol\":3415:3420  rooms */\n      0x00\n        /* \"rsp_all.sol\":3415:3429  rooms[roomNum] */\n      dup1\n        /* \"rsp_all.sol\":3421:3428  roomNum */\n      dup5\n        /* \"rsp_all.sol\":3415:3429  rooms[roomNum] */\n      dup2\n      mstore\n      0x20\n      add\n      swap1\n      dup2\n      mstore\n      0x20\n      add\n      0x00\n      keccak256\n        /* \"rsp_all.sol\":3415:3435  rooms[roomNum].taker */\n      0x04\n      add\n        /* \"rsp_all.sol\":3415:3440  rooms[roomNum].taker.addr */\n      0x00\n      add\n      0x01\n      swap1\n      sload\n      swap1\n      0x0100\n      exp\n      swap1\n      div\n      0xffffffffffffffffffffffffffffffffffffffff\n      and\n        /* \"rsp_all.sol\":3415:3449  rooms[roomNum].taker.addr.transfer */\n      0xffffffffffffffffffffffffffffffffffffffff\n      and\n        /* \"rsp_all.sol\":3415:3475  rooms[roomNum].taker.addr.transfer(rooms[roomNum].betAmount) */\n      0x08fc\n        /* \"rsp_all.sol\":3450:3455  rooms */\n      0x00\n        /* \"rsp_all.sol\":3450:3464  rooms[roomNum] */\n      dup1\n        /* \"rsp_all.sol\":3456:3463  roomNum */\n      dup7\n        /* \"rsp_all.sol\":3450:3464  rooms[roomNum] */\n      dup2\n      mstore\n      0x20\n      add\n      swap1\n      dup2\n      mstore\n      0x20\n      add\n      0x00\n      keccak256\n        /* \"rsp_all.sol\":3450:3474  rooms[roomNum].betAmount */\n      0x00\n      add\n      sload\n        /* \"rsp_all.sol\":3415:3475  rooms[roomNum].taker.addr.transfer(rooms[roomNum].betAmount) */\n      swap1\n      dup2\n      iszero\n      mul\n      swap1\n      mload(0x40)\n      0x00\n      mload(0x40)\n      dup1\n      dup4\n      sub\n      dup2\n      dup6\n      dup9\n      dup9\n      call\n      swap4\n      pop\n      pop\n      pop\n      pop\n      iszero\n      dup1\n      iszero\n      tag_120\n      jumpi\n      returndatasize\n      0x00\n      dup1\n      returndatacopy\n      revert(0x00, returndatasize)\n    tag_120:\n      pop\n        /* \"rsp_all.sol\":3331:3701  if (rooms[roomNum].taker.playerStatus == PlayerStatus.STATUS_WIN) {... */\n      jump(tag_121)\n    tag_118:\n        /* \"rsp_all.sol\":3514:3519  rooms */\n      0x00\n        /* \"rsp_all.sol\":3514:3528  rooms[roomNum] */\n      dup1\n        /* \"rsp_all.sol\":3520:3527  roomNum */\n      dup5\n        /* \"rsp_all.sol\":3514:3528  rooms[roomNum] */\n      dup2\n      mstore\n      0x20\n      add\n      swap1\n      dup2\n      mstore\n      0x20\n      add\n      0x00\n      keccak256\n        /* \"rsp_all.sol\":3514:3539  rooms[roomNum].originator */\n      0x02\n      add\n        /* \"rsp_all.sol\":3514:3544  rooms[roomNum].originator.addr */\n      0x00\n      add\n      0x01\n      swap1\n      sload\n      swap1\n      0x0100\n      exp\n      swap1\n      div\n      0xffffffffffffffffffffffffffffffffffffffff\n      and\n        /* \"rsp_all.sol\":3514:3553  rooms[roomNum].originator.addr.transfer */\n      0xffffffffffffffffffffffffffffffffffffffff\n      and\n        /* \"rsp_all.sol\":3514:3596  rooms[roomNum].originator.addr.transfer(rooms[roomNum].originator.playerBetAmount) */\n      0x08fc\n        /* \"rsp_all.sol\":3554:3559  rooms */\n      0x00\n        /* \"rsp_all.sol\":3554:3568  rooms[roomNum] */\n      dup1\n        /* \"rsp_all.sol\":3560:3567  roomNum */\n      dup7\n        /* \"rsp_all.sol\":3554:3568  rooms[roomNum] */\n      dup2\n      mstore\n      0x20\n      add\n      swap1\n      dup2\n      mstore\n      0x20\n      add\n      0x00\n      keccak256\n        /* \"rsp_all.sol\":3554:3579  rooms[roomNum].originator */\n      0x02\n      add\n        /* \"rsp_all.sol\":3554:3595  rooms[roomNum].originator.playerBetAmount */\n      0x01\n      add\n      sload\n        /* \"rsp_all.sol\":3514:3596  rooms[roomNum].originator.addr.transfer(rooms[roomNum].originator.playerBetAmount) */\n      swap1\n      dup2\n      iszero\n      mul\n      swap1\n      mload(0x40)\n      0x00\n      mload(0x40)\n      dup1\n      dup4\n      sub\n      dup2\n      dup6\n      dup9\n      dup9\n      call\n      swap4\n      pop\n      pop\n      pop\n      pop\n      iszero\n      dup1\n      iszero\n      tag_123\n      jumpi\n      returndatasize\n      0x00\n      dup1\n      returndatacopy\n      revert(0x00, returndatasize)\n    tag_123:\n      pop\n        /* \"rsp_all.sol\":3614:3619  rooms */\n      0x00\n        /* \"rsp_all.sol\":3614:3628  rooms[roomNum] */\n      dup1\n        /* \"rsp_all.sol\":3620:3627  roomNum */\n      dup5\n        /* \"rsp_all.sol\":3614:3628  rooms[roomNum] */\n      dup2\n      mstore\n      0x20\n      add\n      swap1\n      dup2\n      mstore\n      0x20\n      add\n      0x00\n      keccak256\n        /* \"rsp_all.sol\":3614:3634  rooms[roomNum].taker */\n      0x04\n      add\n        /* \"rsp_all.sol\":3614:3639  rooms[roomNum].taker.addr */\n      0x00\n      add\n      0x01\n      swap1\n      sload\n      swap1\n      0x0100\n      exp\n      swap1\n      div\n      0xffffffffffffffffffffffffffffffffffffffff\n      and\n        /* \"rsp_all.sol\":3614:3648  rooms[roomNum].taker.addr.transfer */\n      0xffffffffffffffffffffffffffffffffffffffff\n      and\n        /* \"rsp_all.sol\":3614:3686  rooms[roomNum].taker.addr.transfer(rooms[roomNum].taker.playerBetAmount) */\n      0x08fc\n        /* \"rsp_all.sol\":3649:3654  rooms */\n      0x00\n        /* \"rsp_all.sol\":3649:3663  rooms[roomNum] */\n      dup1\n        /* \"rsp_all.sol\":3655:3662  roomNum */\n      dup7\n        /* \"rsp_all.sol\":3649:3663  rooms[roomNum] */\n      dup2\n      mstore\n      0x20\n      add\n      swap1\n      dup2\n      mstore\n      0x20\n      add\n      0x00\n      keccak256\n        /* \"rsp_all.sol\":3649:3669  rooms[roomNum].taker */\n      0x04\n      add\n        /* \"rsp_all.sol\":3649:3685  rooms[roomNum].taker.playerBetAmount */\n      0x01\n      add\n      sload\n        /* \"rsp_all.sol\":3614:3686  rooms[roomNum].taker.addr.transfer(rooms[roomNum].taker.playerBetAmount) */\n      swap1\n      dup2\n      iszero\n      mul\n      swap1\n      mload(0x40)\n      0x00\n      mload(0x40)\n      dup1\n      dup4\n      sub\n      dup2\n      dup6\n      dup9\n      dup9\n      call\n      swap4\n      pop\n      pop\n      pop\n      pop\n      iszero\n      dup1\n      iszero\n      tag_125\n      jumpi\n      returndatasize\n      0x00\n      dup1\n      returndatacopy\n      revert(0x00, returndatasize)\n    tag_125:\n      pop\n        /* \"rsp_all.sol\":3331:3701  if (rooms[roomNum].taker.playerStatus == PlayerStatus.STATUS_WIN) {... */\n    tag_121:\n        /* \"rsp_all.sol\":3156:3701  if (rooms[roomNum].originator.playerStatus == PlayerStatus.STATUS_WIN) {... */\n    tag_113:\n        /* \"rsp_all.sol\":2808:3711  if (rooms[roomNum].originator.playerStatus == PlayerStatus.STATUS_TIE && rooms[roomNum].taker.playerStatus == PlayerStatus.STATUS_TIE) {... */\n    tag_105:\n        /* \"rsp_all.sol\":3749:3775  GameStatus.STATUS_COMPLETE */\n      0x02\n        /* \"rsp_all.sol\":3721:3726  rooms */\n      0x00\n        /* \"rsp_all.sol\":3721:3735  rooms[roomNum] */\n      dup1\n        /* \"rsp_all.sol\":3727:3734  roomNum */\n      dup6\n        /* \"rsp_all.sol\":3721:3735  rooms[roomNum] */\n      dup2\n      mstore\n      0x20\n      add\n      swap1\n      dup2\n      mstore\n      0x20\n      add\n      0x00\n      keccak256\n        /* \"rsp_all.sol\":3721:3746  rooms[roomNum].gameStatus */\n      0x01\n      add\n      0x00\n        /* \"rsp_all.sol\":3721:3775  rooms[roomNum].gameStatus = GameStatus.STATUS_COMPLETE */\n      0x0100\n      exp\n      dup2\n      sload\n      dup2\n      0xff\n      mul\n      not\n      and\n      swap1\n      dup4\n      0x03\n      dup2\n      gt\n      iszero\n      tag_126\n      jumpi\n      tag_127\n      tag_22\n      jump\t// in\n    tag_127:\n    tag_126:\n      mul\n      or\n      swap1\n      sstore\n      pop\n        /* \"rsp_all.sol\":2723:3782  function payout(uint roomNum) public payable isPlayer(roomNum, msg.sender) {... */\n      pop\n      pop\n      pop\n      jump\t// out\n        /* \"rsp_all.sol\":3792:4789  function compareHands(uint roomNum) private{... */\n    tag_86:\n        /* \"rsp_all.sol\":3845:3861  uint8 originator */\n      0x00\n        /* \"rsp_all.sol\":3870:3875  rooms */\n      dup1\n        /* \"rsp_all.sol\":3870:3884  rooms[roomNum] */\n      0x00\n        /* \"rsp_all.sol\":3876:3883  roomNum */\n      dup4\n        /* \"rsp_all.sol\":3870:3884  rooms[roomNum] */\n      dup2\n      mstore\n      0x20\n      add\n      swap1\n      dup2\n      mstore\n      0x20\n      add\n      0x00\n      keccak256\n        /* \"rsp_all.sol\":3870:3895  rooms[roomNum].originator */\n      0x02\n      add\n        /* \"rsp_all.sol\":3870:3900  rooms[roomNum].originator.hand */\n      0x00\n      add\n      0x00\n      swap1\n      sload\n      swap1\n      0x0100\n      exp\n      swap1\n      div\n      0xff\n      and\n        /* \"rsp_all.sol\":3864:3901  uint8(rooms[roomNum].originator.hand) */\n      0x02\n      dup2\n      gt\n      iszero\n      tag_129\n      jumpi\n      tag_130\n      tag_22\n      jump\t// in\n    tag_130:\n    tag_129:\n        /* \"rsp_all.sol\":3845:3901  uint8 originator = uint8(rooms[roomNum].originator.hand) */\n      swap1\n      pop\n        /* \"rsp_all.sol\":3911:3922  uint8 taker */\n      0x00\n        /* \"rsp_all.sol\":3931:3936  rooms */\n      dup1\n        /* \"rsp_all.sol\":3931:3945  rooms[roomNum] */\n      0x00\n        /* \"rsp_all.sol\":3937:3944  roomNum */\n      dup5\n        /* \"rsp_all.sol\":3931:3945  rooms[roomNum] */\n      dup2\n      mstore\n      0x20\n      add\n      swap1\n      dup2\n      mstore\n      0x20\n      add\n      0x00\n      keccak256\n        /* \"rsp_all.sol\":3931:3951  rooms[roomNum].taker */\n      0x04\n      add\n        /* \"rsp_all.sol\":3931:3956  rooms[roomNum].taker.hand */\n      0x00\n      add\n      0x00\n      swap1\n      sload\n      swap1\n      0x0100\n      exp\n      swap1\n      div\n      0xff\n      and\n        /* \"rsp_all.sol\":3925:3957  uint8(rooms[roomNum].taker.hand) */\n      0x02\n      dup2\n      gt\n      iszero\n      tag_131\n      jumpi\n      tag_132\n      tag_22\n      jump\t// in\n    tag_132:\n    tag_131:\n        /* \"rsp_all.sol\":3911:3957  uint8 taker = uint8(rooms[roomNum].taker.hand) */\n      swap1\n      pop\n        /* \"rsp_all.sol\":4004:4029  GameStatus.STATUS_STARTED */\n      0x01\n        /* \"rsp_all.sol\":3976:3981  rooms */\n      0x00\n        /* \"rsp_all.sol\":3976:3990  rooms[roomNum] */\n      dup1\n        /* \"rsp_all.sol\":3982:3989  roomNum */\n      dup6\n        /* \"rsp_all.sol\":3976:3990  rooms[roomNum] */\n      dup2\n      mstore\n      0x20\n      add\n      swap1\n      dup2\n      mstore\n      0x20\n      add\n      0x00\n      keccak256\n        /* \"rsp_all.sol\":3976:4001  rooms[roomNum].gameStatus */\n      0x01\n      add\n      0x00\n        /* \"rsp_all.sol\":3976:4029  rooms[roomNum].gameStatus = GameStatus.STATUS_STARTED */\n      0x0100\n      exp\n      dup2\n      sload\n      dup2\n      0xff\n      mul\n      not\n      and\n      swap1\n      dup4\n      0x03\n      dup2\n      gt\n      iszero\n      tag_133\n      jumpi\n      tag_134\n      tag_22\n      jump\t// in\n    tag_134:\n    tag_133:\n      mul\n      or\n      swap1\n      sstore\n      pop\n        /* \"rsp_all.sol\":4061:4071  originator */\n      dup2\n        /* \"rsp_all.sol\":4052:4071  taker == originator */\n      0xff\n      and\n        /* \"rsp_all.sol\":4052:4057  taker */\n      dup2\n        /* \"rsp_all.sol\":4052:4071  taker == originator */\n      0xff\n      and\n      sub\n        /* \"rsp_all.sol\":4048:4775  if (taker == originator){ //draw... */\n      tag_135\n      jumpi\n        /* \"rsp_all.sol\":4134:4157  PlayerStatus.STATUS_TIE */\n      0x02\n        /* \"rsp_all.sol\":4093:4098  rooms */\n      0x00\n        /* \"rsp_all.sol\":4093:4107  rooms[roomNum] */\n      dup1\n        /* \"rsp_all.sol\":4099:4106  roomNum */\n      dup6\n        /* \"rsp_all.sol\":4093:4107  rooms[roomNum] */\n      dup2\n      mstore\n      0x20\n      add\n      swap1\n      dup2\n      mstore\n      0x20\n      add\n      0x00\n      keccak256\n        /* \"rsp_all.sol\":4093:4118  rooms[roomNum].originator */\n      0x02\n      add\n        /* \"rsp_all.sol\":4093:4131  rooms[roomNum].originator.playerStatus */\n      0x00\n      add\n      0x15\n        /* \"rsp_all.sol\":4093:4157  rooms[roomNum].originator.playerStatus = PlayerStatus.STATUS_TIE */\n      0x0100\n      exp\n      dup2\n      sload\n      dup2\n      0xff\n      mul\n      not\n      and\n      swap1\n      dup4\n      0x03\n      dup2\n      gt\n      iszero\n      tag_136\n      jumpi\n      tag_137\n      tag_22\n      jump\t// in\n    tag_137:\n    tag_136:\n      mul\n      or\n      swap1\n      sstore\n      pop\n        /* \"rsp_all.sol\":4207:4230  PlayerStatus.STATUS_TIE */\n      0x02\n        /* \"rsp_all.sol\":4171:4176  rooms */\n      0x00\n        /* \"rsp_all.sol\":4171:4185  rooms[roomNum] */\n      dup1\n        /* \"rsp_all.sol\":4177:4184  roomNum */\n      dup6\n        /* \"rsp_all.sol\":4171:4185  rooms[roomNum] */\n      dup2\n      mstore\n      0x20\n      add\n      swap1\n      dup2\n      mstore\n      0x20\n      add\n      0x00\n      keccak256\n        /* \"rsp_all.sol\":4171:4191  rooms[roomNum].taker */\n      0x04\n      add\n        /* \"rsp_all.sol\":4171:4204  rooms[roomNum].taker.playerStatus */\n      0x00\n      add\n      0x15\n        /* \"rsp_all.sol\":4171:4230  rooms[roomNum].taker.playerStatus = PlayerStatus.STATUS_TIE */\n      0x0100\n      exp\n      dup2\n      sload\n      dup2\n      0xff\n      mul\n      not\n      and\n      swap1\n      dup4\n      0x03\n      dup2\n      gt\n      iszero\n      tag_138\n      jumpi\n      tag_139\n      tag_22\n      jump\t// in\n    tag_139:\n    tag_138:\n      mul\n      or\n      swap1\n      sstore\n      pop\n        /* \"rsp_all.sol\":4048:4775  if (taker == originator){ //draw... */\n      jump(tag_140)\n    tag_135:\n        /* \"rsp_all.sol\":4290:4300  originator */\n      dup2\n        /* \"rsp_all.sol\":4272:4300  (taker +1) % 3 == originator */\n      0xff\n      and\n        /* \"rsp_all.sol\":4285:4286  3 */\n      0x03\n        /* \"rsp_all.sol\":4280:4281  1 */\n      0x01\n        /* \"rsp_all.sol\":4273:4278  taker */\n      dup4\n        /* \"rsp_all.sol\":4273:4281  taker +1 */\n      tag_141\n      swap2\n      swap1\n      tag_142\n      jump\t// in\n    tag_141:\n        /* \"rsp_all.sol\":4272:4286  (taker +1) % 3 */\n      tag_143\n      swap2\n      swap1\n      tag_144\n      jump\t// in\n    tag_143:\n        /* \"rsp_all.sol\":4272:4300  (taker +1) % 3 == originator */\n      0xff\n      and\n      sub\n        /* \"rsp_all.sol\":4268:4775  if ((taker +1) % 3 == originator) { // originator wins... */\n      tag_145\n      jumpi\n        /* \"rsp_all.sol\":4376:4399  PlayerStatus.STATUS_WIN */\n      0x00\n        /* \"rsp_all.sol\":4335:4340  rooms */\n      dup1\n        /* \"rsp_all.sol\":4335:4349  rooms[roomNum] */\n      0x00\n        /* \"rsp_all.sol\":4341:4348  roomNum */\n      dup6\n        /* \"rsp_all.sol\":4335:4349  rooms[roomNum] */\n      dup2\n      mstore\n      0x20\n      add\n      swap1\n      dup2\n      mstore\n      0x20\n      add\n      0x00\n      keccak256\n        /* \"rsp_all.sol\":4335:4360  rooms[roomNum].originator */\n      0x02\n      add\n        /* \"rsp_all.sol\":4335:4373  rooms[roomNum].originator.playerStatus */\n      0x00\n      add\n      0x15\n        /* \"rsp_all.sol\":4335:4399  rooms[roomNum].originator.playerStatus = PlayerStatus.STATUS_WIN */\n      0x0100\n      exp\n      dup2\n      sload\n      dup2\n      0xff\n      mul\n      not\n      and\n      swap1\n      dup4\n      0x03\n      dup2\n      gt\n      iszero\n      tag_146\n      jumpi\n      tag_147\n      tag_22\n      jump\t// in\n    tag_147:\n    tag_146:\n      mul\n      or\n      swap1\n      sstore\n      pop\n        /* \"rsp_all.sol\":4449:4473  PlayerStatus.STATUS_LOSE */\n      0x01\n        /* \"rsp_all.sol\":4413:4418  rooms */\n      0x00\n        /* \"rsp_all.sol\":4413:4427  rooms[roomNum] */\n      dup1\n        /* \"rsp_all.sol\":4419:4426  roomNum */\n      dup6\n        /* \"rsp_all.sol\":4413:4427  rooms[roomNum] */\n      dup2\n      mstore\n      0x20\n      add\n      swap1\n      dup2\n      mstore\n      0x20\n      add\n      0x00\n      keccak256\n        /* \"rsp_all.sol\":4413:4433  rooms[roomNum].taker */\n      0x04\n      add\n        /* \"rsp_all.sol\":4413:4446  rooms[roomNum].taker.playerStatus */\n      0x00\n      add\n      0x15\n        /* \"rsp_all.sol\":4413:4473  rooms[roomNum].taker.playerStatus = PlayerStatus.STATUS_LOSE */\n      0x0100\n      exp\n      dup2\n      sload\n      dup2\n      0xff\n      mul\n      not\n      and\n      swap1\n      dup4\n      0x03\n      dup2\n      gt\n      iszero\n      tag_148\n      jumpi\n      tag_149\n      tag_22\n      jump\t// in\n    tag_149:\n    tag_148:\n      mul\n      or\n      swap1\n      sstore\n      pop\n        /* \"rsp_all.sol\":4268:4775  if ((taker +1) % 3 == originator) { // originator wins... */\n      jump(tag_150)\n    tag_145:\n        /* \"rsp_all.sol\":4524:4529  taker */\n      dup1\n        /* \"rsp_all.sol\":4502:4529  (originator + 1)%3 == taker */\n      0xff\n      and\n        /* \"rsp_all.sol\":4519:4520  3 */\n      0x03\n        /* \"rsp_all.sol\":4516:4517  1 */\n      0x01\n        /* \"rsp_all.sol\":4503:4513  originator */\n      dup5\n        /* \"rsp_all.sol\":4503:4517  originator + 1 */\n      tag_151\n      swap2\n      swap1\n      tag_142\n      jump\t// in\n    tag_151:\n        /* \"rsp_all.sol\":4502:4520  (originator + 1)%3 */\n      tag_152\n      swap2\n      swap1\n      tag_144\n      jump\t// in\n    tag_152:\n        /* \"rsp_all.sol\":4502:4529  (originator + 1)%3 == taker */\n      0xff\n      and\n      sub\n        /* \"rsp_all.sol\":4498:4775  if ((originator + 1)%3 == taker){... */\n      tag_153\n      jumpi\n        /* \"rsp_all.sol\":4585:4609  PlayerStatus.STATUS_LOSE */\n      0x01\n        /* \"rsp_all.sol\":4544:4549  rooms */\n      0x00\n        /* \"rsp_all.sol\":4544:4558  rooms[roomNum] */\n      dup1\n        /* \"rsp_all.sol\":4550:4557  roomNum */\n      dup6\n        /* \"rsp_all.sol\":4544:4558  rooms[roomNum] */\n      dup2\n      mstore\n      0x20\n      add\n      swap1\n      dup2\n      mstore\n      0x20\n      add\n      0x00\n      keccak256\n        /* \"rsp_all.sol\":4544:4569  rooms[roomNum].originator */\n      0x02\n      add\n        /* \"rsp_all.sol\":4544:4582  rooms[roomNum].originator.playerStatus */\n      0x00\n      add\n      0x15\n        /* \"rsp_all.sol\":4544:4609  rooms[roomNum].originator.playerStatus = PlayerStatus.STATUS_LOSE */\n      0x0100\n      exp\n      dup2\n      sload\n      dup2\n      0xff\n      mul\n      not\n      and\n      swap1\n      dup4\n      0x03\n      dup2\n      gt\n      iszero\n      tag_154\n      jumpi\n      tag_155\n      tag_22\n      jump\t// in\n    tag_155:\n    tag_154:\n      mul\n      or\n      swap1\n      sstore\n      pop\n        /* \"rsp_all.sol\":4659:4682  PlayerStatus.STATUS_WIN */\n      0x00\n        /* \"rsp_all.sol\":4623:4628  rooms */\n      dup1\n        /* \"rsp_all.sol\":4623:4637  rooms[roomNum] */\n      0x00\n        /* \"rsp_all.sol\":4629:4636  roomNum */\n      dup6\n        /* \"rsp_all.sol\":4623:4637  rooms[roomNum] */\n      dup2\n      mstore\n      0x20\n      add\n      swap1\n      dup2\n      mstore\n      0x20\n      add\n      0x00\n      keccak256\n        /* \"rsp_all.sol\":4623:4643  rooms[roomNum].taker */\n      0x04\n      add\n        /* \"rsp_all.sol\":4623:4656  rooms[roomNum].taker.playerStatus */\n      0x00\n      add\n      0x15\n        /* \"rsp_all.sol\":4623:4682  rooms[roomNum].taker.playerStatus = PlayerStatus.STATUS_WIN */\n      0x0100\n      exp\n      dup2\n      sload\n      dup2\n      0xff\n      mul\n      not\n      and\n      swap1\n      dup4\n      0x03\n      dup2\n      gt\n      iszero\n      tag_156\n      jumpi\n      tag_157\n      tag_22\n      jump\t// in\n    tag_157:\n    tag_156:\n      mul\n      or\n      swap1\n      sstore\n      pop\n        /* \"rsp_all.sol\":4498:4775  if ((originator + 1)%3 == taker){... */\n      jump(tag_158)\n    tag_153:\n        /* \"rsp_all.sol\":4741:4764  GameStatus.STATUS_ERROR */\n      0x03\n        /* \"rsp_all.sol\":4713:4718  rooms */\n      0x00\n        /* \"rsp_all.sol\":4713:4727  rooms[roomNum] */\n      dup1\n        /* \"rsp_all.sol\":4719:4726  roomNum */\n      dup6\n        /* \"rsp_all.sol\":4713:4727  rooms[roomNum] */\n      dup2\n      mstore\n      0x20\n      add\n      swap1\n      dup2\n      mstore\n      0x20\n      add\n      0x00\n      keccak256\n        /* \"rsp_all.sol\":4713:4738  rooms[roomNum].gameStatus */\n      0x01\n      add\n      0x00\n        /* \"rsp_all.sol\":4713:4764  rooms[roomNum].gameStatus = GameStatus.STATUS_ERROR */\n      0x0100\n      exp\n      dup2\n      sload\n      dup2\n      0xff\n      mul\n      not\n      and\n      swap1\n      dup4\n      0x03\n      dup2\n      gt\n      iszero\n      tag_159\n      jumpi\n      tag_160\n      tag_22\n      jump\t// in\n    tag_160:\n    tag_159:\n      mul\n      or\n      swap1\n      sstore\n      pop\n        /* \"rsp_all.sol\":4498:4775  if ((originator + 1)%3 == taker){... */\n    tag_158:\n        /* \"rsp_all.sol\":4268:4775  if ((taker +1) % 3 == originator) { // originator wins... */\n    tag_150:\n        /* \"rsp_all.sol\":4048:4775  if (taker == originator){ //draw... */\n    tag_140:\n        /* \"rsp_all.sol\":3835:4789  {... */\n      pop\n      pop\n        /* \"rsp_all.sol\":3792:4789  function compareHands(uint roomNum) private{... */\n      pop\n      jump\t// out\n        /* \"#utility.yul\":88:205   */\n    tag_162:\n        /* \"#utility.yul\":197:198   */\n      0x00\n        /* \"#utility.yul\":194:195   */\n      dup1\n        /* \"#utility.yul\":187:199   */\n      revert\n        /* \"#utility.yul\":334:439   */\n    tag_164:\n        /* \"#utility.yul\":413:414   */\n      0x03\n        /* \"#utility.yul\":406:411   */\n      dup2\n        /* \"#utility.yul\":403:415   */\n      lt\n        /* \"#utility.yul\":393:433   */\n      tag_178\n      jumpi\n        /* \"#utility.yul\":429:430   */\n      0x00\n        /* \"#utility.yul\":426:427   */\n      dup1\n        /* \"#utility.yul\":419:431   */\n      revert\n        /* \"#utility.yul\":393:433   */\n    tag_178:\n        /* \"#utility.yul\":334:439   */\n      pop\n      jump\t// out\n        /* \"#utility.yul\":445:596   */\n    tag_165:\n        /* \"#utility.yul\":497:502   */\n      0x00\n        /* \"#utility.yul\":535:541   */\n      dup2\n        /* \"#utility.yul\":522:542   */\n      calldataload\n        /* \"#utility.yul\":513:542   */\n      swap1\n      pop\n        /* \"#utility.yul\":551:590   */\n      tag_180\n        /* \"#utility.yul\":584:589   */\n      dup2\n        /* \"#utility.yul\":551:590   */\n      tag_164\n      jump\t// in\n    tag_180:\n        /* \"#utility.yul\":445:596   */\n      swap3\n      swap2\n      pop\n      pop\n      jump\t// out\n        /* \"#utility.yul\":602:943   */\n    tag_7:\n        /* \"#utility.yul\":667:673   */\n      0x00\n        /* \"#utility.yul\":716:718   */\n      0x20\n        /* \"#utility.yul\":704:713   */\n      dup3\n        /* \"#utility.yul\":695:702   */\n      dup5\n        /* \"#utility.yul\":691:714   */\n      sub\n        /* \"#utility.yul\":687:719   */\n      slt\n        /* \"#utility.yul\":684:803   */\n      iszero\n      tag_182\n      jumpi\n        /* \"#utility.yul\":722:801   */\n      tag_183\n      tag_162\n      jump\t// in\n    tag_183:\n        /* \"#utility.yul\":684:803   */\n    tag_182:\n        /* \"#utility.yul\":842:843   */\n      0x00\n        /* \"#utility.yul\":867:926   */\n      tag_184\n        /* \"#utility.yul\":918:925   */\n      dup5\n        /* \"#utility.yul\":909:915   */\n      dup3\n        /* \"#utility.yul\":898:907   */\n      dup6\n        /* \"#utility.yul\":894:916   */\n      add\n        /* \"#utility.yul\":867:926   */\n      tag_165\n      jump\t// in\n    tag_184:\n        /* \"#utility.yul\":857:926   */\n      swap2\n      pop\n        /* \"#utility.yul\":813:936   */\n      pop\n        /* \"#utility.yul\":602:943   */\n      swap3\n      swap2\n      pop\n      pop\n      jump\t// out\n        /* \"#utility.yul\":949:1026   */\n    tag_166:\n        /* \"#utility.yul\":986:993   */\n      0x00\n        /* \"#utility.yul\":1015:1020   */\n      dup2\n        /* \"#utility.yul\":1004:1020   */\n      swap1\n      pop\n        /* \"#utility.yul\":949:1026   */\n      swap2\n      swap1\n      pop\n      jump\t// out\n        /* \"#utility.yul\":1032:1150   */\n    tag_167:\n        /* \"#utility.yul\":1119:1143   */\n      tag_187\n        /* \"#utility.yul\":1137:1142   */\n      dup2\n        /* \"#utility.yul\":1119:1143   */\n      tag_166\n      jump\t// in\n    tag_187:\n        /* \"#utility.yul\":1114:1117   */\n      dup3\n        /* \"#utility.yul\":1107:1144   */\n      mstore\n        /* \"#utility.yul\":1032:1150   */\n      pop\n      pop\n      jump\t// out\n        /* \"#utility.yul\":1156:1378   */\n    tag_10:\n        /* \"#utility.yul\":1249:1253   */\n      0x00\n        /* \"#utility.yul\":1287:1289   */\n      0x20\n        /* \"#utility.yul\":1276:1285   */\n      dup3\n        /* \"#utility.yul\":1272:1290   */\n      add\n        /* \"#utility.yul\":1264:1290   */\n      swap1\n      pop\n        /* \"#utility.yul\":1300:1371   */\n      tag_189\n        /* \"#utility.yul\":1368:1369   */\n      0x00\n        /* \"#utility.yul\":1357:1366   */\n      dup4\n        /* \"#utility.yul\":1353:1370   */\n      add\n        /* \"#utility.yul\":1344:1350   */\n      dup5\n        /* \"#utility.yul\":1300:1371   */\n      tag_167\n      jump\t// in\n    tag_189:\n        /* \"#utility.yul\":1156:1378   */\n      swap3\n      swap2\n      pop\n      pop\n      jump\t// out\n        /* \"#utility.yul\":1384:1506   */\n    tag_168:\n        /* \"#utility.yul\":1457:1481   */\n      tag_191\n        /* \"#utility.yul\":1475:1480   */\n      dup2\n        /* \"#utility.yul\":1457:1481   */\n      tag_166\n      jump\t// in\n    tag_191:\n        /* \"#utility.yul\":1450:1455   */\n      dup2\n        /* \"#utility.yul\":1447:1482   */\n      eq\n        /* \"#utility.yul\":1437:1500   */\n      tag_192\n      jumpi\n        /* \"#utility.yul\":1496:1497   */\n      0x00\n        /* \"#utility.yul\":1493:1494   */\n      dup1\n        /* \"#utility.yul\":1486:1498   */\n      revert\n        /* \"#utility.yul\":1437:1500   */\n    tag_192:\n        /* \"#utility.yul\":1384:1506   */\n      pop\n      jump\t// out\n        /* \"#utility.yul\":1512:1651   */\n    tag_169:\n        /* \"#utility.yul\":1558:1563   */\n      0x00\n        /* \"#utility.yul\":1596:1602   */\n      dup2\n        /* \"#utility.yul\":1583:1603   */\n      calldataload\n        /* \"#utility.yul\":1574:1603   */\n      swap1\n      pop\n        /* \"#utility.yul\":1612:1645   */\n      tag_194\n        /* \"#utility.yul\":1639:1644   */\n      dup2\n        /* \"#utility.yul\":1612:1645   */\n      tag_168\n      jump\t// in\n    tag_194:\n        /* \"#utility.yul\":1512:1651   */\n      swap3\n      swap2\n      pop\n      pop\n      jump\t// out\n        /* \"#utility.yul\":1657:2143   */\n    tag_13:\n        /* \"#utility.yul\":1731:1737   */\n      0x00\n        /* \"#utility.yul\":1739:1745   */\n      dup1\n        /* \"#utility.yul\":1788:1790   */\n      0x40\n        /* \"#utility.yul\":1776:1785   */\n      dup4\n        /* \"#utility.yul\":1767:1774   */\n      dup6\n        /* \"#utility.yul\":1763:1786   */\n      sub\n        /* \"#utility.yul\":1759:1791   */\n      slt\n        /* \"#utility.yul\":1756:1875   */\n      iszero\n      tag_196\n      jumpi\n        /* \"#utility.yul\":1794:1873   */\n      tag_197\n      tag_162\n      jump\t// in\n    tag_197:\n        /* \"#utility.yul\":1756:1875   */\n    tag_196:\n        /* \"#utility.yul\":1914:1915   */\n      0x00\n        /* \"#utility.yul\":1939:1992   */\n      tag_198\n        /* \"#utility.yul\":1984:1991   */\n      dup6\n        /* \"#utility.yul\":1975:1981   */\n      dup3\n        /* \"#utility.yul\":1964:1973   */\n      dup7\n        /* \"#utility.yul\":1960:1982   */\n      add\n        /* \"#utility.yul\":1939:1992   */\n      tag_169\n      jump\t// in\n    tag_198:\n        /* \"#utility.yul\":1929:1992   */\n      swap3\n      pop\n        /* \"#utility.yul\":1885:2002   */\n      pop\n        /* \"#utility.yul\":2041:2043   */\n      0x20\n        /* \"#utility.yul\":2067:2126   */\n      tag_199\n        /* \"#utility.yul\":2118:2125   */\n      dup6\n        /* \"#utility.yul\":2109:2115   */\n      dup3\n        /* \"#utility.yul\":2098:2107   */\n      dup7\n        /* \"#utility.yul\":2094:2116   */\n      add\n        /* \"#utility.yul\":2067:2126   */\n      tag_165\n      jump\t// in\n    tag_199:\n        /* \"#utility.yul\":2057:2126   */\n      swap2\n      pop\n        /* \"#utility.yul\":2012:2136   */\n      pop\n        /* \"#utility.yul\":1657:2143   */\n      swap3\n      pop\n      swap3\n      swap1\n      pop\n      jump\t// out\n        /* \"#utility.yul\":2149:2478   */\n    tag_17:\n        /* \"#utility.yul\":2208:2214   */\n      0x00\n        /* \"#utility.yul\":2257:2259   */\n      0x20\n        /* \"#utility.yul\":2245:2254   */\n      dup3\n        /* \"#utility.yul\":2236:2243   */\n      dup5\n        /* \"#utility.yul\":2232:2255   */\n      sub\n        /* \"#utility.yul\":2228:2260   */\n      slt\n        /* \"#utility.yul\":2225:2344   */\n      iszero\n      tag_201\n      jumpi\n        /* \"#utility.yul\":2263:2342   */\n      tag_202\n      tag_162\n      jump\t// in\n    tag_202:\n        /* \"#utility.yul\":2225:2344   */\n    tag_201:\n        /* \"#utility.yul\":2383:2384   */\n      0x00\n        /* \"#utility.yul\":2408:2461   */\n      tag_203\n        /* \"#utility.yul\":2453:2460   */\n      dup5\n        /* \"#utility.yul\":2444:2450   */\n      dup3\n        /* \"#utility.yul\":2433:2442   */\n      dup6\n        /* \"#utility.yul\":2429:2451   */\n      add\n        /* \"#utility.yul\":2408:2461   */\n      tag_169\n      jump\t// in\n    tag_203:\n        /* \"#utility.yul\":2398:2461   */\n      swap2\n      pop\n        /* \"#utility.yul\":2354:2471   */\n      pop\n        /* \"#utility.yul\":2149:2478   */\n      swap3\n      swap2\n      pop\n      pop\n      jump\t// out\n        /* \"#utility.yul\":2484:2664   */\n    tag_22:\n        /* \"#utility.yul\":2532:2609   */\n      0x4e487b7100000000000000000000000000000000000000000000000000000000\n        /* \"#utility.yul\":2529:2530   */\n      0x00\n        /* \"#utility.yul\":2522:2610   */\n      mstore\n        /* \"#utility.yul\":2629:2633   */\n      0x21\n        /* \"#utility.yul\":2626:2627   */\n      0x04\n        /* \"#utility.yul\":2619:2634   */\n      mstore\n        /* \"#utility.yul\":2653:2657   */\n      0x24\n        /* \"#utility.yul\":2650:2651   */\n      0x00\n        /* \"#utility.yul\":2643:2658   */\n      revert\n        /* \"#utility.yul\":2670:2850   */\n    tag_170:\n        /* \"#utility.yul\":2718:2795   */\n      0x4e487b7100000000000000000000000000000000000000000000000000000000\n        /* \"#utility.yul\":2715:2716   */\n      0x00\n        /* \"#utility.yul\":2708:2796   */\n      mstore\n        /* \"#utility.yul\":2815:2819   */\n      0x11\n        /* \"#utility.yul\":2812:2813   */\n      0x04\n        /* \"#utility.yul\":2805:2820   */\n      mstore\n        /* \"#utility.yul\":2839:2843   */\n      0x24\n        /* \"#utility.yul\":2836:2837   */\n      0x00\n        /* \"#utility.yul\":2829:2844   */\n      revert\n        /* \"#utility.yul\":2856:3161   */\n    tag_58:\n        /* \"#utility.yul\":2896:2899   */\n      0x00\n        /* \"#utility.yul\":2915:2935   */\n      tag_207\n        /* \"#utility.yul\":2933:2934   */\n      dup3\n        /* \"#utility.yul\":2915:2935   */\n      tag_166\n      jump\t// in\n    tag_207:\n        /* \"#utility.yul\":2910:2935   */\n      swap2\n      pop\n        /* \"#utility.yul\":2949:2969   */\n      tag_208\n        /* \"#utility.yul\":2967:2968   */\n      dup4\n        /* \"#utility.yul\":2949:2969   */\n      tag_166\n      jump\t// in\n    tag_208:\n        /* \"#utility.yul\":2944:2969   */\n      swap3\n      pop\n        /* \"#utility.yul\":3103:3104   */\n      dup3\n        /* \"#utility.yul\":3035:3101   */\n      0xffffffffffffffffffffffffffffffffffffffffffffffffffffffffffffffff\n        /* \"#utility.yul\":3031:3105   */\n      sub\n        /* \"#utility.yul\":3028:3029   */\n      dup3\n        /* \"#utility.yul\":3025:3106   */\n      gt\n        /* \"#utility.yul\":3022:3129   */\n      iszero\n      tag_209\n      jumpi\n        /* \"#utility.yul\":3109:3127   */\n      tag_210\n      tag_170\n      jump\t// in\n    tag_210:\n        /* \"#utility.yul\":3022:3129   */\n    tag_209:\n        /* \"#utility.yul\":3153:3154   */\n      dup3\n        /* \"#utility.yul\":3150:3151   */\n      dup3\n        /* \"#utility.yul\":3146:3155   */\n      add\n        /* \"#utility.yul\":3139:3155   */\n      swap1\n      pop\n        /* \"#utility.yul\":2856:3161   */\n      swap3\n      swap2\n      pop\n      pop\n      jump\t// out\n        /* \"#utility.yul\":3167:3253   */\n    tag_171:\n        /* \"#utility.yul\":3202:3209   */\n      0x00\n        /* \"#utility.yul\":3242:3246   */\n      0xff\n        /* \"#utility.yul\":3235:3240   */\n      dup3\n        /* \"#utility.yul\":3231:3247   */\n      and\n        /* \"#utility.yul\":3220:3247   */\n      swap1\n      pop\n        /* \"#utility.yul\":3167:3253   */\n      swap2\n      swap1\n      pop\n      jump\t// out\n        /* \"#utility.yul\":3259:3496   */\n    tag_142:\n        /* \"#utility.yul\":3297:3300   */\n      0x00\n        /* \"#utility.yul\":3316:3334   */\n      tag_213\n        /* \"#utility.yul\":3332:3333   */\n      dup3\n        /* \"#utility.yul\":3316:3334   */\n      tag_171\n      jump\t// in\n    tag_213:\n        /* \"#utility.yul\":3311:3334   */\n      swap2\n      pop\n        /* \"#utility.yul\":3348:3366   */\n      tag_214\n        /* \"#utility.yul\":3364:3365   */\n      dup4\n        /* \"#utility.yul\":3348:3366   */\n      tag_171\n      jump\t// in\n    tag_214:\n        /* \"#utility.yul\":3343:3366   */\n      swap3\n      pop\n        /* \"#utility.yul\":3438:3439   */\n      dup3\n        /* \"#utility.yul\":3432:3436   */\n      0xff\n        /* \"#utility.yul\":3428:3440   */\n      sub\n        /* \"#utility.yul\":3425:3426   */\n      dup3\n        /* \"#utility.yul\":3422:3441   */\n      gt\n        /* \"#utility.yul\":3419:3464   */\n      iszero\n      tag_215\n      jumpi\n        /* \"#utility.yul\":3444:3462   */\n      tag_216\n      tag_170\n      jump\t// in\n    tag_216:\n        /* \"#utility.yul\":3419:3464   */\n    tag_215:\n        /* \"#utility.yul\":3488:3489   */\n      dup3\n        /* \"#utility.yul\":3485:3486   */\n      dup3\n        /* \"#utility.yul\":3481:3490   */\n      add\n        /* \"#utility.yul\":3474:3490   */\n      swap1\n      pop\n        /* \"#utility.yul\":3259:3496   */\n      swap3\n      swap2\n      pop\n      pop\n      jump\t// out\n        /* \"#utility.yul\":3502:3682   */\n    tag_172:\n        /* \"#utility.yul\":3550:3627   */\n      0x4e487b7100000000000000000000000000000000000000000000000000000000\n        /* \"#utility.yul\":3547:3548   */\n      0x00\n        /* \"#utility.yul\":3540:3628   */\n      mstore\n        /* \"#utility.yul\":3647:3651   */\n      0x12\n        /* \"#utility.yul\":3644:3645   */\n      0x04\n        /* \"#utility.yul\":3637:3652   */\n      mstore\n        /* \"#utility.yul\":3671:3675   */\n      0x24\n        /* \"#utility.yul\":3668:3669   */\n      0x00\n        /* \"#utility.yul\":3661:3676   */\n      revert\n        /* \"#utility.yul\":3688:3858   */\n    tag_144:\n        /* \"#utility.yul\":3718:3719   */\n      0x00\n        /* \"#utility.yul\":3735:3753   */\n      tag_219\n        /* \"#utility.yul\":3751:3752   */\n      dup3\n        /* \"#utility.yul\":3735:3753   */\n      tag_171\n      jump\t// in\n    tag_219:\n        /* \"#utility.yul\":3730:3753   */\n      swap2\n      pop\n        /* \"#utility.yul\":3767:3785   */\n      tag_220\n        /* \"#utility.yul\":3783:3784   */\n      dup4\n        /* \"#utility.yul\":3767:3785   */\n      tag_171\n      jump\t// in\n    tag_220:\n        /* \"#utility.yul\":3762:3785   */\n      swap3\n      pop\n        /* \"#utility.yul\":3804:3805   */\n      dup3\n        /* \"#utility.yul\":3794:3829   */\n      tag_221\n      jumpi\n        /* \"#utility.yul\":3809:3827   */\n      tag_222\n      tag_172\n      jump\t// in\n    tag_222:\n        /* \"#utility.yul\":3794:3829   */\n    tag_221:\n        /* \"#utility.yul\":3850:3851   */\n      dup3\n        /* \"#utility.yul\":3847:3848   */\n      dup3\n        /* \"#utility.yul\":3843:3852   */\n      mod\n        /* \"#utility.yul\":3838:3852   */\n      swap1\n      pop\n        /* \"#utility.yul\":3688:3858   */\n      swap3\n      swap2\n      pop\n      pop\n      jump\t// out\n\n    auxdata: 0xa2646970667358221220d523f65c7a5173a65b592c0d36d8da442d9a0087621976265434825231d6fbbe64736f6c634300080e0033\n}\n",
				"bytecode": {
					"linkReferences": {},
					"object": "6080604052600060015561119b806100186000396000f3fe6080604052600436106100345760003560e01c80630f36f3b51461003957806379b1577614610069578063e115234314610085575b600080fd5b610053600480360381019061004e9190610f13565b6100a1565b6040516100609190610f59565b60405180910390f35b610083600480360381019061007e9190610fa0565b610404565b005b61009f600480360381019061009a9190610fe0565b6105ff565b005b600081600060028111156100b8576100b761100d565b5b8160028111156100cb576100ca61100d565b5b14806100fb5750600160028111156100e6576100e561100d565b5b8160028111156100f9576100f861100d565b5b145b8061012957506002808111156101145761011361100d565b5b8160028111156101275761012661100d565b5b145b61013257600080fd5b6040518060800160405280348152602001600060038111156101575761015661100d565b5b8152602001604051806080016040528086600281111561017a5761017961100d565b5b81526020013373ffffffffffffffffffffffffffffffffffffffff1681526020016003808111156101ae576101ad61100d565b5b81526020013481525081526020016040518060800160405280600060028111156101db576101da61100d565b5b81526020013373ffffffffffffffffffffffffffffffffffffffff16815260200160038081111561020f5761020e61100d565b5b8152602001600081525081525060008060015481526020019081526020016000206000820151816000015560208201518160010160006101000a81548160ff021916908360038111156102655761026461100d565b5b021790555060408201518160020160008201518160000160006101000a81548160ff0219169083600281111561029e5761029d61100d565b5b021790555060208201518160000160016101000a81548173ffffffffffffffffffffffffffffffffffffffff021916908373ffffffffffffffffffffffffffffffffffffffff16021790555060408201518160000160156101000a81548160ff021916908360038111156103155761031461100d565b5b021790555060608201518160010155505060608201518160040160008201518160000160006101000a81548160ff0219169083600281111561035a5761035961100d565b5b021790555060208201518160000160016101000a81548173ffffffffffffffffffffffffffffffffffffffff021916908373ffffffffffffffffffffffffffffffffffffffff16021790555060408201518160000160156101000a81548160ff021916908360038111156103d1576103d061100d565b5b02179055506060820151816001015550509050506001549150600180546103f8919061106b565b60018190555050919050565b80600060028111156104195761041861100d565b5b81600281111561042c5761042b61100d565b5b148061045c5750600160028111156104475761044661100d565b5b81600281111561045a5761045961100d565b5b145b8061048a57506002808111156104755761047461100d565b5b8160028111156104885761048761100d565b5b145b61049357600080fd5b60405180608001604052808360028111156104b1576104b061100d565b5b81526020013373ffffffffffffffffffffffffffffffffffffffff1681526020016003808111156104e5576104e461100d565b5b81526020013481525060008085815260200190815260200160002060040160008201518160000160006101000a81548160ff0219169083600281111561052e5761052d61100d565b5b021790555060208201518160000160016101000a81548173ffffffffffffffffffffffffffffffffffffffff021916908373ffffffffffffffffffffffffffffffffffffffff16021790555060408201518160000160156101000a81548160ff021916908360038111156105a5576105a461100d565b5b02179055506060820151816001015590505034600080858152602001908152602001600020600001546105d8919061106b565b600080858152602001908152602001600020600001819055506105fa83610c01565b505050565b803360008083815260200190815260200160002060020160000160019054906101000a900473ffffffffffffffffffffffffffffffffffffffff1673ffffffffffffffffffffffffffffffffffffffff168173ffffffffffffffffffffffffffffffffffffffff1614806106d6575060008083815260200190815260200160002060040160000160019054906101000a900473ffffffffffffffffffffffffffffffffffffffff1673ffffffffffffffffffffffffffffffffffffffff168173ffffffffffffffffffffffffffffffffffffffff16145b6106df57600080fd5b600260038111156106f3576106f261100d565b5b60008085815260200190815260200160002060020160000160159054906101000a900460ff16600381111561072b5761072a61100d565b5b1480156107815750600260038111156107475761074661100d565b5b60008085815260200190815260200160002060040160000160159054906101000a900460ff16600381111561077f5761077e61100d565b5b145b156108b95760008084815260200190815260200160002060020160000160019054906101000a900473ffffffffffffffffffffffffffffffffffffffff1673ffffffffffffffffffffffffffffffffffffffff166108fc600080868152602001908152602001600020600201600101549081150290604051600060405180830381858888f1935050505015801561081c573d6000803e3d6000fd5b5060008084815260200190815260200160002060040160000160019054906101000a900473ffffffffffffffffffffffffffffffffffffffff1673ffffffffffffffffffffffffffffffffffffffff166108fc600080868152602001908152602001600020600401600101549081150290604051600060405180830381858888f193505050501580156108b3573d6000803e3d6000fd5b50610bbe565b600060038111156108cd576108cc61100d565b5b60008085815260200190815260200160002060020160000160159054906101000a900460ff1660038111156109055761090461100d565b5b036109a35760008084815260200190815260200160002060020160000160019054906101000a900473ffffffffffffffffffffffffffffffffffffffff1673ffffffffffffffffffffffffffffffffffffffff166108fc600080868152602001908152602001600020600001549081150290604051600060405180830381858888f1935050505015801561099d573d6000803e3d6000fd5b50610bbd565b600060038111156109b7576109b661100d565b5b60008085815260200190815260200160002060040160000160159054906101000a900460ff1660038111156109ef576109ee61100d565b5b03610a8d5760008084815260200190815260200160002060040160000160019054906101000a900473ffffffffffffffffffffffffffffffffffffffff1673ffffffffffffffffffffffffffffffffffffffff166108fc600080868152602001908152602001600020600001549081150290604051600060405180830381858888f19350505050158015610a87573d6000803e3d6000fd5b50610bbc565b60008084815260200190815260200160002060020160000160019054906101000a900473ffffffffffffffffffffffffffffffffffffffff1673ffffffffffffffffffffffffffffffffffffffff166108fc600080868152602001908152602001600020600201600101549081150290604051600060405180830381858888f19350505050158015610b23573d6000803e3d6000fd5b5060008084815260200190815260200160002060040160000160019054906101000a900473ffffffffffffffffffffffffffffffffffffffff1673ffffffffffffffffffffffffffffffffffffffff166108fc600080868152602001908152602001600020600401600101549081150290604051600060405180830381858888f19350505050158015610bba573d6000803e3d6000fd5b505b5b5b600260008085815260200190815260200160002060010160006101000a81548160ff02191690836003811115610bf757610bf661100d565b5b0217905550505050565b600080600083815260200190815260200160002060020160000160009054906101000a900460ff166002811115610c3b57610c3a61100d565b5b9050600080600084815260200190815260200160002060040160000160009054906101000a900460ff166002811115610c7757610c7661100d565b5b9050600160008085815260200190815260200160002060010160006101000a81548160ff02191690836003811115610cb257610cb161100d565b5b02179055508160ff168160ff1603610d4b57600260008085815260200190815260200160002060020160000160156101000a81548160ff02191690836003811115610d0057610cff61100d565b5b0217905550600260008085815260200190815260200160002060040160000160156101000a81548160ff02191690836003811115610d4157610d4061100d565b5b0217905550610ee4565b8160ff166003600183610d5e91906110ce565b610d689190611134565b60ff1603610df757600080600085815260200190815260200160002060020160000160156101000a81548160ff02191690836003811115610dac57610dab61100d565b5b0217905550600160008085815260200190815260200160002060040160000160156101000a81548160ff02191690836003811115610ded57610dec61100d565b5b0217905550610ee3565b8060ff166003600184610e0a91906110ce565b610e149190611134565b60ff1603610ea357600160008085815260200190815260200160002060020160000160156101000a81548160ff02191690836003811115610e5857610e5761100d565b5b0217905550600080600085815260200190815260200160002060040160000160156101000a81548160ff02191690836003811115610e9957610e9861100d565b5b0217905550610ee2565b600360008085815260200190815260200160002060010160006101000a81548160ff02191690836003811115610edc57610edb61100d565b5b02179055505b5b5b505050565b600080fd5b60038110610efb57600080fd5b50565b600081359050610f0d81610eee565b92915050565b600060208284031215610f2957610f28610ee9565b5b6000610f3784828501610efe565b91505092915050565b6000819050919050565b610f5381610f40565b82525050565b6000602082019050610f6e6000830184610f4a565b92915050565b610f7d81610f40565b8114610f8857600080fd5b50565b600081359050610f9a81610f74565b92915050565b60008060408385031215610fb757610fb6610ee9565b5b6000610fc585828601610f8b565b9250506020610fd685828601610efe565b9150509250929050565b600060208284031215610ff657610ff5610ee9565b5b600061100484828501610f8b565b91505092915050565b7f4e487b7100000000000000000000000000000000000000000000000000000000600052602160045260246000fd5b7f4e487b7100000000000000000000000000000000000000000000000000000000600052601160045260246000fd5b600061107682610f40565b915061108183610f40565b9250827fffffffffffffffffffffffffffffffffffffffffffffffffffffffffffffffff038211156110b6576110b561103c565b5b828201905092915050565b600060ff82169050919050565b60006110d9826110c1565b91506110e4836110c1565b92508260ff038211156110fa576110f961103c565b5b828201905092915050565b7f4e487b7100000000000000000000000000000000000000000000000000000000600052601260045260246000fd5b600061113f826110c1565b915061114a836110c1565b92508261115a57611159611105565b5b82820690509291505056fea2646970667358221220d523f65c7a5173a65b592c0d36d8da442d9a0087621976265434825231d6fbbe64736f6c634300080e0033",
					"opcodes": "PUSH1 0x80 PUSH1 0x40 MSTORE PUSH1 0x0 PUSH1 0x1 SSTORE PUSH2 0x119B DUP1 PUSH2 0x18 PUSH1 0x0 CODECOPY PUSH1 0x0 RETURN INVALID PUSH1 0x80 PUSH1 0x40 MSTORE PUSH1 0x4 CALLDATASIZE LT PUSH2 0x34 JUMPI PUSH1 0x0 CALLDATALOAD PUSH1 0xE0 SHR DUP1 PUSH4 0xF36F3B5 EQ PUSH2 0x39 JUMPI DUP1 PUSH4 0x79B15776 EQ PUSH2 0x69 JUMPI DUP1 PUSH4 0xE1152343 EQ PUSH2 0x85 JUMPI JUMPDEST PUSH1 0x0 DUP1 REVERT JUMPDEST PUSH2 0x53 PUSH1 0x4 DUP1 CALLDATASIZE SUB DUP2 ADD SWAP1 PUSH2 0x4E SWAP2 SWAP1 PUSH2 0xF13 JUMP JUMPDEST PUSH2 0xA1 JUMP JUMPDEST PUSH1 0x40 MLOAD PUSH2 0x60 SWAP2 SWAP1 PUSH2 0xF59 JUMP JUMPDEST PUSH1 0x40 MLOAD DUP1 SWAP2 SUB SWAP1 RETURN JUMPDEST PUSH2 0x83 PUSH1 0x4 DUP1 CALLDATASIZE SUB DUP2 ADD SWAP1 PUSH2 0x7E SWAP2 SWAP1 PUSH2 0xFA0 JUMP JUMPDEST PUSH2 0x404 JUMP JUMPDEST STOP JUMPDEST PUSH2 0x9F PUSH1 0x4 DUP1 CALLDATASIZE SUB DUP2 ADD SWAP1 PUSH2 0x9A SWAP2 SWAP1 PUSH2 0xFE0 JUMP JUMPDEST PUSH2 0x5FF JUMP JUMPDEST STOP JUMPDEST PUSH1 0x0 DUP2 PUSH1 0x0 PUSH1 0x2 DUP2 GT ISZERO PUSH2 0xB8 JUMPI PUSH2 0xB7 PUSH2 0x100D JUMP JUMPDEST JUMPDEST DUP2 PUSH1 0x2 DUP2 GT ISZERO PUSH2 0xCB JUMPI PUSH2 0xCA PUSH2 0x100D JUMP JUMPDEST JUMPDEST EQ DUP1 PUSH2 0xFB JUMPI POP PUSH1 0x1 PUSH1 0x2 DUP2 GT ISZERO PUSH2 0xE6 JUMPI PUSH2 0xE5 PUSH2 0x100D JUMP JUMPDEST JUMPDEST DUP2 PUSH1 0x2 DUP2 GT ISZERO PUSH2 0xF9 JUMPI PUSH2 0xF8 PUSH2 0x100D JUMP JUMPDEST JUMPDEST EQ JUMPDEST DUP1 PUSH2 0x129 JUMPI POP PUSH1 0x2 DUP1 DUP2 GT ISZERO PUSH2 0x114 JUMPI PUSH2 0x113 PUSH2 0x100D JUMP JUMPDEST JUMPDEST DUP2 PUSH1 0x2 DUP2 GT ISZERO PUSH2 0x127 JUMPI PUSH2 0x126 PUSH2 0x100D JUMP JUMPDEST JUMPDEST EQ JUMPDEST PUSH2 0x132 JUMPI PUSH1 0x0 DUP1 REVERT JUMPDEST PUSH1 0x40 MLOAD DUP1 PUSH1 0x80 ADD PUSH1 0x40 MSTORE DUP1 CALLVALUE DUP2 MSTORE PUSH1 0x20 ADD PUSH1 0x0 PUSH1 0x3 DUP2 GT ISZERO PUSH2 0x157 JUMPI PUSH2 0x156 PUSH2 0x100D JUMP JUMPDEST JUMPDEST DUP2 MSTORE PUSH1 0x20 ADD PUSH1 0x40 MLOAD DUP1 PUSH1 0x80 ADD PUSH1 0x40 MSTORE DUP1 DUP7 PUSH1 0x2 DUP2 GT ISZERO PUSH2 0x17A JUMPI PUSH2 0x179 PUSH2 0x100D JUMP JUMPDEST JUMPDEST DUP2 MSTORE PUSH1 0x20 ADD CALLER PUSH20 0xFFFFFFFFFFFFFFFFFFFFFFFFFFFFFFFFFFFFFFFF AND DUP2 MSTORE PUSH1 0x20 ADD PUSH1 0x3 DUP1 DUP2 GT ISZERO PUSH2 0x1AE JUMPI PUSH2 0x1AD PUSH2 0x100D JUMP JUMPDEST JUMPDEST DUP2 MSTORE PUSH1 0x20 ADD CALLVALUE DUP2 MSTORE POP DUP2 MSTORE PUSH1 0x20 ADD PUSH1 0x40 MLOAD DUP1 PUSH1 0x80 ADD PUSH1 0x40 MSTORE DUP1 PUSH1 0x0 PUSH1 0x2 DUP2 GT ISZERO PUSH2 0x1DB JUMPI PUSH2 0x1DA PUSH2 0x100D JUMP JUMPDEST JUMPDEST DUP2 MSTORE PUSH1 0x20 ADD CALLER PUSH20 0xFFFFFFFFFFFFFFFFFFFFFFFFFFFFFFFFFFFFFFFF AND DUP2 MSTORE PUSH1 0x20 ADD PUSH1 0x3 DUP1 DUP2 GT ISZERO PUSH2 0x20F JUMPI PUSH2 0x20E PUSH2 0x100D JUMP JUMPDEST JUMPDEST DUP2 MSTORE PUSH1 0x20 ADD PUSH1 0x0 DUP2 MSTORE POP DUP2 MSTORE POP PUSH1 0x0 DUP1 PUSH1 0x1 SLOAD DUP2 MSTORE PUSH1 0x20 ADD SWAP1 DUP2 MSTORE PUSH1 0x20 ADD PUSH1 0x0 KECCAK256 PUSH1 0x0 DUP3 ADD MLOAD DUP2 PUSH1 0x0 ADD SSTORE PUSH1 0x20 DUP3 ADD MLOAD DUP2 PUSH1 0x1 ADD PUSH1 0x0 PUSH2 0x100 EXP DUP2 SLOAD DUP2 PUSH1 0xFF MUL NOT AND SWAP1 DUP4 PUSH1 0x3 DUP2 GT ISZERO PUSH2 0x265 JUMPI PUSH2 0x264 PUSH2 0x100D JUMP JUMPDEST JUMPDEST MUL OR SWAP1 SSTORE POP PUSH1 0x40 DUP3 ADD MLOAD DUP2 PUSH1 0x2 ADD PUSH1 0x0 DUP3 ADD MLOAD DUP2 PUSH1 0x0 ADD PUSH1 0x0 PUSH2 0x100 EXP DUP2 SLOAD DUP2 PUSH1 0xFF MUL NOT AND SWAP1 DUP4 PUSH1 0x2 DUP2 GT ISZERO PUSH2 0x29E JUMPI PUSH2 0x29D PUSH2 0x100D JUMP JUMPDEST JUMPDEST MUL OR SWAP1 SSTORE POP PUSH1 0x20 DUP3 ADD MLOAD DUP2 PUSH1 0x0 ADD PUSH1 0x1 PUSH2 0x100 EXP DUP2 SLOAD DUP2 PUSH20 0xFFFFFFFFFFFFFFFFFFFFFFFFFFFFFFFFFFFFFFFF MUL NOT AND SWAP1 DUP4 PUSH20 0xFFFFFFFFFFFFFFFFFFFFFFFFFFFFFFFFFFFFFFFF AND MUL OR SWAP1 SSTORE POP PUSH1 0x40 DUP3 ADD MLOAD DUP2 PUSH1 0x0 ADD PUSH1 0x15 PUSH2 0x100 EXP DUP2 SLOAD DUP2 PUSH1 0xFF MUL NOT AND SWAP1 DUP4 PUSH1 0x3 DUP2 GT ISZERO PUSH2 0x315 JUMPI PUSH2 0x314 PUSH2 0x100D JUMP JUMPDEST JUMPDEST MUL OR SWAP1 SSTORE POP PUSH1 0x60 DUP3 ADD MLOAD DUP2 PUSH1 0x1 ADD SSTORE POP POP PUSH1 0x60 DUP3 ADD MLOAD DUP2 PUSH1 0x4 ADD PUSH1 0x0 DUP3 ADD MLOAD DUP2 PUSH1 0x0 ADD PUSH1 0x0 PUSH2 0x100 EXP DUP2 SLOAD DUP2 PUSH1 0xFF MUL NOT AND SWAP1 DUP4 PUSH1 0x2 DUP2 GT ISZERO PUSH2 0x35A JUMPI PUSH2 0x359 PUSH2 0x100D JUMP JUMPDEST JUMPDEST MUL OR SWAP1 SSTORE POP PUSH1 0x20 DUP3 ADD MLOAD DUP2 PUSH1 0x0 ADD PUSH1 0x1 PUSH2 0x100 EXP DUP2 SLOAD DUP2 PUSH20 0xFFFFFFFFFFFFFFFFFFFFFFFFFFFFFFFFFFFFFFFF MUL NOT AND SWAP1 DUP4 PUSH20 0xFFFFFFFFFFFFFFFFFFFFFFFFFFFFFFFFFFFFFFFF AND MUL OR SWAP1 SSTORE POP PUSH1 0x40 DUP3 ADD MLOAD DUP2 PUSH1 0x0 ADD PUSH1 0x15 PUSH2 0x100 EXP DUP2 SLOAD DUP2 PUSH1 0xFF MUL NOT AND SWAP1 DUP4 PUSH1 0x3 DUP2 GT ISZERO PUSH2 0x3D1 JUMPI PUSH2 0x3D0 PUSH2 0x100D JUMP JUMPDEST JUMPDEST MUL OR SWAP1 SSTORE POP PUSH1 0x60 DUP3 ADD MLOAD DUP2 PUSH1 0x1 ADD SSTORE POP POP SWAP1 POP POP PUSH1 0x1 SLOAD SWAP2 POP PUSH1 0x1 DUP1 SLOAD PUSH2 0x3F8 SWAP2 SWAP1 PUSH2 0x106B JUMP JUMPDEST PUSH1 0x1 DUP2 SWAP1 SSTORE POP POP SWAP2 SWAP1 POP JUMP JUMPDEST DUP1 PUSH1 0x0 PUSH1 0x2 DUP2 GT ISZERO PUSH2 0x419 JUMPI PUSH2 0x418 PUSH2 0x100D JUMP JUMPDEST JUMPDEST DUP2 PUSH1 0x2 DUP2 GT ISZERO PUSH2 0x42C JUMPI PUSH2 0x42B PUSH2 0x100D JUMP JUMPDEST JUMPDEST EQ DUP1 PUSH2 0x45C JUMPI POP PUSH1 0x1 PUSH1 0x2 DUP2 GT ISZERO PUSH2 0x447 JUMPI PUSH2 0x446 PUSH2 0x100D JUMP JUMPDEST JUMPDEST DUP2 PUSH1 0x2 DUP2 GT ISZERO PUSH2 0x45A JUMPI PUSH2 0x459 PUSH2 0x100D JUMP JUMPDEST JUMPDEST EQ JUMPDEST DUP1 PUSH2 0x48A JUMPI POP PUSH1 0x2 DUP1 DUP2 GT ISZERO PUSH2 0x475 JUMPI PUSH2 0x474 PUSH2 0x100D JUMP JUMPDEST JUMPDEST DUP2 PUSH1 0x2 DUP2 GT ISZERO PUSH2 0x488 JUMPI PUSH2 0x487 PUSH2 0x100D JUMP JUMPDEST JUMPDEST EQ JUMPDEST PUSH2 0x493 JUMPI PUSH1 0x0 DUP1 REVERT JUMPDEST PUSH1 0x40 MLOAD DUP1 PUSH1 0x80 ADD PUSH1 0x40 MSTORE DUP1 DUP4 PUSH1 0x2 DUP2 GT ISZERO PUSH2 0x4B1 JUMPI PUSH2 0x4B0 PUSH2 0x100D JUMP JUMPDEST JUMPDEST DUP2 MSTORE PUSH1 0x20 ADD CALLER PUSH20 0xFFFFFFFFFFFFFFFFFFFFFFFFFFFFFFFFFFFFFFFF AND DUP2 MSTORE PUSH1 0x20 ADD PUSH1 0x3 DUP1 DUP2 GT ISZERO PUSH2 0x4E5 JUMPI PUSH2 0x4E4 PUSH2 0x100D JUMP JUMPDEST JUMPDEST DUP2 MSTORE PUSH1 0x20 ADD CALLVALUE DUP2 MSTORE POP PUSH1 0x0 DUP1 DUP6 DUP2 MSTORE PUSH1 0x20 ADD SWAP1 DUP2 MSTORE PUSH1 0x20 ADD PUSH1 0x0 KECCAK256 PUSH1 0x4 ADD PUSH1 0x0 DUP3 ADD MLOAD DUP2 PUSH1 0x0 ADD PUSH1 0x0 PUSH2 0x100 EXP DUP2 SLOAD DUP2 PUSH1 0xFF MUL NOT AND SWAP1 DUP4 PUSH1 0x2 DUP2 GT ISZERO PUSH2 0x52E JUMPI PUSH2 0x52D PUSH2 0x100D JUMP JUMPDEST JUMPDEST MUL OR SWAP1 SSTORE POP PUSH1 0x20 DUP3 ADD MLOAD DUP2 PUSH1 0x0 ADD PUSH1 0x1 PUSH2 0x100 EXP DUP2 SLOAD DUP2 PUSH20 0xFFFFFFFFFFFFFFFFFFFFFFFFFFFFFFFFFFFFFFFF MUL NOT AND SWAP1 DUP4 PUSH20 0xFFFFFFFFFFFFFFFFFFFFFFFFFFFFFFFFFFFFFFFF AND MUL OR SWAP1 SSTORE POP PUSH1 0x40 DUP3 ADD MLOAD DUP2 PUSH1 0x0 ADD PUSH1 0x15 PUSH2 0x100 EXP DUP2 SLOAD DUP2 PUSH1 0xFF MUL NOT AND SWAP1 DUP4 PUSH1 0x3 DUP2 GT ISZERO PUSH2 0x5A5 JUMPI PUSH2 0x5A4 PUSH2 0x100D JUMP JUMPDEST JUMPDEST MUL OR SWAP1 SSTORE POP PUSH1 0x60 DUP3 ADD MLOAD DUP2 PUSH1 0x1 ADD SSTORE SWAP1 POP POP CALLVALUE PUSH1 0x0 DUP1 DUP6 DUP2 MSTORE PUSH1 0x20 ADD SWAP1 DUP2 MSTORE PUSH1 0x20 ADD PUSH1 0x0 KECCAK256 PUSH1 0x0 ADD SLOAD PUSH2 0x5D8 SWAP2 SWAP1 PUSH2 0x106B JUMP JUMPDEST PUSH1 0x0 DUP1 DUP6 DUP2 MSTORE PUSH1 0x20 ADD SWAP1 DUP2 MSTORE PUSH1 0x20 ADD PUSH1 0x0 KECCAK256 PUSH1 0x0 ADD DUP2 SWAP1 SSTORE POP PUSH2 0x5FA DUP4 PUSH2 0xC01 JUMP JUMPDEST POP POP POP JUMP JUMPDEST DUP1 CALLER PUSH1 0x0 DUP1 DUP4 DUP2 MSTORE PUSH1 0x20 ADD SWAP1 DUP2 MSTORE PUSH1 0x20 ADD PUSH1 0x0 KECCAK256 PUSH1 0x2 ADD PUSH1 0x0 ADD PUSH1 0x1 SWAP1 SLOAD SWAP1 PUSH2 0x100 EXP SWAP1 DIV PUSH20 0xFFFFFFFFFFFFFFFFFFFFFFFFFFFFFFFFFFFFFFFF AND PUSH20 0xFFFFFFFFFFFFFFFFFFFFFFFFFFFFFFFFFFFFFFFF AND DUP2 PUSH20 0xFFFFFFFFFFFFFFFFFFFFFFFFFFFFFFFFFFFFFFFF AND EQ DUP1 PUSH2 0x6D6 JUMPI POP PUSH1 0x0 DUP1 DUP4 DUP2 MSTORE PUSH1 0x20 ADD SWAP1 DUP2 MSTORE PUSH1 0x20 ADD PUSH1 0x0 KECCAK256 PUSH1 0x4 ADD PUSH1 0x0 ADD PUSH1 0x1 SWAP1 SLOAD SWAP1 PUSH2 0x100 EXP SWAP1 DIV PUSH20 0xFFFFFFFFFFFFFFFFFFFFFFFFFFFFFFFFFFFFFFFF AND PUSH20 0xFFFFFFFFFFFFFFFFFFFFFFFFFFFFFFFFFFFFFFFF AND DUP2 PUSH20 0xFFFFFFFFFFFFFFFFFFFFFFFFFFFFFFFFFFFFFFFF AND EQ JUMPDEST PUSH2 0x6DF JUMPI PUSH1 0x0 DUP1 REVERT JUMPDEST PUSH1 0x2 PUSH1 0x3 DUP2 GT ISZERO PUSH2 0x6F3 JUMPI PUSH2 0x6F2 PUSH2 0x100D JUMP JUMPDEST JUMPDEST PUSH1 0x0 DUP1 DUP6 DUP2 MSTORE PUSH1 0x20 ADD SWAP1 DUP2 MSTORE PUSH1 0x20 ADD PUSH1 0x0 KECCAK256 PUSH1 0x2 ADD PUSH1 0x0 ADD PUSH1 0x15 SWAP1 SLOAD SWAP1 PUSH2 0x100 EXP SWAP1 DIV PUSH1 0xFF AND PUSH1 0x3 DUP2 GT ISZERO PUSH2 0x72B JUMPI PUSH2 0x72A PUSH2 0x100D JUMP JUMPDEST JUMPDEST EQ DUP1 ISZERO PUSH2 0x781 JUMPI POP PUSH1 0x2 PUSH1 0x3 DUP2 GT ISZERO PUSH2 0x747 JUMPI PUSH2 0x746 PUSH2 0x100D JUMP JUMPDEST JUMPDEST PUSH1 0x0 DUP1 DUP6 DUP2 MSTORE PUSH1 0x20 ADD SWAP1 DUP2 MSTORE PUSH1 0x20 ADD PUSH1 0x0 KECCAK256 PUSH1 0x4 ADD PUSH1 0x0 ADD PUSH1 0x15 SWAP1 SLOAD SWAP1 PUSH2 0x100 EXP SWAP1 DIV PUSH1 0xFF AND PUSH1 0x3 DUP2 GT ISZERO PUSH2 0x77F JUMPI PUSH2 0x77E PUSH2 0x100D JUMP JUMPDEST JUMPDEST EQ JUMPDEST ISZERO PUSH2 0x8B9 JUMPI PUSH1 0x0 DUP1 DUP5 DUP2 MSTORE PUSH1 0x20 ADD SWAP1 DUP2 MSTORE PUSH1 0x20 ADD PUSH1 0x0 KECCAK256 PUSH1 0x2 ADD PUSH1 0x0 ADD PUSH1 0x1 SWAP1 SLOAD SWAP1 PUSH2 0x100 EXP SWAP1 DIV PUSH20 0xFFFFFFFFFFFFFFFFFFFFFFFFFFFFFFFFFFFFFFFF AND PUSH20 0xFFFFFFFFFFFFFFFFFFFFFFFFFFFFFFFFFFFFFFFF AND PUSH2 0x8FC PUSH1 0x0 DUP1 DUP7 DUP2 MSTORE PUSH1 0x20 ADD SWAP1 DUP2 MSTORE PUSH1 0x20 ADD PUSH1 0x0 KECCAK256 PUSH1 0x2 ADD PUSH1 0x1 ADD SLOAD SWAP1 DUP2 ISZERO MUL SWAP1 PUSH1 0x40 MLOAD PUSH1 0x0 PUSH1 0x40 MLOAD DUP1 DUP4 SUB DUP2 DUP6 DUP9 DUP9 CALL SWAP4 POP POP POP POP ISZERO DUP1 ISZERO PUSH2 0x81C JUMPI RETURNDATASIZE PUSH1 0x0 DUP1 RETURNDATACOPY RETURNDATASIZE PUSH1 0x0 REVERT JUMPDEST POP PUSH1 0x0 DUP1 DUP5 DUP2 MSTORE PUSH1 0x20 ADD SWAP1 DUP2 MSTORE PUSH1 0x20 ADD PUSH1 0x0 KECCAK256 PUSH1 0x4 ADD PUSH1 0x0 ADD PUSH1 0x1 SWAP1 SLOAD SWAP1 PUSH2 0x100 EXP SWAP1 DIV PUSH20 0xFFFFFFFFFFFFFFFFFFFFFFFFFFFFFFFFFFFFFFFF AND PUSH20 0xFFFFFFFFFFFFFFFFFFFFFFFFFFFFFFFFFFFFFFFF AND PUSH2 0x8FC PUSH1 0x0 DUP1 DUP7 DUP2 MSTORE PUSH1 0x20 ADD SWAP1 DUP2 MSTORE PUSH1 0x20 ADD PUSH1 0x0 KECCAK256 PUSH1 0x4 ADD PUSH1 0x1 ADD SLOAD SWAP1 DUP2 ISZERO MUL SWAP1 PUSH1 0x40 MLOAD PUSH1 0x0 PUSH1 0x40 MLOAD DUP1 DUP4 SUB DUP2 DUP6 DUP9 DUP9 CALL SWAP4 POP POP POP POP ISZERO DUP1 ISZERO PUSH2 0x8B3 JUMPI RETURNDATASIZE PUSH1 0x0 DUP1 RETURNDATACOPY RETURNDATASIZE PUSH1 0x0 REVERT JUMPDEST POP PUSH2 0xBBE JUMP JUMPDEST PUSH1 0x0 PUSH1 0x3 DUP2 GT ISZERO PUSH2 0x8CD JUMPI PUSH2 0x8CC PUSH2 0x100D JUMP JUMPDEST JUMPDEST PUSH1 0x0 DUP1 DUP6 DUP2 MSTORE PUSH1 0x20 ADD SWAP1 DUP2 MSTORE PUSH1 0x20 ADD PUSH1 0x0 KECCAK256 PUSH1 0x2 ADD PUSH1 0x0 ADD PUSH1 0x15 SWAP1 SLOAD SWAP1 PUSH2 0x100 EXP SWAP1 DIV PUSH1 0xFF AND PUSH1 0x3 DUP2 GT ISZERO PUSH2 0x905 JUMPI PUSH2 0x904 PUSH2 0x100D JUMP JUMPDEST JUMPDEST SUB PUSH2 0x9A3 JUMPI PUSH1 0x0 DUP1 DUP5 DUP2 MSTORE PUSH1 0x20 ADD SWAP1 DUP2 MSTORE PUSH1 0x20 ADD PUSH1 0x0 KECCAK256 PUSH1 0x2 ADD PUSH1 0x0 ADD PUSH1 0x1 SWAP1 SLOAD SWAP1 PUSH2 0x100 EXP SWAP1 DIV PUSH20 0xFFFFFFFFFFFFFFFFFFFFFFFFFFFFFFFFFFFFFFFF AND PUSH20 0xFFFFFFFFFFFFFFFFFFFFFFFFFFFFFFFFFFFFFFFF AND PUSH2 0x8FC PUSH1 0x0 DUP1 DUP7 DUP2 MSTORE PUSH1 0x20 ADD SWAP1 DUP2 MSTORE PUSH1 0x20 ADD PUSH1 0x0 KECCAK256 PUSH1 0x0 ADD SLOAD SWAP1 DUP2 ISZERO MUL SWAP1 PUSH1 0x40 MLOAD PUSH1 0x0 PUSH1 0x40 MLOAD DUP1 DUP4 SUB DUP2 DUP6 DUP9 DUP9 CALL SWAP4 POP POP POP POP ISZERO DUP1 ISZERO PUSH2 0x99D JUMPI RETURNDATASIZE PUSH1 0x0 DUP1 RETURNDATACOPY RETURNDATASIZE PUSH1 0x0 REVERT JUMPDEST POP PUSH2 0xBBD JUMP JUMPDEST PUSH1 0x0 PUSH1 0x3 DUP2 GT ISZERO PUSH2 0x9B7 JUMPI PUSH2 0x9B6 PUSH2 0x100D JUMP JUMPDEST JUMPDEST PUSH1 0x0 DUP1 DUP6 DUP2 MSTORE PUSH1 0x20 ADD SWAP1 DUP2 MSTORE PUSH1 0x20 ADD PUSH1 0x0 KECCAK256 PUSH1 0x4 ADD PUSH1 0x0 ADD PUSH1 0x15 SWAP1 SLOAD SWAP1 PUSH2 0x100 EXP SWAP1 DIV PUSH1 0xFF AND PUSH1 0x3 DUP2 GT ISZERO PUSH2 0x9EF JUMPI PUSH2 0x9EE PUSH2 0x100D JUMP JUMPDEST JUMPDEST SUB PUSH2 0xA8D JUMPI PUSH1 0x0 DUP1 DUP5 DUP2 MSTORE PUSH1 0x20 ADD SWAP1 DUP2 MSTORE PUSH1 0x20 ADD PUSH1 0x0 KECCAK256 PUSH1 0x4 ADD PUSH1 0x0 ADD PUSH1 0x1 SWAP1 SLOAD SWAP1 PUSH2 0x100 EXP SWAP1 DIV PUSH20 0xFFFFFFFFFFFFFFFFFFFFFFFFFFFFFFFFFFFFFFFF AND PUSH20 0xFFFFFFFFFFFFFFFFFFFFFFFFFFFFFFFFFFFFFFFF AND PUSH2 0x8FC PUSH1 0x0 DUP1 DUP7 DUP2 MSTORE PUSH1 0x20 ADD SWAP1 DUP2 MSTORE PUSH1 0x20 ADD PUSH1 0x0 KECCAK256 PUSH1 0x0 ADD SLOAD SWAP1 DUP2 ISZERO MUL SWAP1 PUSH1 0x40 MLOAD PUSH1 0x0 PUSH1 0x40 MLOAD DUP1 DUP4 SUB DUP2 DUP6 DUP9 DUP9 CALL SWAP4 POP POP POP POP ISZERO DUP1 ISZERO PUSH2 0xA87 JUMPI RETURNDATASIZE PUSH1 0x0 DUP1 RETURNDATACOPY RETURNDATASIZE PUSH1 0x0 REVERT JUMPDEST POP PUSH2 0xBBC JUMP JUMPDEST PUSH1 0x0 DUP1 DUP5 DUP2 MSTORE PUSH1 0x20 ADD SWAP1 DUP2 MSTORE PUSH1 0x20 ADD PUSH1 0x0 KECCAK256 PUSH1 0x2 ADD PUSH1 0x0 ADD PUSH1 0x1 SWAP1 SLOAD SWAP1 PUSH2 0x100 EXP SWAP1 DIV PUSH20 0xFFFFFFFFFFFFFFFFFFFFFFFFFFFFFFFFFFFFFFFF AND PUSH20 0xFFFFFFFFFFFFFFFFFFFFFFFFFFFFFFFFFFFFFFFF AND PUSH2 0x8FC PUSH1 0x0 DUP1 DUP7 DUP2 MSTORE PUSH1 0x20 ADD SWAP1 DUP2 MSTORE PUSH1 0x20 ADD PUSH1 0x0 KECCAK256 PUSH1 0x2 ADD PUSH1 0x1 ADD SLOAD SWAP1 DUP2 ISZERO MUL SWAP1 PUSH1 0x40 MLOAD PUSH1 0x0 PUSH1 0x40 MLOAD DUP1 DUP4 SUB DUP2 DUP6 DUP9 DUP9 CALL SWAP4 POP POP POP POP ISZERO DUP1 ISZERO PUSH2 0xB23 JUMPI RETURNDATASIZE PUSH1 0x0 DUP1 RETURNDATACOPY RETURNDATASIZE PUSH1 0x0 REVERT JUMPDEST POP PUSH1 0x0 DUP1 DUP5 DUP2 MSTORE PUSH1 0x20 ADD SWAP1 DUP2 MSTORE PUSH1 0x20 ADD PUSH1 0x0 KECCAK256 PUSH1 0x4 ADD PUSH1 0x0 ADD PUSH1 0x1 SWAP1 SLOAD SWAP1 PUSH2 0x100 EXP SWAP1 DIV PUSH20 0xFFFFFFFFFFFFFFFFFFFFFFFFFFFFFFFFFFFFFFFF AND PUSH20 0xFFFFFFFFFFFFFFFFFFFFFFFFFFFFFFFFFFFFFFFF AND PUSH2 0x8FC PUSH1 0x0 DUP1 DUP7 DUP2 MSTORE PUSH1 0x20 ADD SWAP1 DUP2 MSTORE PUSH1 0x20 ADD PUSH1 0x0 KECCAK256 PUSH1 0x4 ADD PUSH1 0x1 ADD SLOAD SWAP1 DUP2 ISZERO MUL SWAP1 PUSH1 0x40 MLOAD PUSH1 0x0 PUSH1 0x40 MLOAD DUP1 DUP4 SUB DUP2 DUP6 DUP9 DUP9 CALL SWAP4 POP POP POP POP ISZERO DUP1 ISZERO PUSH2 0xBBA JUMPI RETURNDATASIZE PUSH1 0x0 DUP1 RETURNDATACOPY RETURNDATASIZE PUSH1 0x0 REVERT JUMPDEST POP JUMPDEST JUMPDEST JUMPDEST PUSH1 0x2 PUSH1 0x0 DUP1 DUP6 DUP2 MSTORE PUSH1 0x20 ADD SWAP1 DUP2 MSTORE PUSH1 0x20 ADD PUSH1 0x0 KECCAK256 PUSH1 0x1 ADD PUSH1 0x0 PUSH2 0x100 EXP DUP2 SLOAD DUP2 PUSH1 0xFF MUL NOT AND SWAP1 DUP4 PUSH1 0x3 DUP2 GT ISZERO PUSH2 0xBF7 JUMPI PUSH2 0xBF6 PUSH2 0x100D JUMP JUMPDEST JUMPDEST MUL OR SWAP1 SSTORE POP POP POP POP JUMP JUMPDEST PUSH1 0x0 DUP1 PUSH1 0x0 DUP4 DUP2 MSTORE PUSH1 0x20 ADD SWAP1 DUP2 MSTORE PUSH1 0x20 ADD PUSH1 0x0 KECCAK256 PUSH1 0x2 ADD PUSH1 0x0 ADD PUSH1 0x0 SWAP1 SLOAD SWAP1 PUSH2 0x100 EXP SWAP1 DIV PUSH1 0xFF AND PUSH1 0x2 DUP2 GT ISZERO PUSH2 0xC3B JUMPI PUSH2 0xC3A PUSH2 0x100D JUMP JUMPDEST JUMPDEST SWAP1 POP PUSH1 0x0 DUP1 PUSH1 0x0 DUP5 DUP2 MSTORE PUSH1 0x20 ADD SWAP1 DUP2 MSTORE PUSH1 0x20 ADD PUSH1 0x0 KECCAK256 PUSH1 0x4 ADD PUSH1 0x0 ADD PUSH1 0x0 SWAP1 SLOAD SWAP1 PUSH2 0x100 EXP SWAP1 DIV PUSH1 0xFF AND PUSH1 0x2 DUP2 GT ISZERO PUSH2 0xC77 JUMPI PUSH2 0xC76 PUSH2 0x100D JUMP JUMPDEST JUMPDEST SWAP1 POP PUSH1 0x1 PUSH1 0x0 DUP1 DUP6 DUP2 MSTORE PUSH1 0x20 ADD SWAP1 DUP2 MSTORE PUSH1 0x20 ADD PUSH1 0x0 KECCAK256 PUSH1 0x1 ADD PUSH1 0x0 PUSH2 0x100 EXP DUP2 SLOAD DUP2 PUSH1 0xFF MUL NOT AND SWAP1 DUP4 PUSH1 0x3 DUP2 GT ISZERO PUSH2 0xCB2 JUMPI PUSH2 0xCB1 PUSH2 0x100D JUMP JUMPDEST JUMPDEST MUL OR SWAP1 SSTORE POP DUP2 PUSH1 0xFF AND DUP2 PUSH1 0xFF AND SUB PUSH2 0xD4B JUMPI PUSH1 0x2 PUSH1 0x0 DUP1 DUP6 DUP2 MSTORE PUSH1 0x20 ADD SWAP1 DUP2 MSTORE PUSH1 0x20 ADD PUSH1 0x0 KECCAK256 PUSH1 0x2 ADD PUSH1 0x0 ADD PUSH1 0x15 PUSH2 0x100 EXP DUP2 SLOAD DUP2 PUSH1 0xFF MUL NOT AND SWAP1 DUP4 PUSH1 0x3 DUP2 GT ISZERO PUSH2 0xD00 JUMPI PUSH2 0xCFF PUSH2 0x100D JUMP JUMPDEST JUMPDEST MUL OR SWAP1 SSTORE POP PUSH1 0x2 PUSH1 0x0 DUP1 DUP6 DUP2 MSTORE PUSH1 0x20 ADD SWAP1 DUP2 MSTORE PUSH1 0x20 ADD PUSH1 0x0 KECCAK256 PUSH1 0x4 ADD PUSH1 0x0 ADD PUSH1 0x15 PUSH2 0x100 EXP DUP2 SLOAD DUP2 PUSH1 0xFF MUL NOT AND SWAP1 DUP4 PUSH1 0x3 DUP2 GT ISZERO PUSH2 0xD41 JUMPI PUSH2 0xD40 PUSH2 0x100D JUMP JUMPDEST JUMPDEST MUL OR SWAP1 SSTORE POP PUSH2 0xEE4 JUMP JUMPDEST DUP2 PUSH1 0xFF AND PUSH1 0x3 PUSH1 0x1 DUP4 PUSH2 0xD5E SWAP2 SWAP1 PUSH2 0x10CE JUMP JUMPDEST PUSH2 0xD68 SWAP2 SWAP1 PUSH2 0x1134 JUMP JUMPDEST PUSH1 0xFF AND SUB PUSH2 0xDF7 JUMPI PUSH1 0x0 DUP1 PUSH1 0x0 DUP6 DUP2 MSTORE PUSH1 0x20 ADD SWAP1 DUP2 MSTORE PUSH1 0x20 ADD PUSH1 0x0 KECCAK256 PUSH1 0x2 ADD PUSH1 0x0 ADD PUSH1 0x15 PUSH2 0x100 EXP DUP2 SLOAD DUP2 PUSH1 0xFF MUL NOT AND SWAP1 DUP4 PUSH1 0x3 DUP2 GT ISZERO PUSH2 0xDAC JUMPI PUSH2 0xDAB PUSH2 0x100D JUMP JUMPDEST JUMPDEST MUL OR SWAP1 SSTORE POP PUSH1 0x1 PUSH1 0x0 DUP1 DUP6 DUP2 MSTORE PUSH1 0x20 ADD SWAP1 DUP2 MSTORE PUSH1 0x20 ADD PUSH1 0x0 KECCAK256 PUSH1 0x4 ADD PUSH1 0x0 ADD PUSH1 0x15 PUSH2 0x100 EXP DUP2 SLOAD DUP2 PUSH1 0xFF MUL NOT AND SWAP1 DUP4 PUSH1 0x3 DUP2 GT ISZERO PUSH2 0xDED JUMPI PUSH2 0xDEC PUSH2 0x100D JUMP JUMPDEST JUMPDEST MUL OR SWAP1 SSTORE POP PUSH2 0xEE3 JUMP JUMPDEST DUP1 PUSH1 0xFF AND PUSH1 0x3 PUSH1 0x1 DUP5 PUSH2 0xE0A SWAP2 SWAP1 PUSH2 0x10CE JUMP JUMPDEST PUSH2 0xE14 SWAP2 SWAP1 PUSH2 0x1134 JUMP JUMPDEST PUSH1 0xFF AND SUB PUSH2 0xEA3 JUMPI PUSH1 0x1 PUSH1 0x0 DUP1 DUP6 DUP2 MSTORE PUSH1 0x20 ADD SWAP1 DUP2 MSTORE PUSH1 0x20 ADD PUSH1 0x0 KECCAK256 PUSH1 0x2 ADD PUSH1 0x0 ADD PUSH1 0x15 PUSH2 0x100 EXP DUP2 SLOAD DUP2 PUSH1 0xFF MUL NOT AND SWAP1 DUP4 PUSH1 0x3 DUP2 GT ISZERO PUSH2 0xE58 JUMPI PUSH2 0xE57 PUSH2 0x100D JUMP JUMPDEST JUMPDEST MUL OR SWAP1 SSTORE POP PUSH1 0x0 DUP1 PUSH1 0x0 DUP6 DUP2 MSTORE PUSH1 0x20 ADD SWAP1 DUP2 MSTORE PUSH1 0x20 ADD PUSH1 0x0 KECCAK256 PUSH1 0x4 ADD PUSH1 0x0 ADD PUSH1 0x15 PUSH2 0x100 EXP DUP2 SLOAD DUP2 PUSH1 0xFF MUL NOT AND SWAP1 DUP4 PUSH1 0x3 DUP2 GT ISZERO PUSH2 0xE99 JUMPI PUSH2 0xE98 PUSH2 0x100D JUMP JUMPDEST JUMPDEST MUL OR SWAP1 SSTORE POP PUSH2 0xEE2 JUMP JUMPDEST PUSH1 0x3 PUSH1 0x0 DUP1 DUP6 DUP2 MSTORE PUSH1 0x20 ADD SWAP1 DUP2 MSTORE PUSH1 0x20 ADD PUSH1 0x0 KECCAK256 PUSH1 0x1 ADD PUSH1 0x0 PUSH2 0x100 EXP DUP2 SLOAD DUP2 PUSH1 0xFF MUL NOT AND SWAP1 DUP4 PUSH1 0x3 DUP2 GT ISZERO PUSH2 0xEDC JUMPI PUSH2 0xEDB PUSH2 0x100D JUMP JUMPDEST JUMPDEST MUL OR SWAP1 SSTORE POP JUMPDEST JUMPDEST JUMPDEST POP POP POP JUMP JUMPDEST PUSH1 0x0 DUP1 REVERT JUMPDEST PUSH1 0x3 DUP2 LT PUSH2 0xEFB JUMPI PUSH1 0x0 DUP1 REVERT JUMPDEST POP JUMP JUMPDEST PUSH1 0x0 DUP2 CALLDATALOAD SWAP1 POP PUSH2 0xF0D DUP2 PUSH2 0xEEE JUMP JUMPDEST SWAP3 SWAP2 POP POP JUMP JUMPDEST PUSH1 0x0 PUSH1 0x20 DUP3 DUP5 SUB SLT ISZERO PUSH2 0xF29 JUMPI PUSH2 0xF28 PUSH2 0xEE9 JUMP JUMPDEST JUMPDEST PUSH1 0x0 PUSH2 0xF37 DUP5 DUP3 DUP6 ADD PUSH2 0xEFE JUMP JUMPDEST SWAP2 POP POP SWAP3 SWAP2 POP POP JUMP JUMPDEST PUSH1 0x0 DUP2 SWAP1 POP SWAP2 SWAP1 POP JUMP JUMPDEST PUSH2 0xF53 DUP2 PUSH2 0xF40 JUMP JUMPDEST DUP3 MSTORE POP POP JUMP JUMPDEST PUSH1 0x0 PUSH1 0x20 DUP3 ADD SWAP1 POP PUSH2 0xF6E PUSH1 0x0 DUP4 ADD DUP5 PUSH2 0xF4A JUMP JUMPDEST SWAP3 SWAP2 POP POP JUMP JUMPDEST PUSH2 0xF7D DUP2 PUSH2 0xF40 JUMP JUMPDEST DUP2 EQ PUSH2 0xF88 JUMPI PUSH1 0x0 DUP1 REVERT JUMPDEST POP JUMP JUMPDEST PUSH1 0x0 DUP2 CALLDATALOAD SWAP1 POP PUSH2 0xF9A DUP2 PUSH2 0xF74 JUMP JUMPDEST SWAP3 SWAP2 POP POP JUMP JUMPDEST PUSH1 0x0 DUP1 PUSH1 0x40 DUP4 DUP6 SUB SLT ISZERO PUSH2 0xFB7 JUMPI PUSH2 0xFB6 PUSH2 0xEE9 JUMP JUMPDEST JUMPDEST PUSH1 0x0 PUSH2 0xFC5 DUP6 DUP3 DUP7 ADD PUSH2 0xF8B JUMP JUMPDEST SWAP3 POP POP PUSH1 0x20 PUSH2 0xFD6 DUP6 DUP3 DUP7 ADD PUSH2 0xEFE JUMP JUMPDEST SWAP2 POP POP SWAP3 POP SWAP3 SWAP1 POP JUMP JUMPDEST PUSH1 0x0 PUSH1 0x20 DUP3 DUP5 SUB SLT ISZERO PUSH2 0xFF6 JUMPI PUSH2 0xFF5 PUSH2 0xEE9 JUMP JUMPDEST JUMPDEST PUSH1 0x0 PUSH2 0x1004 DUP5 DUP3 DUP6 ADD PUSH2 0xF8B JUMP JUMPDEST SWAP2 POP POP SWAP3 SWAP2 POP POP JUMP JUMPDEST PUSH32 0x4E487B7100000000000000000000000000000000000000000000000000000000 PUSH1 0x0 MSTORE PUSH1 0x21 PUSH1 0x4 MSTORE PUSH1 0x24 PUSH1 0x0 REVERT JUMPDEST PUSH32 0x4E487B7100000000000000000000000000000000000000000000000000000000 PUSH1 0x0 MSTORE PUSH1 0x11 PUSH1 0x4 MSTORE PUSH1 0x24 PUSH1 0x0 REVERT JUMPDEST PUSH1 0x0 PUSH2 0x1076 DUP3 PUSH2 0xF40 JUMP JUMPDEST SWAP2 POP PUSH2 0x1081 DUP4 PUSH2 0xF40 JUMP JUMPDEST SWAP3 POP DUP3 PUSH32 0xFFFFFFFFFFFFFFFFFFFFFFFFFFFFFFFFFFFFFFFFFFFFFFFFFFFFFFFFFFFFFFFF SUB DUP3 GT ISZERO PUSH2 0x10B6 JUMPI PUSH2 0x10B5 PUSH2 0x103C JUMP JUMPDEST JUMPDEST DUP3 DUP3 ADD SWAP1 POP SWAP3 SWAP2 POP POP JUMP JUMPDEST PUSH1 0x0 PUSH1 0xFF DUP3 AND SWAP1 POP SWAP2 SWAP1 POP JUMP JUMPDEST PUSH1 0x0 PUSH2 0x10D9 DUP3 PUSH2 0x10C1 JUMP JUMPDEST SWAP2 POP PUSH2 0x10E4 DUP4 PUSH2 0x10C1 JUMP JUMPDEST SWAP3 POP DUP3 PUSH1 0xFF SUB DUP3 GT ISZERO PUSH2 0x10FA JUMPI PUSH2 0x10F9 PUSH2 0x103C JUMP JUMPDEST JUMPDEST DUP3 DUP3 ADD SWAP1 POP SWAP3 SWAP2 POP POP JUMP JUMPDEST PUSH32 0x4E487B7100000000000000000000000000000000000000000000000000000000 PUSH1 0x0 MSTORE PUSH1 0x12 PUSH1 0x4 MSTORE PUSH1 0x24 PUSH1 0x0 REVERT JUMPDEST PUSH1 0x0 PUSH2 0x113F DUP3 PUSH2 0x10C1 JUMP JUMPDEST SWAP2 POP PUSH2 0x114A DUP4 PUSH2 0x10C1 JUMP JUMPDEST SWAP3 POP DUP3 PUSH2 0x115A JUMPI PUSH2 0x1159 PUSH2 0x1105 JUMP JUMPDEST JUMPDEST DUP3 DUP3 MOD SWAP1 POP SWAP3 SWAP2 POP POP JUMP INVALID LOG2 PUSH5 0x6970667358 0x22 SLT KECCAK256 0xD5 0x23 0xF6 0x5C PUSH27 0x5173A65B592C0D36D8DA442D9A0087621976265434825231D6FBBE PUSH5 0x736F6C6343 STOP ADDMOD 0xE STOP CALLER "
				},
				"gasEstimates": {
					"creation": {
						"codeDepositCost": "901400",
						"executionCost": "5917",
						"totalCost": "907317"
					},
					"external": {
						"createRoom(uint8)": "infinite",
						"joinRoom(uint256,uint8)": "infinite",
						"payout(uint256)": "infinite"
					},
					"internal": {
						"compareHands(uint256)": "infinite"
					}
				},
				"methodIdentifiers": {
					"createRoom(uint8)": "0f36f3b5",
					"joinRoom(uint256,uint8)": "79b15776",
					"payout(uint256)": "e1152343"
				}
			},
			"storageLayout": {
				"storage": [
					{
						"astId": 47,
						"contract": "rsp_all.sol:RPS",
						"label": "rooms",
						"offset": 0,
						"slot": "0",
						"type": "t_mapping(t_uint256,t_struct(Game)42_storage)"
					},
					{
						"astId": 50,
						"contract": "rsp_all.sol:RPS",
						"label": "roomLen",
						"offset": 0,
						"slot": "1",
						"type": "t_uint256"
					}
				],
				"types": {
					"t_address_payable": {
						"encoding": "inplace",
						"label": "address payable",
						"numberOfBytes": "20"
					},
					"t_enum(GameStatus)19": {
						"encoding": "inplace",
						"label": "enum RPS.GameStatus",
						"numberOfBytes": "1"
					},
					"t_enum(Hand)9": {
						"encoding": "inplace",
						"label": "enum RPS.Hand",
						"numberOfBytes": "1"
					},
					"t_enum(PlayerStatus)14": {
						"encoding": "inplace",
						"label": "enum RPS.PlayerStatus",
						"numberOfBytes": "1"
					},
					"t_mapping(t_uint256,t_struct(Game)42_storage)": {
						"encoding": "mapping",
						"key": "t_uint256",
						"label": "mapping(uint256 => struct RPS.Game)",
						"numberOfBytes": "32",
						"value": "t_struct(Game)42_storage"
					},
					"t_struct(Game)42_storage": {
						"encoding": "inplace",
						"label": "struct RPS.Game",
						"members": [
							{
								"astId": 32,
								"contract": "rsp_all.sol:RPS",
								"label": "betAmount",
								"offset": 0,
								"slot": "0",
								"type": "t_uint256"
							},
							{
								"astId": 35,
								"contract": "rsp_all.sol:RPS",
								"label": "gameStatus",
								"offset": 0,
								"slot": "1",
								"type": "t_enum(GameStatus)19"
							},
							{
								"astId": 38,
								"contract": "rsp_all.sol:RPS",
								"label": "originator",
								"offset": 0,
								"slot": "2",
								"type": "t_struct(Player)30_storage"
							},
							{
								"astId": 41,
								"contract": "rsp_all.sol:RPS",
								"label": "taker",
								"offset": 0,
								"slot": "4",
								"type": "t_struct(Player)30_storage"
							}
						],
						"numberOfBytes": "192"
					},
					"t_struct(Player)30_storage": {
						"encoding": "inplace",
						"label": "struct RPS.Player",
						"members": [
							{
								"astId": 22,
								"contract": "rsp_all.sol:RPS",
								"label": "hand",
								"offset": 0,
								"slot": "0",
								"type": "t_enum(Hand)9"
							},
							{
								"astId": 24,
								"contract": "rsp_all.sol:RPS",
								"label": "addr",
								"offset": 1,
								"slot": "0",
								"type": "t_address_payable"
							},
							{
								"astId": 27,
								"contract": "rsp_all.sol:RPS",
								"label": "playerStatus",
								"offset": 21,
								"slot": "0",
								"type": "t_enum(PlayerStatus)14"
							},
							{
								"astId": 29,
								"contract": "rsp_all.sol:RPS",
								"label": "playerBetAmount",
								"offset": 0,
								"slot": "1",
								"type": "t_uint256"
							}
						],
						"numberOfBytes": "64"
					},
					"t_uint256": {
						"encoding": "inplace",
						"label": "uint256",
						"numberOfBytes": "32"
					}
				}
			},
			"userdoc": {
				"kind": "user",
				"methods": {},
				"version": 1
			}
		}
	}
}