{
	"rsp_all.sol": {
		"RPS": {
			"abi": [
				{
					"inputs": [],
					"stateMutability": "payable",
					"type": "constructor"
				},
				{
					"inputs": [
						{
							"internalType": "uint256",
							"name": "_hand",
							"type": "uint256"
						},
						{
							"internalType": "address",
							"name": "_owner",
							"type": "address"
						}
					],
					"name": "Encryption",
					"outputs": [
						{
							"internalType": "bytes32",
							"name": "",
							"type": "bytes32"
						}
					],
					"stateMutability": "pure",
					"type": "function"
				},
				{
					"inputs": [
						{
							"internalType": "enum RPS.Hand",
							"name": "_hand",
							"type": "uint8"
						}
					],
					"name": "createRoom",
					"outputs": [
						{
							"internalType": "uint256",
							"name": "roomNum",
							"type": "uint256"
						}
					],
					"stateMutability": "payable",
					"type": "function"
				},
				{
					"inputs": [
						{
							"internalType": "uint256",
							"name": "roomNum",
							"type": "uint256"
						},
						{
							"internalType": "enum RPS.Hand",
							"name": "_hand",
							"type": "uint8"
						}
					],
					"name": "joinRoom",
					"outputs": [],
					"stateMutability": "payable",
					"type": "function"
				},
				{
					"inputs": [
						{
							"internalType": "uint256",
							"name": "roomNum",
							"type": "uint256"
						}
					],
					"name": "payout",
					"outputs": [],
					"stateMutability": "payable",
					"type": "function"
				}
			],
			"devdoc": {
				"kind": "dev",
				"methods": {},
				"version": 1
			},
			"evm": {
				"assembly": "    /* \"rsp_all.sol\":56:5030  contract RPS {... */\n  mstore(0x40, 0x80)\n    /* \"rsp_all.sol\":1083:1084  0 */\n  0x00\n    /* \"rsp_all.sol\":1068:1084  uint roomLen = 0 */\n  0x01\n  sstore\n    /* \"rsp_all.sol\":56:5030  contract RPS {... */\n  dataSize(sub_0)\n  dup1\n  dataOffset(sub_0)\n  0x00\n  codecopy\n  0x00\n  return\nstop\n\nsub_0: assembly {\n        /* \"rsp_all.sol\":56:5030  contract RPS {... */\n      mstore(0x40, 0x80)\n      jumpi(tag_1, lt(calldatasize, 0x04))\n      shr(0xe0, calldataload(0x00))\n      dup1\n      0x0f36f3b5\n      eq\n      tag_2\n      jumpi\n      dup1\n      0x7581a183\n      eq\n      tag_3\n      jumpi\n      dup1\n      0x79b15776\n      eq\n      tag_4\n      jumpi\n      dup1\n      0xe1152343\n      eq\n      tag_5\n      jumpi\n    tag_1:\n      0x00\n      dup1\n      revert\n        /* \"rsp_all.sol\":1639:2446  function createRoom (Hand _hand) public payable isValidHand(_hand) returns (uint roomNum) {... */\n    tag_2:\n      tag_6\n      0x04\n      dup1\n      calldatasize\n      sub\n      dup2\n      add\n      swap1\n      tag_7\n      swap2\n      swap1\n      tag_8\n      jump\t// in\n    tag_7:\n      tag_9\n      jump\t// in\n    tag_6:\n      mload(0x40)\n      tag_10\n      swap2\n      swap1\n      tag_11\n      jump\t// in\n    tag_10:\n      mload(0x40)\n      dup1\n      swap2\n      sub\n      swap1\n      return\n        /* \"rsp_all.sol\":1430:1633  function Encryption(uint256 _hand, address _owner) public pure returns (bytes32){... */\n    tag_3:\n      callvalue\n      dup1\n      iszero\n      tag_12\n      jumpi\n      0x00\n      dup1\n      revert\n    tag_12:\n      pop\n      tag_13\n      0x04\n      dup1\n      calldatasize\n      sub\n      dup2\n      add\n      swap1\n      tag_14\n      swap2\n      swap1\n      tag_15\n      jump\t// in\n    tag_14:\n      tag_16\n      jump\t// in\n    tag_13:\n      mload(0x40)\n      tag_17\n      swap2\n      swap1\n      tag_18\n      jump\t// in\n    tag_17:\n      mload(0x40)\n      dup1\n      swap2\n      sub\n      swap1\n      return\n        /* \"rsp_all.sol\":2456:2952  function joinRoom(uint roomNum, Hand _hand) public payable isValidHand( _hand) {... */\n    tag_4:\n      tag_19\n      0x04\n      dup1\n      calldatasize\n      sub\n      dup2\n      add\n      swap1\n      tag_20\n      swap2\n      swap1\n      tag_21\n      jump\t// in\n    tag_20:\n      tag_22\n      jump\t// in\n    tag_19:\n      stop\n        /* \"rsp_all.sol\":2962:4021  function payout(uint roomNum) public payable isPlayer(roomNum, msg.sender) {... */\n    tag_5:\n      tag_23\n      0x04\n      dup1\n      calldatasize\n      sub\n      dup2\n      add\n      swap1\n      tag_24\n      swap2\n      swap1\n      tag_25\n      jump\t// in\n    tag_24:\n      tag_26\n      jump\t// in\n    tag_23:\n      stop\n        /* \"rsp_all.sol\":1639:2446  function createRoom (Hand _hand) public payable isValidHand(_hand) returns (uint roomNum) {... */\n    tag_9:\n        /* \"rsp_all.sol\":1715:1727  uint roomNum */\n      0x00\n        /* \"rsp_all.sol\":1699:1704  _hand */\n      dup2\n        /* \"rsp_all.sol\":1158:1167  Hand.rock */\n      0x00\n        /* \"rsp_all.sol\":1148:1167  _hand  == Hand.rock */\n      0x02\n      dup2\n      gt\n      iszero\n      tag_28\n      jumpi\n      tag_29\n      tag_30\n      jump\t// in\n    tag_29:\n    tag_28:\n        /* \"rsp_all.sol\":1148:1153  _hand */\n      dup2\n        /* \"rsp_all.sol\":1148:1167  _hand  == Hand.rock */\n      0x02\n      dup2\n      gt\n      iszero\n      tag_31\n      jumpi\n      tag_32\n      tag_30\n      jump\t// in\n    tag_32:\n    tag_31:\n      eq\n        /* \"rsp_all.sol\":1147:1194  (_hand  == Hand.rock) || (_hand  == Hand.paper) */\n      dup1\n      tag_33\n      jumpi\n      pop\n        /* \"rsp_all.sol\":1183:1193  Hand.paper */\n      0x01\n        /* \"rsp_all.sol\":1173:1193  _hand  == Hand.paper */\n      0x02\n      dup2\n      gt\n      iszero\n      tag_34\n      jumpi\n      tag_35\n      tag_30\n      jump\t// in\n    tag_35:\n    tag_34:\n        /* \"rsp_all.sol\":1173:1178  _hand */\n      dup2\n        /* \"rsp_all.sol\":1173:1193  _hand  == Hand.paper */\n      0x02\n      dup2\n      gt\n      iszero\n      tag_36\n      jumpi\n      tag_37\n      tag_30\n      jump\t// in\n    tag_37:\n    tag_36:\n      eq\n        /* \"rsp_all.sol\":1147:1194  (_hand  == Hand.rock) || (_hand  == Hand.paper) */\n    tag_33:\n        /* \"rsp_all.sol\":1147:1222  (_hand  == Hand.rock) || (_hand  == Hand.paper) || (_hand == Hand.scissors) */\n      dup1\n      tag_38\n      jumpi\n      pop\n        /* \"rsp_all.sol\":1208:1221  Hand.scissors */\n      0x02\n        /* \"rsp_all.sol\":1199:1221  _hand == Hand.scissors */\n      dup1\n      dup2\n      gt\n      iszero\n      tag_39\n      jumpi\n      tag_40\n      tag_30\n      jump\t// in\n    tag_40:\n    tag_39:\n        /* \"rsp_all.sol\":1199:1204  _hand */\n      dup2\n        /* \"rsp_all.sol\":1199:1221  _hand == Hand.scissors */\n      0x02\n      dup2\n      gt\n      iszero\n      tag_41\n      jumpi\n      tag_42\n      tag_30\n      jump\t// in\n    tag_42:\n    tag_41:\n      eq\n        /* \"rsp_all.sol\":1147:1222  (_hand  == Hand.rock) || (_hand  == Hand.paper) || (_hand == Hand.scissors) */\n    tag_38:\n        /* \"rsp_all.sol\":1139:1223  require((_hand  == Hand.rock) || (_hand  == Hand.paper) || (_hand == Hand.scissors)) */\n      tag_43\n      jumpi\n      0x00\n      dup1\n      revert\n    tag_43:\n        /* \"rsp_all.sol\":1756:2315  Game({... */\n      mload(0x40)\n      dup1\n      0x80\n      add\n      0x40\n      mstore\n      dup1\n        /* \"rsp_all.sol\":1786:1795  msg.value */\n      callvalue\n        /* \"rsp_all.sol\":1756:2315  Game({... */\n      dup2\n      mstore\n      0x20\n      add\n        /* \"rsp_all.sol\":1821:1850  GameStatus.STATUS_NOT_STARTED */\n      0x00\n        /* \"rsp_all.sol\":1756:2315  Game({... */\n      0x03\n      dup2\n      gt\n      iszero\n      tag_45\n      jumpi\n      tag_46\n      tag_30\n      jump\t// in\n    tag_46:\n    tag_45:\n      dup2\n      mstore\n      0x20\n      add\n        /* \"rsp_all.sol\":1876:2073  Player({... */\n      mload(0x40)\n      dup1\n      0x80\n      add\n      0x40\n      mstore\n      dup1\n        /* \"rsp_all.sol\":1907:1912  _hand */\n      dup7\n        /* \"rsp_all.sol\":1876:2073  Player({... */\n      0x02\n      dup2\n      gt\n      iszero\n      tag_47\n      jumpi\n      tag_48\n      tag_30\n      jump\t// in\n    tag_48:\n    tag_47:\n      dup2\n      mstore\n      0x20\n      add\n        /* \"rsp_all.sol\":1944:1954  msg.sender */\n      caller\n        /* \"rsp_all.sol\":1876:2073  Player({... */\n      0xffffffffffffffffffffffffffffffffffffffff\n      and\n      dup2\n      mstore\n      0x20\n      add\n        /* \"rsp_all.sol\":1987:2014  PlayerStatus.STATUS_PENDING */\n      0x03\n        /* \"rsp_all.sol\":1876:2073  Player({... */\n      dup1\n      dup2\n      gt\n      iszero\n      tag_49\n      jumpi\n      tag_50\n      tag_30\n      jump\t// in\n    tag_50:\n    tag_49:\n      dup2\n      mstore\n      0x20\n      add\n        /* \"rsp_all.sol\":2049:2058  msg.value */\n      callvalue\n        /* \"rsp_all.sol\":1876:2073  Player({... */\n      dup2\n      mstore\n      pop\n        /* \"rsp_all.sol\":1756:2315  Game({... */\n      dup2\n      mstore\n      0x20\n      add\n        /* \"rsp_all.sol\":2094:2304  Player({ // will change... */\n      mload(0x40)\n      dup1\n      0x80\n      add\n      0x40\n      mstore\n      dup1\n        /* \"rsp_all.sol\":2140:2149  Hand.rock */\n      0x00\n        /* \"rsp_all.sol\":2094:2304  Player({ // will change... */\n      0x02\n      dup2\n      gt\n      iszero\n      tag_51\n      jumpi\n      tag_52\n      tag_30\n      jump\t// in\n    tag_52:\n    tag_51:\n      dup2\n      mstore\n      0x20\n      add\n        /* \"rsp_all.sol\":2181:2191  msg.sender */\n      caller\n        /* \"rsp_all.sol\":2094:2304  Player({ // will change... */\n      0xffffffffffffffffffffffffffffffffffffffff\n      and\n      dup2\n      mstore\n      0x20\n      add\n        /* \"rsp_all.sol\":2226:2253  PlayerStatus.STATUS_PENDING */\n      0x03\n        /* \"rsp_all.sol\":2094:2304  Player({ // will change... */\n      dup1\n      dup2\n      gt\n      iszero\n      tag_53\n      jumpi\n      tag_54\n      tag_30\n      jump\t// in\n    tag_54:\n    tag_53:\n      dup2\n      mstore\n      0x20\n      add\n        /* \"rsp_all.sol\":2288:2289  0 */\n      0x00\n        /* \"rsp_all.sol\":2094:2304  Player({ // will change... */\n      dup2\n      mstore\n      pop\n        /* \"rsp_all.sol\":1756:2315  Game({... */\n      dup2\n      mstore\n      pop\n        /* \"rsp_all.sol\":1739:1744  rooms */\n      0x00\n        /* \"rsp_all.sol\":1739:1753  rooms[roomLen] */\n      dup1\n        /* \"rsp_all.sol\":1745:1752  roomLen */\n      sload(0x01)\n        /* \"rsp_all.sol\":1739:1753  rooms[roomLen] */\n      dup2\n      mstore\n      0x20\n      add\n      swap1\n      dup2\n      mstore\n      0x20\n      add\n      0x00\n      keccak256\n        /* \"rsp_all.sol\":1739:2315  rooms[roomLen] = Game({... */\n      0x00\n      dup3\n      add\n      mload\n      dup2\n      0x00\n      add\n      sstore\n      0x20\n      dup3\n      add\n      mload\n      dup2\n      0x01\n      add\n      exp(0x0100, 0x00)\n      dup2\n      sload\n      dup2\n      0xff\n      mul\n      not\n      and\n      swap1\n      dup4\n      0x03\n      dup2\n      gt\n      iszero\n      tag_55\n      jumpi\n      tag_56\n      tag_30\n      jump\t// in\n    tag_56:\n    tag_55:\n      mul\n      or\n      swap1\n      sstore\n      pop\n      0x40\n      dup3\n      add\n      mload\n      dup2\n      0x02\n      add\n      0x00\n      dup3\n      add\n      mload\n      dup2\n      0x00\n      add\n      exp(0x0100, 0x00)\n      dup2\n      sload\n      dup2\n      0xff\n      mul\n      not\n      and\n      swap1\n      dup4\n      0x02\n      dup2\n      gt\n      iszero\n      tag_57\n      jumpi\n      tag_58\n      tag_30\n      jump\t// in\n    tag_58:\n    tag_57:\n      mul\n      or\n      swap1\n      sstore\n      pop\n      0x20\n      dup3\n      add\n      mload\n      dup2\n      0x00\n      add\n      exp(0x0100, 0x01)\n      dup2\n      sload\n      dup2\n      0xffffffffffffffffffffffffffffffffffffffff\n      mul\n      not\n      and\n      swap1\n      dup4\n      0xffffffffffffffffffffffffffffffffffffffff\n      and\n      mul\n      or\n      swap1\n      sstore\n      pop\n      0x40\n      dup3\n      add\n      mload\n      dup2\n      0x00\n      add\n      exp(0x0100, 0x15)\n      dup2\n      sload\n      dup2\n      0xff\n      mul\n      not\n      and\n      swap1\n      dup4\n      0x03\n      dup2\n      gt\n      iszero\n      tag_59\n      jumpi\n      tag_60\n      tag_30\n      jump\t// in\n    tag_60:\n    tag_59:\n      mul\n      or\n      swap1\n      sstore\n      pop\n      0x60\n      dup3\n      add\n      mload\n      dup2\n      0x01\n      add\n      sstore\n      pop\n      pop\n      0x60\n      dup3\n      add\n      mload\n      dup2\n      0x04\n      add\n      0x00\n      dup3\n      add\n      mload\n      dup2\n      0x00\n      add\n      exp(0x0100, 0x00)\n      dup2\n      sload\n      dup2\n      0xff\n      mul\n      not\n      and\n      swap1\n      dup4\n      0x02\n      dup2\n      gt\n      iszero\n      tag_61\n      jumpi\n      tag_62\n      tag_30\n      jump\t// in\n    tag_62:\n    tag_61:\n      mul\n      or\n      swap1\n      sstore\n      pop\n      0x20\n      dup3\n      add\n      mload\n      dup2\n      0x00\n      add\n      exp(0x0100, 0x01)\n      dup2\n      sload\n      dup2\n      0xffffffffffffffffffffffffffffffffffffffff\n      mul\n      not\n      and\n      swap1\n      dup4\n      0xffffffffffffffffffffffffffffffffffffffff\n      and\n      mul\n      or\n      swap1\n      sstore\n      pop\n      0x40\n      dup3\n      add\n      mload\n      dup2\n      0x00\n      add\n      exp(0x0100, 0x15)\n      dup2\n      sload\n      dup2\n      0xff\n      mul\n      not\n      and\n      swap1\n      dup4\n      0x03\n      dup2\n      gt\n      iszero\n      tag_63\n      jumpi\n      tag_64\n      tag_30\n      jump\t// in\n    tag_64:\n    tag_63:\n      mul\n      or\n      swap1\n      sstore\n      pop\n      0x60\n      dup3\n      add\n      mload\n      dup2\n      0x01\n      add\n      sstore\n      pop\n      pop\n      swap1\n      pop\n      pop\n        /* \"rsp_all.sol\":2335:2342  roomLen */\n      sload(0x01)\n        /* \"rsp_all.sol\":2325:2342  roomNum = roomLen */\n      swap2\n      pop\n        /* \"rsp_all.sol\":2370:2371  1 */\n      0x01\n        /* \"rsp_all.sol\":2362:2369  roomLen */\n      dup1\n      sload\n        /* \"rsp_all.sol\":2362:2371  roomLen+1 */\n      tag_65\n      swap2\n      swap1\n      tag_66\n      jump\t// in\n    tag_65:\n        /* \"rsp_all.sol\":2352:2359  roomLen */\n      0x01\n        /* \"rsp_all.sol\":2352:2371  roomLen = roomLen+1 */\n      dup2\n      swap1\n      sstore\n      pop\n        /* \"rsp_all.sol\":1639:2446  function createRoom (Hand _hand) public payable isValidHand(_hand) returns (uint roomNum) {... */\n      pop\n      swap2\n      swap1\n      pop\n      jump\t// out\n        /* \"rsp_all.sol\":1430:1633  function Encryption(uint256 _hand, address _owner) public pure returns (bytes32){... */\n    tag_16:\n        /* \"rsp_all.sol\":1502:1509  bytes32 */\n      0x00\n        /* \"rsp_all.sol\":1537:1538  0 */\n      dup1\n        /* \"rsp_all.sol\":1528:1533  _hand */\n      dup4\n        /* \"rsp_all.sol\":1528:1538  _hand == 0 */\n      eq\n        /* \"rsp_all.sol\":1528:1552  _hand == 0 || _hand == 1 */\n      dup1\n      tag_68\n      jumpi\n      pop\n        /* \"rsp_all.sol\":1551:1552  1 */\n      0x01\n        /* \"rsp_all.sol\":1542:1547  _hand */\n      dup4\n        /* \"rsp_all.sol\":1542:1552  _hand == 1 */\n      eq\n        /* \"rsp_all.sol\":1528:1552  _hand == 0 || _hand == 1 */\n    tag_68:\n        /* \"rsp_all.sol\":1528:1566  _hand == 0 || _hand == 1 || _hand == 2 */\n      dup1\n      tag_69\n      jumpi\n      pop\n        /* \"rsp_all.sol\":1565:1566  2 */\n      0x02\n        /* \"rsp_all.sol\":1556:1561  _hand */\n      dup4\n        /* \"rsp_all.sol\":1556:1566  _hand == 2 */\n      eq\n        /* \"rsp_all.sol\":1528:1566  _hand == 0 || _hand == 1 || _hand == 2 */\n    tag_69:\n        /* \"rsp_all.sol\":1520:1567  require(_hand == 0 || _hand == 1 || _hand == 2) */\n      tag_70\n      jumpi\n      0x00\n      dup1\n      revert\n    tag_70:\n        /* \"rsp_all.sol\":1611:1616  _hand */\n      dup3\n        /* \"rsp_all.sol\":1618:1624  _owner */\n      dup3\n        /* \"rsp_all.sol\":1594:1625  abi.encodePacked(_hand, _owner) */\n      add(0x20, mload(0x40))\n      tag_71\n      swap3\n      swap2\n      swap1\n      tag_72\n      jump\t// in\n    tag_71:\n      mload(0x40)\n      0x20\n      dup2\n      dup4\n      sub\n      sub\n      dup2\n      mstore\n      swap1\n      0x40\n      mstore\n        /* \"rsp_all.sol\":1584:1626  keccak256(abi.encodePacked(_hand, _owner)) */\n      dup1\n      mload\n      swap1\n      0x20\n      add\n      keccak256\n        /* \"rsp_all.sol\":1577:1626  return keccak256(abi.encodePacked(_hand, _owner)) */\n      swap1\n      pop\n        /* \"rsp_all.sol\":1430:1633  function Encryption(uint256 _hand, address _owner) public pure returns (bytes32){... */\n      swap3\n      swap2\n      pop\n      pop\n      jump\t// out\n        /* \"rsp_all.sol\":2456:2952  function joinRoom(uint roomNum, Hand _hand) public payable isValidHand( _hand) {... */\n    tag_22:\n        /* \"rsp_all.sol\":2528:2533  _hand */\n      dup1\n        /* \"rsp_all.sol\":1158:1167  Hand.rock */\n      0x00\n        /* \"rsp_all.sol\":1148:1167  _hand  == Hand.rock */\n      0x02\n      dup2\n      gt\n      iszero\n      tag_74\n      jumpi\n      tag_75\n      tag_30\n      jump\t// in\n    tag_75:\n    tag_74:\n        /* \"rsp_all.sol\":1148:1153  _hand */\n      dup2\n        /* \"rsp_all.sol\":1148:1167  _hand  == Hand.rock */\n      0x02\n      dup2\n      gt\n      iszero\n      tag_76\n      jumpi\n      tag_77\n      tag_30\n      jump\t// in\n    tag_77:\n    tag_76:\n      eq\n        /* \"rsp_all.sol\":1147:1194  (_hand  == Hand.rock) || (_hand  == Hand.paper) */\n      dup1\n      tag_78\n      jumpi\n      pop\n        /* \"rsp_all.sol\":1183:1193  Hand.paper */\n      0x01\n        /* \"rsp_all.sol\":1173:1193  _hand  == Hand.paper */\n      0x02\n      dup2\n      gt\n      iszero\n      tag_79\n      jumpi\n      tag_80\n      tag_30\n      jump\t// in\n    tag_80:\n    tag_79:\n        /* \"rsp_all.sol\":1173:1178  _hand */\n      dup2\n        /* \"rsp_all.sol\":1173:1193  _hand  == Hand.paper */\n      0x02\n      dup2\n      gt\n      iszero\n      tag_81\n      jumpi\n      tag_82\n      tag_30\n      jump\t// in\n    tag_82:\n    tag_81:\n      eq\n        /* \"rsp_all.sol\":1147:1194  (_hand  == Hand.rock) || (_hand  == Hand.paper) */\n    tag_78:\n        /* \"rsp_all.sol\":1147:1222  (_hand  == Hand.rock) || (_hand  == Hand.paper) || (_hand == Hand.scissors) */\n      dup1\n      tag_83\n      jumpi\n      pop\n        /* \"rsp_all.sol\":1208:1221  Hand.scissors */\n      0x02\n        /* \"rsp_all.sol\":1199:1221  _hand == Hand.scissors */\n      dup1\n      dup2\n      gt\n      iszero\n      tag_84\n      jumpi\n      tag_85\n      tag_30\n      jump\t// in\n    tag_85:\n    tag_84:\n        /* \"rsp_all.sol\":1199:1204  _hand */\n      dup2\n        /* \"rsp_all.sol\":1199:1221  _hand == Hand.scissors */\n      0x02\n      dup2\n      gt\n      iszero\n      tag_86\n      jumpi\n      tag_87\n      tag_30\n      jump\t// in\n    tag_87:\n    tag_86:\n      eq\n        /* \"rsp_all.sol\":1147:1222  (_hand  == Hand.rock) || (_hand  == Hand.paper) || (_hand == Hand.scissors) */\n    tag_83:\n        /* \"rsp_all.sol\":1139:1223  require((_hand  == Hand.rock) || (_hand  == Hand.paper) || (_hand == Hand.scissors)) */\n      tag_88\n      jumpi\n      0x00\n      dup1\n      revert\n    tag_88:\n        /* \"rsp_all.sol\":2664:2841  Player({... */\n      mload(0x40)\n      dup1\n      0x80\n      add\n      0x40\n      mstore\n      dup1\n        /* \"rsp_all.sol\":2691:2696  _hand */\n      dup4\n        /* \"rsp_all.sol\":2664:2841  Player({... */\n      0x02\n      dup2\n      gt\n      iszero\n      tag_90\n      jumpi\n      tag_91\n      tag_30\n      jump\t// in\n    tag_91:\n    tag_90:\n      dup2\n      mstore\n      0x20\n      add\n        /* \"rsp_all.sol\":2724:2734  msg.sender */\n      caller\n        /* \"rsp_all.sol\":2664:2841  Player({... */\n      0xffffffffffffffffffffffffffffffffffffffff\n      and\n      dup2\n      mstore\n      0x20\n      add\n        /* \"rsp_all.sol\":2763:2790  PlayerStatus.STATUS_PENDING */\n      0x03\n        /* \"rsp_all.sol\":2664:2841  Player({... */\n      dup1\n      dup2\n      gt\n      iszero\n      tag_92\n      jumpi\n      tag_93\n      tag_30\n      jump\t// in\n    tag_93:\n    tag_92:\n      dup2\n      mstore\n      0x20\n      add\n        /* \"rsp_all.sol\":2821:2830  msg.value */\n      callvalue\n        /* \"rsp_all.sol\":2664:2841  Player({... */\n      dup2\n      mstore\n      pop\n        /* \"rsp_all.sol\":2641:2646  rooms */\n      0x00\n        /* \"rsp_all.sol\":2641:2655  rooms[roomNum] */\n      dup1\n        /* \"rsp_all.sol\":2647:2654  roomNum */\n      dup6\n        /* \"rsp_all.sol\":2641:2655  rooms[roomNum] */\n      dup2\n      mstore\n      0x20\n      add\n      swap1\n      dup2\n      mstore\n      0x20\n      add\n      0x00\n      keccak256\n        /* \"rsp_all.sol\":2641:2661  rooms[roomNum].taker */\n      0x04\n      add\n        /* \"rsp_all.sol\":2641:2841  rooms[roomNum].taker = Player({... */\n      0x00\n      dup3\n      add\n      mload\n      dup2\n      0x00\n      add\n      exp(0x0100, 0x00)\n      dup2\n      sload\n      dup2\n      0xff\n      mul\n      not\n      and\n      swap1\n      dup4\n      0x02\n      dup2\n      gt\n      iszero\n      tag_94\n      jumpi\n      tag_95\n      tag_30\n      jump\t// in\n    tag_95:\n    tag_94:\n      mul\n      or\n      swap1\n      sstore\n      pop\n      0x20\n      dup3\n      add\n      mload\n      dup2\n      0x00\n      add\n      exp(0x0100, 0x01)\n      dup2\n      sload\n      dup2\n      0xffffffffffffffffffffffffffffffffffffffff\n      mul\n      not\n      and\n      swap1\n      dup4\n      0xffffffffffffffffffffffffffffffffffffffff\n      and\n      mul\n      or\n      swap1\n      sstore\n      pop\n      0x40\n      dup3\n      add\n      mload\n      dup2\n      0x00\n      add\n      exp(0x0100, 0x15)\n      dup2\n      sload\n      dup2\n      0xff\n      mul\n      not\n      and\n      swap1\n      dup4\n      0x03\n      dup2\n      gt\n      iszero\n      tag_96\n      jumpi\n      tag_97\n      tag_30\n      jump\t// in\n    tag_97:\n    tag_96:\n      mul\n      or\n      swap1\n      sstore\n      pop\n      0x60\n      dup3\n      add\n      mload\n      dup2\n      0x01\n      add\n      sstore\n      swap1\n      pop\n      pop\n        /* \"rsp_all.sol\":2905:2914  msg.value */\n      callvalue\n        /* \"rsp_all.sol\":2878:2883  rooms */\n      0x00\n        /* \"rsp_all.sol\":2878:2892  rooms[roomNum] */\n      dup1\n        /* \"rsp_all.sol\":2884:2891  roomNum */\n      dup6\n        /* \"rsp_all.sol\":2878:2892  rooms[roomNum] */\n      dup2\n      mstore\n      0x20\n      add\n      swap1\n      dup2\n      mstore\n      0x20\n      add\n      0x00\n      keccak256\n        /* \"rsp_all.sol\":2878:2902  rooms[roomNum].betAmount */\n      0x00\n      add\n      sload\n        /* \"rsp_all.sol\":2878:2914  rooms[roomNum].betAmount + msg.value */\n      tag_98\n      swap2\n      swap1\n      tag_66\n      jump\t// in\n    tag_98:\n        /* \"rsp_all.sol\":2851:2856  rooms */\n      0x00\n        /* \"rsp_all.sol\":2851:2865  rooms[roomNum] */\n      dup1\n        /* \"rsp_all.sol\":2857:2864  roomNum */\n      dup6\n        /* \"rsp_all.sol\":2851:2865  rooms[roomNum] */\n      dup2\n      mstore\n      0x20\n      add\n      swap1\n      dup2\n      mstore\n      0x20\n      add\n      0x00\n      keccak256\n        /* \"rsp_all.sol\":2851:2875  rooms[roomNum].betAmount */\n      0x00\n      add\n        /* \"rsp_all.sol\":2851:2914  rooms[roomNum].betAmount = rooms[roomNum].betAmount + msg.value */\n      dup2\n      swap1\n      sstore\n      pop\n        /* \"rsp_all.sol\":2924:2945  compareHands(roomNum) */\n      tag_99\n        /* \"rsp_all.sol\":2937:2944  roomNum */\n      dup4\n        /* \"rsp_all.sol\":2924:2936  compareHands */\n      tag_100\n        /* \"rsp_all.sol\":2924:2945  compareHands(roomNum) */\n      jump\t// in\n    tag_99:\n        /* \"rsp_all.sol\":2456:2952  function joinRoom(uint roomNum, Hand _hand) public payable isValidHand( _hand) {... */\n      pop\n      pop\n      pop\n      jump\t// out\n        /* \"rsp_all.sol\":2962:4021  function payout(uint roomNum) public payable isPlayer(roomNum, msg.sender) {... */\n    tag_26:\n        /* \"rsp_all.sol\":3016:3023  roomNum */\n      dup1\n        /* \"rsp_all.sol\":3025:3035  msg.sender */\n      caller\n        /* \"rsp_all.sol\":1328:1333  rooms */\n      0x00\n        /* \"rsp_all.sol\":1328:1342  rooms[roomNum] */\n      dup1\n        /* \"rsp_all.sol\":1334:1341  roomNum */\n      dup4\n        /* \"rsp_all.sol\":1328:1342  rooms[roomNum] */\n      dup2\n      mstore\n      0x20\n      add\n      swap1\n      dup2\n      mstore\n      0x20\n      add\n      0x00\n      keccak256\n        /* \"rsp_all.sol\":1328:1353  rooms[roomNum].originator */\n      0x02\n      add\n        /* \"rsp_all.sol\":1328:1358  rooms[roomNum].originator.addr */\n      0x00\n      add\n      0x01\n      swap1\n      sload\n      swap1\n      0x0100\n      exp\n      swap1\n      div\n      0xffffffffffffffffffffffffffffffffffffffff\n      and\n        /* \"rsp_all.sol\":1318:1358  sender == rooms[roomNum].originator.addr */\n      0xffffffffffffffffffffffffffffffffffffffff\n      and\n        /* \"rsp_all.sol\":1318:1324  sender */\n      dup2\n        /* \"rsp_all.sol\":1318:1358  sender == rooms[roomNum].originator.addr */\n      0xffffffffffffffffffffffffffffffffffffffff\n      and\n      eq\n        /* \"rsp_all.sol\":1318:1397  sender == rooms[roomNum].originator.addr || sender == rooms[roomNum].taker.addr */\n      dup1\n      tag_102\n      jumpi\n      pop\n        /* \"rsp_all.sol\":1372:1377  rooms */\n      0x00\n        /* \"rsp_all.sol\":1372:1386  rooms[roomNum] */\n      dup1\n        /* \"rsp_all.sol\":1378:1385  roomNum */\n      dup4\n        /* \"rsp_all.sol\":1372:1386  rooms[roomNum] */\n      dup2\n      mstore\n      0x20\n      add\n      swap1\n      dup2\n      mstore\n      0x20\n      add\n      0x00\n      keccak256\n        /* \"rsp_all.sol\":1372:1392  rooms[roomNum].taker */\n      0x04\n      add\n        /* \"rsp_all.sol\":1372:1397  rooms[roomNum].taker.addr */\n      0x00\n      add\n      0x01\n      swap1\n      sload\n      swap1\n      0x0100\n      exp\n      swap1\n      div\n      0xffffffffffffffffffffffffffffffffffffffff\n      and\n        /* \"rsp_all.sol\":1362:1397  sender == rooms[roomNum].taker.addr */\n      0xffffffffffffffffffffffffffffffffffffffff\n      and\n        /* \"rsp_all.sol\":1362:1368  sender */\n      dup2\n        /* \"rsp_all.sol\":1362:1397  sender == rooms[roomNum].taker.addr */\n      0xffffffffffffffffffffffffffffffffffffffff\n      and\n      eq\n        /* \"rsp_all.sol\":1318:1397  sender == rooms[roomNum].originator.addr || sender == rooms[roomNum].taker.addr */\n    tag_102:\n        /* \"rsp_all.sol\":1310:1398  require(sender == rooms[roomNum].originator.addr || sender == rooms[roomNum].taker.addr) */\n      tag_103\n      jumpi\n      0x00\n      dup1\n      revert\n    tag_103:\n        /* \"rsp_all.sol\":3093:3116  PlayerStatus.STATUS_TIE */\n      0x02\n        /* \"rsp_all.sol\":3051:3116  rooms[roomNum].originator.playerStatus == PlayerStatus.STATUS_TIE */\n      0x03\n      dup2\n      gt\n      iszero\n      tag_105\n      jumpi\n      tag_106\n      tag_30\n      jump\t// in\n    tag_106:\n    tag_105:\n        /* \"rsp_all.sol\":3051:3056  rooms */\n      0x00\n        /* \"rsp_all.sol\":3051:3065  rooms[roomNum] */\n      dup1\n        /* \"rsp_all.sol\":3057:3064  roomNum */\n      dup6\n        /* \"rsp_all.sol\":3051:3065  rooms[roomNum] */\n      dup2\n      mstore\n      0x20\n      add\n      swap1\n      dup2\n      mstore\n      0x20\n      add\n      0x00\n      keccak256\n        /* \"rsp_all.sol\":3051:3076  rooms[roomNum].originator */\n      0x02\n      add\n        /* \"rsp_all.sol\":3051:3089  rooms[roomNum].originator.playerStatus */\n      0x00\n      add\n      0x15\n      swap1\n      sload\n      swap1\n      0x0100\n      exp\n      swap1\n      div\n      0xff\n      and\n        /* \"rsp_all.sol\":3051:3116  rooms[roomNum].originator.playerStatus == PlayerStatus.STATUS_TIE */\n      0x03\n      dup2\n      gt\n      iszero\n      tag_107\n      jumpi\n      tag_108\n      tag_30\n      jump\t// in\n    tag_108:\n    tag_107:\n      eq\n        /* \"rsp_all.sol\":3051:3180  rooms[roomNum].originator.playerStatus == PlayerStatus.STATUS_TIE && rooms[roomNum].taker.playerStatus == PlayerStatus.STATUS_TIE */\n      dup1\n      iszero\n      tag_109\n      jumpi\n      pop\n        /* \"rsp_all.sol\":3157:3180  PlayerStatus.STATUS_TIE */\n      0x02\n        /* \"rsp_all.sol\":3120:3180  rooms[roomNum].taker.playerStatus == PlayerStatus.STATUS_TIE */\n      0x03\n      dup2\n      gt\n      iszero\n      tag_110\n      jumpi\n      tag_111\n      tag_30\n      jump\t// in\n    tag_111:\n    tag_110:\n        /* \"rsp_all.sol\":3120:3125  rooms */\n      0x00\n        /* \"rsp_all.sol\":3120:3134  rooms[roomNum] */\n      dup1\n        /* \"rsp_all.sol\":3126:3133  roomNum */\n      dup6\n        /* \"rsp_all.sol\":3120:3134  rooms[roomNum] */\n      dup2\n      mstore\n      0x20\n      add\n      swap1\n      dup2\n      mstore\n      0x20\n      add\n      0x00\n      keccak256\n        /* \"rsp_all.sol\":3120:3140  rooms[roomNum].taker */\n      0x04\n      add\n        /* \"rsp_all.sol\":3120:3153  rooms[roomNum].taker.playerStatus */\n      0x00\n      add\n      0x15\n      swap1\n      sload\n      swap1\n      0x0100\n      exp\n      swap1\n      div\n      0xff\n      and\n        /* \"rsp_all.sol\":3120:3180  rooms[roomNum].taker.playerStatus == PlayerStatus.STATUS_TIE */\n      0x03\n      dup2\n      gt\n      iszero\n      tag_112\n      jumpi\n      tag_113\n      tag_30\n      jump\t// in\n    tag_113:\n    tag_112:\n      eq\n        /* \"rsp_all.sol\":3051:3180  rooms[roomNum].originator.playerStatus == PlayerStatus.STATUS_TIE && rooms[roomNum].taker.playerStatus == PlayerStatus.STATUS_TIE */\n    tag_109:\n        /* \"rsp_all.sol\":3047:3950  if (rooms[roomNum].originator.playerStatus == PlayerStatus.STATUS_TIE && rooms[roomNum].taker.playerStatus == PlayerStatus.STATUS_TIE) {... */\n      iszero\n      tag_114\n      jumpi\n        /* \"rsp_all.sol\":3196:3201  rooms */\n      0x00\n        /* \"rsp_all.sol\":3196:3210  rooms[roomNum] */\n      dup1\n        /* \"rsp_all.sol\":3202:3209  roomNum */\n      dup5\n        /* \"rsp_all.sol\":3196:3210  rooms[roomNum] */\n      dup2\n      mstore\n      0x20\n      add\n      swap1\n      dup2\n      mstore\n      0x20\n      add\n      0x00\n      keccak256\n        /* \"rsp_all.sol\":3196:3221  rooms[roomNum].originator */\n      0x02\n      add\n        /* \"rsp_all.sol\":3196:3226  rooms[roomNum].originator.addr */\n      0x00\n      add\n      0x01\n      swap1\n      sload\n      swap1\n      0x0100\n      exp\n      swap1\n      div\n      0xffffffffffffffffffffffffffffffffffffffff\n      and\n        /* \"rsp_all.sol\":3196:3235  rooms[roomNum].originator.addr.transfer */\n      0xffffffffffffffffffffffffffffffffffffffff\n      and\n        /* \"rsp_all.sol\":3196:3278  rooms[roomNum].originator.addr.transfer(rooms[roomNum].originator.playerBetAmount) */\n      0x08fc\n        /* \"rsp_all.sol\":3236:3241  rooms */\n      0x00\n        /* \"rsp_all.sol\":3236:3250  rooms[roomNum] */\n      dup1\n        /* \"rsp_all.sol\":3242:3249  roomNum */\n      dup7\n        /* \"rsp_all.sol\":3236:3250  rooms[roomNum] */\n      dup2\n      mstore\n      0x20\n      add\n      swap1\n      dup2\n      mstore\n      0x20\n      add\n      0x00\n      keccak256\n        /* \"rsp_all.sol\":3236:3261  rooms[roomNum].originator */\n      0x02\n      add\n        /* \"rsp_all.sol\":3236:3277  rooms[roomNum].originator.playerBetAmount */\n      0x01\n      add\n      sload\n        /* \"rsp_all.sol\":3196:3278  rooms[roomNum].originator.addr.transfer(rooms[roomNum].originator.playerBetAmount) */\n      swap1\n      dup2\n      iszero\n      mul\n      swap1\n      mload(0x40)\n      0x00\n      mload(0x40)\n      dup1\n      dup4\n      sub\n      dup2\n      dup6\n      dup9\n      dup9\n      call\n      swap4\n      pop\n      pop\n      pop\n      pop\n      iszero\n      dup1\n      iszero\n      tag_116\n      jumpi\n      returndatasize\n      0x00\n      dup1\n      returndatacopy\n      revert(0x00, returndatasize)\n    tag_116:\n      pop\n        /* \"rsp_all.sol\":3292:3297  rooms */\n      0x00\n        /* \"rsp_all.sol\":3292:3306  rooms[roomNum] */\n      dup1\n        /* \"rsp_all.sol\":3298:3305  roomNum */\n      dup5\n        /* \"rsp_all.sol\":3292:3306  rooms[roomNum] */\n      dup2\n      mstore\n      0x20\n      add\n      swap1\n      dup2\n      mstore\n      0x20\n      add\n      0x00\n      keccak256\n        /* \"rsp_all.sol\":3292:3312  rooms[roomNum].taker */\n      0x04\n      add\n        /* \"rsp_all.sol\":3292:3317  rooms[roomNum].taker.addr */\n      0x00\n      add\n      0x01\n      swap1\n      sload\n      swap1\n      0x0100\n      exp\n      swap1\n      div\n      0xffffffffffffffffffffffffffffffffffffffff\n      and\n        /* \"rsp_all.sol\":3292:3326  rooms[roomNum].taker.addr.transfer */\n      0xffffffffffffffffffffffffffffffffffffffff\n      and\n        /* \"rsp_all.sol\":3292:3364  rooms[roomNum].taker.addr.transfer(rooms[roomNum].taker.playerBetAmount) */\n      0x08fc\n        /* \"rsp_all.sol\":3327:3332  rooms */\n      0x00\n        /* \"rsp_all.sol\":3327:3341  rooms[roomNum] */\n      dup1\n        /* \"rsp_all.sol\":3333:3340  roomNum */\n      dup7\n        /* \"rsp_all.sol\":3327:3341  rooms[roomNum] */\n      dup2\n      mstore\n      0x20\n      add\n      swap1\n      dup2\n      mstore\n      0x20\n      add\n      0x00\n      keccak256\n        /* \"rsp_all.sol\":3327:3347  rooms[roomNum].taker */\n      0x04\n      add\n        /* \"rsp_all.sol\":3327:3363  rooms[roomNum].taker.playerBetAmount */\n      0x01\n      add\n      sload\n        /* \"rsp_all.sol\":3292:3364  rooms[roomNum].taker.addr.transfer(rooms[roomNum].taker.playerBetAmount) */\n      swap1\n      dup2\n      iszero\n      mul\n      swap1\n      mload(0x40)\n      0x00\n      mload(0x40)\n      dup1\n      dup4\n      sub\n      dup2\n      dup6\n      dup9\n      dup9\n      call\n      swap4\n      pop\n      pop\n      pop\n      pop\n      iszero\n      dup1\n      iszero\n      tag_118\n      jumpi\n      returndatasize\n      0x00\n      dup1\n      returndatacopy\n      revert(0x00, returndatasize)\n    tag_118:\n      pop\n        /* \"rsp_all.sol\":3047:3950  if (rooms[roomNum].originator.playerStatus == PlayerStatus.STATUS_TIE && rooms[roomNum].taker.playerStatus == PlayerStatus.STATUS_TIE) {... */\n      jump(tag_119)\n    tag_114:\n        /* \"rsp_all.sol\":3441:3464  PlayerStatus.STATUS_WIN */\n      0x00\n        /* \"rsp_all.sol\":3399:3464  rooms[roomNum].originator.playerStatus == PlayerStatus.STATUS_WIN */\n      0x03\n      dup2\n      gt\n      iszero\n      tag_120\n      jumpi\n      tag_121\n      tag_30\n      jump\t// in\n    tag_121:\n    tag_120:\n        /* \"rsp_all.sol\":3399:3404  rooms */\n      0x00\n        /* \"rsp_all.sol\":3399:3413  rooms[roomNum] */\n      dup1\n        /* \"rsp_all.sol\":3405:3412  roomNum */\n      dup6\n        /* \"rsp_all.sol\":3399:3413  rooms[roomNum] */\n      dup2\n      mstore\n      0x20\n      add\n      swap1\n      dup2\n      mstore\n      0x20\n      add\n      0x00\n      keccak256\n        /* \"rsp_all.sol\":3399:3424  rooms[roomNum].originator */\n      0x02\n      add\n        /* \"rsp_all.sol\":3399:3437  rooms[roomNum].originator.playerStatus */\n      0x00\n      add\n      0x15\n      swap1\n      sload\n      swap1\n      0x0100\n      exp\n      swap1\n      div\n      0xff\n      and\n        /* \"rsp_all.sol\":3399:3464  rooms[roomNum].originator.playerStatus == PlayerStatus.STATUS_WIN */\n      0x03\n      dup2\n      gt\n      iszero\n      tag_122\n      jumpi\n      tag_123\n      tag_30\n      jump\t// in\n    tag_123:\n    tag_122:\n      eq\n        /* \"rsp_all.sol\":3395:3940  if (rooms[roomNum].originator.playerStatus == PlayerStatus.STATUS_WIN) {... */\n      iszero\n      tag_124\n      jumpi\n        /* \"rsp_all.sol\":3484:3489  rooms */\n      0x00\n        /* \"rsp_all.sol\":3484:3498  rooms[roomNum] */\n      dup1\n        /* \"rsp_all.sol\":3490:3497  roomNum */\n      dup5\n        /* \"rsp_all.sol\":3484:3498  rooms[roomNum] */\n      dup2\n      mstore\n      0x20\n      add\n      swap1\n      dup2\n      mstore\n      0x20\n      add\n      0x00\n      keccak256\n        /* \"rsp_all.sol\":3484:3509  rooms[roomNum].originator */\n      0x02\n      add\n        /* \"rsp_all.sol\":3484:3514  rooms[roomNum].originator.addr */\n      0x00\n      add\n      0x01\n      swap1\n      sload\n      swap1\n      0x0100\n      exp\n      swap1\n      div\n      0xffffffffffffffffffffffffffffffffffffffff\n      and\n        /* \"rsp_all.sol\":3484:3523  rooms[roomNum].originator.addr.transfer */\n      0xffffffffffffffffffffffffffffffffffffffff\n      and\n        /* \"rsp_all.sol\":3484:3549  rooms[roomNum].originator.addr.transfer(rooms[roomNum].betAmount) */\n      0x08fc\n        /* \"rsp_all.sol\":3524:3529  rooms */\n      0x00\n        /* \"rsp_all.sol\":3524:3538  rooms[roomNum] */\n      dup1\n        /* \"rsp_all.sol\":3530:3537  roomNum */\n      dup7\n        /* \"rsp_all.sol\":3524:3538  rooms[roomNum] */\n      dup2\n      mstore\n      0x20\n      add\n      swap1\n      dup2\n      mstore\n      0x20\n      add\n      0x00\n      keccak256\n        /* \"rsp_all.sol\":3524:3548  rooms[roomNum].betAmount */\n      0x00\n      add\n      sload\n        /* \"rsp_all.sol\":3484:3549  rooms[roomNum].originator.addr.transfer(rooms[roomNum].betAmount) */\n      swap1\n      dup2\n      iszero\n      mul\n      swap1\n      mload(0x40)\n      0x00\n      mload(0x40)\n      dup1\n      dup4\n      sub\n      dup2\n      dup6\n      dup9\n      dup9\n      call\n      swap4\n      pop\n      pop\n      pop\n      pop\n      iszero\n      dup1\n      iszero\n      tag_126\n      jumpi\n      returndatasize\n      0x00\n      dup1\n      returndatacopy\n      revert(0x00, returndatasize)\n    tag_126:\n      pop\n        /* \"rsp_all.sol\":3395:3940  if (rooms[roomNum].originator.playerStatus == PlayerStatus.STATUS_WIN) {... */\n      jump(tag_127)\n    tag_124:\n        /* \"rsp_all.sol\":3611:3634  PlayerStatus.STATUS_WIN */\n      0x00\n        /* \"rsp_all.sol\":3574:3634  rooms[roomNum].taker.playerStatus == PlayerStatus.STATUS_WIN */\n      0x03\n      dup2\n      gt\n      iszero\n      tag_128\n      jumpi\n      tag_129\n      tag_30\n      jump\t// in\n    tag_129:\n    tag_128:\n        /* \"rsp_all.sol\":3574:3579  rooms */\n      0x00\n        /* \"rsp_all.sol\":3574:3588  rooms[roomNum] */\n      dup1\n        /* \"rsp_all.sol\":3580:3587  roomNum */\n      dup6\n        /* \"rsp_all.sol\":3574:3588  rooms[roomNum] */\n      dup2\n      mstore\n      0x20\n      add\n      swap1\n      dup2\n      mstore\n      0x20\n      add\n      0x00\n      keccak256\n        /* \"rsp_all.sol\":3574:3594  rooms[roomNum].taker */\n      0x04\n      add\n        /* \"rsp_all.sol\":3574:3607  rooms[roomNum].taker.playerStatus */\n      0x00\n      add\n      0x15\n      swap1\n      sload\n      swap1\n      0x0100\n      exp\n      swap1\n      div\n      0xff\n      and\n        /* \"rsp_all.sol\":3574:3634  rooms[roomNum].taker.playerStatus == PlayerStatus.STATUS_WIN */\n      0x03\n      dup2\n      gt\n      iszero\n      tag_130\n      jumpi\n      tag_131\n      tag_30\n      jump\t// in\n    tag_131:\n    tag_130:\n      eq\n        /* \"rsp_all.sol\":3570:3940  if (rooms[roomNum].taker.playerStatus == PlayerStatus.STATUS_WIN) {... */\n      iszero\n      tag_132\n      jumpi\n        /* \"rsp_all.sol\":3654:3659  rooms */\n      0x00\n        /* \"rsp_all.sol\":3654:3668  rooms[roomNum] */\n      dup1\n        /* \"rsp_all.sol\":3660:3667  roomNum */\n      dup5\n        /* \"rsp_all.sol\":3654:3668  rooms[roomNum] */\n      dup2\n      mstore\n      0x20\n      add\n      swap1\n      dup2\n      mstore\n      0x20\n      add\n      0x00\n      keccak256\n        /* \"rsp_all.sol\":3654:3674  rooms[roomNum].taker */\n      0x04\n      add\n        /* \"rsp_all.sol\":3654:3679  rooms[roomNum].taker.addr */\n      0x00\n      add\n      0x01\n      swap1\n      sload\n      swap1\n      0x0100\n      exp\n      swap1\n      div\n      0xffffffffffffffffffffffffffffffffffffffff\n      and\n        /* \"rsp_all.sol\":3654:3688  rooms[roomNum].taker.addr.transfer */\n      0xffffffffffffffffffffffffffffffffffffffff\n      and\n        /* \"rsp_all.sol\":3654:3714  rooms[roomNum].taker.addr.transfer(rooms[roomNum].betAmount) */\n      0x08fc\n        /* \"rsp_all.sol\":3689:3694  rooms */\n      0x00\n        /* \"rsp_all.sol\":3689:3703  rooms[roomNum] */\n      dup1\n        /* \"rsp_all.sol\":3695:3702  roomNum */\n      dup7\n        /* \"rsp_all.sol\":3689:3703  rooms[roomNum] */\n      dup2\n      mstore\n      0x20\n      add\n      swap1\n      dup2\n      mstore\n      0x20\n      add\n      0x00\n      keccak256\n        /* \"rsp_all.sol\":3689:3713  rooms[roomNum].betAmount */\n      0x00\n      add\n      sload\n        /* \"rsp_all.sol\":3654:3714  rooms[roomNum].taker.addr.transfer(rooms[roomNum].betAmount) */\n      swap1\n      dup2\n      iszero\n      mul\n      swap1\n      mload(0x40)\n      0x00\n      mload(0x40)\n      dup1\n      dup4\n      sub\n      dup2\n      dup6\n      dup9\n      dup9\n      call\n      swap4\n      pop\n      pop\n      pop\n      pop\n      iszero\n      dup1\n      iszero\n      tag_134\n      jumpi\n      returndatasize\n      0x00\n      dup1\n      returndatacopy\n      revert(0x00, returndatasize)\n    tag_134:\n      pop\n        /* \"rsp_all.sol\":3570:3940  if (rooms[roomNum].taker.playerStatus == PlayerStatus.STATUS_WIN) {... */\n      jump(tag_135)\n    tag_132:\n        /* \"rsp_all.sol\":3753:3758  rooms */\n      0x00\n        /* \"rsp_all.sol\":3753:3767  rooms[roomNum] */\n      dup1\n        /* \"rsp_all.sol\":3759:3766  roomNum */\n      dup5\n        /* \"rsp_all.sol\":3753:3767  rooms[roomNum] */\n      dup2\n      mstore\n      0x20\n      add\n      swap1\n      dup2\n      mstore\n      0x20\n      add\n      0x00\n      keccak256\n        /* \"rsp_all.sol\":3753:3778  rooms[roomNum].originator */\n      0x02\n      add\n        /* \"rsp_all.sol\":3753:3783  rooms[roomNum].originator.addr */\n      0x00\n      add\n      0x01\n      swap1\n      sload\n      swap1\n      0x0100\n      exp\n      swap1\n      div\n      0xffffffffffffffffffffffffffffffffffffffff\n      and\n        /* \"rsp_all.sol\":3753:3792  rooms[roomNum].originator.addr.transfer */\n      0xffffffffffffffffffffffffffffffffffffffff\n      and\n        /* \"rsp_all.sol\":3753:3835  rooms[roomNum].originator.addr.transfer(rooms[roomNum].originator.playerBetAmount) */\n      0x08fc\n        /* \"rsp_all.sol\":3793:3798  rooms */\n      0x00\n        /* \"rsp_all.sol\":3793:3807  rooms[roomNum] */\n      dup1\n        /* \"rsp_all.sol\":3799:3806  roomNum */\n      dup7\n        /* \"rsp_all.sol\":3793:3807  rooms[roomNum] */\n      dup2\n      mstore\n      0x20\n      add\n      swap1\n      dup2\n      mstore\n      0x20\n      add\n      0x00\n      keccak256\n        /* \"rsp_all.sol\":3793:3818  rooms[roomNum].originator */\n      0x02\n      add\n        /* \"rsp_all.sol\":3793:3834  rooms[roomNum].originator.playerBetAmount */\n      0x01\n      add\n      sload\n        /* \"rsp_all.sol\":3753:3835  rooms[roomNum].originator.addr.transfer(rooms[roomNum].originator.playerBetAmount) */\n      swap1\n      dup2\n      iszero\n      mul\n      swap1\n      mload(0x40)\n      0x00\n      mload(0x40)\n      dup1\n      dup4\n      sub\n      dup2\n      dup6\n      dup9\n      dup9\n      call\n      swap4\n      pop\n      pop\n      pop\n      pop\n      iszero\n      dup1\n      iszero\n      tag_137\n      jumpi\n      returndatasize\n      0x00\n      dup1\n      returndatacopy\n      revert(0x00, returndatasize)\n    tag_137:\n      pop\n        /* \"rsp_all.sol\":3853:3858  rooms */\n      0x00\n        /* \"rsp_all.sol\":3853:3867  rooms[roomNum] */\n      dup1\n        /* \"rsp_all.sol\":3859:3866  roomNum */\n      dup5\n        /* \"rsp_all.sol\":3853:3867  rooms[roomNum] */\n      dup2\n      mstore\n      0x20\n      add\n      swap1\n      dup2\n      mstore\n      0x20\n      add\n      0x00\n      keccak256\n        /* \"rsp_all.sol\":3853:3873  rooms[roomNum].taker */\n      0x04\n      add\n        /* \"rsp_all.sol\":3853:3878  rooms[roomNum].taker.addr */\n      0x00\n      add\n      0x01\n      swap1\n      sload\n      swap1\n      0x0100\n      exp\n      swap1\n      div\n      0xffffffffffffffffffffffffffffffffffffffff\n      and\n        /* \"rsp_all.sol\":3853:3887  rooms[roomNum].taker.addr.transfer */\n      0xffffffffffffffffffffffffffffffffffffffff\n      and\n        /* \"rsp_all.sol\":3853:3925  rooms[roomNum].taker.addr.transfer(rooms[roomNum].taker.playerBetAmount) */\n      0x08fc\n        /* \"rsp_all.sol\":3888:3893  rooms */\n      0x00\n        /* \"rsp_all.sol\":3888:3902  rooms[roomNum] */\n      dup1\n        /* \"rsp_all.sol\":3894:3901  roomNum */\n      dup7\n        /* \"rsp_all.sol\":3888:3902  rooms[roomNum] */\n      dup2\n      mstore\n      0x20\n      add\n      swap1\n      dup2\n      mstore\n      0x20\n      add\n      0x00\n      keccak256\n        /* \"rsp_all.sol\":3888:3908  rooms[roomNum].taker */\n      0x04\n      add\n        /* \"rsp_all.sol\":3888:3924  rooms[roomNum].taker.playerBetAmount */\n      0x01\n      add\n      sload\n        /* \"rsp_all.sol\":3853:3925  rooms[roomNum].taker.addr.transfer(rooms[roomNum].taker.playerBetAmount) */\n      swap1\n      dup2\n      iszero\n      mul\n      swap1\n      mload(0x40)\n      0x00\n      mload(0x40)\n      dup1\n      dup4\n      sub\n      dup2\n      dup6\n      dup9\n      dup9\n      call\n      swap4\n      pop\n      pop\n      pop\n      pop\n      iszero\n      dup1\n      iszero\n      tag_139\n      jumpi\n      returndatasize\n      0x00\n      dup1\n      returndatacopy\n      revert(0x00, returndatasize)\n    tag_139:\n      pop\n        /* \"rsp_all.sol\":3570:3940  if (rooms[roomNum].taker.playerStatus == PlayerStatus.STATUS_WIN) {... */\n    tag_135:\n        /* \"rsp_all.sol\":3395:3940  if (rooms[roomNum].originator.playerStatus == PlayerStatus.STATUS_WIN) {... */\n    tag_127:\n        /* \"rsp_all.sol\":3047:3950  if (rooms[roomNum].originator.playerStatus == PlayerStatus.STATUS_TIE && rooms[roomNum].taker.playerStatus == PlayerStatus.STATUS_TIE) {... */\n    tag_119:\n        /* \"rsp_all.sol\":3988:4014  GameStatus.STATUS_COMPLETE */\n      0x02\n        /* \"rsp_all.sol\":3960:3965  rooms */\n      0x00\n        /* \"rsp_all.sol\":3960:3974  rooms[roomNum] */\n      dup1\n        /* \"rsp_all.sol\":3966:3973  roomNum */\n      dup6\n        /* \"rsp_all.sol\":3960:3974  rooms[roomNum] */\n      dup2\n      mstore\n      0x20\n      add\n      swap1\n      dup2\n      mstore\n      0x20\n      add\n      0x00\n      keccak256\n        /* \"rsp_all.sol\":3960:3985  rooms[roomNum].gameStatus */\n      0x01\n      add\n      0x00\n        /* \"rsp_all.sol\":3960:4014  rooms[roomNum].gameStatus = GameStatus.STATUS_COMPLETE */\n      0x0100\n      exp\n      dup2\n      sload\n      dup2\n      0xff\n      mul\n      not\n      and\n      swap1\n      dup4\n      0x03\n      dup2\n      gt\n      iszero\n      tag_140\n      jumpi\n      tag_141\n      tag_30\n      jump\t// in\n    tag_141:\n    tag_140:\n      mul\n      or\n      swap1\n      sstore\n      pop\n        /* \"rsp_all.sol\":2962:4021  function payout(uint roomNum) public payable isPlayer(roomNum, msg.sender) {... */\n      pop\n      pop\n      pop\n      jump\t// out\n        /* \"rsp_all.sol\":4031:5028  function compareHands(uint roomNum) private{... */\n    tag_100:\n        /* \"rsp_all.sol\":4084:4100  uint8 originator */\n      0x00\n        /* \"rsp_all.sol\":4109:4114  rooms */\n      dup1\n        /* \"rsp_all.sol\":4109:4123  rooms[roomNum] */\n      0x00\n        /* \"rsp_all.sol\":4115:4122  roomNum */\n      dup4\n        /* \"rsp_all.sol\":4109:4123  rooms[roomNum] */\n      dup2\n      mstore\n      0x20\n      add\n      swap1\n      dup2\n      mstore\n      0x20\n      add\n      0x00\n      keccak256\n        /* \"rsp_all.sol\":4109:4134  rooms[roomNum].originator */\n      0x02\n      add\n        /* \"rsp_all.sol\":4109:4139  rooms[roomNum].originator.hand */\n      0x00\n      add\n      0x00\n      swap1\n      sload\n      swap1\n      0x0100\n      exp\n      swap1\n      div\n      0xff\n      and\n        /* \"rsp_all.sol\":4103:4140  uint8(rooms[roomNum].originator.hand) */\n      0x02\n      dup2\n      gt\n      iszero\n      tag_143\n      jumpi\n      tag_144\n      tag_30\n      jump\t// in\n    tag_144:\n    tag_143:\n        /* \"rsp_all.sol\":4084:4140  uint8 originator = uint8(rooms[roomNum].originator.hand) */\n      swap1\n      pop\n        /* \"rsp_all.sol\":4150:4161  uint8 taker */\n      0x00\n        /* \"rsp_all.sol\":4170:4175  rooms */\n      dup1\n        /* \"rsp_all.sol\":4170:4184  rooms[roomNum] */\n      0x00\n        /* \"rsp_all.sol\":4176:4183  roomNum */\n      dup5\n        /* \"rsp_all.sol\":4170:4184  rooms[roomNum] */\n      dup2\n      mstore\n      0x20\n      add\n      swap1\n      dup2\n      mstore\n      0x20\n      add\n      0x00\n      keccak256\n        /* \"rsp_all.sol\":4170:4190  rooms[roomNum].taker */\n      0x04\n      add\n        /* \"rsp_all.sol\":4170:4195  rooms[roomNum].taker.hand */\n      0x00\n      add\n      0x00\n      swap1\n      sload\n      swap1\n      0x0100\n      exp\n      swap1\n      div\n      0xff\n      and\n        /* \"rsp_all.sol\":4164:4196  uint8(rooms[roomNum].taker.hand) */\n      0x02\n      dup2\n      gt\n      iszero\n      tag_145\n      jumpi\n      tag_146\n      tag_30\n      jump\t// in\n    tag_146:\n    tag_145:\n        /* \"rsp_all.sol\":4150:4196  uint8 taker = uint8(rooms[roomNum].taker.hand) */\n      swap1\n      pop\n        /* \"rsp_all.sol\":4243:4268  GameStatus.STATUS_STARTED */\n      0x01\n        /* \"rsp_all.sol\":4215:4220  rooms */\n      0x00\n        /* \"rsp_all.sol\":4215:4229  rooms[roomNum] */\n      dup1\n        /* \"rsp_all.sol\":4221:4228  roomNum */\n      dup6\n        /* \"rsp_all.sol\":4215:4229  rooms[roomNum] */\n      dup2\n      mstore\n      0x20\n      add\n      swap1\n      dup2\n      mstore\n      0x20\n      add\n      0x00\n      keccak256\n        /* \"rsp_all.sol\":4215:4240  rooms[roomNum].gameStatus */\n      0x01\n      add\n      0x00\n        /* \"rsp_all.sol\":4215:4268  rooms[roomNum].gameStatus = GameStatus.STATUS_STARTED */\n      0x0100\n      exp\n      dup2\n      sload\n      dup2\n      0xff\n      mul\n      not\n      and\n      swap1\n      dup4\n      0x03\n      dup2\n      gt\n      iszero\n      tag_147\n      jumpi\n      tag_148\n      tag_30\n      jump\t// in\n    tag_148:\n    tag_147:\n      mul\n      or\n      swap1\n      sstore\n      pop\n        /* \"rsp_all.sol\":4300:4310  originator */\n      dup2\n        /* \"rsp_all.sol\":4291:4310  taker == originator */\n      0xff\n      and\n        /* \"rsp_all.sol\":4291:4296  taker */\n      dup2\n        /* \"rsp_all.sol\":4291:4310  taker == originator */\n      0xff\n      and\n      eq\n        /* \"rsp_all.sol\":4287:5014  if (taker == originator){ //draw... */\n      iszero\n      tag_149\n      jumpi\n        /* \"rsp_all.sol\":4373:4396  PlayerStatus.STATUS_TIE */\n      0x02\n        /* \"rsp_all.sol\":4332:4337  rooms */\n      0x00\n        /* \"rsp_all.sol\":4332:4346  rooms[roomNum] */\n      dup1\n        /* \"rsp_all.sol\":4338:4345  roomNum */\n      dup6\n        /* \"rsp_all.sol\":4332:4346  rooms[roomNum] */\n      dup2\n      mstore\n      0x20\n      add\n      swap1\n      dup2\n      mstore\n      0x20\n      add\n      0x00\n      keccak256\n        /* \"rsp_all.sol\":4332:4357  rooms[roomNum].originator */\n      0x02\n      add\n        /* \"rsp_all.sol\":4332:4370  rooms[roomNum].originator.playerStatus */\n      0x00\n      add\n      0x15\n        /* \"rsp_all.sol\":4332:4396  rooms[roomNum].originator.playerStatus = PlayerStatus.STATUS_TIE */\n      0x0100\n      exp\n      dup2\n      sload\n      dup2\n      0xff\n      mul\n      not\n      and\n      swap1\n      dup4\n      0x03\n      dup2\n      gt\n      iszero\n      tag_150\n      jumpi\n      tag_151\n      tag_30\n      jump\t// in\n    tag_151:\n    tag_150:\n      mul\n      or\n      swap1\n      sstore\n      pop\n        /* \"rsp_all.sol\":4446:4469  PlayerStatus.STATUS_TIE */\n      0x02\n        /* \"rsp_all.sol\":4410:4415  rooms */\n      0x00\n        /* \"rsp_all.sol\":4410:4424  rooms[roomNum] */\n      dup1\n        /* \"rsp_all.sol\":4416:4423  roomNum */\n      dup6\n        /* \"rsp_all.sol\":4410:4424  rooms[roomNum] */\n      dup2\n      mstore\n      0x20\n      add\n      swap1\n      dup2\n      mstore\n      0x20\n      add\n      0x00\n      keccak256\n        /* \"rsp_all.sol\":4410:4430  rooms[roomNum].taker */\n      0x04\n      add\n        /* \"rsp_all.sol\":4410:4443  rooms[roomNum].taker.playerStatus */\n      0x00\n      add\n      0x15\n        /* \"rsp_all.sol\":4410:4469  rooms[roomNum].taker.playerStatus = PlayerStatus.STATUS_TIE */\n      0x0100\n      exp\n      dup2\n      sload\n      dup2\n      0xff\n      mul\n      not\n      and\n      swap1\n      dup4\n      0x03\n      dup2\n      gt\n      iszero\n      tag_152\n      jumpi\n      tag_153\n      tag_30\n      jump\t// in\n    tag_153:\n    tag_152:\n      mul\n      or\n      swap1\n      sstore\n      pop\n        /* \"rsp_all.sol\":4287:5014  if (taker == originator){ //draw... */\n      jump(tag_154)\n    tag_149:\n        /* \"rsp_all.sol\":4529:4539  originator */\n      dup2\n        /* \"rsp_all.sol\":4511:4539  (taker +1) % 3 == originator */\n      0xff\n      and\n        /* \"rsp_all.sol\":4524:4525  3 */\n      0x03\n        /* \"rsp_all.sol\":4519:4520  1 */\n      0x01\n        /* \"rsp_all.sol\":4512:4517  taker */\n      dup4\n        /* \"rsp_all.sol\":4512:4520  taker +1 */\n      tag_155\n      swap2\n      swap1\n      tag_156\n      jump\t// in\n    tag_155:\n        /* \"rsp_all.sol\":4511:4525  (taker +1) % 3 */\n      tag_157\n      swap2\n      swap1\n      tag_158\n      jump\t// in\n    tag_157:\n        /* \"rsp_all.sol\":4511:4539  (taker +1) % 3 == originator */\n      0xff\n      and\n      eq\n        /* \"rsp_all.sol\":4507:5014  if ((taker +1) % 3 == originator) { // originator wins... */\n      iszero\n      tag_159\n      jumpi\n        /* \"rsp_all.sol\":4615:4638  PlayerStatus.STATUS_WIN */\n      0x00\n        /* \"rsp_all.sol\":4574:4579  rooms */\n      dup1\n        /* \"rsp_all.sol\":4574:4588  rooms[roomNum] */\n      0x00\n        /* \"rsp_all.sol\":4580:4587  roomNum */\n      dup6\n        /* \"rsp_all.sol\":4574:4588  rooms[roomNum] */\n      dup2\n      mstore\n      0x20\n      add\n      swap1\n      dup2\n      mstore\n      0x20\n      add\n      0x00\n      keccak256\n        /* \"rsp_all.sol\":4574:4599  rooms[roomNum].originator */\n      0x02\n      add\n        /* \"rsp_all.sol\":4574:4612  rooms[roomNum].originator.playerStatus */\n      0x00\n      add\n      0x15\n        /* \"rsp_all.sol\":4574:4638  rooms[roomNum].originator.playerStatus = PlayerStatus.STATUS_WIN */\n      0x0100\n      exp\n      dup2\n      sload\n      dup2\n      0xff\n      mul\n      not\n      and\n      swap1\n      dup4\n      0x03\n      dup2\n      gt\n      iszero\n      tag_160\n      jumpi\n      tag_161\n      tag_30\n      jump\t// in\n    tag_161:\n    tag_160:\n      mul\n      or\n      swap1\n      sstore\n      pop\n        /* \"rsp_all.sol\":4688:4712  PlayerStatus.STATUS_LOSE */\n      0x01\n        /* \"rsp_all.sol\":4652:4657  rooms */\n      0x00\n        /* \"rsp_all.sol\":4652:4666  rooms[roomNum] */\n      dup1\n        /* \"rsp_all.sol\":4658:4665  roomNum */\n      dup6\n        /* \"rsp_all.sol\":4652:4666  rooms[roomNum] */\n      dup2\n      mstore\n      0x20\n      add\n      swap1\n      dup2\n      mstore\n      0x20\n      add\n      0x00\n      keccak256\n        /* \"rsp_all.sol\":4652:4672  rooms[roomNum].taker */\n      0x04\n      add\n        /* \"rsp_all.sol\":4652:4685  rooms[roomNum].taker.playerStatus */\n      0x00\n      add\n      0x15\n        /* \"rsp_all.sol\":4652:4712  rooms[roomNum].taker.playerStatus = PlayerStatus.STATUS_LOSE */\n      0x0100\n      exp\n      dup2\n      sload\n      dup2\n      0xff\n      mul\n      not\n      and\n      swap1\n      dup4\n      0x03\n      dup2\n      gt\n      iszero\n      tag_162\n      jumpi\n      tag_163\n      tag_30\n      jump\t// in\n    tag_163:\n    tag_162:\n      mul\n      or\n      swap1\n      sstore\n      pop\n        /* \"rsp_all.sol\":4507:5014  if ((taker +1) % 3 == originator) { // originator wins... */\n      jump(tag_164)\n    tag_159:\n        /* \"rsp_all.sol\":4763:4768  taker */\n      dup1\n        /* \"rsp_all.sol\":4741:4768  (originator + 1)%3 == taker */\n      0xff\n      and\n        /* \"rsp_all.sol\":4758:4759  3 */\n      0x03\n        /* \"rsp_all.sol\":4755:4756  1 */\n      0x01\n        /* \"rsp_all.sol\":4742:4752  originator */\n      dup5\n        /* \"rsp_all.sol\":4742:4756  originator + 1 */\n      tag_165\n      swap2\n      swap1\n      tag_156\n      jump\t// in\n    tag_165:\n        /* \"rsp_all.sol\":4741:4759  (originator + 1)%3 */\n      tag_166\n      swap2\n      swap1\n      tag_158\n      jump\t// in\n    tag_166:\n        /* \"rsp_all.sol\":4741:4768  (originator + 1)%3 == taker */\n      0xff\n      and\n      eq\n        /* \"rsp_all.sol\":4737:5014  if ((originator + 1)%3 == taker){... */\n      iszero\n      tag_167\n      jumpi\n        /* \"rsp_all.sol\":4824:4848  PlayerStatus.STATUS_LOSE */\n      0x01\n        /* \"rsp_all.sol\":4783:4788  rooms */\n      0x00\n        /* \"rsp_all.sol\":4783:4797  rooms[roomNum] */\n      dup1\n        /* \"rsp_all.sol\":4789:4796  roomNum */\n      dup6\n        /* \"rsp_all.sol\":4783:4797  rooms[roomNum] */\n      dup2\n      mstore\n      0x20\n      add\n      swap1\n      dup2\n      mstore\n      0x20\n      add\n      0x00\n      keccak256\n        /* \"rsp_all.sol\":4783:4808  rooms[roomNum].originator */\n      0x02\n      add\n        /* \"rsp_all.sol\":4783:4821  rooms[roomNum].originator.playerStatus */\n      0x00\n      add\n      0x15\n        /* \"rsp_all.sol\":4783:4848  rooms[roomNum].originator.playerStatus = PlayerStatus.STATUS_LOSE */\n      0x0100\n      exp\n      dup2\n      sload\n      dup2\n      0xff\n      mul\n      not\n      and\n      swap1\n      dup4\n      0x03\n      dup2\n      gt\n      iszero\n      tag_168\n      jumpi\n      tag_169\n      tag_30\n      jump\t// in\n    tag_169:\n    tag_168:\n      mul\n      or\n      swap1\n      sstore\n      pop\n        /* \"rsp_all.sol\":4898:4921  PlayerStatus.STATUS_WIN */\n      0x00\n        /* \"rsp_all.sol\":4862:4867  rooms */\n      dup1\n        /* \"rsp_all.sol\":4862:4876  rooms[roomNum] */\n      0x00\n        /* \"rsp_all.sol\":4868:4875  roomNum */\n      dup6\n        /* \"rsp_all.sol\":4862:4876  rooms[roomNum] */\n      dup2\n      mstore\n      0x20\n      add\n      swap1\n      dup2\n      mstore\n      0x20\n      add\n      0x00\n      keccak256\n        /* \"rsp_all.sol\":4862:4882  rooms[roomNum].taker */\n      0x04\n      add\n        /* \"rsp_all.sol\":4862:4895  rooms[roomNum].taker.playerStatus */\n      0x00\n      add\n      0x15\n        /* \"rsp_all.sol\":4862:4921  rooms[roomNum].taker.playerStatus = PlayerStatus.STATUS_WIN */\n      0x0100\n      exp\n      dup2\n      sload\n      dup2\n      0xff\n      mul\n      not\n      and\n      swap1\n      dup4\n      0x03\n      dup2\n      gt\n      iszero\n      tag_170\n      jumpi\n      tag_171\n      tag_30\n      jump\t// in\n    tag_171:\n    tag_170:\n      mul\n      or\n      swap1\n      sstore\n      pop\n        /* \"rsp_all.sol\":4737:5014  if ((originator + 1)%3 == taker){... */\n      jump(tag_172)\n    tag_167:\n        /* \"rsp_all.sol\":4980:5003  GameStatus.STATUS_ERROR */\n      0x03\n        /* \"rsp_all.sol\":4952:4957  rooms */\n      0x00\n        /* \"rsp_all.sol\":4952:4966  rooms[roomNum] */\n      dup1\n        /* \"rsp_all.sol\":4958:4965  roomNum */\n      dup6\n        /* \"rsp_all.sol\":4952:4966  rooms[roomNum] */\n      dup2\n      mstore\n      0x20\n      add\n      swap1\n      dup2\n      mstore\n      0x20\n      add\n      0x00\n      keccak256\n        /* \"rsp_all.sol\":4952:4977  rooms[roomNum].gameStatus */\n      0x01\n      add\n      0x00\n        /* \"rsp_all.sol\":4952:5003  rooms[roomNum].gameStatus = GameStatus.STATUS_ERROR */\n      0x0100\n      exp\n      dup2\n      sload\n      dup2\n      0xff\n      mul\n      not\n      and\n      swap1\n      dup4\n      0x03\n      dup2\n      gt\n      iszero\n      tag_173\n      jumpi\n      tag_174\n      tag_30\n      jump\t// in\n    tag_174:\n    tag_173:\n      mul\n      or\n      swap1\n      sstore\n      pop\n        /* \"rsp_all.sol\":4737:5014  if ((originator + 1)%3 == taker){... */\n    tag_172:\n        /* \"rsp_all.sol\":4507:5014  if ((taker +1) % 3 == originator) { // originator wins... */\n    tag_164:\n        /* \"rsp_all.sol\":4287:5014  if (taker == originator){ //draw... */\n    tag_154:\n        /* \"rsp_all.sol\":4074:5028  {... */\n      pop\n      pop\n        /* \"rsp_all.sol\":4031:5028  function compareHands(uint roomNum) private{... */\n      pop\n      jump\t// out\n        /* \"#utility.yul\":7:146   */\n    tag_176:\n        /* \"#utility.yul\":53:58   */\n      0x00\n        /* \"#utility.yul\":91:97   */\n      dup2\n        /* \"#utility.yul\":78:98   */\n      calldataload\n        /* \"#utility.yul\":69:98   */\n      swap1\n      pop\n        /* \"#utility.yul\":107:140   */\n      tag_178\n        /* \"#utility.yul\":134:139   */\n      dup2\n        /* \"#utility.yul\":107:140   */\n      tag_179\n      jump\t// in\n    tag_178:\n        /* \"#utility.yul\":7:146   */\n      swap3\n      swap2\n      pop\n      pop\n      jump\t// out\n        /* \"#utility.yul\":152:303   */\n    tag_180:\n        /* \"#utility.yul\":204:209   */\n      0x00\n        /* \"#utility.yul\":242:248   */\n      dup2\n        /* \"#utility.yul\":229:249   */\n      calldataload\n        /* \"#utility.yul\":220:249   */\n      swap1\n      pop\n        /* \"#utility.yul\":258:297   */\n      tag_182\n        /* \"#utility.yul\":291:296   */\n      dup2\n        /* \"#utility.yul\":258:297   */\n      tag_183\n      jump\t// in\n    tag_182:\n        /* \"#utility.yul\":152:303   */\n      swap3\n      swap2\n      pop\n      pop\n      jump\t// out\n        /* \"#utility.yul\":309:448   */\n    tag_184:\n        /* \"#utility.yul\":355:360   */\n      0x00\n        /* \"#utility.yul\":393:399   */\n      dup2\n        /* \"#utility.yul\":380:400   */\n      calldataload\n        /* \"#utility.yul\":371:400   */\n      swap1\n      pop\n        /* \"#utility.yul\":409:442   */\n      tag_186\n        /* \"#utility.yul\":436:441   */\n      dup2\n        /* \"#utility.yul\":409:442   */\n      tag_187\n      jump\t// in\n    tag_186:\n        /* \"#utility.yul\":309:448   */\n      swap3\n      swap2\n      pop\n      pop\n      jump\t// out\n        /* \"#utility.yul\":454:795   */\n    tag_8:\n        /* \"#utility.yul\":519:525   */\n      0x00\n        /* \"#utility.yul\":568:570   */\n      0x20\n        /* \"#utility.yul\":556:565   */\n      dup3\n        /* \"#utility.yul\":547:554   */\n      dup5\n        /* \"#utility.yul\":543:566   */\n      sub\n        /* \"#utility.yul\":539:571   */\n      slt\n        /* \"#utility.yul\":536:655   */\n      iszero\n      tag_189\n      jumpi\n        /* \"#utility.yul\":574:653   */\n      tag_190\n      tag_191\n      jump\t// in\n    tag_190:\n        /* \"#utility.yul\":536:655   */\n    tag_189:\n        /* \"#utility.yul\":694:695   */\n      0x00\n        /* \"#utility.yul\":719:778   */\n      tag_192\n        /* \"#utility.yul\":770:777   */\n      dup5\n        /* \"#utility.yul\":761:767   */\n      dup3\n        /* \"#utility.yul\":750:759   */\n      dup6\n        /* \"#utility.yul\":746:768   */\n      add\n        /* \"#utility.yul\":719:778   */\n      tag_180\n      jump\t// in\n    tag_192:\n        /* \"#utility.yul\":709:778   */\n      swap2\n      pop\n        /* \"#utility.yul\":665:788   */\n      pop\n        /* \"#utility.yul\":454:795   */\n      swap3\n      swap2\n      pop\n      pop\n      jump\t// out\n        /* \"#utility.yul\":801:1130   */\n    tag_25:\n        /* \"#utility.yul\":860:866   */\n      0x00\n        /* \"#utility.yul\":909:911   */\n      0x20\n        /* \"#utility.yul\":897:906   */\n      dup3\n        /* \"#utility.yul\":888:895   */\n      dup5\n        /* \"#utility.yul\":884:907   */\n      sub\n        /* \"#utility.yul\":880:912   */\n      slt\n        /* \"#utility.yul\":877:996   */\n      iszero\n      tag_194\n      jumpi\n        /* \"#utility.yul\":915:994   */\n      tag_195\n      tag_191\n      jump\t// in\n    tag_195:\n        /* \"#utility.yul\":877:996   */\n    tag_194:\n        /* \"#utility.yul\":1035:1036   */\n      0x00\n        /* \"#utility.yul\":1060:1113   */\n      tag_196\n        /* \"#utility.yul\":1105:1112   */\n      dup5\n        /* \"#utility.yul\":1096:1102   */\n      dup3\n        /* \"#utility.yul\":1085:1094   */\n      dup6\n        /* \"#utility.yul\":1081:1103   */\n      add\n        /* \"#utility.yul\":1060:1113   */\n      tag_184\n      jump\t// in\n    tag_196:\n        /* \"#utility.yul\":1050:1113   */\n      swap2\n      pop\n        /* \"#utility.yul\":1006:1123   */\n      pop\n        /* \"#utility.yul\":801:1130   */\n      swap3\n      swap2\n      pop\n      pop\n      jump\t// out\n        /* \"#utility.yul\":1136:1610   */\n    tag_15:\n        /* \"#utility.yul\":1204:1210   */\n      0x00\n        /* \"#utility.yul\":1212:1218   */\n      dup1\n        /* \"#utility.yul\":1261:1263   */\n      0x40\n        /* \"#utility.yul\":1249:1258   */\n      dup4\n        /* \"#utility.yul\":1240:1247   */\n      dup6\n        /* \"#utility.yul\":1236:1259   */\n      sub\n        /* \"#utility.yul\":1232:1264   */\n      slt\n        /* \"#utility.yul\":1229:1348   */\n      iszero\n      tag_198\n      jumpi\n        /* \"#utility.yul\":1267:1346   */\n      tag_199\n      tag_191\n      jump\t// in\n    tag_199:\n        /* \"#utility.yul\":1229:1348   */\n    tag_198:\n        /* \"#utility.yul\":1387:1388   */\n      0x00\n        /* \"#utility.yul\":1412:1465   */\n      tag_200\n        /* \"#utility.yul\":1457:1464   */\n      dup6\n        /* \"#utility.yul\":1448:1454   */\n      dup3\n        /* \"#utility.yul\":1437:1446   */\n      dup7\n        /* \"#utility.yul\":1433:1455   */\n      add\n        /* \"#utility.yul\":1412:1465   */\n      tag_184\n      jump\t// in\n    tag_200:\n        /* \"#utility.yul\":1402:1465   */\n      swap3\n      pop\n        /* \"#utility.yul\":1358:1475   */\n      pop\n        /* \"#utility.yul\":1514:1516   */\n      0x20\n        /* \"#utility.yul\":1540:1593   */\n      tag_201\n        /* \"#utility.yul\":1585:1592   */\n      dup6\n        /* \"#utility.yul\":1576:1582   */\n      dup3\n        /* \"#utility.yul\":1565:1574   */\n      dup7\n        /* \"#utility.yul\":1561:1583   */\n      add\n        /* \"#utility.yul\":1540:1593   */\n      tag_176\n      jump\t// in\n    tag_201:\n        /* \"#utility.yul\":1530:1593   */\n      swap2\n      pop\n        /* \"#utility.yul\":1485:1603   */\n      pop\n        /* \"#utility.yul\":1136:1610   */\n      swap3\n      pop\n      swap3\n      swap1\n      pop\n      jump\t// out\n        /* \"#utility.yul\":1616:2102   */\n    tag_21:\n        /* \"#utility.yul\":1690:1696   */\n      0x00\n        /* \"#utility.yul\":1698:1704   */\n      dup1\n        /* \"#utility.yul\":1747:1749   */\n      0x40\n        /* \"#utility.yul\":1735:1744   */\n      dup4\n        /* \"#utility.yul\":1726:1733   */\n      dup6\n        /* \"#utility.yul\":1722:1745   */\n      sub\n        /* \"#utility.yul\":1718:1750   */\n      slt\n        /* \"#utility.yul\":1715:1834   */\n      iszero\n      tag_203\n      jumpi\n        /* \"#utility.yul\":1753:1832   */\n      tag_204\n      tag_191\n      jump\t// in\n    tag_204:\n        /* \"#utility.yul\":1715:1834   */\n    tag_203:\n        /* \"#utility.yul\":1873:1874   */\n      0x00\n        /* \"#utility.yul\":1898:1951   */\n      tag_205\n        /* \"#utility.yul\":1943:1950   */\n      dup6\n        /* \"#utility.yul\":1934:1940   */\n      dup3\n        /* \"#utility.yul\":1923:1932   */\n      dup7\n        /* \"#utility.yul\":1919:1941   */\n      add\n        /* \"#utility.yul\":1898:1951   */\n      tag_184\n      jump\t// in\n    tag_205:\n        /* \"#utility.yul\":1888:1951   */\n      swap3\n      pop\n        /* \"#utility.yul\":1844:1961   */\n      pop\n        /* \"#utility.yul\":2000:2002   */\n      0x20\n        /* \"#utility.yul\":2026:2085   */\n      tag_206\n        /* \"#utility.yul\":2077:2084   */\n      dup6\n        /* \"#utility.yul\":2068:2074   */\n      dup3\n        /* \"#utility.yul\":2057:2066   */\n      dup7\n        /* \"#utility.yul\":2053:2075   */\n      add\n        /* \"#utility.yul\":2026:2085   */\n      tag_180\n      jump\t// in\n    tag_206:\n        /* \"#utility.yul\":2016:2085   */\n      swap2\n      pop\n        /* \"#utility.yul\":1971:2095   */\n      pop\n        /* \"#utility.yul\":1616:2102   */\n      swap3\n      pop\n      swap3\n      swap1\n      pop\n      jump\t// out\n        /* \"#utility.yul\":2108:2265   */\n    tag_207:\n        /* \"#utility.yul\":2213:2258   */\n      tag_209\n        /* \"#utility.yul\":2233:2257   */\n      tag_210\n        /* \"#utility.yul\":2251:2256   */\n      dup3\n        /* \"#utility.yul\":2233:2257   */\n      tag_211\n      jump\t// in\n    tag_210:\n        /* \"#utility.yul\":2213:2258   */\n      tag_212\n      jump\t// in\n    tag_209:\n        /* \"#utility.yul\":2208:2211   */\n      dup3\n        /* \"#utility.yul\":2201:2259   */\n      mstore\n        /* \"#utility.yul\":2108:2265   */\n      pop\n      pop\n      jump\t// out\n        /* \"#utility.yul\":2271:2389   */\n    tag_213:\n        /* \"#utility.yul\":2358:2382   */\n      tag_215\n        /* \"#utility.yul\":2376:2381   */\n      dup2\n        /* \"#utility.yul\":2358:2382   */\n      tag_216\n      jump\t// in\n    tag_215:\n        /* \"#utility.yul\":2353:2356   */\n      dup3\n        /* \"#utility.yul\":2346:2383   */\n      mstore\n        /* \"#utility.yul\":2271:2389   */\n      pop\n      pop\n      jump\t// out\n        /* \"#utility.yul\":2395:2513   */\n    tag_217:\n        /* \"#utility.yul\":2482:2506   */\n      tag_219\n        /* \"#utility.yul\":2500:2505   */\n      dup2\n        /* \"#utility.yul\":2482:2506   */\n      tag_220\n      jump\t// in\n    tag_219:\n        /* \"#utility.yul\":2477:2480   */\n      dup3\n        /* \"#utility.yul\":2470:2507   */\n      mstore\n        /* \"#utility.yul\":2395:2513   */\n      pop\n      pop\n      jump\t// out\n        /* \"#utility.yul\":2519:2676   */\n    tag_221:\n        /* \"#utility.yul\":2624:2669   */\n      tag_223\n        /* \"#utility.yul\":2644:2668   */\n      tag_224\n        /* \"#utility.yul\":2662:2667   */\n      dup3\n        /* \"#utility.yul\":2644:2668   */\n      tag_220\n      jump\t// in\n    tag_224:\n        /* \"#utility.yul\":2624:2669   */\n      tag_225\n      jump\t// in\n    tag_223:\n        /* \"#utility.yul\":2619:2622   */\n      dup3\n        /* \"#utility.yul\":2612:2670   */\n      mstore\n        /* \"#utility.yul\":2519:2676   */\n      pop\n      pop\n      jump\t// out\n        /* \"#utility.yul\":2682:3079   */\n    tag_72:\n        /* \"#utility.yul\":2822:2825   */\n      0x00\n        /* \"#utility.yul\":2837:2912   */\n      tag_227\n        /* \"#utility.yul\":2908:2911   */\n      dup3\n        /* \"#utility.yul\":2899:2905   */\n      dup6\n        /* \"#utility.yul\":2837:2912   */\n      tag_221\n      jump\t// in\n    tag_227:\n        /* \"#utility.yul\":2937:2939   */\n      0x20\n        /* \"#utility.yul\":2932:2935   */\n      dup3\n        /* \"#utility.yul\":2928:2940   */\n      add\n        /* \"#utility.yul\":2921:2940   */\n      swap2\n      pop\n        /* \"#utility.yul\":2950:3025   */\n      tag_228\n        /* \"#utility.yul\":3021:3024   */\n      dup3\n        /* \"#utility.yul\":3012:3018   */\n      dup5\n        /* \"#utility.yul\":2950:3025   */\n      tag_207\n      jump\t// in\n    tag_228:\n        /* \"#utility.yul\":3050:3052   */\n      0x14\n        /* \"#utility.yul\":3045:3048   */\n      dup3\n        /* \"#utility.yul\":3041:3053   */\n      add\n        /* \"#utility.yul\":3034:3053   */\n      swap2\n      pop\n        /* \"#utility.yul\":3070:3073   */\n      dup2\n        /* \"#utility.yul\":3063:3073   */\n      swap1\n      pop\n        /* \"#utility.yul\":2682:3079   */\n      swap4\n      swap3\n      pop\n      pop\n      pop\n      jump\t// out\n        /* \"#utility.yul\":3085:3307   */\n    tag_18:\n        /* \"#utility.yul\":3178:3182   */\n      0x00\n        /* \"#utility.yul\":3216:3218   */\n      0x20\n        /* \"#utility.yul\":3205:3214   */\n      dup3\n        /* \"#utility.yul\":3201:3219   */\n      add\n        /* \"#utility.yul\":3193:3219   */\n      swap1\n      pop\n        /* \"#utility.yul\":3229:3300   */\n      tag_230\n        /* \"#utility.yul\":3297:3298   */\n      0x00\n        /* \"#utility.yul\":3286:3295   */\n      dup4\n        /* \"#utility.yul\":3282:3299   */\n      add\n        /* \"#utility.yul\":3273:3279   */\n      dup5\n        /* \"#utility.yul\":3229:3300   */\n      tag_213\n      jump\t// in\n    tag_230:\n        /* \"#utility.yul\":3085:3307   */\n      swap3\n      swap2\n      pop\n      pop\n      jump\t// out\n        /* \"#utility.yul\":3313:3535   */\n    tag_11:\n        /* \"#utility.yul\":3406:3410   */\n      0x00\n        /* \"#utility.yul\":3444:3446   */\n      0x20\n        /* \"#utility.yul\":3433:3442   */\n      dup3\n        /* \"#utility.yul\":3429:3447   */\n      add\n        /* \"#utility.yul\":3421:3447   */\n      swap1\n      pop\n        /* \"#utility.yul\":3457:3528   */\n      tag_232\n        /* \"#utility.yul\":3525:3526   */\n      0x00\n        /* \"#utility.yul\":3514:3523   */\n      dup4\n        /* \"#utility.yul\":3510:3527   */\n      add\n        /* \"#utility.yul\":3501:3507   */\n      dup5\n        /* \"#utility.yul\":3457:3528   */\n      tag_217\n      jump\t// in\n    tag_232:\n        /* \"#utility.yul\":3313:3535   */\n      swap3\n      swap2\n      pop\n      pop\n      jump\t// out\n        /* \"#utility.yul\":3622:3927   */\n    tag_66:\n        /* \"#utility.yul\":3662:3665   */\n      0x00\n        /* \"#utility.yul\":3681:3701   */\n      tag_236\n        /* \"#utility.yul\":3699:3700   */\n      dup3\n        /* \"#utility.yul\":3681:3701   */\n      tag_220\n      jump\t// in\n    tag_236:\n        /* \"#utility.yul\":3676:3701   */\n      swap2\n      pop\n        /* \"#utility.yul\":3715:3735   */\n      tag_237\n        /* \"#utility.yul\":3733:3734   */\n      dup4\n        /* \"#utility.yul\":3715:3735   */\n      tag_220\n      jump\t// in\n    tag_237:\n        /* \"#utility.yul\":3710:3735   */\n      swap3\n      pop\n        /* \"#utility.yul\":3869:3870   */\n      dup3\n        /* \"#utility.yul\":3801:3867   */\n      0xffffffffffffffffffffffffffffffffffffffffffffffffffffffffffffffff\n        /* \"#utility.yul\":3797:3871   */\n      sub\n        /* \"#utility.yul\":3794:3795   */\n      dup3\n        /* \"#utility.yul\":3791:3872   */\n      gt\n        /* \"#utility.yul\":3788:3895   */\n      iszero\n      tag_238\n      jumpi\n        /* \"#utility.yul\":3875:3893   */\n      tag_239\n      tag_240\n      jump\t// in\n    tag_239:\n        /* \"#utility.yul\":3788:3895   */\n    tag_238:\n        /* \"#utility.yul\":3919:3920   */\n      dup3\n        /* \"#utility.yul\":3916:3917   */\n      dup3\n        /* \"#utility.yul\":3912:3921   */\n      add\n        /* \"#utility.yul\":3905:3921   */\n      swap1\n      pop\n        /* \"#utility.yul\":3622:3927   */\n      swap3\n      swap2\n      pop\n      pop\n      jump\t// out\n        /* \"#utility.yul\":3933:4170   */\n    tag_156:\n        /* \"#utility.yul\":3971:3974   */\n      0x00\n        /* \"#utility.yul\":3990:4008   */\n      tag_242\n        /* \"#utility.yul\":4006:4007   */\n      dup3\n        /* \"#utility.yul\":3990:4008   */\n      tag_243\n      jump\t// in\n    tag_242:\n        /* \"#utility.yul\":3985:4008   */\n      swap2\n      pop\n        /* \"#utility.yul\":4022:4040   */\n      tag_244\n        /* \"#utility.yul\":4038:4039   */\n      dup4\n        /* \"#utility.yul\":4022:4040   */\n      tag_243\n      jump\t// in\n    tag_244:\n        /* \"#utility.yul\":4017:4040   */\n      swap3\n      pop\n        /* \"#utility.yul\":4112:4113   */\n      dup3\n        /* \"#utility.yul\":4106:4110   */\n      0xff\n        /* \"#utility.yul\":4102:4114   */\n      sub\n        /* \"#utility.yul\":4099:4100   */\n      dup3\n        /* \"#utility.yul\":4096:4115   */\n      gt\n        /* \"#utility.yul\":4093:4138   */\n      iszero\n      tag_245\n      jumpi\n        /* \"#utility.yul\":4118:4136   */\n      tag_246\n      tag_240\n      jump\t// in\n    tag_246:\n        /* \"#utility.yul\":4093:4138   */\n    tag_245:\n        /* \"#utility.yul\":4162:4163   */\n      dup3\n        /* \"#utility.yul\":4159:4160   */\n      dup3\n        /* \"#utility.yul\":4155:4164   */\n      add\n        /* \"#utility.yul\":4148:4164   */\n      swap1\n      pop\n        /* \"#utility.yul\":3933:4170   */\n      swap3\n      swap2\n      pop\n      pop\n      jump\t// out\n        /* \"#utility.yul\":4176:4272   */\n    tag_211:\n        /* \"#utility.yul\":4213:4220   */\n      0x00\n        /* \"#utility.yul\":4242:4266   */\n      tag_248\n        /* \"#utility.yul\":4260:4265   */\n      dup3\n        /* \"#utility.yul\":4242:4266   */\n      tag_249\n      jump\t// in\n    tag_248:\n        /* \"#utility.yul\":4231:4266   */\n      swap1\n      pop\n        /* \"#utility.yul\":4176:4272   */\n      swap2\n      swap1\n      pop\n      jump\t// out\n        /* \"#utility.yul\":4278:4355   */\n    tag_216:\n        /* \"#utility.yul\":4315:4322   */\n      0x00\n        /* \"#utility.yul\":4344:4349   */\n      dup2\n        /* \"#utility.yul\":4333:4349   */\n      swap1\n      pop\n        /* \"#utility.yul\":4278:4355   */\n      swap2\n      swap1\n      pop\n      jump\t// out\n        /* \"#utility.yul\":4361:4487   */\n    tag_249:\n        /* \"#utility.yul\":4398:4405   */\n      0x00\n        /* \"#utility.yul\":4438:4480   */\n      0xffffffffffffffffffffffffffffffffffffffff\n        /* \"#utility.yul\":4431:4436   */\n      dup3\n        /* \"#utility.yul\":4427:4481   */\n      and\n        /* \"#utility.yul\":4416:4481   */\n      swap1\n      pop\n        /* \"#utility.yul\":4361:4487   */\n      swap2\n      swap1\n      pop\n      jump\t// out\n        /* \"#utility.yul\":4493:4570   */\n    tag_220:\n        /* \"#utility.yul\":4530:4537   */\n      0x00\n        /* \"#utility.yul\":4559:4564   */\n      dup2\n        /* \"#utility.yul\":4548:4564   */\n      swap1\n      pop\n        /* \"#utility.yul\":4493:4570   */\n      swap2\n      swap1\n      pop\n      jump\t// out\n        /* \"#utility.yul\":4576:4662   */\n    tag_243:\n        /* \"#utility.yul\":4611:4618   */\n      0x00\n        /* \"#utility.yul\":4651:4655   */\n      0xff\n        /* \"#utility.yul\":4644:4649   */\n      dup3\n        /* \"#utility.yul\":4640:4656   */\n      and\n        /* \"#utility.yul\":4629:4656   */\n      swap1\n      pop\n        /* \"#utility.yul\":4576:4662   */\n      swap2\n      swap1\n      pop\n      jump\t// out\n        /* \"#utility.yul\":4668:4768   */\n    tag_212:\n        /* \"#utility.yul\":4707:4714   */\n      0x00\n        /* \"#utility.yul\":4736:4762   */\n      tag_255\n        /* \"#utility.yul\":4756:4761   */\n      dup3\n        /* \"#utility.yul\":4736:4762   */\n      tag_256\n      jump\t// in\n    tag_255:\n        /* \"#utility.yul\":4725:4762   */\n      swap1\n      pop\n        /* \"#utility.yul\":4668:4768   */\n      swap2\n      swap1\n      pop\n      jump\t// out\n        /* \"#utility.yul\":4774:4868   */\n    tag_256:\n        /* \"#utility.yul\":4813:4820   */\n      0x00\n        /* \"#utility.yul\":4842:4862   */\n      tag_258\n        /* \"#utility.yul\":4856:4861   */\n      dup3\n        /* \"#utility.yul\":4842:4862   */\n      tag_259\n      jump\t// in\n    tag_258:\n        /* \"#utility.yul\":4831:4862   */\n      swap1\n      pop\n        /* \"#utility.yul\":4774:4868   */\n      swap2\n      swap1\n      pop\n      jump\t// out\n        /* \"#utility.yul\":4874:4953   */\n    tag_225:\n        /* \"#utility.yul\":4913:4920   */\n      0x00\n        /* \"#utility.yul\":4942:4947   */\n      dup2\n        /* \"#utility.yul\":4931:4947   */\n      swap1\n      pop\n        /* \"#utility.yul\":4874:4953   */\n      swap2\n      swap1\n      pop\n      jump\t// out\n        /* \"#utility.yul\":4959:5129   */\n    tag_158:\n        /* \"#utility.yul\":4989:4990   */\n      0x00\n        /* \"#utility.yul\":5006:5024   */\n      tag_262\n        /* \"#utility.yul\":5022:5023   */\n      dup3\n        /* \"#utility.yul\":5006:5024   */\n      tag_243\n      jump\t// in\n    tag_262:\n        /* \"#utility.yul\":5001:5024   */\n      swap2\n      pop\n        /* \"#utility.yul\":5038:5056   */\n      tag_263\n        /* \"#utility.yul\":5054:5055   */\n      dup4\n        /* \"#utility.yul\":5038:5056   */\n      tag_243\n      jump\t// in\n    tag_263:\n        /* \"#utility.yul\":5033:5056   */\n      swap3\n      pop\n        /* \"#utility.yul\":5075:5076   */\n      dup3\n        /* \"#utility.yul\":5065:5100   */\n      tag_264\n      jumpi\n        /* \"#utility.yul\":5080:5098   */\n      tag_265\n      tag_266\n      jump\t// in\n    tag_265:\n        /* \"#utility.yul\":5065:5100   */\n    tag_264:\n        /* \"#utility.yul\":5121:5122   */\n      dup3\n        /* \"#utility.yul\":5118:5119   */\n      dup3\n        /* \"#utility.yul\":5114:5123   */\n      mod\n        /* \"#utility.yul\":5109:5123   */\n      swap1\n      pop\n        /* \"#utility.yul\":4959:5129   */\n      swap3\n      swap2\n      pop\n      pop\n      jump\t// out\n        /* \"#utility.yul\":5135:5315   */\n    tag_240:\n        /* \"#utility.yul\":5183:5260   */\n      0x4e487b7100000000000000000000000000000000000000000000000000000000\n        /* \"#utility.yul\":5180:5181   */\n      0x00\n        /* \"#utility.yul\":5173:5261   */\n      mstore\n        /* \"#utility.yul\":5280:5284   */\n      0x11\n        /* \"#utility.yul\":5277:5278   */\n      0x04\n        /* \"#utility.yul\":5270:5285   */\n      mstore\n        /* \"#utility.yul\":5304:5308   */\n      0x24\n        /* \"#utility.yul\":5301:5302   */\n      0x00\n        /* \"#utility.yul\":5294:5309   */\n      revert\n        /* \"#utility.yul\":5321:5501   */\n    tag_266:\n        /* \"#utility.yul\":5369:5446   */\n      0x4e487b7100000000000000000000000000000000000000000000000000000000\n        /* \"#utility.yul\":5366:5367   */\n      0x00\n        /* \"#utility.yul\":5359:5447   */\n      mstore\n        /* \"#utility.yul\":5466:5470   */\n      0x12\n        /* \"#utility.yul\":5463:5464   */\n      0x04\n        /* \"#utility.yul\":5456:5471   */\n      mstore\n        /* \"#utility.yul\":5490:5494   */\n      0x24\n        /* \"#utility.yul\":5487:5488   */\n      0x00\n        /* \"#utility.yul\":5480:5495   */\n      revert\n        /* \"#utility.yul\":5507:5687   */\n    tag_30:\n        /* \"#utility.yul\":5555:5632   */\n      0x4e487b7100000000000000000000000000000000000000000000000000000000\n        /* \"#utility.yul\":5552:5553   */\n      0x00\n        /* \"#utility.yul\":5545:5633   */\n      mstore\n        /* \"#utility.yul\":5652:5656   */\n      0x21\n        /* \"#utility.yul\":5649:5650   */\n      0x04\n        /* \"#utility.yul\":5642:5657   */\n      mstore\n        /* \"#utility.yul\":5676:5680   */\n      0x24\n        /* \"#utility.yul\":5673:5674   */\n      0x00\n        /* \"#utility.yul\":5666:5681   */\n      revert\n        /* \"#utility.yul\":5816:5933   */\n    tag_191:\n        /* \"#utility.yul\":5925:5926   */\n      0x00\n        /* \"#utility.yul\":5922:5923   */\n      dup1\n        /* \"#utility.yul\":5915:5927   */\n      revert\n        /* \"#utility.yul\":5939:6033   */\n    tag_259:\n        /* \"#utility.yul\":5972:5980   */\n      0x00\n        /* \"#utility.yul\":6020:6025   */\n      dup2\n        /* \"#utility.yul\":6016:6018   */\n      0x60\n        /* \"#utility.yul\":6012:6026   */\n      shl\n        /* \"#utility.yul\":5991:6026   */\n      swap1\n      pop\n        /* \"#utility.yul\":5939:6033   */\n      swap2\n      swap1\n      pop\n      jump\t// out\n        /* \"#utility.yul\":6039:6161   */\n    tag_179:\n        /* \"#utility.yul\":6112:6136   */\n      tag_275\n        /* \"#utility.yul\":6130:6135   */\n      dup2\n        /* \"#utility.yul\":6112:6136   */\n      tag_211\n      jump\t// in\n    tag_275:\n        /* \"#utility.yul\":6105:6110   */\n      dup2\n        /* \"#utility.yul\":6102:6137   */\n      eq\n        /* \"#utility.yul\":6092:6155   */\n      tag_276\n      jumpi\n        /* \"#utility.yul\":6151:6152   */\n      0x00\n        /* \"#utility.yul\":6148:6149   */\n      dup1\n        /* \"#utility.yul\":6141:6153   */\n      revert\n        /* \"#utility.yul\":6092:6155   */\n    tag_276:\n        /* \"#utility.yul\":6039:6161   */\n      pop\n      jump\t// out\n        /* \"#utility.yul\":6167:6272   */\n    tag_183:\n        /* \"#utility.yul\":6246:6247   */\n      0x03\n        /* \"#utility.yul\":6239:6244   */\n      dup2\n        /* \"#utility.yul\":6236:6248   */\n      lt\n        /* \"#utility.yul\":6226:6266   */\n      tag_278\n      jumpi\n        /* \"#utility.yul\":6262:6263   */\n      0x00\n        /* \"#utility.yul\":6259:6260   */\n      dup1\n        /* \"#utility.yul\":6252:6264   */\n      revert\n        /* \"#utility.yul\":6226:6266   */\n    tag_278:\n        /* \"#utility.yul\":6167:6272   */\n      pop\n      jump\t// out\n        /* \"#utility.yul\":6278:6400   */\n    tag_187:\n        /* \"#utility.yul\":6351:6375   */\n      tag_280\n        /* \"#utility.yul\":6369:6374   */\n      dup2\n        /* \"#utility.yul\":6351:6375   */\n      tag_220\n      jump\t// in\n    tag_280:\n        /* \"#utility.yul\":6344:6349   */\n      dup2\n        /* \"#utility.yul\":6341:6376   */\n      eq\n        /* \"#utility.yul\":6331:6394   */\n      tag_281\n      jumpi\n        /* \"#utility.yul\":6390:6391   */\n      0x00\n        /* \"#utility.yul\":6387:6388   */\n      dup1\n        /* \"#utility.yul\":6380:6392   */\n      revert\n        /* \"#utility.yul\":6331:6394   */\n    tag_281:\n        /* \"#utility.yul\":6278:6400   */\n      pop\n      jump\t// out\n\n    auxdata: 0xa2646970667358221220d7f4fd116f5a3473bf0d2f40f5c83fc0d81c39c9f1160e6d537d670f6a5703f864736f6c63430008070033\n}\n",
				"bytecode": {
					"linkReferences": {},
					"object": "608060405260006001556113a4806100186000396000f3fe60806040526004361061003f5760003560e01c80630f36f3b5146100445780637581a1831461007457806379b15776146100b1578063e1152343146100cd575b600080fd5b61005e60048036038101906100599190610fca565b6100e9565b60405161006b9190611137565b60405180910390f35b34801561008057600080fd5b5061009b60048036038101906100969190611024565b61044c565b6040516100a8919061111c565b60405180910390f35b6100cb60048036038101906100c69190611064565b6104a1565b005b6100e760048036038101906100e29190610ff7565b61069c565b005b60008160006002811115610100576100ff6112ef565b5b816002811115610113576101126112ef565b5b148061014357506001600281111561012e5761012d6112ef565b5b816002811115610141576101406112ef565b5b145b80610171575060028081111561015c5761015b6112ef565b5b81600281111561016f5761016e6112ef565b5b145b61017a57600080fd5b60405180608001604052803481526020016000600381111561019f5761019e6112ef565b5b815260200160405180608001604052808660028111156101c2576101c16112ef565b5b81526020013373ffffffffffffffffffffffffffffffffffffffff1681526020016003808111156101f6576101f56112ef565b5b8152602001348152508152602001604051806080016040528060006002811115610223576102226112ef565b5b81526020013373ffffffffffffffffffffffffffffffffffffffff168152602001600380811115610257576102566112ef565b5b8152602001600081525081525060008060015481526020019081526020016000206000820151816000015560208201518160010160006101000a81548160ff021916908360038111156102ad576102ac6112ef565b5b021790555060408201518160020160008201518160000160006101000a81548160ff021916908360028111156102e6576102e56112ef565b5b021790555060208201518160000160016101000a81548173ffffffffffffffffffffffffffffffffffffffff021916908373ffffffffffffffffffffffffffffffffffffffff16021790555060408201518160000160156101000a81548160ff0219169083600381111561035d5761035c6112ef565b5b021790555060608201518160010155505060608201518160040160008201518160000160006101000a81548160ff021916908360028111156103a2576103a16112ef565b5b021790555060208201518160000160016101000a81548173ffffffffffffffffffffffffffffffffffffffff021916908373ffffffffffffffffffffffffffffffffffffffff16021790555060408201518160000160156101000a81548160ff02191690836003811115610419576104186112ef565b5b02179055506060820151816001015550509050506001549150600180546104409190611152565b60018190555050919050565b60008083148061045c5750600183145b806104675750600283145b61047057600080fd5b82826040516020016104839291906110f0565b60405160208183030381529060405280519060200120905092915050565b80600060028111156104b6576104b56112ef565b5b8160028111156104c9576104c86112ef565b5b14806104f95750600160028111156104e4576104e36112ef565b5b8160028111156104f7576104f66112ef565b5b145b806105275750600280811115610512576105116112ef565b5b816002811115610525576105246112ef565b5b145b61053057600080fd5b604051806080016040528083600281111561054e5761054d6112ef565b5b81526020013373ffffffffffffffffffffffffffffffffffffffff168152602001600380811115610582576105816112ef565b5b81526020013481525060008085815260200190815260200160002060040160008201518160000160006101000a81548160ff021916908360028111156105cb576105ca6112ef565b5b021790555060208201518160000160016101000a81548173ffffffffffffffffffffffffffffffffffffffff021916908373ffffffffffffffffffffffffffffffffffffffff16021790555060408201518160000160156101000a81548160ff02191690836003811115610642576106416112ef565b5b02179055506060820151816001015590505034600080858152602001908152602001600020600001546106759190611152565b6000808581526020019081526020016000206000018190555061069783610ca0565b505050565b803360008083815260200190815260200160002060020160000160019054906101000a900473ffffffffffffffffffffffffffffffffffffffff1673ffffffffffffffffffffffffffffffffffffffff168173ffffffffffffffffffffffffffffffffffffffff161480610773575060008083815260200190815260200160002060040160000160019054906101000a900473ffffffffffffffffffffffffffffffffffffffff1673ffffffffffffffffffffffffffffffffffffffff168173ffffffffffffffffffffffffffffffffffffffff16145b61077c57600080fd5b600260038111156107905761078f6112ef565b5b60008085815260200190815260200160002060020160000160159054906101000a900460ff1660038111156107c8576107c76112ef565b5b14801561081e5750600260038111156107e4576107e36112ef565b5b60008085815260200190815260200160002060040160000160159054906101000a900460ff16600381111561081c5761081b6112ef565b5b145b156109565760008084815260200190815260200160002060020160000160019054906101000a900473ffffffffffffffffffffffffffffffffffffffff1673ffffffffffffffffffffffffffffffffffffffff166108fc600080868152602001908152602001600020600201600101549081150290604051600060405180830381858888f193505050501580156108b9573d6000803e3d6000fd5b5060008084815260200190815260200160002060040160000160019054906101000a900473ffffffffffffffffffffffffffffffffffffffff1673ffffffffffffffffffffffffffffffffffffffff166108fc600080868152602001908152602001600020600401600101549081150290604051600060405180830381858888f19350505050158015610950573d6000803e3d6000fd5b50610c5d565b6000600381111561096a576109696112ef565b5b60008085815260200190815260200160002060020160000160159054906101000a900460ff1660038111156109a2576109a16112ef565b5b1415610a415760008084815260200190815260200160002060020160000160019054906101000a900473ffffffffffffffffffffffffffffffffffffffff1673ffffffffffffffffffffffffffffffffffffffff166108fc600080868152602001908152602001600020600001549081150290604051600060405180830381858888f19350505050158015610a3b573d6000803e3d6000fd5b50610c5c565b60006003811115610a5557610a546112ef565b5b60008085815260200190815260200160002060040160000160159054906101000a900460ff166003811115610a8d57610a8c6112ef565b5b1415610b2c5760008084815260200190815260200160002060040160000160019054906101000a900473ffffffffffffffffffffffffffffffffffffffff1673ffffffffffffffffffffffffffffffffffffffff166108fc600080868152602001908152602001600020600001549081150290604051600060405180830381858888f19350505050158015610b26573d6000803e3d6000fd5b50610c5b565b60008084815260200190815260200160002060020160000160019054906101000a900473ffffffffffffffffffffffffffffffffffffffff1673ffffffffffffffffffffffffffffffffffffffff166108fc600080868152602001908152602001600020600201600101549081150290604051600060405180830381858888f19350505050158015610bc2573d6000803e3d6000fd5b5060008084815260200190815260200160002060040160000160019054906101000a900473ffffffffffffffffffffffffffffffffffffffff1673ffffffffffffffffffffffffffffffffffffffff166108fc600080868152602001908152602001600020600401600101549081150290604051600060405180830381858888f19350505050158015610c59573d6000803e3d6000fd5b505b5b5b600260008085815260200190815260200160002060010160006101000a81548160ff02191690836003811115610c9657610c956112ef565b5b0217905550505050565b600080600083815260200190815260200160002060020160000160009054906101000a900460ff166002811115610cda57610cd96112ef565b5b9050600080600084815260200190815260200160002060040160000160009054906101000a900460ff166002811115610d1657610d156112ef565b5b9050600160008085815260200190815260200160002060010160006101000a81548160ff02191690836003811115610d5157610d506112ef565b5b02179055508160ff168160ff161415610deb57600260008085815260200190815260200160002060020160000160156101000a81548160ff02191690836003811115610da057610d9f6112ef565b5b0217905550600260008085815260200190815260200160002060040160000160156101000a81548160ff02191690836003811115610de157610de06112ef565b5b0217905550610f86565b8160ff166003600183610dfe91906111a8565b610e089190611260565b60ff161415610e9857600080600085815260200190815260200160002060020160000160156101000a81548160ff02191690836003811115610e4d57610e4c6112ef565b5b0217905550600160008085815260200190815260200160002060040160000160156101000a81548160ff02191690836003811115610e8e57610e8d6112ef565b5b0217905550610f85565b8060ff166003600184610eab91906111a8565b610eb59190611260565b60ff161415610f4557600160008085815260200190815260200160002060020160000160156101000a81548160ff02191690836003811115610efa57610ef96112ef565b5b0217905550600080600085815260200190815260200160002060040160000160156101000a81548160ff02191690836003811115610f3b57610f3a6112ef565b5b0217905550610f84565b600360008085815260200190815260200160002060010160006101000a81548160ff02191690836003811115610f7e57610f7d6112ef565b5b02179055505b5b5b505050565b600081359050610f9a81611330565b92915050565b600081359050610faf81611347565b92915050565b600081359050610fc481611357565b92915050565b600060208284031215610fe057610fdf61131e565b5b6000610fee84828501610fa0565b91505092915050565b60006020828403121561100d5761100c61131e565b5b600061101b84828501610fb5565b91505092915050565b6000806040838503121561103b5761103a61131e565b5b600061104985828601610fb5565b925050602061105a85828601610f8b565b9150509250929050565b6000806040838503121561107b5761107a61131e565b5b600061108985828601610fb5565b925050602061109a85828601610fa0565b9150509250929050565b6110b56110b0826111df565b611232565b82525050565b6110c4816111f1565b82525050565b6110d38161121b565b82525050565b6110ea6110e58261121b565b611256565b82525050565b60006110fc82856110d9565b60208201915061110c82846110a4565b6014820191508190509392505050565b600060208201905061113160008301846110bb565b92915050565b600060208201905061114c60008301846110ca565b92915050565b600061115d8261121b565b91506111688361121b565b9250827fffffffffffffffffffffffffffffffffffffffffffffffffffffffffffffffff0382111561119d5761119c611291565b5b828201905092915050565b60006111b382611225565b91506111be83611225565b92508260ff038211156111d4576111d3611291565b5b828201905092915050565b60006111ea826111fb565b9050919050565b6000819050919050565b600073ffffffffffffffffffffffffffffffffffffffff82169050919050565b6000819050919050565b600060ff82169050919050565b600061123d82611244565b9050919050565b600061124f82611323565b9050919050565b6000819050919050565b600061126b82611225565b915061127683611225565b925082611286576112856112c0565b5b828206905092915050565b7f4e487b7100000000000000000000000000000000000000000000000000000000600052601160045260246000fd5b7f4e487b7100000000000000000000000000000000000000000000000000000000600052601260045260246000fd5b7f4e487b7100000000000000000000000000000000000000000000000000000000600052602160045260246000fd5b600080fd5b60008160601b9050919050565b611339816111df565b811461134457600080fd5b50565b6003811061135457600080fd5b50565b6113608161121b565b811461136b57600080fd5b5056fea2646970667358221220d7f4fd116f5a3473bf0d2f40f5c83fc0d81c39c9f1160e6d537d670f6a5703f864736f6c63430008070033",
					"opcodes": "PUSH1 0x80 PUSH1 0x40 MSTORE PUSH1 0x0 PUSH1 0x1 SSTORE PUSH2 0x13A4 DUP1 PUSH2 0x18 PUSH1 0x0 CODECOPY PUSH1 0x0 RETURN INVALID PUSH1 0x80 PUSH1 0x40 MSTORE PUSH1 0x4 CALLDATASIZE LT PUSH2 0x3F JUMPI PUSH1 0x0 CALLDATALOAD PUSH1 0xE0 SHR DUP1 PUSH4 0xF36F3B5 EQ PUSH2 0x44 JUMPI DUP1 PUSH4 0x7581A183 EQ PUSH2 0x74 JUMPI DUP1 PUSH4 0x79B15776 EQ PUSH2 0xB1 JUMPI DUP1 PUSH4 0xE1152343 EQ PUSH2 0xCD JUMPI JUMPDEST PUSH1 0x0 DUP1 REVERT JUMPDEST PUSH2 0x5E PUSH1 0x4 DUP1 CALLDATASIZE SUB DUP2 ADD SWAP1 PUSH2 0x59 SWAP2 SWAP1 PUSH2 0xFCA JUMP JUMPDEST PUSH2 0xE9 JUMP JUMPDEST PUSH1 0x40 MLOAD PUSH2 0x6B SWAP2 SWAP1 PUSH2 0x1137 JUMP JUMPDEST PUSH1 0x40 MLOAD DUP1 SWAP2 SUB SWAP1 RETURN JUMPDEST CALLVALUE DUP1 ISZERO PUSH2 0x80 JUMPI PUSH1 0x0 DUP1 REVERT JUMPDEST POP PUSH2 0x9B PUSH1 0x4 DUP1 CALLDATASIZE SUB DUP2 ADD SWAP1 PUSH2 0x96 SWAP2 SWAP1 PUSH2 0x1024 JUMP JUMPDEST PUSH2 0x44C JUMP JUMPDEST PUSH1 0x40 MLOAD PUSH2 0xA8 SWAP2 SWAP1 PUSH2 0x111C JUMP JUMPDEST PUSH1 0x40 MLOAD DUP1 SWAP2 SUB SWAP1 RETURN JUMPDEST PUSH2 0xCB PUSH1 0x4 DUP1 CALLDATASIZE SUB DUP2 ADD SWAP1 PUSH2 0xC6 SWAP2 SWAP1 PUSH2 0x1064 JUMP JUMPDEST PUSH2 0x4A1 JUMP JUMPDEST STOP JUMPDEST PUSH2 0xE7 PUSH1 0x4 DUP1 CALLDATASIZE SUB DUP2 ADD SWAP1 PUSH2 0xE2 SWAP2 SWAP1 PUSH2 0xFF7 JUMP JUMPDEST PUSH2 0x69C JUMP JUMPDEST STOP JUMPDEST PUSH1 0x0 DUP2 PUSH1 0x0 PUSH1 0x2 DUP2 GT ISZERO PUSH2 0x100 JUMPI PUSH2 0xFF PUSH2 0x12EF JUMP JUMPDEST JUMPDEST DUP2 PUSH1 0x2 DUP2 GT ISZERO PUSH2 0x113 JUMPI PUSH2 0x112 PUSH2 0x12EF JUMP JUMPDEST JUMPDEST EQ DUP1 PUSH2 0x143 JUMPI POP PUSH1 0x1 PUSH1 0x2 DUP2 GT ISZERO PUSH2 0x12E JUMPI PUSH2 0x12D PUSH2 0x12EF JUMP JUMPDEST JUMPDEST DUP2 PUSH1 0x2 DUP2 GT ISZERO PUSH2 0x141 JUMPI PUSH2 0x140 PUSH2 0x12EF JUMP JUMPDEST JUMPDEST EQ JUMPDEST DUP1 PUSH2 0x171 JUMPI POP PUSH1 0x2 DUP1 DUP2 GT ISZERO PUSH2 0x15C JUMPI PUSH2 0x15B PUSH2 0x12EF JUMP JUMPDEST JUMPDEST DUP2 PUSH1 0x2 DUP2 GT ISZERO PUSH2 0x16F JUMPI PUSH2 0x16E PUSH2 0x12EF JUMP JUMPDEST JUMPDEST EQ JUMPDEST PUSH2 0x17A JUMPI PUSH1 0x0 DUP1 REVERT JUMPDEST PUSH1 0x40 MLOAD DUP1 PUSH1 0x80 ADD PUSH1 0x40 MSTORE DUP1 CALLVALUE DUP2 MSTORE PUSH1 0x20 ADD PUSH1 0x0 PUSH1 0x3 DUP2 GT ISZERO PUSH2 0x19F JUMPI PUSH2 0x19E PUSH2 0x12EF JUMP JUMPDEST JUMPDEST DUP2 MSTORE PUSH1 0x20 ADD PUSH1 0x40 MLOAD DUP1 PUSH1 0x80 ADD PUSH1 0x40 MSTORE DUP1 DUP7 PUSH1 0x2 DUP2 GT ISZERO PUSH2 0x1C2 JUMPI PUSH2 0x1C1 PUSH2 0x12EF JUMP JUMPDEST JUMPDEST DUP2 MSTORE PUSH1 0x20 ADD CALLER PUSH20 0xFFFFFFFFFFFFFFFFFFFFFFFFFFFFFFFFFFFFFFFF AND DUP2 MSTORE PUSH1 0x20 ADD PUSH1 0x3 DUP1 DUP2 GT ISZERO PUSH2 0x1F6 JUMPI PUSH2 0x1F5 PUSH2 0x12EF JUMP JUMPDEST JUMPDEST DUP2 MSTORE PUSH1 0x20 ADD CALLVALUE DUP2 MSTORE POP DUP2 MSTORE PUSH1 0x20 ADD PUSH1 0x40 MLOAD DUP1 PUSH1 0x80 ADD PUSH1 0x40 MSTORE DUP1 PUSH1 0x0 PUSH1 0x2 DUP2 GT ISZERO PUSH2 0x223 JUMPI PUSH2 0x222 PUSH2 0x12EF JUMP JUMPDEST JUMPDEST DUP2 MSTORE PUSH1 0x20 ADD CALLER PUSH20 0xFFFFFFFFFFFFFFFFFFFFFFFFFFFFFFFFFFFFFFFF AND DUP2 MSTORE PUSH1 0x20 ADD PUSH1 0x3 DUP1 DUP2 GT ISZERO PUSH2 0x257 JUMPI PUSH2 0x256 PUSH2 0x12EF JUMP JUMPDEST JUMPDEST DUP2 MSTORE PUSH1 0x20 ADD PUSH1 0x0 DUP2 MSTORE POP DUP2 MSTORE POP PUSH1 0x0 DUP1 PUSH1 0x1 SLOAD DUP2 MSTORE PUSH1 0x20 ADD SWAP1 DUP2 MSTORE PUSH1 0x20 ADD PUSH1 0x0 KECCAK256 PUSH1 0x0 DUP3 ADD MLOAD DUP2 PUSH1 0x0 ADD SSTORE PUSH1 0x20 DUP3 ADD MLOAD DUP2 PUSH1 0x1 ADD PUSH1 0x0 PUSH2 0x100 EXP DUP2 SLOAD DUP2 PUSH1 0xFF MUL NOT AND SWAP1 DUP4 PUSH1 0x3 DUP2 GT ISZERO PUSH2 0x2AD JUMPI PUSH2 0x2AC PUSH2 0x12EF JUMP JUMPDEST JUMPDEST MUL OR SWAP1 SSTORE POP PUSH1 0x40 DUP3 ADD MLOAD DUP2 PUSH1 0x2 ADD PUSH1 0x0 DUP3 ADD MLOAD DUP2 PUSH1 0x0 ADD PUSH1 0x0 PUSH2 0x100 EXP DUP2 SLOAD DUP2 PUSH1 0xFF MUL NOT AND SWAP1 DUP4 PUSH1 0x2 DUP2 GT ISZERO PUSH2 0x2E6 JUMPI PUSH2 0x2E5 PUSH2 0x12EF JUMP JUMPDEST JUMPDEST MUL OR SWAP1 SSTORE POP PUSH1 0x20 DUP3 ADD MLOAD DUP2 PUSH1 0x0 ADD PUSH1 0x1 PUSH2 0x100 EXP DUP2 SLOAD DUP2 PUSH20 0xFFFFFFFFFFFFFFFFFFFFFFFFFFFFFFFFFFFFFFFF MUL NOT AND SWAP1 DUP4 PUSH20 0xFFFFFFFFFFFFFFFFFFFFFFFFFFFFFFFFFFFFFFFF AND MUL OR SWAP1 SSTORE POP PUSH1 0x40 DUP3 ADD MLOAD DUP2 PUSH1 0x0 ADD PUSH1 0x15 PUSH2 0x100 EXP DUP2 SLOAD DUP2 PUSH1 0xFF MUL NOT AND SWAP1 DUP4 PUSH1 0x3 DUP2 GT ISZERO PUSH2 0x35D JUMPI PUSH2 0x35C PUSH2 0x12EF JUMP JUMPDEST JUMPDEST MUL OR SWAP1 SSTORE POP PUSH1 0x60 DUP3 ADD MLOAD DUP2 PUSH1 0x1 ADD SSTORE POP POP PUSH1 0x60 DUP3 ADD MLOAD DUP2 PUSH1 0x4 ADD PUSH1 0x0 DUP3 ADD MLOAD DUP2 PUSH1 0x0 ADD PUSH1 0x0 PUSH2 0x100 EXP DUP2 SLOAD DUP2 PUSH1 0xFF MUL NOT AND SWAP1 DUP4 PUSH1 0x2 DUP2 GT ISZERO PUSH2 0x3A2 JUMPI PUSH2 0x3A1 PUSH2 0x12EF JUMP JUMPDEST JUMPDEST MUL OR SWAP1 SSTORE POP PUSH1 0x20 DUP3 ADD MLOAD DUP2 PUSH1 0x0 ADD PUSH1 0x1 PUSH2 0x100 EXP DUP2 SLOAD DUP2 PUSH20 0xFFFFFFFFFFFFFFFFFFFFFFFFFFFFFFFFFFFFFFFF MUL NOT AND SWAP1 DUP4 PUSH20 0xFFFFFFFFFFFFFFFFFFFFFFFFFFFFFFFFFFFFFFFF AND MUL OR SWAP1 SSTORE POP PUSH1 0x40 DUP3 ADD MLOAD DUP2 PUSH1 0x0 ADD PUSH1 0x15 PUSH2 0x100 EXP DUP2 SLOAD DUP2 PUSH1 0xFF MUL NOT AND SWAP1 DUP4 PUSH1 0x3 DUP2 GT ISZERO PUSH2 0x419 JUMPI PUSH2 0x418 PUSH2 0x12EF JUMP JUMPDEST JUMPDEST MUL OR SWAP1 SSTORE POP PUSH1 0x60 DUP3 ADD MLOAD DUP2 PUSH1 0x1 ADD SSTORE POP POP SWAP1 POP POP PUSH1 0x1 SLOAD SWAP2 POP PUSH1 0x1 DUP1 SLOAD PUSH2 0x440 SWAP2 SWAP1 PUSH2 0x1152 JUMP JUMPDEST PUSH1 0x1 DUP2 SWAP1 SSTORE POP POP SWAP2 SWAP1 POP JUMP JUMPDEST PUSH1 0x0 DUP1 DUP4 EQ DUP1 PUSH2 0x45C JUMPI POP PUSH1 0x1 DUP4 EQ JUMPDEST DUP1 PUSH2 0x467 JUMPI POP PUSH1 0x2 DUP4 EQ JUMPDEST PUSH2 0x470 JUMPI PUSH1 0x0 DUP1 REVERT JUMPDEST DUP3 DUP3 PUSH1 0x40 MLOAD PUSH1 0x20 ADD PUSH2 0x483 SWAP3 SWAP2 SWAP1 PUSH2 0x10F0 JUMP JUMPDEST PUSH1 0x40 MLOAD PUSH1 0x20 DUP2 DUP4 SUB SUB DUP2 MSTORE SWAP1 PUSH1 0x40 MSTORE DUP1 MLOAD SWAP1 PUSH1 0x20 ADD KECCAK256 SWAP1 POP SWAP3 SWAP2 POP POP JUMP JUMPDEST DUP1 PUSH1 0x0 PUSH1 0x2 DUP2 GT ISZERO PUSH2 0x4B6 JUMPI PUSH2 0x4B5 PUSH2 0x12EF JUMP JUMPDEST JUMPDEST DUP2 PUSH1 0x2 DUP2 GT ISZERO PUSH2 0x4C9 JUMPI PUSH2 0x4C8 PUSH2 0x12EF JUMP JUMPDEST JUMPDEST EQ DUP1 PUSH2 0x4F9 JUMPI POP PUSH1 0x1 PUSH1 0x2 DUP2 GT ISZERO PUSH2 0x4E4 JUMPI PUSH2 0x4E3 PUSH2 0x12EF JUMP JUMPDEST JUMPDEST DUP2 PUSH1 0x2 DUP2 GT ISZERO PUSH2 0x4F7 JUMPI PUSH2 0x4F6 PUSH2 0x12EF JUMP JUMPDEST JUMPDEST EQ JUMPDEST DUP1 PUSH2 0x527 JUMPI POP PUSH1 0x2 DUP1 DUP2 GT ISZERO PUSH2 0x512 JUMPI PUSH2 0x511 PUSH2 0x12EF JUMP JUMPDEST JUMPDEST DUP2 PUSH1 0x2 DUP2 GT ISZERO PUSH2 0x525 JUMPI PUSH2 0x524 PUSH2 0x12EF JUMP JUMPDEST JUMPDEST EQ JUMPDEST PUSH2 0x530 JUMPI PUSH1 0x0 DUP1 REVERT JUMPDEST PUSH1 0x40 MLOAD DUP1 PUSH1 0x80 ADD PUSH1 0x40 MSTORE DUP1 DUP4 PUSH1 0x2 DUP2 GT ISZERO PUSH2 0x54E JUMPI PUSH2 0x54D PUSH2 0x12EF JUMP JUMPDEST JUMPDEST DUP2 MSTORE PUSH1 0x20 ADD CALLER PUSH20 0xFFFFFFFFFFFFFFFFFFFFFFFFFFFFFFFFFFFFFFFF AND DUP2 MSTORE PUSH1 0x20 ADD PUSH1 0x3 DUP1 DUP2 GT ISZERO PUSH2 0x582 JUMPI PUSH2 0x581 PUSH2 0x12EF JUMP JUMPDEST JUMPDEST DUP2 MSTORE PUSH1 0x20 ADD CALLVALUE DUP2 MSTORE POP PUSH1 0x0 DUP1 DUP6 DUP2 MSTORE PUSH1 0x20 ADD SWAP1 DUP2 MSTORE PUSH1 0x20 ADD PUSH1 0x0 KECCAK256 PUSH1 0x4 ADD PUSH1 0x0 DUP3 ADD MLOAD DUP2 PUSH1 0x0 ADD PUSH1 0x0 PUSH2 0x100 EXP DUP2 SLOAD DUP2 PUSH1 0xFF MUL NOT AND SWAP1 DUP4 PUSH1 0x2 DUP2 GT ISZERO PUSH2 0x5CB JUMPI PUSH2 0x5CA PUSH2 0x12EF JUMP JUMPDEST JUMPDEST MUL OR SWAP1 SSTORE POP PUSH1 0x20 DUP3 ADD MLOAD DUP2 PUSH1 0x0 ADD PUSH1 0x1 PUSH2 0x100 EXP DUP2 SLOAD DUP2 PUSH20 0xFFFFFFFFFFFFFFFFFFFFFFFFFFFFFFFFFFFFFFFF MUL NOT AND SWAP1 DUP4 PUSH20 0xFFFFFFFFFFFFFFFFFFFFFFFFFFFFFFFFFFFFFFFF AND MUL OR SWAP1 SSTORE POP PUSH1 0x40 DUP3 ADD MLOAD DUP2 PUSH1 0x0 ADD PUSH1 0x15 PUSH2 0x100 EXP DUP2 SLOAD DUP2 PUSH1 0xFF MUL NOT AND SWAP1 DUP4 PUSH1 0x3 DUP2 GT ISZERO PUSH2 0x642 JUMPI PUSH2 0x641 PUSH2 0x12EF JUMP JUMPDEST JUMPDEST MUL OR SWAP1 SSTORE POP PUSH1 0x60 DUP3 ADD MLOAD DUP2 PUSH1 0x1 ADD SSTORE SWAP1 POP POP CALLVALUE PUSH1 0x0 DUP1 DUP6 DUP2 MSTORE PUSH1 0x20 ADD SWAP1 DUP2 MSTORE PUSH1 0x20 ADD PUSH1 0x0 KECCAK256 PUSH1 0x0 ADD SLOAD PUSH2 0x675 SWAP2 SWAP1 PUSH2 0x1152 JUMP JUMPDEST PUSH1 0x0 DUP1 DUP6 DUP2 MSTORE PUSH1 0x20 ADD SWAP1 DUP2 MSTORE PUSH1 0x20 ADD PUSH1 0x0 KECCAK256 PUSH1 0x0 ADD DUP2 SWAP1 SSTORE POP PUSH2 0x697 DUP4 PUSH2 0xCA0 JUMP JUMPDEST POP POP POP JUMP JUMPDEST DUP1 CALLER PUSH1 0x0 DUP1 DUP4 DUP2 MSTORE PUSH1 0x20 ADD SWAP1 DUP2 MSTORE PUSH1 0x20 ADD PUSH1 0x0 KECCAK256 PUSH1 0x2 ADD PUSH1 0x0 ADD PUSH1 0x1 SWAP1 SLOAD SWAP1 PUSH2 0x100 EXP SWAP1 DIV PUSH20 0xFFFFFFFFFFFFFFFFFFFFFFFFFFFFFFFFFFFFFFFF AND PUSH20 0xFFFFFFFFFFFFFFFFFFFFFFFFFFFFFFFFFFFFFFFF AND DUP2 PUSH20 0xFFFFFFFFFFFFFFFFFFFFFFFFFFFFFFFFFFFFFFFF AND EQ DUP1 PUSH2 0x773 JUMPI POP PUSH1 0x0 DUP1 DUP4 DUP2 MSTORE PUSH1 0x20 ADD SWAP1 DUP2 MSTORE PUSH1 0x20 ADD PUSH1 0x0 KECCAK256 PUSH1 0x4 ADD PUSH1 0x0 ADD PUSH1 0x1 SWAP1 SLOAD SWAP1 PUSH2 0x100 EXP SWAP1 DIV PUSH20 0xFFFFFFFFFFFFFFFFFFFFFFFFFFFFFFFFFFFFFFFF AND PUSH20 0xFFFFFFFFFFFFFFFFFFFFFFFFFFFFFFFFFFFFFFFF AND DUP2 PUSH20 0xFFFFFFFFFFFFFFFFFFFFFFFFFFFFFFFFFFFFFFFF AND EQ JUMPDEST PUSH2 0x77C JUMPI PUSH1 0x0 DUP1 REVERT JUMPDEST PUSH1 0x2 PUSH1 0x3 DUP2 GT ISZERO PUSH2 0x790 JUMPI PUSH2 0x78F PUSH2 0x12EF JUMP JUMPDEST JUMPDEST PUSH1 0x0 DUP1 DUP6 DUP2 MSTORE PUSH1 0x20 ADD SWAP1 DUP2 MSTORE PUSH1 0x20 ADD PUSH1 0x0 KECCAK256 PUSH1 0x2 ADD PUSH1 0x0 ADD PUSH1 0x15 SWAP1 SLOAD SWAP1 PUSH2 0x100 EXP SWAP1 DIV PUSH1 0xFF AND PUSH1 0x3 DUP2 GT ISZERO PUSH2 0x7C8 JUMPI PUSH2 0x7C7 PUSH2 0x12EF JUMP JUMPDEST JUMPDEST EQ DUP1 ISZERO PUSH2 0x81E JUMPI POP PUSH1 0x2 PUSH1 0x3 DUP2 GT ISZERO PUSH2 0x7E4 JUMPI PUSH2 0x7E3 PUSH2 0x12EF JUMP JUMPDEST JUMPDEST PUSH1 0x0 DUP1 DUP6 DUP2 MSTORE PUSH1 0x20 ADD SWAP1 DUP2 MSTORE PUSH1 0x20 ADD PUSH1 0x0 KECCAK256 PUSH1 0x4 ADD PUSH1 0x0 ADD PUSH1 0x15 SWAP1 SLOAD SWAP1 PUSH2 0x100 EXP SWAP1 DIV PUSH1 0xFF AND PUSH1 0x3 DUP2 GT ISZERO PUSH2 0x81C JUMPI PUSH2 0x81B PUSH2 0x12EF JUMP JUMPDEST JUMPDEST EQ JUMPDEST ISZERO PUSH2 0x956 JUMPI PUSH1 0x0 DUP1 DUP5 DUP2 MSTORE PUSH1 0x20 ADD SWAP1 DUP2 MSTORE PUSH1 0x20 ADD PUSH1 0x0 KECCAK256 PUSH1 0x2 ADD PUSH1 0x0 ADD PUSH1 0x1 SWAP1 SLOAD SWAP1 PUSH2 0x100 EXP SWAP1 DIV PUSH20 0xFFFFFFFFFFFFFFFFFFFFFFFFFFFFFFFFFFFFFFFF AND PUSH20 0xFFFFFFFFFFFFFFFFFFFFFFFFFFFFFFFFFFFFFFFF AND PUSH2 0x8FC PUSH1 0x0 DUP1 DUP7 DUP2 MSTORE PUSH1 0x20 ADD SWAP1 DUP2 MSTORE PUSH1 0x20 ADD PUSH1 0x0 KECCAK256 PUSH1 0x2 ADD PUSH1 0x1 ADD SLOAD SWAP1 DUP2 ISZERO MUL SWAP1 PUSH1 0x40 MLOAD PUSH1 0x0 PUSH1 0x40 MLOAD DUP1 DUP4 SUB DUP2 DUP6 DUP9 DUP9 CALL SWAP4 POP POP POP POP ISZERO DUP1 ISZERO PUSH2 0x8B9 JUMPI RETURNDATASIZE PUSH1 0x0 DUP1 RETURNDATACOPY RETURNDATASIZE PUSH1 0x0 REVERT JUMPDEST POP PUSH1 0x0 DUP1 DUP5 DUP2 MSTORE PUSH1 0x20 ADD SWAP1 DUP2 MSTORE PUSH1 0x20 ADD PUSH1 0x0 KECCAK256 PUSH1 0x4 ADD PUSH1 0x0 ADD PUSH1 0x1 SWAP1 SLOAD SWAP1 PUSH2 0x100 EXP SWAP1 DIV PUSH20 0xFFFFFFFFFFFFFFFFFFFFFFFFFFFFFFFFFFFFFFFF AND PUSH20 0xFFFFFFFFFFFFFFFFFFFFFFFFFFFFFFFFFFFFFFFF AND PUSH2 0x8FC PUSH1 0x0 DUP1 DUP7 DUP2 MSTORE PUSH1 0x20 ADD SWAP1 DUP2 MSTORE PUSH1 0x20 ADD PUSH1 0x0 KECCAK256 PUSH1 0x4 ADD PUSH1 0x1 ADD SLOAD SWAP1 DUP2 ISZERO MUL SWAP1 PUSH1 0x40 MLOAD PUSH1 0x0 PUSH1 0x40 MLOAD DUP1 DUP4 SUB DUP2 DUP6 DUP9 DUP9 CALL SWAP4 POP POP POP POP ISZERO DUP1 ISZERO PUSH2 0x950 JUMPI RETURNDATASIZE PUSH1 0x0 DUP1 RETURNDATACOPY RETURNDATASIZE PUSH1 0x0 REVERT JUMPDEST POP PUSH2 0xC5D JUMP JUMPDEST PUSH1 0x0 PUSH1 0x3 DUP2 GT ISZERO PUSH2 0x96A JUMPI PUSH2 0x969 PUSH2 0x12EF JUMP JUMPDEST JUMPDEST PUSH1 0x0 DUP1 DUP6 DUP2 MSTORE PUSH1 0x20 ADD SWAP1 DUP2 MSTORE PUSH1 0x20 ADD PUSH1 0x0 KECCAK256 PUSH1 0x2 ADD PUSH1 0x0 ADD PUSH1 0x15 SWAP1 SLOAD SWAP1 PUSH2 0x100 EXP SWAP1 DIV PUSH1 0xFF AND PUSH1 0x3 DUP2 GT ISZERO PUSH2 0x9A2 JUMPI PUSH2 0x9A1 PUSH2 0x12EF JUMP JUMPDEST JUMPDEST EQ ISZERO PUSH2 0xA41 JUMPI PUSH1 0x0 DUP1 DUP5 DUP2 MSTORE PUSH1 0x20 ADD SWAP1 DUP2 MSTORE PUSH1 0x20 ADD PUSH1 0x0 KECCAK256 PUSH1 0x2 ADD PUSH1 0x0 ADD PUSH1 0x1 SWAP1 SLOAD SWAP1 PUSH2 0x100 EXP SWAP1 DIV PUSH20 0xFFFFFFFFFFFFFFFFFFFFFFFFFFFFFFFFFFFFFFFF AND PUSH20 0xFFFFFFFFFFFFFFFFFFFFFFFFFFFFFFFFFFFFFFFF AND PUSH2 0x8FC PUSH1 0x0 DUP1 DUP7 DUP2 MSTORE PUSH1 0x20 ADD SWAP1 DUP2 MSTORE PUSH1 0x20 ADD PUSH1 0x0 KECCAK256 PUSH1 0x0 ADD SLOAD SWAP1 DUP2 ISZERO MUL SWAP1 PUSH1 0x40 MLOAD PUSH1 0x0 PUSH1 0x40 MLOAD DUP1 DUP4 SUB DUP2 DUP6 DUP9 DUP9 CALL SWAP4 POP POP POP POP ISZERO DUP1 ISZERO PUSH2 0xA3B JUMPI RETURNDATASIZE PUSH1 0x0 DUP1 RETURNDATACOPY RETURNDATASIZE PUSH1 0x0 REVERT JUMPDEST POP PUSH2 0xC5C JUMP JUMPDEST PUSH1 0x0 PUSH1 0x3 DUP2 GT ISZERO PUSH2 0xA55 JUMPI PUSH2 0xA54 PUSH2 0x12EF JUMP JUMPDEST JUMPDEST PUSH1 0x0 DUP1 DUP6 DUP2 MSTORE PUSH1 0x20 ADD SWAP1 DUP2 MSTORE PUSH1 0x20 ADD PUSH1 0x0 KECCAK256 PUSH1 0x4 ADD PUSH1 0x0 ADD PUSH1 0x15 SWAP1 SLOAD SWAP1 PUSH2 0x100 EXP SWAP1 DIV PUSH1 0xFF AND PUSH1 0x3 DUP2 GT ISZERO PUSH2 0xA8D JUMPI PUSH2 0xA8C PUSH2 0x12EF JUMP JUMPDEST JUMPDEST EQ ISZERO PUSH2 0xB2C JUMPI PUSH1 0x0 DUP1 DUP5 DUP2 MSTORE PUSH1 0x20 ADD SWAP1 DUP2 MSTORE PUSH1 0x20 ADD PUSH1 0x0 KECCAK256 PUSH1 0x4 ADD PUSH1 0x0 ADD PUSH1 0x1 SWAP1 SLOAD SWAP1 PUSH2 0x100 EXP SWAP1 DIV PUSH20 0xFFFFFFFFFFFFFFFFFFFFFFFFFFFFFFFFFFFFFFFF AND PUSH20 0xFFFFFFFFFFFFFFFFFFFFFFFFFFFFFFFFFFFFFFFF AND PUSH2 0x8FC PUSH1 0x0 DUP1 DUP7 DUP2 MSTORE PUSH1 0x20 ADD SWAP1 DUP2 MSTORE PUSH1 0x20 ADD PUSH1 0x0 KECCAK256 PUSH1 0x0 ADD SLOAD SWAP1 DUP2 ISZERO MUL SWAP1 PUSH1 0x40 MLOAD PUSH1 0x0 PUSH1 0x40 MLOAD DUP1 DUP4 SUB DUP2 DUP6 DUP9 DUP9 CALL SWAP4 POP POP POP POP ISZERO DUP1 ISZERO PUSH2 0xB26 JUMPI RETURNDATASIZE PUSH1 0x0 DUP1 RETURNDATACOPY RETURNDATASIZE PUSH1 0x0 REVERT JUMPDEST POP PUSH2 0xC5B JUMP JUMPDEST PUSH1 0x0 DUP1 DUP5 DUP2 MSTORE PUSH1 0x20 ADD SWAP1 DUP2 MSTORE PUSH1 0x20 ADD PUSH1 0x0 KECCAK256 PUSH1 0x2 ADD PUSH1 0x0 ADD PUSH1 0x1 SWAP1 SLOAD SWAP1 PUSH2 0x100 EXP SWAP1 DIV PUSH20 0xFFFFFFFFFFFFFFFFFFFFFFFFFFFFFFFFFFFFFFFF AND PUSH20 0xFFFFFFFFFFFFFFFFFFFFFFFFFFFFFFFFFFFFFFFF AND PUSH2 0x8FC PUSH1 0x0 DUP1 DUP7 DUP2 MSTORE PUSH1 0x20 ADD SWAP1 DUP2 MSTORE PUSH1 0x20 ADD PUSH1 0x0 KECCAK256 PUSH1 0x2 ADD PUSH1 0x1 ADD SLOAD SWAP1 DUP2 ISZERO MUL SWAP1 PUSH1 0x40 MLOAD PUSH1 0x0 PUSH1 0x40 MLOAD DUP1 DUP4 SUB DUP2 DUP6 DUP9 DUP9 CALL SWAP4 POP POP POP POP ISZERO DUP1 ISZERO PUSH2 0xBC2 JUMPI RETURNDATASIZE PUSH1 0x0 DUP1 RETURNDATACOPY RETURNDATASIZE PUSH1 0x0 REVERT JUMPDEST POP PUSH1 0x0 DUP1 DUP5 DUP2 MSTORE PUSH1 0x20 ADD SWAP1 DUP2 MSTORE PUSH1 0x20 ADD PUSH1 0x0 KECCAK256 PUSH1 0x4 ADD PUSH1 0x0 ADD PUSH1 0x1 SWAP1 SLOAD SWAP1 PUSH2 0x100 EXP SWAP1 DIV PUSH20 0xFFFFFFFFFFFFFFFFFFFFFFFFFFFFFFFFFFFFFFFF AND PUSH20 0xFFFFFFFFFFFFFFFFFFFFFFFFFFFFFFFFFFFFFFFF AND PUSH2 0x8FC PUSH1 0x0 DUP1 DUP7 DUP2 MSTORE PUSH1 0x20 ADD SWAP1 DUP2 MSTORE PUSH1 0x20 ADD PUSH1 0x0 KECCAK256 PUSH1 0x4 ADD PUSH1 0x1 ADD SLOAD SWAP1 DUP2 ISZERO MUL SWAP1 PUSH1 0x40 MLOAD PUSH1 0x0 PUSH1 0x40 MLOAD DUP1 DUP4 SUB DUP2 DUP6 DUP9 DUP9 CALL SWAP4 POP POP POP POP ISZERO DUP1 ISZERO PUSH2 0xC59 JUMPI RETURNDATASIZE PUSH1 0x0 DUP1 RETURNDATACOPY RETURNDATASIZE PUSH1 0x0 REVERT JUMPDEST POP JUMPDEST JUMPDEST JUMPDEST PUSH1 0x2 PUSH1 0x0 DUP1 DUP6 DUP2 MSTORE PUSH1 0x20 ADD SWAP1 DUP2 MSTORE PUSH1 0x20 ADD PUSH1 0x0 KECCAK256 PUSH1 0x1 ADD PUSH1 0x0 PUSH2 0x100 EXP DUP2 SLOAD DUP2 PUSH1 0xFF MUL NOT AND SWAP1 DUP4 PUSH1 0x3 DUP2 GT ISZERO PUSH2 0xC96 JUMPI PUSH2 0xC95 PUSH2 0x12EF JUMP JUMPDEST JUMPDEST MUL OR SWAP1 SSTORE POP POP POP POP JUMP JUMPDEST PUSH1 0x0 DUP1 PUSH1 0x0 DUP4 DUP2 MSTORE PUSH1 0x20 ADD SWAP1 DUP2 MSTORE PUSH1 0x20 ADD PUSH1 0x0 KECCAK256 PUSH1 0x2 ADD PUSH1 0x0 ADD PUSH1 0x0 SWAP1 SLOAD SWAP1 PUSH2 0x100 EXP SWAP1 DIV PUSH1 0xFF AND PUSH1 0x2 DUP2 GT ISZERO PUSH2 0xCDA JUMPI PUSH2 0xCD9 PUSH2 0x12EF JUMP JUMPDEST JUMPDEST SWAP1 POP PUSH1 0x0 DUP1 PUSH1 0x0 DUP5 DUP2 MSTORE PUSH1 0x20 ADD SWAP1 DUP2 MSTORE PUSH1 0x20 ADD PUSH1 0x0 KECCAK256 PUSH1 0x4 ADD PUSH1 0x0 ADD PUSH1 0x0 SWAP1 SLOAD SWAP1 PUSH2 0x100 EXP SWAP1 DIV PUSH1 0xFF AND PUSH1 0x2 DUP2 GT ISZERO PUSH2 0xD16 JUMPI PUSH2 0xD15 PUSH2 0x12EF JUMP JUMPDEST JUMPDEST SWAP1 POP PUSH1 0x1 PUSH1 0x0 DUP1 DUP6 DUP2 MSTORE PUSH1 0x20 ADD SWAP1 DUP2 MSTORE PUSH1 0x20 ADD PUSH1 0x0 KECCAK256 PUSH1 0x1 ADD PUSH1 0x0 PUSH2 0x100 EXP DUP2 SLOAD DUP2 PUSH1 0xFF MUL NOT AND SWAP1 DUP4 PUSH1 0x3 DUP2 GT ISZERO PUSH2 0xD51 JUMPI PUSH2 0xD50 PUSH2 0x12EF JUMP JUMPDEST JUMPDEST MUL OR SWAP1 SSTORE POP DUP2 PUSH1 0xFF AND DUP2 PUSH1 0xFF AND EQ ISZERO PUSH2 0xDEB JUMPI PUSH1 0x2 PUSH1 0x0 DUP1 DUP6 DUP2 MSTORE PUSH1 0x20 ADD SWAP1 DUP2 MSTORE PUSH1 0x20 ADD PUSH1 0x0 KECCAK256 PUSH1 0x2 ADD PUSH1 0x0 ADD PUSH1 0x15 PUSH2 0x100 EXP DUP2 SLOAD DUP2 PUSH1 0xFF MUL NOT AND SWAP1 DUP4 PUSH1 0x3 DUP2 GT ISZERO PUSH2 0xDA0 JUMPI PUSH2 0xD9F PUSH2 0x12EF JUMP JUMPDEST JUMPDEST MUL OR SWAP1 SSTORE POP PUSH1 0x2 PUSH1 0x0 DUP1 DUP6 DUP2 MSTORE PUSH1 0x20 ADD SWAP1 DUP2 MSTORE PUSH1 0x20 ADD PUSH1 0x0 KECCAK256 PUSH1 0x4 ADD PUSH1 0x0 ADD PUSH1 0x15 PUSH2 0x100 EXP DUP2 SLOAD DUP2 PUSH1 0xFF MUL NOT AND SWAP1 DUP4 PUSH1 0x3 DUP2 GT ISZERO PUSH2 0xDE1 JUMPI PUSH2 0xDE0 PUSH2 0x12EF JUMP JUMPDEST JUMPDEST MUL OR SWAP1 SSTORE POP PUSH2 0xF86 JUMP JUMPDEST DUP2 PUSH1 0xFF AND PUSH1 0x3 PUSH1 0x1 DUP4 PUSH2 0xDFE SWAP2 SWAP1 PUSH2 0x11A8 JUMP JUMPDEST PUSH2 0xE08 SWAP2 SWAP1 PUSH2 0x1260 JUMP JUMPDEST PUSH1 0xFF AND EQ ISZERO PUSH2 0xE98 JUMPI PUSH1 0x0 DUP1 PUSH1 0x0 DUP6 DUP2 MSTORE PUSH1 0x20 ADD SWAP1 DUP2 MSTORE PUSH1 0x20 ADD PUSH1 0x0 KECCAK256 PUSH1 0x2 ADD PUSH1 0x0 ADD PUSH1 0x15 PUSH2 0x100 EXP DUP2 SLOAD DUP2 PUSH1 0xFF MUL NOT AND SWAP1 DUP4 PUSH1 0x3 DUP2 GT ISZERO PUSH2 0xE4D JUMPI PUSH2 0xE4C PUSH2 0x12EF JUMP JUMPDEST JUMPDEST MUL OR SWAP1 SSTORE POP PUSH1 0x1 PUSH1 0x0 DUP1 DUP6 DUP2 MSTORE PUSH1 0x20 ADD SWAP1 DUP2 MSTORE PUSH1 0x20 ADD PUSH1 0x0 KECCAK256 PUSH1 0x4 ADD PUSH1 0x0 ADD PUSH1 0x15 PUSH2 0x100 EXP DUP2 SLOAD DUP2 PUSH1 0xFF MUL NOT AND SWAP1 DUP4 PUSH1 0x3 DUP2 GT ISZERO PUSH2 0xE8E JUMPI PUSH2 0xE8D PUSH2 0x12EF JUMP JUMPDEST JUMPDEST MUL OR SWAP1 SSTORE POP PUSH2 0xF85 JUMP JUMPDEST DUP1 PUSH1 0xFF AND PUSH1 0x3 PUSH1 0x1 DUP5 PUSH2 0xEAB SWAP2 SWAP1 PUSH2 0x11A8 JUMP JUMPDEST PUSH2 0xEB5 SWAP2 SWAP1 PUSH2 0x1260 JUMP JUMPDEST PUSH1 0xFF AND EQ ISZERO PUSH2 0xF45 JUMPI PUSH1 0x1 PUSH1 0x0 DUP1 DUP6 DUP2 MSTORE PUSH1 0x20 ADD SWAP1 DUP2 MSTORE PUSH1 0x20 ADD PUSH1 0x0 KECCAK256 PUSH1 0x2 ADD PUSH1 0x0 ADD PUSH1 0x15 PUSH2 0x100 EXP DUP2 SLOAD DUP2 PUSH1 0xFF MUL NOT AND SWAP1 DUP4 PUSH1 0x3 DUP2 GT ISZERO PUSH2 0xEFA JUMPI PUSH2 0xEF9 PUSH2 0x12EF JUMP JUMPDEST JUMPDEST MUL OR SWAP1 SSTORE POP PUSH1 0x0 DUP1 PUSH1 0x0 DUP6 DUP2 MSTORE PUSH1 0x20 ADD SWAP1 DUP2 MSTORE PUSH1 0x20 ADD PUSH1 0x0 KECCAK256 PUSH1 0x4 ADD PUSH1 0x0 ADD PUSH1 0x15 PUSH2 0x100 EXP DUP2 SLOAD DUP2 PUSH1 0xFF MUL NOT AND SWAP1 DUP4 PUSH1 0x3 DUP2 GT ISZERO PUSH2 0xF3B JUMPI PUSH2 0xF3A PUSH2 0x12EF JUMP JUMPDEST JUMPDEST MUL OR SWAP1 SSTORE POP PUSH2 0xF84 JUMP JUMPDEST PUSH1 0x3 PUSH1 0x0 DUP1 DUP6 DUP2 MSTORE PUSH1 0x20 ADD SWAP1 DUP2 MSTORE PUSH1 0x20 ADD PUSH1 0x0 KECCAK256 PUSH1 0x1 ADD PUSH1 0x0 PUSH2 0x100 EXP DUP2 SLOAD DUP2 PUSH1 0xFF MUL NOT AND SWAP1 DUP4 PUSH1 0x3 DUP2 GT ISZERO PUSH2 0xF7E JUMPI PUSH2 0xF7D PUSH2 0x12EF JUMP JUMPDEST JUMPDEST MUL OR SWAP1 SSTORE POP JUMPDEST JUMPDEST JUMPDEST POP POP POP JUMP JUMPDEST PUSH1 0x0 DUP2 CALLDATALOAD SWAP1 POP PUSH2 0xF9A DUP2 PUSH2 0x1330 JUMP JUMPDEST SWAP3 SWAP2 POP POP JUMP JUMPDEST PUSH1 0x0 DUP2 CALLDATALOAD SWAP1 POP PUSH2 0xFAF DUP2 PUSH2 0x1347 JUMP JUMPDEST SWAP3 SWAP2 POP POP JUMP JUMPDEST PUSH1 0x0 DUP2 CALLDATALOAD SWAP1 POP PUSH2 0xFC4 DUP2 PUSH2 0x1357 JUMP JUMPDEST SWAP3 SWAP2 POP POP JUMP JUMPDEST PUSH1 0x0 PUSH1 0x20 DUP3 DUP5 SUB SLT ISZERO PUSH2 0xFE0 JUMPI PUSH2 0xFDF PUSH2 0x131E JUMP JUMPDEST JUMPDEST PUSH1 0x0 PUSH2 0xFEE DUP5 DUP3 DUP6 ADD PUSH2 0xFA0 JUMP JUMPDEST SWAP2 POP POP SWAP3 SWAP2 POP POP JUMP JUMPDEST PUSH1 0x0 PUSH1 0x20 DUP3 DUP5 SUB SLT ISZERO PUSH2 0x100D JUMPI PUSH2 0x100C PUSH2 0x131E JUMP JUMPDEST JUMPDEST PUSH1 0x0 PUSH2 0x101B DUP5 DUP3 DUP6 ADD PUSH2 0xFB5 JUMP JUMPDEST SWAP2 POP POP SWAP3 SWAP2 POP POP JUMP JUMPDEST PUSH1 0x0 DUP1 PUSH1 0x40 DUP4 DUP6 SUB SLT ISZERO PUSH2 0x103B JUMPI PUSH2 0x103A PUSH2 0x131E JUMP JUMPDEST JUMPDEST PUSH1 0x0 PUSH2 0x1049 DUP6 DUP3 DUP7 ADD PUSH2 0xFB5 JUMP JUMPDEST SWAP3 POP POP PUSH1 0x20 PUSH2 0x105A DUP6 DUP3 DUP7 ADD PUSH2 0xF8B JUMP JUMPDEST SWAP2 POP POP SWAP3 POP SWAP3 SWAP1 POP JUMP JUMPDEST PUSH1 0x0 DUP1 PUSH1 0x40 DUP4 DUP6 SUB SLT ISZERO PUSH2 0x107B JUMPI PUSH2 0x107A PUSH2 0x131E JUMP JUMPDEST JUMPDEST PUSH1 0x0 PUSH2 0x1089 DUP6 DUP3 DUP7 ADD PUSH2 0xFB5 JUMP JUMPDEST SWAP3 POP POP PUSH1 0x20 PUSH2 0x109A DUP6 DUP3 DUP7 ADD PUSH2 0xFA0 JUMP JUMPDEST SWAP2 POP POP SWAP3 POP SWAP3 SWAP1 POP JUMP JUMPDEST PUSH2 0x10B5 PUSH2 0x10B0 DUP3 PUSH2 0x11DF JUMP JUMPDEST PUSH2 0x1232 JUMP JUMPDEST DUP3 MSTORE POP POP JUMP JUMPDEST PUSH2 0x10C4 DUP2 PUSH2 0x11F1 JUMP JUMPDEST DUP3 MSTORE POP POP JUMP JUMPDEST PUSH2 0x10D3 DUP2 PUSH2 0x121B JUMP JUMPDEST DUP3 MSTORE POP POP JUMP JUMPDEST PUSH2 0x10EA PUSH2 0x10E5 DUP3 PUSH2 0x121B JUMP JUMPDEST PUSH2 0x1256 JUMP JUMPDEST DUP3 MSTORE POP POP JUMP JUMPDEST PUSH1 0x0 PUSH2 0x10FC DUP3 DUP6 PUSH2 0x10D9 JUMP JUMPDEST PUSH1 0x20 DUP3 ADD SWAP2 POP PUSH2 0x110C DUP3 DUP5 PUSH2 0x10A4 JUMP JUMPDEST PUSH1 0x14 DUP3 ADD SWAP2 POP DUP2 SWAP1 POP SWAP4 SWAP3 POP POP POP JUMP JUMPDEST PUSH1 0x0 PUSH1 0x20 DUP3 ADD SWAP1 POP PUSH2 0x1131 PUSH1 0x0 DUP4 ADD DUP5 PUSH2 0x10BB JUMP JUMPDEST SWAP3 SWAP2 POP POP JUMP JUMPDEST PUSH1 0x0 PUSH1 0x20 DUP3 ADD SWAP1 POP PUSH2 0x114C PUSH1 0x0 DUP4 ADD DUP5 PUSH2 0x10CA JUMP JUMPDEST SWAP3 SWAP2 POP POP JUMP JUMPDEST PUSH1 0x0 PUSH2 0x115D DUP3 PUSH2 0x121B JUMP JUMPDEST SWAP2 POP PUSH2 0x1168 DUP4 PUSH2 0x121B JUMP JUMPDEST SWAP3 POP DUP3 PUSH32 0xFFFFFFFFFFFFFFFFFFFFFFFFFFFFFFFFFFFFFFFFFFFFFFFFFFFFFFFFFFFFFFFF SUB DUP3 GT ISZERO PUSH2 0x119D JUMPI PUSH2 0x119C PUSH2 0x1291 JUMP JUMPDEST JUMPDEST DUP3 DUP3 ADD SWAP1 POP SWAP3 SWAP2 POP POP JUMP JUMPDEST PUSH1 0x0 PUSH2 0x11B3 DUP3 PUSH2 0x1225 JUMP JUMPDEST SWAP2 POP PUSH2 0x11BE DUP4 PUSH2 0x1225 JUMP JUMPDEST SWAP3 POP DUP3 PUSH1 0xFF SUB DUP3 GT ISZERO PUSH2 0x11D4 JUMPI PUSH2 0x11D3 PUSH2 0x1291 JUMP JUMPDEST JUMPDEST DUP3 DUP3 ADD SWAP1 POP SWAP3 SWAP2 POP POP JUMP JUMPDEST PUSH1 0x0 PUSH2 0x11EA DUP3 PUSH2 0x11FB JUMP JUMPDEST SWAP1 POP SWAP2 SWAP1 POP JUMP JUMPDEST PUSH1 0x0 DUP2 SWAP1 POP SWAP2 SWAP1 POP JUMP JUMPDEST PUSH1 0x0 PUSH20 0xFFFFFFFFFFFFFFFFFFFFFFFFFFFFFFFFFFFFFFFF DUP3 AND SWAP1 POP SWAP2 SWAP1 POP JUMP JUMPDEST PUSH1 0x0 DUP2 SWAP1 POP SWAP2 SWAP1 POP JUMP JUMPDEST PUSH1 0x0 PUSH1 0xFF DUP3 AND SWAP1 POP SWAP2 SWAP1 POP JUMP JUMPDEST PUSH1 0x0 PUSH2 0x123D DUP3 PUSH2 0x1244 JUMP JUMPDEST SWAP1 POP SWAP2 SWAP1 POP JUMP JUMPDEST PUSH1 0x0 PUSH2 0x124F DUP3 PUSH2 0x1323 JUMP JUMPDEST SWAP1 POP SWAP2 SWAP1 POP JUMP JUMPDEST PUSH1 0x0 DUP2 SWAP1 POP SWAP2 SWAP1 POP JUMP JUMPDEST PUSH1 0x0 PUSH2 0x126B DUP3 PUSH2 0x1225 JUMP JUMPDEST SWAP2 POP PUSH2 0x1276 DUP4 PUSH2 0x1225 JUMP JUMPDEST SWAP3 POP DUP3 PUSH2 0x1286 JUMPI PUSH2 0x1285 PUSH2 0x12C0 JUMP JUMPDEST JUMPDEST DUP3 DUP3 MOD SWAP1 POP SWAP3 SWAP2 POP POP JUMP JUMPDEST PUSH32 0x4E487B7100000000000000000000000000000000000000000000000000000000 PUSH1 0x0 MSTORE PUSH1 0x11 PUSH1 0x4 MSTORE PUSH1 0x24 PUSH1 0x0 REVERT JUMPDEST PUSH32 0x4E487B7100000000000000000000000000000000000000000000000000000000 PUSH1 0x0 MSTORE PUSH1 0x12 PUSH1 0x4 MSTORE PUSH1 0x24 PUSH1 0x0 REVERT JUMPDEST PUSH32 0x4E487B7100000000000000000000000000000000000000000000000000000000 PUSH1 0x0 MSTORE PUSH1 0x21 PUSH1 0x4 MSTORE PUSH1 0x24 PUSH1 0x0 REVERT JUMPDEST PUSH1 0x0 DUP1 REVERT JUMPDEST PUSH1 0x0 DUP2 PUSH1 0x60 SHL SWAP1 POP SWAP2 SWAP1 POP JUMP JUMPDEST PUSH2 0x1339 DUP2 PUSH2 0x11DF JUMP JUMPDEST DUP2 EQ PUSH2 0x1344 JUMPI PUSH1 0x0 DUP1 REVERT JUMPDEST POP JUMP JUMPDEST PUSH1 0x3 DUP2 LT PUSH2 0x1354 JUMPI PUSH1 0x0 DUP1 REVERT JUMPDEST POP JUMP JUMPDEST PUSH2 0x1360 DUP2 PUSH2 0x121B JUMP JUMPDEST DUP2 EQ PUSH2 0x136B JUMPI PUSH1 0x0 DUP1 REVERT JUMPDEST POP JUMP INVALID LOG2 PUSH5 0x6970667358 0x22 SLT KECCAK256 0xD7 DELEGATECALL REVERT GT PUSH16 0x5A3473BF0D2F40F5C83FC0D81C39C9F1 AND 0xE PUSH14 0x537D670F6A5703F864736F6C6343 STOP ADDMOD SMOD STOP CALLER "
				},
				"gasEstimates": {
					"creation": {
						"codeDepositCost": "1005600",
						"executionCost": "6029",
						"totalCost": "1011629"
					},
					"external": {
						"Encryption(uint256,address)": "infinite",
						"createRoom(uint8)": "infinite",
						"joinRoom(uint256,uint8)": "infinite",
						"payout(uint256)": "infinite"
					},
					"internal": {
						"compareHands(uint256)": "infinite"
					}
				},
				"methodIdentifiers": {
					"Encryption(uint256,address)": "7581a183",
					"createRoom(uint8)": "0f36f3b5",
					"joinRoom(uint256,uint8)": "79b15776",
					"payout(uint256)": "e1152343"
				}
			},
			"storageLayout": {
				"storage": [
					{
						"astId": 47,
						"contract": "rsp_all.sol:RPS",
						"label": "rooms",
						"offset": 0,
						"slot": "0",
						"type": "t_mapping(t_uint256,t_struct(Game)42_storage)"
					},
					{
						"astId": 50,
						"contract": "rsp_all.sol:RPS",
						"label": "roomLen",
						"offset": 0,
						"slot": "1",
						"type": "t_uint256"
					}
				],
				"types": {
					"t_address_payable": {
						"encoding": "inplace",
						"label": "address payable",
						"numberOfBytes": "20"
					},
					"t_enum(GameStatus)19": {
						"encoding": "inplace",
						"label": "enum RPS.GameStatus",
						"numberOfBytes": "1"
					},
					"t_enum(Hand)9": {
						"encoding": "inplace",
						"label": "enum RPS.Hand",
						"numberOfBytes": "1"
					},
					"t_enum(PlayerStatus)14": {
						"encoding": "inplace",
						"label": "enum RPS.PlayerStatus",
						"numberOfBytes": "1"
					},
					"t_mapping(t_uint256,t_struct(Game)42_storage)": {
						"encoding": "mapping",
						"key": "t_uint256",
						"label": "mapping(uint256 => struct RPS.Game)",
						"numberOfBytes": "32",
						"value": "t_struct(Game)42_storage"
					},
					"t_struct(Game)42_storage": {
						"encoding": "inplace",
						"label": "struct RPS.Game",
						"members": [
							{
								"astId": 32,
								"contract": "rsp_all.sol:RPS",
								"label": "betAmount",
								"offset": 0,
								"slot": "0",
								"type": "t_uint256"
							},
							{
								"astId": 35,
								"contract": "rsp_all.sol:RPS",
								"label": "gameStatus",
								"offset": 0,
								"slot": "1",
								"type": "t_enum(GameStatus)19"
							},
							{
								"astId": 38,
								"contract": "rsp_all.sol:RPS",
								"label": "originator",
								"offset": 0,
								"slot": "2",
								"type": "t_struct(Player)30_storage"
							},
							{
								"astId": 41,
								"contract": "rsp_all.sol:RPS",
								"label": "taker",
								"offset": 0,
								"slot": "4",
								"type": "t_struct(Player)30_storage"
							}
						],
						"numberOfBytes": "192"
					},
					"t_struct(Player)30_storage": {
						"encoding": "inplace",
						"label": "struct RPS.Player",
						"members": [
							{
								"astId": 22,
								"contract": "rsp_all.sol:RPS",
								"label": "hand",
								"offset": 0,
								"slot": "0",
								"type": "t_enum(Hand)9"
							},
							{
								"astId": 24,
								"contract": "rsp_all.sol:RPS",
								"label": "addr",
								"offset": 1,
								"slot": "0",
								"type": "t_address_payable"
							},
							{
								"astId": 27,
								"contract": "rsp_all.sol:RPS",
								"label": "playerStatus",
								"offset": 21,
								"slot": "0",
								"type": "t_enum(PlayerStatus)14"
							},
							{
								"astId": 29,
								"contract": "rsp_all.sol:RPS",
								"label": "playerBetAmount",
								"offset": 0,
								"slot": "1",
								"type": "t_uint256"
							}
						],
						"numberOfBytes": "64"
					},
					"t_uint256": {
						"encoding": "inplace",
						"label": "uint256",
						"numberOfBytes": "32"
					}
				}
			},
			"userdoc": {
				"kind": "user",
				"methods": {},
				"version": 1
			}
		}
	}
}